:020000040800F2
:1000000000800120D92B00085D1600086116000849
:1000100065160008691600086D160008000000004B
:100020000000000000000000000000007116000841
:100030007516000800000000791600087D160008FB
:10004000292C0008292C0008292C0008292C00083C
:10005000292C0008292C0008292C0008292C00082C
:10006000292C0008292C0008292C0008292C00081C
:10007000292C0008292C0008292C0008292C00080C
:10008000292C0008292C0008292C00080000000059
:10009000000000000000000000000000292C000803
:1000A000292C0008292C0008292C0008292C0008DC
:1000B000292C0008292C0008292C0008292C0008CC
:1000C000292C0008292C0008292C0008292C0008BC
:1000D000292C0008292C0008292C00080000000009
:1000E000292C0008292C0008292C000800000000F9
:1000F000000000000000000000000000292C0008A3
:1001000000000000292C0008292C0008292C0008D8
:1001100000000000000000000000000000000000DF
:10012000292C0008292C0008292C0008292C00085B
:10013000292C000800000000000000000000000062
:10014000000000000000000000000000292C000852
:10015000292C0008292C0008292C0008292C00082B
:10016000292C0008292C00080000000000000000D5
:10017000000000000000000000000000000000007F
:1001800000000000292C0008000000000000000012
:04019000292C00080E
:10019800044B05481B1A062B02D9044B03B1184718
:1001A800704700BF730000207000002000000000AE
:1001B80005490648091A891001EBD171491002D086
:1001C800034B03B1184770477000002070000020EF
:1001D8000000000010B5064C237843B9FFF7D8FF9C
:1001E800044B13B10448AFF300800123237010BD02
:1001F8007000002000000000C048000808B5084B47
:100208001BB108480849AFF300800848036813B9D0
:10021800BDE80840CCE7064B002BF9D09847F7E734
:1002280000000000C0480008740000207000002092
:100238000000000081F0004102E000BF83F00043AD
:1002480030B54FEA41044FEA430594EA050F08BF69
:1002580090EA020F1FBF54EA000C55EA020C7FEA2D
:10026800645C7FEA655C00F0E2804FEA5454D4EBAA
:100278005555B8BF6D420CDD2C4480EA020281EA74
:10028800030382EA000083EA010180EA020281EAAC
:100298000303362D88BF30BD11F0004F4FEA0131FE
:1002A8004FF4801C4CEA113102D0404261EB41010D
:1002B80013F0004F4FEA03334CEA133302D0524293
:1002C80063EB430394EA050F00F0A780A4F101044F
:1002D800D5F1200E0DDB02FA0EFC22FA05F2801889
:1002E80041F1000103FA0EF2801843FA05F359416F
:1002F8000EE0A5F120050EF1200E012A03FA0EFCEE
:1003080028BF4CF0020C43FA05F3C01851EBE37117
:1003180001F0004507D54FF0000EDCF1000C7EEB34
:1003280000006EEB0101B1F5801F1BD3B1F5001F72
:100338000CD349085FEA30004FEA3C0C04F1010491
:100348004FEA445212F5800F80F09A80BCF1004FBA
:1003580008BF5FEA500C50F1000041EB045141EA3C
:10036800050130BD5FEA4C0C404141EB010111F43D
:10037800801FA4F10104E9D191F0000F04BF0146E8
:100388000020B1FA81F308BF2033A3F10B03B3F1C6
:1003980020020CDA0C3208DD02F1140CC2F10C0256
:1003A80001FA0CF021FA02F10CE002F11402D8BFB4
:1003B800C2F1200C01FA02F120FA0CFCDCBF41EA80
:1003C8000C019040E41AA2BF01EB0451294330BD4F
:1003D8006FEA04041F3C1CDA0C340EDC04F114042C
:1003E800C4F1200220FA04F001FA02F340EA030003
:1003F80021FA04F345EA030130BDC4F10C04C4F149
:10040800200220FA02F001FA04F340EA0300294628
:1004180030BD21FA04F0294630BD94F0000F83F472
:10042800801306BF81F480110134013D4EE77FEA55
:10043800645C18BF7FEA655C29D094EA050F08BFA1
:1004480090EA020F05D054EA000C04BF1946104682
:1004580030BD91EA030F1EBF0021002030BD5FEAC6
:10046800545C05D14000494128BF41F0004130BDEE
:1004780014F580043CBF01F5801130BD01F0004542
:1004880045F0FE4141F470014FF0000030BD7FEAB5
:10049800645C1ABF194610467FEA655C1CBF0B46B0
:1004A800024650EA013406BF52EA033591EA030FC7
:1004B80041F4002130BD00BF90F0000F04BF0021BF
:1004C800704730B54FF4806404F132044FF00005F2
:1004D8004FF0000150E700BF90F0000F04BF00216B
:1004E800704730B54FF4806404F1320410F00045D1
:1004F80048BF40424FF000013EE700BF42004FEACC
:10050800E2014FEA31014FEA02701FBF12F07F4348
:1005180093F07F4F81F06051704792F0000F14BF45
:1005280093F07F4F704730B54FF4607401F0004589
:1005380021F0004120E700BF50EA010208BF7047E0
:1005480030B54FF000050AE050EA010208BF7047D5
:1005580030B511F0004502D5404261EB41014FF43E
:10056800806404F132045FEA915C3FF4DCAE4FF042
:1005780003025FEADC0C18BF03325FEADC0C18BF29
:10058800033202EBDC02C2F1200300FA03FC20FA7A
:1005980002F001FA03FE40EA0E0021FA02F11444C7
:1005A800C1E600BF70B54FF0FF0C4CF4E06C1CEADC
:1005B80011541DBF1CEA135594EA0C0F95EA0C0F51
:1005C80000F0DEF82C4481EA030621EA4C5123EAC4
:1005D8004C5350EA013518BF52EA033541F48011F3
:1005E80043F4801338D0A0FB02CE4FF00005E1FBA6
:1005F80002E506F00042E0FB03E54FF00006E1FBF0
:1006080003569CF0000F18BF4EF0010EA4F1FF0432
:10061800B6F5007F64F5407404D25FEA4E0E6D4172
:1006280046EB060642EAC62141EA55514FEAC52083
:1006380040EA5E504FEACE2EB4F1FD0C88BFBCF5FF
:10064800E06F1ED8BEF1004F08BF5FEA500E50F1B0
:10065800000041EB045170BD06F0004646EA010176
:1006680040EA020081EA0301B4EB5C04C2BFD4EBA8
:100678000C0541EA045170BD41F480114FF0000EA1
:10068800013C00F3AB8014F1360FDEBF002001F00F
:10069800004170BDC4F10004203C35DA0C341BDC89
:1006A80004F11404C4F1200500FA05F320FA04F05B
:1006B80001FA05F240EA020001F0004221F000418F
:1006C80010EBD37021FA04F642EB06015EEA430E02
:1006D80008BF20EAD37070BDC4F10C04C4F1200532
:1006E80000FA04F320FA05F001FA04F240EA0200E5
:1006F80001F0004110EBD37041F100015EEA430EB6
:1007080008BF20EAD37070BDC4F1200500FA05F2D5
:100718004EEA020E20FA04F301FA05F243EA020354
:1007280021FA04F001F0004121FA04F220EA020063
:1007380000EBD3705EEA430E08BF20EAD37070BDA9
:1007480094F0000F0FD101F00046400041EB010189
:1007580011F4801F08BF013CF7D041EA060195F06B
:10076800000F18BF704703F00046520043EB030325
:1007780013F4801F08BF013DF7D043EA0603704712
:1007880094EA0C0F0CEA135518BF95EA0C0F0CD01D
:1007980050EA410618BF52EA4306D1D181EA030163
:1007A80001F000414FF0000070BD50EA410606BF5D
:1007B8001046194652EA430619D094EA0C0F02D1A2
:1007C80050EA013613D195EA0C0F05D152EA0336E7
:1007D8001CBF104619460AD181EA030101F0004105
:1007E80041F0FE4141F470014FF0000070BD41F04E
:1007F800FE4141F4780170BD70B54FF0FF0C4CF428
:10080800E06C1CEA11541DBF1CEA135594EA0C0F46
:1008180095EA0C0F00F0A7F8A4EB050481EA030E93
:1008280052EA03354FEA013100F088804FEA03337A
:100838004FF0805545EA131343EA12634FEA022248
:1008480045EA111545EA10654FEA00260EF0004109
:100858009D4208BF964244F1FD0404F5407402D25B
:100868005B084FEA3202B61A65EB03055B084FEAEC
:1008780032024FF480104FF4002CB6EB020E75EBE9
:10088800030E22BFB61A754640EA0C005B084FEA11
:100898003202B6EB020E75EB030E22BFB61A75468E
:1008A80040EA5C005B084FEA3202B6EB020E75EBD9
:1008B800030E22BFB61A754640EA9C005B084FEA51
:1008C8003202B6EB020E75EB030E22BFB61A75465E
:1008D80040EADC0055EA060E18D04FEA051545EA4D
:1008E80016754FEA06164FEAC30343EA52734FEAF6
:1008F800C2025FEA1C1CC0D111F4801F0BD141EA6F
:1009080000014FF000004FF0004CB6E711F4801FD3
:1009180004BF01430020B4F1FD0C88BFBCF5E06FB3
:100928003FF6AFAEB5EB030C04BFB6EB020C5FEAC3
:10093800500C50F1000041EB045170BD0EF0004E18
:100948004EEA113114EB5C04C2BFD4EB0C0541EA4A
:10095800045170BD41F480114FF0000E013C90E647
:1009680045EA060E8DE60CEA135594EA0C0F08BF0B
:1009780095EA0C0F3FF43BAF94EA0C0F0AD150EA0A
:1009880001347FF434AF95EA0C0F7FF425AF10469D
:1009980019462CE795EA0C0F06D152EA03353FF4C5
:1009A800FDAE1046194622E750EA410618BF52EA42
:1009B80043067FF4C5AE50EA41047FF40DAF52EA16
:1009C80043057FF4EBAE12E74FF0FF3C06E000BFB3
:1009D8004FF0010C02E000BF4FF0010C4DF804CDC0
:1009E8004FEA410C7FEA6C5C4FEA430C18BF7FEA80
:1009F8006C5C1BD001B050EA410C0CBF52EA430CAE
:100A080091EA030F02BF90EA020F0020704710F12D
:100A1800000F91EA030F58BF994208BF90422CBFBC
:100A2800D8176FEAE37040F0010070474FEA410CB5
:100A38007FEA6C5C02D150EA013C07D14FEA430CD3
:100A48007FEA6C5CD6D152EA033CD3D05DF8040B44
:100A5800704700BF8446104662468C461946634676
:100A680000E000BF01B5FFF7B7FF002848BF10F14D
:100A7800000F01BD4DF808EDFFF7F4FF0CBF012092
:100A880000205DF808FB00BF4DF808EDFFF7EAFF0E
:100A980034BF012000205DF808FB00BF4DF808EDC9
:100AA800FFF7E0FF94BF012000205DF808FB00BFBE
:100AB8004DF808EDFFF7CEFF94BF012000205DF848
:100AC80008FB00BF4DF808EDFFF7C4FF34BF012055
:100AD80000205DF808FB00BF4FEA410212F5001242
:100AE80015D211D56FF47873B3EB625212D94FEA6D
:100AF800C12343F0004343EA505311F0004F23FA57
:100B080002F018BF404270474FF00000704750EAAB
:100B1800013005D111F0004008BF6FF00040704768
:100B28004FF00000704700BF53B94AB9002908BF09
:100B380000281CBF4FF0FF314FF0FF3000F03CB8E9
:100B480082B0EC462DE9005000F01EF8DDF804E014
:100B580002B00CBC704700BF2DE9F041069C154659
:100B680006460F46984600F029F805FB01F300FBFE
:100B78000838A5FB0023B21A434467EB0303C4E912
:100B88000023BDE8F08100BF2DE9F041069C9046A6
:100B980006460F461D4600F05FF900FB05F5A0FB71
:100BA800082308FB0155B21A2B4467EB0303C4E979
:100BB8000023BDE8F08100BF704700BF00292DE980
:100BC800F043C0F2A6800026002BC0F29C80884625
:100BD80094469E46154604460F46002B3DD18A4250
:100BE80059D9B2FA82F33BB1C3F120029F4020FAEF
:100BF80002F29D4017439C40290C220CB7FBF1FEE2
:100C0800A8B201FB1E7742EA074700FB0EF3BB427E
:100C18000AD97F190EF1FF3280F00581BB4240F2FC
:100C28000281AEF1020E2F44FF1AA4B2B7FBF1F312
:100C380001FB137744EA074700FB03F0B84208D9E1
:100C48007F1903F1FF3280F0F080B84240F2ED8066
:100C5800023B43EA0E43002203E08B420FD90022F5
:100C68001346341C18BF012460424FF0000565EBA1
:100C780045015840514000196941BDE8F083B3FA75
:100C880083F2002A40F086808B4202D3844500F22A
:100C9800DB800123E5E712B90123B3FBF2F5B5FACE
:100CA80085F000283BD1781B4FEA154E1FFA85FCCA
:100CB8000122B0FBFEF8210C0EFB180741EA07479A
:100CC8000CFB08F3BB4207D97F1908F1FF3102D2A8
:100CD800BB4200F2BD808846FF1AA4B2B7FBFEF300
:100CE8000EFB137744EA07470CFB03FCBC4507D906
:100CF8007F1903F1FF3102D2BC4500F2A7800B46F1
:100D080043EA0843ADE752426FEA060663EB430342
:100D18005DE7404261EB41014FF0FF3654E7C0F117
:100D2800200224FA02F107FA00F385404FEA154E33
:100D3800D7401943B7FBFEF20B0C0EFB12771FFAD4
:100D480085FC43EA07430CFB02F79F4204FA00F4D0
:100D580007D95B1902F1FF3074D29F4272D9023A67
:100D68002B44DF1B89B2B7FBFEF80EFB187341EA70
:100D780003430CFB08F79F4208D95B1908F1FF31C0
:100D88005CD29F425AD9A8F102082B44D81B48EAE2
:100D980002428EE7C2F120032CFA03F10EFA02FE9A
:100DA80020FA03F741EA0E0E08FA02F028FA03F1D6
:100DB8004FEA1E453843B1FBF5F8030C05FB181143
:100DC8001FFA8EF743EA014107FB08F38B420CFA3E
:100DD80002FC09D911EB0E0108F1FF3930D28B4220
:100DE8002ED9A8F102087144C91A80B2B1FBF5F3F3
:100DF80005FB131140EA014107FB03F78F4208D9AD
:100E080011EB0E0103F1FF3016D28F4214D9023BC9
:100E1800714443EA0843C91BA3FB0C89494509D31C
:100E280005D000221DE79646FEE6134611E79440DA
:100E38004445F6D2013BF4E70346EAE78846A5E7CE
:100E4800C846D1E702468CE713460AE7023B57E754
:100E5800A8F102082F443FE72DE9F041002B44D1C7
:100E68008A42154604464FD9B2FA82F70E464FB168
:100E7800C7F12003B94020FA03F602FA07F50E433A
:100E880000FA07F44FEA154E230CB6FBFEF0AFB29A
:100E98000EFB106143EA014307FB00F1994209D9AF
:100EA8005B1900F1FF3280F0EC80994240F2E98052
:100EB80002382B445A1AA4B2B2FBFEF30EFB1322DB
:100EC80044EA024207FB03F7974208D9521903F193
:100ED800FF3180F0D880974240F2D580023B43EA48
:100EE800004000263146BDE8F0818B4247D8B3FA6E
:100EF80083F6002E48D18B4202D3824200F2CD8085
:100F080001203146BDE8F08112B90125B5FBF2F5A3
:100F1800B5FA85F8B8F1000F77D14A1B4FEA154E9C
:100F2800AFB20126B2FBFEF0230C0EFB102143EA00
:100F3800014107FB00F38B4207D9491900F1FF3241
:100F480002D28B4200F2BA801046C91AA4B2B1FB91
:100F5800FEF30EFB131144EA014407FB03F7A74213
:100F680008D9641903F1FF3280F08F80A74240F25C
:100F78008C80023B43EA00403146BDE8F081002600
:100F880030463146BDE8F081C6F1200422FA04F566
:100F9800B3402B4320FA04FC01FA06F721FA04F5C2
:100FA8004FEA134E4CEA0707B5FBFEF8390C0EFB67
:100FB80018551FFA83FC41EA05450CFB08F1A942C4
:100FC80002FA06F204D9ED1808F1FF3467D3A046F7
:100FD8006D1ABFB2B5FBFEF40EFB145547EA054186
:100FE8000CFB04FC8C4504D9C91804F1FF355CD30B
:100FF8002C4644EA0844CCEB0101A4FB02239942A5
:1010080048D344D0204600266CE7C8F1200401FAF2
:1010180008F305FA08F520FA04F7E1404FEA154EFF
:101028001F43B1FBFEF63A0C0EFB16111FFA85FCA6
:1010380042EA01430CFB06F29A4200FA08F407D987
:101048005B1906F1FF3137D29A4235D9023E2B445B
:101058009B1ABFB2B3FBFEF00EFB103347EA034303
:101068000CFB00F1994207D95B1900F1FF3221D23C
:1010780099421FD902382B445A1A40EA0646674655
:1010880050E7104616E70B4629E7134672E7B040CB
:101098009042B7D2601E002624E7304622E7A942D4
:1010A80095D9A8F102081D4492E78C45A0D9023CC5
:1010B80019449EE71046DFE70E46C9E7023829447F
:1010C80043E700BFF0B58BB000240594069407945D
:1010D8000894099401942A4B1A6B42F004021A638B
:1010E8001A6B02F004020192019A02941A6B42F000
:1010F80080021A631A6B02F080020292029A039429
:101108001A6B42F001021A631A6B02F00102039291
:10111800039A04941A6B42F002021A631B6B03F0E1
:1011280002030493049B174F38464FF48461224608
:1011380001F076FC144D28462021224601F070FC6F
:101148004FF400530593114B06930794104805A9D3
:1011580001F08EFB4FF484630593012606960794ED
:101168000894384605A901F083FB202305930696C9
:1011780007940894284605A901F07AFB0BB0F0BD46
:101188000038024000000240000402400000211024
:101198000008024008B50848084B03604FF4E133E3
:1011A800436000238360C36003610C224261836152
:1011B800C36100F09FFF08BDA40100200044004067
:1011C80030B58BB0002408940994019402940394D8
:1011D8000494059406940794104D4FF080432B60B7
:1011E8006C60AC6042F21073EB602C61284600F032
:1011F80043FC08940994284608A900F08DFD602353
:101208000193029403940594284601A9042200F04E
:10121800CBFC284600F0DAFA0BB030BD680100209C
:1012280030B58BB000240894099401940294039477
:101238000494059406940794104D114B2B606C6030
:10124800AC6042F21073EB602C61284600F014FC8D
:1012580008940994284608A900F05EFD60230193CC
:10126800029403940594284601A9224600F09CFCA8
:10127800284600F0ABFA0BB030BD00BF2C010020AF
:101288000004004030B58DB00024049406940794FF
:1012980008940A940B94019402940D4D0D4B2B6005
:1012A8006C60AC604FF6FF73EB602C610323039313
:1012B800012305930993284603A900F0F9FB01943B
:1012C8000294284601A900F027FD0DB030BD00BFEB
:1012D800B40000200008004030B58DB0002404940C
:1012E8000694079408940A940B94019402940D4D63
:1012F8000D4B2B606C60AC604FF6FF73EB602C619C
:1013080003230393012305930993284603A900F0B7
:10131800CFFB01940294284601A900F0FDFC0DB012
:1013280030BD00BFF0000020000C004030B595B083
:101338000024089409940A940B940C940D940E9428
:101348000F94109411941294139403940494059494
:101358000694079401941C4B1A6C42F080521A644C
:101368001B6C03F080530193019B0294174A136886
:1013780023F4404343F400431360136803F44043E9
:101388000293029B0225089501230B9310230C93CB
:101398000E950F9410934FF4A8731193042312938E
:1013A8000723139308A800F047FF0F23039304951E
:1013B80005944FF480530693079403A8294601F037
:1013C80081F915B030BD00BF003802400070004000
:1013D80010B580EAE074A4EBE074844206D10848B2
:1013E8004FF48061002201F01BFB05E004484FF434
:1013F8008061012201F014FB024B1B689C6310BD45
:1014080000000240680100202DE9F04190B001F091
:101418008DFBFFF78BFFFFF755FEFFF7BBFEFFF7CE
:10142800CFFEFFF7FDFEFFF72DFFFFF755FF404802
:10143800042100F035FC3F48002100F031FC3E4813
:10144800182100F045FC3D48182100F041FC3C48BB
:101458003C4919224FF0FF3300F07EFE01F08CFB6F
:101468000446002303930493059306930793089374
:1014780009930A930B930C930D930E93ADF83C309C
:1014880047F23053304A536202F5806253624FF498
:10149800FA60FFF79DFF01F06FFB001B3128FAD9B6
:1014A80001F06AFB0446284B5B6A284B5B6ADFF84D
:1014B800B880274D274E00960A20014642462B4603
:1014C80000F056F8D6E900010022234BFFF76AF82E
:1014D80006460F46D8E90001FFF7FEFA8046D5E92F
:1014E8000001FFF7F9FA054630463946FFF7F4FAE6
:1014F800009003A8194942462B4601F0B9FB104D4C
:10150800284603A932224FF0FF3300F025FE0022BF
:10151800134BCDE9002303A8124901F0A9FB284683
:1015280003A932224FF0FF3300F016FEAFE700BFE9
:10153800680100202C010020B4000020F0000020E9
:10154800A4010020D848000800080040000C004012
:1015580098000020A000002000408F40F4480008B8
:1015680000002440104900089000002000000000FE
:101578002DE9F0472DED028B80468A4615461C461C
:10158800DDF82890431807EE903AF8EEE77AB6EEC1
:10159800008A67EE887A17EE900AFEF7AFFF0646D4
:1015A8000F46CAEB080807EE908AF8EEE77A67EE6E
:1015B800887A17EE900AFEF7A1FF24A3D3E9002347
:1015C800FFF71AF9D9E90023FEF73AFE41EC180BA8
:1015D800C9E9000141EC100B01F062FF51EC100B5E
:1015E80032463B46FEF7DEFF80468946B0EE480AA3
:1015F800F0EE680A01F0B0FF51EC100B32463B46A2
:10160800FEF7D0FF06460F464046494600220E4BDD
:10161800FFF7F2F802460B46D5E90001FEF710FE87
:10162800C5E90001304639460022074BFFF7E4F8C8
:1016380002460B46D4E90001FEF702FEC4E90001A8
:10164800BDEC028BBDE8F0870000464000000000BA
:10165800005CAC40704700BFFEE700BFFEE700BF7C
:10166800FEE700BFFEE700BF704700BF704700BF3E
:10167800704700BF08B501F073FA08BD00B583B024
:10168800002100910C4B5A6C42F480425A645A6C07
:1016980002F480420092009A01911A6C42F0805242
:1016A8001A641B6C03F080530193019B072001F01F
:1016B800BDF903B05DF804FB0038024082B003684E
:1016C800B3F1804F0CD1002300930E4B1A6C42F0FB
:1016D80001021A641B6C03F001030093009B0EE0E7
:1016E800094A93420BD100230193064B1A6C42F02E
:1016F80002021A641B6C03F002030193019B02B0FF
:10170800704700BF003802400004004000B58BB0AD
:101718000023059306930793089309930368264AC1
:10172800934221D100210191244B1A6C42F004020A
:101738001A641A6C02F004020192019A02911A6B5F
:1017480042F002021A631B6B03F002030293029B2E
:10175800C023059302230693012207920993184890
:1017680005A901F085F823E0164A934220D100210B
:101778000391124B1A6C42F008021A641A6C02F0B8
:1017880008020392039A04911A6B42F001021A6349
:101798001B6B03F001030493049B032305930223AB
:1017A8000693012207920993074805A901F060F8FA
:1017B8000BB05DF804FB00BF000800400038024091
:1017C80000040240000C00400000024000B589B04F
:1017D8000023039304930593069307930368B3F1D7
:1017E800804F16D100230193174B1A6B42F0020267
:1017F8001A631B6B03F002030193019B08230393F5
:101808000223049301230793104803A901F030F839
:1018180017E00F4A934214D1002302930A4B1A6B24
:1018280042F002021A631B6B03F002030293029B4D
:1018380010230393022304930793044803A901F098
:1018480017F809B05DF804FB0038024000040240B4
:101858000004004000B589B0002303930493059366
:10186800069307930268134B9A4220D100210191F5
:1018780003F5FA331A6C42F400321A641A6C02F453
:1018880000320192019A02911A6B42F001021A6326
:101898001B6B03F001030293029B0C2303930223A7
:1018A800049307230793044803A900F0E1FF09B054
:1018B8005DF804FB004400400000024030B4036AB5
:1018C80023F001030362036A4468826922F0730209
:1018D8000D682A4323F002038D682B430A4DA84262
:1018E8000BD123F00803CD682B4323F0040324F421
:1018F80040744D692C438D692C43446082614A6869
:101908004263036230BC70470000014030B4036A90
:1019180023F480730362036A4468C26922F0730285
:101928000D682A4323F400738D6843EA05230C4DA0
:10193800A8420ED123F40063CD6843EA052323F4BB
:10194800806324F440544D6944EA05148D6944EADF
:1019580005144460C2614A68C263036230BC7047C0
:101968000000014030B4036A23F480530362036A21
:101978004468C26922F4E6420D6842EA052223F46B
:1019880000538D6843EA0533074DA84204D124F477
:1019980080444D6944EA85144460C2614A6802641F
:1019A800036230BC704700BF000001400368314A41
:1019B800904210D0B0F1804F0FD0A2F57C429042F7
:1019C8000DD002F5806290420BD002F58062904201
:1019D80009D1012208E0012206E0012204E00122E7
:1019E80002E0012200E000221AB123F070034A68E5
:1019F8001343204A90421CD0B0F1804F1BD0A2F56F
:101A08007C42904219D002F58062904217D002F5CC
:101A18008062904215D002F59A32904213D002F5B6
:101A28008062904211D002F5806290420FD101226B
:101A38000EE001220CE001220AE0012208E0012266
:101A480006E0012204E0012202E0012200E0002277
:101A58001AB123F44073CA68134303608B68C362E6
:101A68000B688362034B984201D10B69036301231E
:101A78004361704700000140C0B110B5044690F8BA
:101A8800393013F0FF0F04D1002380F83830FFF706
:101A980015FE022384F83930214651F8040BFFF76C
:101AA80085FF012384F83930002010BD01207047DC
:101AB800002848D0F8B505460C4690F8393013F0A0
:101AC800FF0F04D1002380F83830FFF71FFE0223F0
:101AD80085F839302A68936823F00703936029460C
:101AE80051F8040BFFF762FF286883688269016A6E
:101AF80026681E4322F4407222F00302A368A769F5
:101B080043EA0723134323F47C4323F0FC03E268EE
:101B1800E76942EA072213432769226A120342EA65
:101B28000712134321F0AA016268646942EA0412A9
:101B38000A43866029688B612B681A62012385F83D
:101B480039300020F8BD0120704700BF30B4036A67
:101B580023F010030362036A4468826922F4E642B0
:101B68000D6842EA052223F020038D6843EA051335
:101B78000C4DA8420ED123F08003CD6843EA05132B
:101B880023F0400324F440644D6944EA85048D69D8
:101B980044EA8504446082614A688263036230BC17
:101BA800704700BF0000014038B590F83830012B6D
:101BB80066D00D460446012380F83830022380F8A9
:101BC80039300C2A55D8DFE802F0075454541A5417
:101BD80054542E54545441000068FFF76FFE226895
:101BE800936943F0080393612268936923F004031F
:101BF8009361226891692B690B43936139E000680E
:101C0800FFF7A4FF2268936943F400639361226895
:101C1800936923F48063936122689369296943EA8D
:101C28000123936125E00068FFF770FE2268D369FD
:101C380043F00803D3612268D36923F00403D36116
:101C48002268D1692B690B43D36112E00068FFF762
:101C580089FE2268D36943F40063D3612268D3699B
:101C680023F48063D3612268D369296943EA012395
:101C7800D361012384F83930002084F8380038BD56
:101C8800022038BD10B401238B40046A24EA030300
:101C98000362036A8A401A4302625DF8044B704784
:101CA80010B5044600680122FFF7ECFF2368074AD5
:101CB800934203D15A6C42F400425A642268136872
:101CC80043F001031360002010BD00BF0000014075
:101CD80010B5044611B1042906D00BE000680021B4
:101CE8000122FFF7CFFF0FE0006804210122FFF770
:101CF800C9FF09E0006800210122FFF7C3FF20683F
:101D080004210122FFF7BEFF2268136843F0010394
:101D18001360002010BD00BF90F83830012B21D08F
:101D280030B4012280F83820022380F83930046862
:101D3800636823F070036360046865680B682B436D
:101D480063600468A36823F08003A3600468A5683F
:101D58004B682B43A36080F83920002380F8383083
:101D6800184601E00220704730BC70472DE9F8435F
:101D780004460268136923F44053C1680B43136196
:101D88000068C36823F4164323F00C03A168226992
:101D9800114362691143E2690A431343C36022682D
:101DA800536923F44073A1690B435361E369B3F5A5
:101DB800004F40F0B580266803F1804303F51043D7
:101DC8009E4203D003F580639E4254D100F040FD4B
:101DD80000EB800000EB800065686D00B0FBF5F556
:101DE800A84FA7FB05356D092D0100F031FD00EB6B
:101DF800800000EB800063685B00B0FBF3F800F044
:101E080027FD00EB800000EB800063685B00B0FBFF
:101E1800F3F3A7FB03235B094FF0640909FB138362
:101E2800DB003233A7FB03231B0903F4F8731D44BB
:101E380000F00EFD00EB800000EB800063685B00A3
:101E4800B0FBF3F800F004FD00EB800000EB80002D
:101E580063685B00B0FBF3F3A7FB03235B0909FB93
:101E68001383DB003233A7FB0323C3F342131D4460
:101E7800B560BDE8F88300F0DBFC00EB800000EB08
:101E8800800065686D00B0FBF5F57E4FA7FB053552
:101E98006D092D0100F0CCFC00EB800000EB800008
:101EA80063685B00B0FBF3F800F0C2FC00EB800055
:101EB80000EB800063685B00B0FBF3F3A7FB032330
:101EC8005B094FF0640909FB1383DB003233A7FB7E
:101ED80003231B0903F4F8731D4400F0A9FC00EB6D
:101EE800800000EB800063685B00B0FBF3F800F053
:101EF8009FFC00EB800000EB800063685B00B0FB98
:101F0800F3F3A7FB03235B0909FB1383DB003233DD
:101F1800A7FB0323C3F342131D44B560BDE8F88350
:101F28002668594B9E4203D003F580639E4254D1E4
:101F380000F08EFC00EB800000EB80006568AD00CF
:101F4800B0FBF5F54F4FA7FB05356D092D0100F0E6
:101F58007FFC00EB800000EB800063689B00B0FB17
:101F6800F3F800F075FC00EB800000EB800063687C
:101F78009B00B0FBF3F3A7FB03235B094FF0640955
:101F880009FB13831B013233A7FB03235B0903F00F
:101F9800F0031D4400F05CFC00EB800000EB8000C7
:101FA80063689B00B0FBF3F800F052FC00EB800084
:101FB80000EB800063689B00B0FBF3F3A7FB0323EF
:101FC8005B0909FB13831B013233A7FB0323C3F30C
:101FD80043131D44B560BDE8F88300F029FC00EB0D
:101FE800800000EB80006568AD00B0FBF5F5254F7B
:101FF800A7FB05356D092D0100F01AFC00EB8000E8
:1020080000EB800063689B00B0FBF3F800F010FC65
:1020180000EB800000EB800063689B00B0FBF3F3EB
:10202800A7FB03235B094FF0640909FB13831B011A
:102038003233A7FB03235B0903F0F0031D4400F0D0
:10204800F7FB00EB800000EB800063689B00B0FBAF
:10205800F3F800F0EDFB00EB800000EB8000636814
:102068009B00B0FBF3F3A7FB03235B0909FB138376
:102078001B013233A7FB0323C3F343131D44B5608D
:10208800BDE8F8831F85EB51001001402DE9F041B0
:1020980006460C4617469846069D1EE0B5F1FF3FDA
:1020A8001BD02DB100F068FDC8EB0000A84214D980
:1020B8003268D36823F4D073D3603268536923F04D
:1020C80001035361202386F8393086F83A3000231B
:1020D80086F838300320BDE8F08133681B68234058
:1020E800A34214BF00230123BB42D7D00020BDE880
:1020F800F08100BF68B310B5044690F8393013F08A
:10210800FF0F04D1002380F83830FFF7A3FB242306
:1021180084F839302268D36823F40053D36020460A
:10212800FFF724FE2268136923F4904313612268A1
:10213800536923F02A0353612268D36843F4005398
:10214800D3600020E063202384F8393084F83A30E3
:1021580010BD0120704700BF2DE9F04182B0044650
:102168001E4690F83930DBB2202B54D10D469046EC
:10217800002952D0002A52D090F83830012B50D084
:10218800012380F838300023C363212380F83930D5
:1021980000F0F2FC0746A4F82480A4F8268026E084
:1021A800E38C013B9BB2E384A368B3F5805F12D153
:1021B80000962046802100223B46FFF767FF90BB30
:1021C80022682B88C3F30803536023690BB90235CF
:1021D8000DE001350BE000962046802100223B46A9
:1021E800FFF754FF08BB23682A785A600135E38C4F
:1021F8009BB2002BD4D100962046402100223B46BA
:10220800FFF744FF034690B9202284F839200022C2
:1022180084F838200CE002230AE0012308E00123B7
:1022280006E0022304E0032302E0032300E0032383
:10223800184602B0BDE8F081002800F0B58170B5FD
:1022480082B00446036813F0010F5AD0A04B9B6874
:1022580003F00C03042B0AD09D4B9B6803F00C037E
:10226800082B0DD19A4B5B6813F4800F08D0984B5C
:102278001B6813F4003F44D06368002B41D195E1FB
:102288006368B3F5803F05D1914A136843F48033FE
:10229800136015E0B3F5A02F09D18D4B1A6842F4ED
:1022A80080221A601A6842F480321A6008E0884B6B
:1022B8001A6822F480321A601A6822F480221A609E
:1022C80063687BB100F058FC054605E000F054FC5B
:1022D800401B642800F26C817D4B1B6813F4003F9F
:1022E800F4D00EE000F048FC054605E000F044FCA0
:1022F800401B642800F25E81754B1B6813F4003F95
:10230800F4D1236813F0020F50D0714B9B6813F07F
:102318000C0F0AD06E4B9B6803F00C03082B16D1E8
:102328006B4B5B6813F4800F11D1694B1B6813F07A
:10233800020F03D0E368012B40F03E81644A136822
:1023480023F0F803216943EAC10313602EE0E36830
:10235800D3B101225F4B1A6000F00EFC054605E080
:1023680000F00AFC401B022800F22881584B1B6829
:1023780013F0020FF4D0564A136823F0F8032169CA
:1023880043EAC103136011E00022524B1A6000F0C7
:10239800F3FB054605E000F0EFFB401B022800F2C6
:1023A8000F814B4B1B6813F0020FF4D1236813F015
:1023B800080F26D0636993B10122474B1A6000F0D9
:1023C800DBFB054605E000F0D7FB401B022800F2C6
:1023D800F9803F4B5B6F13F0020FF4D011E000223D
:1023E8003D4B1A6000F0C8FB054605E000F0C4FB51
:1023F800401B022800F2E880354B5B6F13F0020F98
:10240800F4D1236813F0040F7CD0314B1B6C13F00C
:10241800805F0DD1002301932D4B1A6C42F080523E
:102428001A641B6C03F080530193019B012500E0A3
:1024380000252A4B1B6813F4807F13D1274A1368A1
:1024480043F48073136000F097FB064605E000F044
:1024580093FB801B022800F2B980204B1B6813F401
:10246800807FF4D0A368012B05D1194A136F43F07C
:102478000103136714E0052B09D1154B1A6F42F0BD
:1024880004021A671A6F42F001021A6708E0104B3B
:102498001A6F22F001021A671A6F22F004021A67F3
:1024A800A3688BB100F068FB064607E000F064FB08
:1024B800801B41F28833984200F28A80044B1B6FDC
:1024C80013F0020FF2D017E000F056FB06460EE0BC
:1024D8000038024000004742800E4742007000402A
:1024E80000F04AFB801B41F28833984272D8404B77
:1024F8001B6F13F0020FF3D125B13D4A136C23F083
:1025080080531364A369002B66D0394A926802F09D
:102518000C02082A62D0022B33D10022354B1A60F4
:1025280000F02AFB054604E000F026FB401B0228C9
:1025380056D82F4B1B6813F0007FF5D1E269236A48
:102548001343626A43EA8213A26A5208013A43EAD1
:102558000243E26A43EA0263254A53600122254B9B
:102568001A6000F009FB044604E000F005FB001BBC
:10257800022837D81E4B1B6813F0007FF5D00020C7
:1025880033E000221B4B1A6000F0F6FA044604E020
:1025980000F0F2FA001B022826D8154B1B6813F02E
:1025A800007FF5D1002020E00120704701201CE0C9
:1025B80003201AE0032018E0012016E0032014E0AD
:1025C800032012E0032010E003200EE003200CE0BB
:1025D80003200AE0032008E0002006E0012004E0D0
:1025E800032002E0032000E0032002B070BD00BF1A
:1025F800003802406000474238B52F4B9B6803F013
:102608000C03042B55D0082B01D02C4838BD2A4B7D
:102618005A6802F03F025B6813F4800F20D0264B03
:102628005B68C3F38813DC000025690141EAD461C3
:102638006001041B61EB0505A90141EA9461A00151
:10264800001B61EB0501C01841F100014B0243EA90
:10265800D0534402204619460023FEF765FA1FE0CE
:10266800154B5B68C3F38813DC000025690141EA58
:10267800D4616001041B61EB0505A90141EA94617D
:10268800A001001B61EB0501C01841F100018B029C
:1026980043EA90538402204619460023FEF744FA81
:1026A800054B5B68C3F3014301335B00B0FBF3F0F8
:1026B80038BD034838BD00BF003802400024F4008C
:1026C80000127A00002800F0978070B50D46044685
:1026D800504B1B6803F00F038B4208D2CBB24D4A14
:1026E8001370136803F00F038B4240F08780236850
:1026F80013F0020F17D013F0040F04D0464A936862
:1027080043F4E0539360236813F0080F04D0424A5F
:10271800936843F4604393603F498B6823F0F00269
:10272800A36813438B60236813F0010F2FD06268EE
:10273800012A05D1384B1B6813F4003F0ED15FE026
:10274800931E012B05D8344B1B6813F0007F05D16D
:1027580058E0314B1B6813F0020F55D02E498B6897
:1027680023F0030313438B6000F006FA064606E0E5
:1027780000F002FA801B41F28833984246D8264B73
:102788009B6803F00C036268B3EB820FF0D1214B16
:102798001B6803F00F03AB4207D9EAB21D4B1A704E
:1027A8001B6803F00F03AB4232D1236813F0040F08
:1027B80006D019498B6823F4E052E36813438B6011
:1027C800236813F0080F07D0134A936823F4604373
:1027D800216943EAC1039360FFF70EFF0E4B9B6824
:1027E800C3F303130D4AD35CD8400D4B1860002087
:1027F80000F076F9002070BD01207047012070BDFF
:10280800012070BD012070BD012070BD032070BD86
:10281800012070BD003C02400038024030490008E9
:1028280008000020014B1868704700BF080000200E
:1028380008B5FFF7F7FF044B9B68C3F38223034AED
:10284800D35CD84008BD00BF0038024040490008AA
:1028580008B5FFF7E7FF044B9B68C3F34233034A0D
:10286800D35CD84008BD00BF00380240404900088A
:102878002DE9F04182B00023C4E09C4601229A4031
:102888000C681440944240F0BC804D68022D01D081
:10289800122D14D14FEAD30E0EF1080E50F82E70F7
:1028A80003F007084FEA88080F2505FA08F527EA14
:1028B80005060D6905FA08F5354340F82E500668F7
:1028C8004FEA430E032505FA0EF5ED4305EA060720
:1028D8004E6806F0030606FA0EF63E4306604E689A
:1028E800771E012F03D9112E01D0122E12D186681E
:1028F80005EA0607CE6806FA0EF63E438660476884
:1029080027EA02074E68C6F3001202FA0CF646EAF6
:1029180007024260C2682A408D6805FA0EF5154321
:10292800C5604A6812F0805F6BD000220192384A75
:10293800556C45F480455564526C02F4804201920E
:10294800019A9F08BD1C334A52F8256003F0030E14
:102958004FEA8E0E0F2202FA0EF226EA02052E4ADE
:10296800904219D002F58062904213D002F580623D
:1029780090420DD002F58062904207D002F5806245
:10298800904201D1042208E0072206E0032204E075
:10299800022202E0012200E0002202FA0EF22A439B
:1029A80002371C4D45F827201C4A1568E24302EA05
:1029B80005064F6817F4803F01D044EA0506174D15
:1029C8002E606D6802EA05064F6817F4003F01D0D3
:1029D80044EA0506114D6E60AD6802EA05064F68C7
:1029E80017F4801F01D044EA05060C4DAE60ED686F
:1029F8002A404E6816F4001F01D044EA0502074C2D
:102A0800E26001330F2B7FF638AF02B0BDE8F081EA
:102A1800003802400038014000000240003C0140FC
:102A28000AB18161704709048161704700F00700AD
:102A3800064AD36823F4E0631B041B0C43EA002016
:102A480040F0BF6040F40030D060704700ED00E017
:102A580030B4164BDC68C4F30224C4F10705042D16
:102A680028BF0425231D062B01D9033C00E00024C0
:102A7800012303FA05F5013D2940A140A340013B8C
:102A88001A400A43002806DA00F00F001201D2B2F9
:102A9800074B1A5407E01201D2B200F1604000F56A
:102AA800614080F8002330BC704700BF00ED00E0B3
:102AB80014ED00E00138B0F1807F0AD2064B58606F
:102AC800F021064A82F823100020986007221A6035
:102AD80070470120704700BF10E000E000ED00E003
:102AE80010B504460E4B18784FF47A73B3FBF0F325
:102AF8000C4A1068B0FBF3F0FFF7DCFF58B90F2C55
:102B08000BD84FF0FF3021460022FFF7A1FF064BFC
:102B18001C60002010BD012010BD012010BD00BFA9
:102B280004000020080000200000002008B50B4B1E
:102B38001A6842F400721A601A6842F480621A60D5
:102B48001A6842F480721A600320FFF76FFF0020B2
:102B5800FFF7C6FFFEF792FD002008BD003C0240CB
:102B6800034A1368034909780B441360704700BF90
:102B7800E401002004000020014B1868704700BFE2
:102B8800E40100200F49D1F8883043F47003C1F8FC
:102B980088300D4B1A6842F001021A6000209860D4
:102BA8001A6822F0847222F480321A60074A5A6046
:102BB8001A6822F480221A60D8604FF000638B6094
:102BC800704700BF00ED00E00038024010300024DC
:102BD800DFF834D0002103E00C4B5B58435004313C
:102BE8000B480C4B42189A42F6D30B4A02E00023DA
:102BF80042F8043B094B9A42F9D3FFF7C3FF00F0B0
:102C080011F8FEF701FC704700800120684B0008AE
:102C1800000000207000002070000020EC0100205F
:102C2800FEE7000070B50E4B0E4CE41AA410002508
:102C38001E46A54204D056F8253098470135F8E7D6
:102C480001F03AFE084C094BE41AA41000251E4670
:102C5800A54204D056F8253098470135F8E770BDED
:102C6800604B0008604B0008644B0008604B00088C
:102C78000EB400B59CB04FF40271ADF814106FF0AB
:102C88000041049107914FF6FF711DABADF8161086
:102C9800084953F8042B029006900868019302A98A
:102CA80000F064F8029B00221A701CB05DF804EB77
:102CB80003B070476C0000202DE9F0478E68B342DE
:102CC80082460C469046994640D38A8912F4906F02
:102CD8003AD0256809696F1A6569022305EB45052D
:102CE80095FBF3F57B1C4B449D4238BF1D465305AD
:102CF8000FD5294600F03CFB064698B121693A46B3
:102D080000F0CBFAA38923F4906343F08003A381F6
:102D180013E02A4600F082FB064670B95046216946
:102D280000F0E2FA0C23CAF80030A38943F040030C
:102D3800A3814FF0FF30BDE8F087266165613E440E
:102D4800ED1B2660A5604E46B14500D24E46324680
:102D58002068414600F0ACFAA3689B1BA360236877
:102D68001E4426600020BDE8F08700002DE9F043EE
:102D78009DB0064603938B891C060D4690460CD5DC
:102D88000B6953B9402100F0F3FA2860286110B9A3
:102D98000C233360CCE040236B610023099320238C
:102DA8008DF8293030238DF82A3043461C4613F815
:102DB800012B1AB9B4EB08090FD002E0252AF5D186
:102DC800F8E73046294642464B46FFF775FF013083
:102DD80000F0A980099B4B4409932378002B00F04D
:102DE800A28000234FF0FF320493079305920693C5
:102DF8008DF853301A9304F101084446DFF84891DE
:102E080021784846052200F039FA08F10108049BA8
:102E180030B1C9EB00000122824013430493ECE770
:102E2800D80644BF20228DF85320190744BF2B220F
:102E38008DF8532022782A2A02D0079923460EE0DB
:102E4800039A111D12680391002ABBBF524243F036
:102E5800020307920792B8BF049301340AE01C46A4
:102E680001332278303A092A03D80A2000FB0121CD
:102E7800F5E7079123782E2B1AD163782A2B0AD1EC
:102E8800039B1A1D1B680392002BB8BF4FF0FF333A
:102E9800023405930CE0611C00220C4601312378B2
:102EA800303B092B03D80A2000FB0232F5E70592D4
:102EB800DFF8988021784046032200F0DFF938B126
:102EC800049AC8EB00004023834013430493013461
:102ED80021781A488DF82810062204F1010800F01C
:102EE800CDF988B1164B33B9039B073323F0070399
:102EF8000833039313E003AB0093304604A92A4632
:102F0800104BAFF3008007E003AB0093304604A9F1
:102F18002A460C4B00F092F8421C074603D0099B46
:102F28003B44099341E7AB895B0601D4099801E06A
:102F38004FF0FF301DB0BDE8F08300BF54490008D2
:102F480000000000C12C00084A4900085049000848
:102F58002DE9F84391461F468A680B69DDF8208001
:102F68009342B8BF1346C9F8003091F8432006468B
:102F78000C4612B10133C9F800302368990642BFE4
:102F8800D9F800300233C9F80030256815F0060575
:102F98001CD094F843302268003318BF01239206EE
:102FA8001FD5E1185A1C302081F84300224494F8B8
:102FB800451082F84310023313E03046394604F1D5
:102FC80019020123C047013007D00135E368D9F859
:102FD80000209B1A9D42F0DBDBE74FF0FF30BDE895
:102FE800F8833046394604F14302C0470130F4D033
:102FF8002268D9F80050E36802F00602042A08BFE4
:103008005D1B2269A3680CBF25EAE575002593427C
:10301800C4BF9B1AED184FF00009A9450ADA3046DB
:10302800394604F11A020123C0470130D5D009F10D
:103038000109F2E70020BDE8F88300002DE9FF410F
:103048000C461746227E6E2A984606460A9B01F1D0
:10305800430100F0AF8012D8632A23D00AD8002A8F
:1030680000F0BC80582A40F0CB8084F84520DFF877
:1030780004E257E0642A1ED0692A1CD0C0E0732AF3
:1030880000F0B08009D86F2A2ED0702A40F0B8809E
:10309800226842F0200222603FE0752A24D0782A74
:1030A8003BD0ADE01A68111D1960136884F84230EE
:1030B80004F14205A8E020681A6810F0800F02D0D9
:1030C800101D186008E010F0400F02F104001860AD
:1030D80002D0B2F9003000E01368002B3EDA2D224E
:1030E8005B4284F8432039E020681A6810F0800FAA
:1030F80002D0101D186007E010F0400F02F1040024
:10310800186001D0138800E01368227EDFF864E1BC
:103118006F2A0CBF08220A221CE07822DFF858E147
:1031280084F845202268186812F0800F00F1040521
:103138001D6003D1550601D5038800E00368D00758
:1031480044BF42F0200222601BB9226822F020020C
:1031580022601022002084F8430002E0DFF814E126
:103168000A226568A560002DA2BF206820F004002F
:10317800206003B965B10D46B3FBF2F002FB1033D2
:103188001EF8033005F8013D03460028F4D100E09D
:103198000D46082A0BD12368DA0708D52369626827
:1031A8009A42DEBF302305F8013C05F1FF35491B83
:1031B80021612EE025681A68606915F0800F03D038
:1031C800151D1D60136808E015F0400F02F1040595
:1031D8001D60136801D0188000E018600023236187
:1031E8000D4616E01A68111D1960156862682846B0
:1031F800002100F043F808B1401B6060636804E0F8
:1032080004F1420584F8422001232361002384F855
:103218004330CDF800803046214603AA3B46FFF7ED
:1032280097FE013002D14FF0FF301FE0304639469B
:103238002A462369C0470130F5D023689B0705D487
:10324800E068039B9842B8BF18460FE00025E36882
:10325800039A9B1A9D42F3DA3046394604F1190263
:103268000123C0470130DED00135F0E704B0BDE8E6
:10327800F08100BF5B4900086C49000810B5C9B26D
:1032880002449042034606D01C788C4200F10100AB
:10329800F7D1184610BD002010BD10B5431E0A44D2
:1032A800914204D011F8014B03F8014FF8E710BD23
:1032B800814210B501EB020301D3421E0BE0984294
:1032C800FBD28118D21AD34204D013F8014D01F869
:1032D800014DF8E710BD994204D011F8014B02F8EE
:1032E800014FF8E710BD000030B500293DD051F876
:1032F800042C0B1F1D49002AB8BF9B180A680C46EE
:1033080012B95A600B6030BD93420DD21968581833
:10331800904201BF5A5852181A6042685A60236096
:1033280030BD994203D80A4651680029F9D114687A
:1033380015199D420AD11B682344D018884213608E
:1033480013D10868034413604B680DE002D90C23BD
:10335800036030BD1C681819884204BF08684968B2
:10336800596004BF00191860536030BDAC000020DC
:1033780070B5CC1C24F0030408340C2C38BF0C2482
:10338800002C064603DA0C233360002070BD8C4203
:10339800F9D3204A136810461946A1B10A68121BCE
:1033A8000ED40B2A03D90A608B188C501FE08B426D
:1033B8000DBF5A684A685A60026018BF0B4616E08B
:1033C8000B464968E9E7144D2B681BB9304600F0F5
:1033D8004BF828603046214600F046F8421C034668
:1033E800D1D0C51C25F0030585420AD11C6003F124
:1033F8000B001A1D20F00700821A0AD0514299507A
:1034080070BD3046E91A00F02FF80130BBD02B46CA
:10341800ECE770BDAC000020A8000020F8B5074616
:1034280015460E4621B91146BDE8F840FFF7A0BF82
:103438001AB9FFF759FF2846F8BD00F025F8A84249
:103448000ED238462946FFF793FF044650B131465D
:103458002A46FFF722FF38463146FFF745FF01E0CD
:103468003046F8BD2046F8BD38B5064C0023054661
:103478000846236001F012FA431C02D1236803B105
:103488002B6038BDE801002051F8040C0028BEBFAD
:10349800091851F8043CC0180438704700000000AF
:1034A80000B551EC100B264A21F00043934285B039
:1034B80020DD244A934209DD10EE102A0B46FCF762
:1034C800BDFE41EC100B05B05DF804FB684600F04A
:1034D80097F800F0030001289DED000B9DED021BFD
:1034E80020D0022811D000B3012000F0EDFF51ECEC
:1034F800100BE6E79FED101B00F0AAFA51EC100B39
:1035080041EC100B05B05DF804FB00F0A1FA53EC98
:10351800102B10EE100A03F1004141EC100B05B01E
:103528005DF804FB00F0D0FFF1E700F091FA51ECF0
:10353800100BC6E7AFF30080000000000000000099
:10354800FB21E93FFFFFEF7F53EC102B23F00043F3
:1035580043EC102B704700BF00B551EC100B264A06
:1035680021F00043934285B027DD244A934209DDC8
:1035780010EE102A0B46FCF761FE41EC100B05B06B
:103588005DF804FB684600F03BF800F003000128F2
:103598009DED000B9DED021B1FD0022819D008B32A
:1035A80000F056FA53EC102B10EE100A03F100410C
:1035B80041EC100B05B05DF804FB9FED0D1B0020DE
:1035C80000F082FF51EC100B41EC100B05B05DF8D8
:1035D80004FB012000F078FFE4E700F039FA51EC31
:1035E800100BCAE7012000F06FFF51EC100BC4E785
:1035F8000000000000000000FB21E93FFFFFEF7F13
:103608002DE9F04F53EC102B9B4923F000448C42DA
:103618008FB09A46054640F3888098498C422BDC47
:10362800BAF1000F194610EE100A89A3D3E9002356
:1036380040F3A881FCF702FE914B9C4206460F46D8
:1036480000F08B8084A3D3E90023FCF7F7FD024642
:103658000B46C5E9002330463946FCF7EFFD7EA34B
:10366800D3E90023FCF7EAFD4FF0010BC5E902019D
:1036780058460FB0BDE8F08F82498C4240F38B80EA
:1036880081498C425DDC4FEA245BABF2164B10EEAD
:10369800100AA4EB0B5190468946FDF71DFAFCF77A
:1036A8001BFF06460F4632463B4640464946CDE993
:1036B8000867FCF7C3FD0022744BFCF773FF8946CB
:1036C8008046FDF709FAFCF707FF06460F46324623
:1036D8003B4640464946CDE90A67FCF7AFFD002264
:1036E8006A4BFCF75FFF00220023CDE90C01FDF7D0
:1036F800C1F9002800F06F810023304639460022C6
:10370800FDF7B8F9002814BF0123022302226049FB
:10371800009201915A4608A8294600F0D9FABAF150
:10372800000FC0F24D81834607E00020002185ED9F
:10373800000BC5E902014FF0000B58460FB0BDE879
:10374800F08F10EE100A1946FCF778FD4FF0000BC9
:10375800C5E90201C5E90001EFE741A3D3E9002368
:10376800FCF76CFD40A3D3E9002306460F46FCF79F
:1037780065FD02460B46C5E9002330463946FCF78D
:103788005DFD39A3D3E90023FCF758FD4FF0010B89
:10379800C5E90201D1E7FFF7D7FE57EC106B10EE31
:1037A800100A33A3D3E900233946FCF7FBFE0022B5
:1037B800384BFCF745FDFDF78FF98346FCF78CFE87
:1037C80023A3D3E90023CDE90401FCF7EBFE02466D
:1037D8000B4630463946FCF731FD1FA3D3E90023D9
:1037E80006460F46DDE90401FCF7DCFEBBF11F0FBE
:1037F800CDE902013046394650DC274B0BF1FF3248
:1038080053F82230A34249D0DDE90223FCF716FD24
:1038180080468946C5E9008942464B4630463946C6
:10382800FCF70CFDDDE90223FCF708FDBAF1000FF7
:10383800C5E9020181DA09F1004401F10043CBF145
:10384800000BC5F800806C60A860EB6075E700BFEE
:1038580000004054FB21F93F3163621A61B4D03D46
:103868000000601A61B4D03D7370032E8A19A33B1F
:1038780083C8C96D305FE43FFB21E93F7BD9024033
:10388800FB21F93FFB213941FFFFEF7F0000704129
:10389800004A00080000E03F80490008DDE90223F3
:1038A800FCF7CCFC2415C1F30A53E31A8046894679
:1038B800102BC5E90089AFDD5BA3D3E90023DDE95F
:1038C8000401FCF76FFE8046894642464B46304667
:1038D8003946FCF7B3FCCDE90601DDE9062330469D
:1038E8003946FCF7ABFC42464B46FCF7A7FC50A315
:1038F800D3E9002306460F46DDE90401FCF752FE32
:1039080032463B46FCF79AFCCDE90201DDE9022389
:10391800DDE90601FCF792FCC1F30A53E41A80467C
:103928008946312CC5E9008975DD44A3D3E9002314
:10393800DDE90401FCF736FE8046894642464B46DF
:10394800DDE90601FCF77AFC06460F4632463B469F
:10395800DDE90601FCF772FC42464B46FCF76EFCBB
:1039680038A3D3E9002380468946DDE90401FCF742
:1039780019FE42464B46FCF761FCCDE90201304690
:10398800394641E7FCF75CFC2B4B9C4206460F4648
:1039980023D023A3D3E90023FCF752FC02460B46AD
:1039A800C5E9002330463946FCF748FC1CA3D3E997
:1039B8000023FCF745FC4FF0FF3BC5E90201BCE6DC
:1039C8006A68EB6802F1004203F10043C0F1000BA2
:1039D8006A60EB60B1E6032398E613A3D3E90023FA
:1039E800FCF72EFC12A3D3E9002306460F46FCF78A
:1039F80027FC02460B46C5E9002330463946FCF74A
:103A08001DFC0BA3D3E90023FCF71AFC4FF0FF3B86
:103A1800C5E9020191E6DDE90667FDE6AFF300803E
:103A28003163621A61B4D03D0000601A61B4D03DC0
:103A38007370032E8A19A33BFB21F93F0000002E67
:103A48008A19A33BC14920259A837B39AFF30080AB
:103A58002DE9F04F57EC106B2DED028BB0EE418A3B
:103A6800F0EE618A27F00049B9F1795F83B010EE72
:103A7800100A39466FDAFDF72FF8002800F0F380B6
:103A880032463B4630463946FCF78CFD7AA3D3E9EB
:103A9800002304460D46FCF785FD79A3D3E90023EE
:103AA800FCF7CEFB22462B46FCF77CFD76A3D3E938
:103AB8000023FCF7C3FB22462B46FCF773FD74A3D7
:103AC800D3E90023FCF7BCFB22462B46FCF76AFD32
:103AD80071A3D3E90023FCF7B1FB22462B46FCF780
:103AE80061FD6FA3D3E90023FCF7AAFB22462B460E
:103AF800FCF758FD82468B462046294600226E4B2D
:103B0800FCF750FD5246804689465B4620462946CA
:103B1800FCF748FD53EC182B04460D463046394651
:103B2800FCF740FD02460B4620462946FCF786FB7B
:103B380002460B4640464946FCF780FB02460B46C8
:103B480000205E49FCF77AFB41EC100B03B0BDEC9A
:103B5800028BBDE8F08F10EE102A3B46FCF722FDE1
:103B680045A3D3E9002304460D46FCF71BFD44A3F7
:103B7800D3E90023FCF764FB22462B46FCF712FD31
:103B880041A3D3E90023FCF759FB22462B46FCF757
:103B980009FD3FA3D3E90023FCF752FB22462B463D
:103BA800FCF700FD3CA3D3E90023FCF747FB2246C2
:103BB8002B46FCF7F7FC3AA3D3E90023FCF740FBBC
:103BC8002B462246FCF7EEFC3D4B994582468B4638
:103BD80092DD3C4B99453DDC0022A9F500130020FD
:103BE800364990469946FCF729FBCDE90001204665
:103BF80029460022304BFCF7D5FC42464B46FCF7E1
:103C08001DFB5246804689465B4620462946FCF7FE
:103C1800C9FC53EC182B04460D4630463946FCF7D0
:103C2800C1FC02460B4620462946FCF707FB024624
:103C38000B4640464946FCF701FB02460B46DDE9C8
:103C48000001FCF7FBFA41EC100B03B0BDEC028B52
:103C5800BDE8F08F9FED147B4FF000088DED007BE1
:103C6800DFF86490C3E79FED120B03B0BDEC028B45
:103C7800BDE8F08FAFF30080D43888BEE9FAA8BD5C
:103C8800C4B1B4BD9EEE213EAD529C804F7E923EA3
:103C98009015CB19A001FA3E7751C1166CC1563F59
:103CA8004C5555555555A53F000000000000E73F0D
:103CB800000000000000F03F0000E03F0000F03F7F
:103CC8003233D33F0000E93F0000D23FAFF300801A
:103CD8002DE9F04FADF51B7D7B4CA49E7B4D54F830
:103CE800264007942646D41E85FB0475E417C4EBCA
:103CF800A50424EAE4741D460A93E34303EB430353
:103D0800013D02EBC30306932B460B940095651BFC
:103D18009C190390089116D42C44013422AEA59F17
:103D280008E057F82500FCF7D7FB0135A542E6E87F
:103D3800020108D0002DF4DA013500200021A54247
:103D4800E6E80201F6D1079B002B2ADB079B03F16B
:103D5800010A0A9B22AF07EBCA0A0DF5E4784FEA7D
:103D6800C30B3D46009B002BC0F28781DDF80C9009
:103D780005EB0B040026002774E90223F9E8020189
:103D8800FCF710FC02460B4630463946FCF758FA59
:103D9800A54206460F46EFD108355545E8E80267C3
:103DA800E0D1079D0A9A05F18043013B9B000EA8CC
:103DB800191DC2EB4272034401440C93D3000D91C8
:103DC8000593EC009AAB2344002D53E9286728DDBE
:103DD8000DF5E47B5C440DF1340A00223C4B30467F
:103DE8003946FCF7DFFBFCF777FEFCF775FB002292
:103DF800384B80468946FCF7D5FB02460B463046D1
:103E08003946FCF71BFAFCF767FE74E902234AF807
:103E1800040F49464046FCF713FA5C4506460F4630
:103E2800DBD1069C47EC106B204600F0A5FC57EC54
:103E3800106B00224FF07F5310EE100A3946FCF742
:103E4800B1FB41EC100B00F007FC002251EC100B09
:103E5800214BFCF7A7FB02460B4630463946FCF7D8
:103E6800EDF90F460646FCF737FE8046FCF734FBB3
:103E780002460B4630463946FCF7E0F9002C064668
:103E88000F4640F3E180691E0EABC4F1180253F8E7
:103E9800213043FA02F000FA02F9C4F117020EAC1D
:103EA800C9EB030344F82130804443FA02F9B9F11D
:103EB800000F3DDD002D08F1010840F37882002253
:103EC80014460DA912E000BF084B0008ABAAAA2AA5
:103ED8000000703E0000704100002040C3F1807077
:103EE8000BB108600124013295420DDD51F8043F01
:103EF800002CF3D0C3F1FF13013203F57F43954241
:103F08000B604FF00104F1DC069B002B0DDD012B4B
:103F180000F0A280022B08D16A1E0EAB0EA953F83E
:103F28002230C3F3150341F82230B9F1020F73D0E0
:103F38003046394600220023FCF79CFD002800F09B
:103F4800B880079B05F1FF3A53450DDC0EAB0D9881
:103F580003EB8503002253F8041D834242EA010261
:103F6800F9D1002A40F00882079B0EAA013B52F8BB
:103F78002330002B40F019820C9A012352F8041DBB
:103F880001330029FAD0EB1805F1010A9A45099383
:103F980040DC0B9B0A9A0AEB0309099B09F180494B
:103FA8001946A59B09F1FF39154401EB020B03EBF8
:103FB800890922AB03EBC50803EBCB03049372AB6F
:103FC80003EBCA0A59F8040FFCF786FA009B002B8A
:103FD800E8E802014FF000064FF0000715DB059BEB
:103FE800DDF80CB008EB0305444674E90223FBE84E
:103FF8000201FCF7D7FA02460B4630463946FCF771
:104008001FF9AC4206460F46EFD1049B9845EAE8F3
:104018000267D7D1099DD4E632463B460020BE4907
:10402800FCF70CF906460F46002C81D006989FED48
:10403800B80B00F0A1FB3046394653EC102BFCF7C7
:10404800FDF806460F4673E710D16B1E0EAA52F80C
:1040580023304FEAE3592AE76A1E0EAB0EA953F83C
:104068002230C3F3160341F822305EE70022AB4B3F
:10407800FCF71EFD50B981465AE70835002600278F
:104088005545E8E802677FF46DAE8AE6002D08F131
:104098000108C8BF4FF002093FF711AF32463B464F
:1040A80000209D49FCF7CAF84FF0020906460F4662
:1040B8003EE7069BCDF80C90584247EC106BCDF8C4
:1040C800148000F059FB57EC106B10EE100A3946BB
:1040D8000022934BFCF7ECFC002800F0EA81002258
:1040E800904B30463946FCF75DFAFCF7F5FC044680
:1040F800FCF7F2F900228A4BFCF754FA0B46024609
:1041080039463046FCF79AF8FCF7E6FC069B18336C
:1041180005F1010A06930EAB43F8250043F82A403F
:1041280006989FED7B0B00F027FBBAF1000F55ECCA
:10413800104BC0F2C1800AF101034FEAC30872AF05
:104148000EAA009302EB830907EB080659F8040D41
:10415800FCF7C2F922462B46FCF724FA002266E94E
:104168000201704B20462946FCF71CFABE42044661
:104178000D46EBD1A8F1080806EB08030DF5947974
:10418800CDF818A0DDF81CA0CDF810904FF000086D
:104198009B46BAF1000FC0F28C80B8F1000FC0F254
:1041A8008880DFF884915D4600260027002401E01E
:1041B800444510DCF5E80223F9E80201FCF7F2F9BE
:1041C80002460B4630463946FCF73AF80134A24518
:1041D80006460F46ECDA049B03EBC803C3E9006705
:1041E800009B08F101089845ABF1080BD1D1A49BBD
:1041F800DDF818A0DDF81090032B35D8DFE813F0B0
:104208003B0004000400D900009B002009EBC30414
:10421800002174E90223FCF713F84C45F9D1039BFC
:10422800002B00F08B80089D024601F1004385E8D1
:104238000C0002460B46D9E90001FBF7FFFFBAF173
:10424800000F0BDD4CAD01240134F5E80223FBF728
:10425800F7FFA245F8DA039B002B7CD001F100435D
:1042680008990246C1E90223059B03F007000DF5F2
:104278001B7DBDE8F08F009B0020002109EBC309DE
:104288000AF1FF3A79E90223FBF7DAFFBAF1FF3FB7
:10429800F6D1039B0246002B69D001F1004308992F
:1042A800C1E90023059B03F007000DF51B7DBDE860
:1042B800F08F002600278EE7A49B032BD4D8DFE8D5
:1042C80003F0503535020DF59479039B0020002149
:1042D800002B00F0DC80D9F80C30089FD9F80420B6
:1042E800D9F80050D9F80840386103F10043FB6061
:1042F800059B3D6002F1004201F1004103F0070017
:104308007A60BC6079610DF51B7DBDE8F08F00BF58
:10431800000000000000F03F0000F03F0000E03F18
:10432800000070410000703E184B0008039B0020FD
:1043380000210DF59479002B7FF475AF089B024698
:10434800C3E900010B46D9E90001FBF777FFBAF191
:10435800000F3FF777AF0B4608990246C1E90223E1
:1043680082E7039B002000210246002B95D10B46D3
:104378000899C1E9002395E70EAB069A53F82A304D
:10438800CDF80C90183ACDF814800692002B7FF4E3
:10439800C7AE0EAB03EB8A0353F8041D0AF1FF3ACC
:1043A800183A0029F8D00692BAE60123EBE5002472
:1043B800AAE5BAF1000F88DD4FEACA0809EB080B35
:1043C80008F1080CDBE90067CC44CDF81080E04622
:1043D8003BED027B304653EC172B39468DED007BC5
:1043E800FBF72EFF04460D4622462B46DDE9000169
:1043F800FBF724FF02460B4630463946FBF720FF01
:10440800CB4568E9020126462F46CBE90045DFD1B6
:10441800BAF1010FDDF810807FF757AF09EB0805F7
:1044280008F10804D5E900AB4C44A0460DF5987C8A
:1044380035ED027B52465B4651EC170BCDF810C0A8
:104448008DED007BFBF7FCFE06460F4632463B46E9
:10445800DDE90001FBF7F2FE52465B46FBF7F0FE92
:10446800DDF810C0654568E90201B246BB46C5E9FA
:104478000067DDD1002000214EAD74E90223FBF76F
:10448800DFFEAC42F9D1039B002B7FF424AFD9E9BE
:104498000223089FD9E90045C7E90223059BC7E91C
:1044A800040103F00700C7E900450DF51B7DBDE8D1
:1044B800F08F30463946FCF70FFB0EABAA4643F89F
:1044C80025002DE6AFF300802DE9F04F55EC104B99
:1044D8002DED028BB0EE418AF0EE618A25F00043A3
:1044E800B3F1795F83B0824607DA10EE100A2946E5
:1044F800FCF7F2FA002800F08C8022462B46204672
:104508002946FCF74FF822462B4606460F46FCF78D
:1045180049F846A3D3E90023804689463046394600
:10452800FCF740F843A3D3E90023FBF787FE3246A4
:104538003B46FCF737F841A3D3E90023FBF780FE9D
:1045480032463B46FCF72EF83EA3D3E90023FBF79F
:1045580075FE32463B46FCF725F83CA3D3E9002319
:10456800FBF76EFECDE90001BAF1000F37D051EC30
:10457800180B00222C4BFCF715F8DDE900238246C6
:104588008B4640464946FCF70DF802460B46504616
:104598005946FBF753FE32463B46FCF703F853EC0B
:1045A800182BFBF74BFE1EA3D3E9002306460F4644
:1045B80040464946FBF7F6FF02460B463046394669
:1045C800FBF73EFE02460B4620462946FBF736FE21
:1045D80041EC100B03B0BDEC028BBDE8F08FDDE9B8
:1045E800002330463946FBF7DDFF0DA3D3E900234E
:1045F800FBF724FE42464B46FBF7D4FF22462B46E8
:10460800FBF71EFE41EC100B03B0BDEC028BBDE8BE
:10461800F08F45EC104B03B0BDEC028BBDE8F08F7A
:10462800495555555555C53F0000E03F7CD5CF5AF3
:104638003AD9E53DEB9C2B8AE6E55A3E7DFEB1571B
:10464800E31DC73ED561C119A0012A3FA6F8101184
:104658001111813FAFF3008051EC100B2DE9F843A5
:10466800C1F30A57A7F2FF35132D0C4610EE103A86
:10467800884606461CDC002D42DB3D4F2F4107EAE9
:104688000102134319D038A3D3E90023FBF7D8FD5F
:1046980000220023FCF716FA20B1002C49DB28EA97
:1046A800070400262346324643EC102BBDE8F88366
:1046B800332D06DDB5F5806F32D041EC100BBDE827
:1046C800F883A7F213434FF0FF3929FA03F919EADF
:1046D800000FF2D024A3D3E90023FBF7B1FD002299
:1046E8000023FCF7EFF90028DCD0002C26DB444639
:1046F80026EA09062346324643EC102BBDE8F88328
:1047080019A3D3E90023FBF79BFD00220023FCF744
:10471800D9F90028C6D0002C1CDB00263446C1E796
:1047280010EE102A0B46FBF78BFD41EC100BBDE891
:10473800F8834FF480132B419844B0E7142D06D02A
:10474800C7F5866703370123BB409E19CFD308F10D
:104758000108CCE724F00042064B324318BF1C4640
:1047680000269FE7AFF300809C7500883CE4377E05
:10477800FFFF0F000000F0BF53EC102B70B5C3F320
:104788000A54194605463CBB23F00041114337D073
:1047980019460022364B374E10EE100AFBF702FF7F
:1047A800B54202460B463BDBC1F30A54363C2C4467
:1047B80040F2FE70844218DD43EC112B9FED280B6C
:1047C80000F05EF826A3D3E9002351EC100BFBF7A9
:1047D800E9FE41EC100B70BD40F2FF70844227D017
:1047E8002C4440F2FE708442E6DC002C09DD21F006
:1047F800FF4121F4E00141EA045343EC102B70BD62
:1048080070BD14F1350F1BDA4CF250318D42D3DCF8
:104818009FED150B43EC112B00F032F851EC100B07
:1048280011A3D3E90023FBF7BDFE41EC100B70BDCB
:1048380010EE100A1946FBF703FD41EC100B70BD92
:1048480021F0FF4121F4E001363441EA04531046D7
:1048580019460022084BFBF7A5FE41EC100B70BD72
:104868009C7500883CE4377E59F3F8C21F6EA50199
:1048780000005043B03CFFFF0000903CAFF30080C5
:1048880053EC102B11EE900A23F0004100F0004089
:1048980040EA010343EC102B704700BF044A054966
:1048A8001368002B08BF0B46184410601846704761
:1048B800B0000020F0010020F8B500BFF8BC08BC2B
:1048C8009E467047F8B500BFF8BC08BC9E467047C6
:1048D80041747474656E7A696F6E2C207A6573748E
:1048E8002062617274692021000000000A2564209A
:1048F8002F202564202F2025640A5F5F5F5F5F5F9C
:104908005F5F5F5F5F5F5F000A2564202F2025647B
:104918000A5F5F5F5F5F5F5F5F5F5F5F5F5F5F5FF4
:104928005F5F5F5F00000000000000000000000003
:10493800010203040607080900000000010203043D
:104948004300232D302B2000686C4C0065666745BA
:1049580046470030313233343536373839414243EF
:1049680044454600303132333435363738396162A0
:104978006364656600000000FB21F93FFB210940E4
:104988007CD91240FB2119407A6A1F407CD9224009
:10499800BBFD2540FB2129403A462C407A6A2F402E
:1049A8005C4731407CD932409C6B3440BBFD35407C
:1049B800DB8F3740FB2139401BB43A403A463C4034
:1049C8005AD83D407A6A3F404C7E40405C4741405F
:1049D8006C1042407CD942408CA243409C6B4440BE
:1049E800AC344540BBFD4540CBC64640DB8F474015
:1049F800EB584840FB21494083F9A200444E6E0021
:104A0800FC291500D1572700DD34F50062DBC00012
:104A18003C999500419043006351FE00BBDEAB001A
:104A2800B761C5003A6E2400D24D42004906E00045
:104A380009EA2E001C92D100EB1DFE0029B11C00D2
:104A4800E83EA700F535820044BB2E009CE98400AF
:104A5800B4267000417E5F00D69139005383390037
:104A68009CF439008B5F840028F9BD00F81F3B00D7
:104A7800DEFF97000F980500112FEF000A5A8B00F0
:104A88006D1F6D00CF7E360009CB2700464FB7005B
:104A98009E663F002DEA5F00BA277500E5EBC70068
:104AA8003D7BF100F739070092528A00FB6BEA0060
:104AB8001FB15F00085D8D00300356007BFC460087
:104AC800F0AB6B0020BCCF0036F49A00E3A91D00C0
:104AD8005E619100081BE60085996500A0145F00DF
:104AE8008D40680080D8FF0027734D00060631000E
:104AF800CA561500C9A873007BE260006B8CC00021
:104B0800020000000300000004000000060000008E
:104B180000000040FB21F93F000000002D44743ED6
:104B2800000000809846F83C0000006051CC783BBB
:104B380000000080831BF0390000004020257A38EF
:104B4800000000802282E336000000001DF3693572
:084B58006CC0FF7F01000000AA
:044B60000502000842
:044B6400DD01000867
:104B680010000000010000000024F4000000000014
:104B7800000000000000000000000000000000002D
:104B88000000000000000000000000004849000884
:104B9800000000000000000000000000000000000D
:104BA80000000000000000000000000000000000FD
:104BB80000000000000000000000000000000000ED
:104BC8000000000000000000000000000C000020B1
:0400000508002BD9EB
:00000001FF
