:020000040800F2
:100000000080012009330008493000084B30000807
:100010004D3000084F30000851300008000000004B
:100020000000000000000000000000005330000845
:100030005530000800000000573000085930000813
:100040005933000859330008593300085933000860
:100050005933000859330008593300085933000850
:100060005933000859330008593300085933000840
:100070005933000859330008593300085933000830
:1000800059330008593300085933000800000000B4
:1000900000000000000000000000000059330008CC
:1000A0005933000859330008593300085933000800
:1000B00059330008593300085933000859330008F0
:1000C00059330008593300085933000859330008E0
:1000D0005933000859330008593300080000000064
:1000E0005933000859330008593300080000000054
:1000F000000000000000000000000000593300086C
:100100000000000059330008593300085933000833
:1001100000000000000000000000000000000000DF
:10012000593300085933000859330008593300087F
:10013000593300080000000000000000000000002B
:10014000000000000000000000000000593300081B
:10015000593300085933000859330008593300084F
:100160005933000859330008000000000000000067
:10017000000000000000000000000000000000007F
:1001800000000000593300080000000000000000DB
:0401900059330008D7
:10019800044B05481B1A062B02D9044B03B1184718
:1001A800704700BFF7000020F400002000000000A6
:1001B80005490648091A891001EBD171491002D086
:1001C800034B03B118477047F4000020F4000020E7
:1001D8000000000010B5064C237843B9FFF7D8FF9C
:1001E800044B13B10448AFF300800123237010BD02
:1001F800F8000020000000009868000808B5084BC7
:100208001BB108480849AFF300800848036813B9D0
:10021800BDE80840CCE7064B002BF9D09847F7E734
:100228000000000098680008FC000020F40000208E
:100238000000000081F0004102E000BF83F00043AD
:1002480030B54FEA41044FEA430594EA050F08BF69
:1002580090EA020F1FBF54EA000C55EA020C7FEA2D
:10026800645C7FEA655C00F0E2804FEA5454D4EBAA
:100278005555B8BF6D420CDD2C4480EA020281EA74
:10028800030382EA000083EA010180EA020281EAAC
:100298000303362D88BF30BD11F0004F4FEA0131FE
:1002A8004FF4801C4CEA113102D0404261EB41010D
:1002B80013F0004F4FEA03334CEA133302D0524293
:1002C80063EB430394EA050F00F0A780A4F101044F
:1002D800D5F1200E0DDB02FA0EFC22FA05F2801889
:1002E80041F1000103FA0EF2801843FA05F359416F
:1002F8000EE0A5F120050EF1200E012A03FA0EFCEE
:1003080028BF4CF0020C43FA05F3C01851EBE37117
:1003180001F0004507D54FF0000EDCF1000C7EEB34
:1003280000006EEB0101B1F5801F1BD3B1F5001F72
:100338000CD349085FEA30004FEA3C0C04F1010491
:100348004FEA445212F5800F80F09A80BCF1004FBA
:1003580008BF5FEA500C50F1000041EB045141EA3C
:10036800050130BD5FEA4C0C404141EB010111F43D
:10037800801FA4F10104E9D191F0000F04BF0146E8
:100388000020B1FA81F308BF2033A3F10B03B3F1C6
:1003980020020CDA0C3208DD02F1140CC2F10C0256
:1003A80001FA0CF021FA02F10CE002F11402D8BFB4
:1003B800C2F1200C01FA02F120FA0CFCDCBF41EA80
:1003C8000C019040E41AA2BF01EB0451294330BD4F
:1003D8006FEA04041F3C1CDA0C340EDC04F114042C
:1003E800C4F1200220FA04F001FA02F340EA030003
:1003F80021FA04F345EA030130BDC4F10C04C4F149
:10040800200220FA02F001FA04F340EA0300294628
:1004180030BD21FA04F0294630BD94F0000F83F472
:10042800801306BF81F480110134013D4EE77FEA55
:10043800645C18BF7FEA655C29D094EA050F08BFA1
:1004480090EA020F05D054EA000C04BF1946104682
:1004580030BD91EA030F1EBF0021002030BD5FEAC6
:10046800545C05D14000494128BF41F0004130BDEE
:1004780014F580043CBF01F5801130BD01F0004542
:1004880045F0FE4141F470014FF0000030BD7FEAB5
:10049800645C1ABF194610467FEA655C1CBF0B46B0
:1004A800024650EA013406BF52EA033591EA030FC7
:1004B80041F4002130BD00BF90F0000F04BF0021BF
:1004C800704730B54FF4806404F132044FF00005F2
:1004D8004FF0000150E700BF90F0000F04BF00216B
:1004E800704730B54FF4806404F1320410F00045D1
:1004F80048BF40424FF000013EE700BF42004FEACC
:10050800E2014FEA31014FEA02701FBF12F07F4348
:1005180093F07F4F81F06051704792F0000F14BF45
:1005280093F07F4F704730B54FF4607401F0004589
:1005380021F0004120E700BF50EA010208BF7047E0
:1005480030B54FF000050AE050EA010208BF7047D5
:1005580030B511F0004502D5404261EB41014FF43E
:10056800806404F132045FEA915C3FF4DCAE4FF042
:1005780003025FEADC0C18BF03325FEADC0C18BF29
:10058800033202EBDC02C2F1200300FA03FC20FA7A
:1005980002F001FA03FE40EA0E0021FA02F11444C7
:1005A800C1E600BF70B54FF0FF0C4CF4E06C1CEADC
:1005B80011541DBF1CEA135594EA0C0F95EA0C0F51
:1005C80000F0DEF82C4481EA030621EA4C5123EAC4
:1005D8004C5350EA013518BF52EA033541F48011F3
:1005E80043F4801338D0A0FB02CE4FF00005E1FBA6
:1005F80002E506F00042E0FB03E54FF00006E1FBF0
:1006080003569CF0000F18BF4EF0010EA4F1FF0432
:10061800B6F5007F64F5407404D25FEA4E0E6D4172
:1006280046EB060642EAC62141EA55514FEAC52083
:1006380040EA5E504FEACE2EB4F1FD0C88BFBCF5FF
:10064800E06F1ED8BEF1004F08BF5FEA500E50F1B0
:10065800000041EB045170BD06F0004646EA010176
:1006680040EA020081EA0301B4EB5C04C2BFD4EBA8
:100678000C0541EA045170BD41F480114FF0000EA1
:10068800013C00F3AB8014F1360FDEBF002001F00F
:10069800004170BDC4F10004203C35DA0C341BDC89
:1006A80004F11404C4F1200500FA05F320FA04F05B
:1006B80001FA05F240EA020001F0004221F000418F
:1006C80010EBD37021FA04F642EB06015EEA430E02
:1006D80008BF20EAD37070BDC4F10C04C4F1200532
:1006E80000FA04F320FA05F001FA04F240EA0200E5
:1006F80001F0004110EBD37041F100015EEA430EB6
:1007080008BF20EAD37070BDC4F1200500FA05F2D5
:100718004EEA020E20FA04F301FA05F243EA020354
:1007280021FA04F001F0004121FA04F220EA020063
:1007380000EBD3705EEA430E08BF20EAD37070BDA9
:1007480094F0000F0FD101F00046400041EB010189
:1007580011F4801F08BF013CF7D041EA060195F06B
:10076800000F18BF704703F00046520043EB030325
:1007780013F4801F08BF013DF7D043EA0603704712
:1007880094EA0C0F0CEA135518BF95EA0C0F0CD01D
:1007980050EA410618BF52EA4306D1D181EA030163
:1007A80001F000414FF0000070BD50EA410606BF5D
:1007B8001046194652EA430619D094EA0C0F02D1A2
:1007C80050EA013613D195EA0C0F05D152EA0336E7
:1007D8001CBF104619460AD181EA030101F0004105
:1007E80041F0FE4141F470014FF0000070BD41F04E
:1007F800FE4141F4780170BD70B54FF0FF0C4CF428
:10080800E06C1CEA11541DBF1CEA135594EA0C0F46
:1008180095EA0C0F00F0A7F8A4EB050481EA030E93
:1008280052EA03354FEA013100F088804FEA03337A
:100838004FF0805545EA131343EA12634FEA022248
:1008480045EA111545EA10654FEA00260EF0004109
:100858009D4208BF964244F1FD0404F5407402D25B
:100868005B084FEA3202B61A65EB03055B084FEAEC
:1008780032024FF480104FF4002CB6EB020E75EBE9
:10088800030E22BFB61A754640EA0C005B084FEA11
:100898003202B6EB020E75EB030E22BFB61A75468E
:1008A80040EA5C005B084FEA3202B6EB020E75EBD9
:1008B800030E22BFB61A754640EA9C005B084FEA51
:1008C8003202B6EB020E75EB030E22BFB61A75465E
:1008D80040EADC0055EA060E18D04FEA051545EA4D
:1008E80016754FEA06164FEAC30343EA52734FEAF6
:1008F800C2025FEA1C1CC0D111F4801F0BD141EA6F
:1009080000014FF000004FF0004CB6E711F4801FD3
:1009180004BF01430020B4F1FD0C88BFBCF5E06FB3
:100928003FF6AFAEB5EB030C04BFB6EB020C5FEAC3
:10093800500C50F1000041EB045170BD0EF0004E18
:100948004EEA113114EB5C04C2BFD4EB0C0541EA4A
:10095800045170BD41F480114FF0000E013C90E647
:1009680045EA060E8DE60CEA135594EA0C0F08BF0B
:1009780095EA0C0F3FF43BAF94EA0C0F0AD150EA0A
:1009880001347FF434AF95EA0C0F7FF425AF10469D
:1009980019462CE795EA0C0F06D152EA03353FF4C5
:1009A800FDAE1046194622E750EA410618BF52EA42
:1009B80043067FF4C5AE50EA41047FF40DAF52EA16
:1009C80043057FF4EBAE12E74FF0FF3C06E000BFB3
:1009D8004FF0010C02E000BF4FF0010C4DF804CDC0
:1009E8004FEA410C7FEA6C5C4FEA430C18BF7FEA80
:1009F8006C5C1BD001B050EA410C0CBF52EA430CAE
:100A080091EA030F02BF90EA020F0020704710F12D
:100A1800000F91EA030F58BF994208BF90422CBFBC
:100A2800D8176FEAE37040F0010070474FEA410CB5
:100A38007FEA6C5C02D150EA013C07D14FEA430CD3
:100A48007FEA6C5CD6D152EA033CD3D05DF8040B44
:100A5800704700BF8446104662468C461946634676
:100A680000E000BF01B5FFF7B7FF002848BF10F14D
:100A7800000F01BD4DF808EDFFF7F4FF0CBF012092
:100A880000205DF808FB00BF4DF808EDFFF7EAFF0E
:100A980034BF012000205DF808FB00BF4DF808EDC9
:100AA800FFF7E0FF94BF012000205DF808FB00BFBE
:100AB8004DF808EDFFF7CEFF94BF012000205DF848
:100AC80008FB00BF4DF808EDFFF7C4FF34BF012055
:100AD80000205DF808FB00BF4FEA410212F5001242
:100AE80015D211D56FF47873B3EB625212D94FEA6D
:100AF800C12343F0004343EA505311F0004F23FA57
:100B080002F018BF404270474FF00000704750EAAB
:100B1800013005D111F0004008BF6FF00040704768
:100B28004FF00000704700BF4A0011D212F50012C2
:100B380011D20DD56FF47873B3EB62520ED44FEA2D
:100B4800C12343F0004343EA505323FA02F07047AD
:100B58004FF00000704750EA013002D14FF0FF30EB
:100B680070474FF00000704753B94AB9002908BFD1
:100B780000281CBF4FF0FF314FF0FF3000F03CB8A9
:100B880082B0EC462DE9005000F01EF8DDF804E0D4
:100B980002B00CBC704700BF2DE9F041069C154619
:100BA80006460F46984600F029F805FB01F300FBBE
:100BB8000838A5FB0023B21A434467EB0303C4E9D2
:100BC8000023BDE8F08100BF2DE9F041069C904666
:100BD80006460F461D4600F05FF900FB05F5A0FB31
:100BE800082308FB0155B21A2B4467EB0303C4E939
:100BF8000023BDE8F08100BF704700BF00292DE940
:100C0800F043C0F2A6800026002BC0F29C808846E4
:100C180094469E46154604460F46002B3DD18A420F
:100C280059D9B2FA82F33BB1C3F120029F4020FAAE
:100C380002F29D4017439C40290C220CB7FBF1FEA1
:100C4800A8B201FB1E7742EA074700FB0EF3BB423E
:100C58000AD97F190EF1FF3280F00581BB4240F2BC
:100C68000281AEF1020E2F44FF1AA4B2B7FBF1F3D2
:100C780001FB137744EA074700FB03F0B84208D9A1
:100C88007F1903F1FF3280F0F080B84240F2ED8026
:100C9800023B43EA0E43002203E08B420FD90022B5
:100CA8001346341C18BF012460424FF0000565EB61
:100CB80045015840514000196941BDE8F083B3FA35
:100CC80083F2002A40F086808B4202D3844500F2EA
:100CD800DB800123E5E712B90123B3FBF2F5B5FA8E
:100CE80085F000283BD1781B4FEA154E1FFA85FC8A
:100CF8000122B0FBFEF8210C0EFB180741EA07475A
:100D08000CFB08F3BB4207D97F1908F1FF3102D267
:100D1800BB4200F2BD808846FF1AA4B2B7FBFEF3BF
:100D28000EFB137744EA07470CFB03FCBC4507D9C5
:100D38007F1903F1FF3102D2BC4500F2A7800B46B0
:100D480043EA0843ADE752426FEA060663EB430302
:100D58005DE7404261EB41014FF0FF3654E7C0F1D7
:100D6800200224FA02F107FA00F385404FEA154EF3
:100D7800D7401943B7FBFEF20B0C0EFB12771FFA94
:100D880085FC43EA07430CFB02F79F4204FA00F490
:100D980007D95B1902F1FF3074D29F4272D9023A27
:100DA8002B44DF1B89B2B7FBFEF80EFB187341EA30
:100DB80003430CFB08F79F4208D95B1908F1FF3180
:100DC8005CD29F425AD9A8F102082B44D81B48EAA2
:100DD80002428EE7C2F120032CFA03F10EFA02FE5A
:100DE80020FA03F741EA0E0E08FA02F028FA03F196
:100DF8004FEA1E453843B1FBF5F8030C05FB181103
:100E08001FFA8EF743EA014107FB08F38B420CFAFD
:100E180002FC09D911EB0E0108F1FF3930D28B42DF
:100E28002ED9A8F102087144C91A80B2B1FBF5F3B2
:100E380005FB131140EA014107FB03F78F4208D96C
:100E480011EB0E0103F1FF3016D28F4214D9023B89
:100E5800714443EA0843C91BA3FB0C89494509D3DC
:100E680005D000221DE79646FEE6134611E794409A
:100E78004445F6D2013BF4E70346EAE78846A5E78E
:100E8800C846D1E702468CE713460AE7023B57E714
:100E9800A8F102082F443FE72DE9F041002B44D187
:100EA8008A42154604464FD9B2FA82F70E464FB128
:100EB800C7F12003B94020FA03F602FA07F50E43FA
:100EC80000FA07F44FEA154E230CB6FBFEF0AFB25A
:100ED8000EFB106143EA014307FB00F1994209D96F
:100EE8005B1900F1FF3280F0EC80994240F2E98012
:100EF80002382B445A1AA4B2B2FBFEF30EFB13229B
:100F080044EA024207FB03F7974208D9521903F152
:100F1800FF3180F0D880974240F2D580023B43EA07
:100F2800004000263146BDE8F0818B4247D8B3FA2D
:100F380083F6002E48D18B4202D3824200F2CD8044
:100F480001203146BDE8F08112B90125B5FBF2F563
:100F5800B5FA85F8B8F1000F77D14A1B4FEA154E5C
:100F6800AFB20126B2FBFEF0230C0EFB102143EAC0
:100F7800014107FB00F38B4207D9491900F1FF3201
:100F880002D28B4200F2BA801046C91AA4B2B1FB51
:100F9800FEF30EFB131144EA014407FB03F7A742D3
:100FA80008D9641903F1FF3280F08F80A74240F21C
:100FB8008C80023B43EA00403146BDE8F0810026C0
:100FC80030463146BDE8F081C6F1200422FA04F526
:100FD800B3402B4320FA04FC01FA06F721FA04F582
:100FE8004FEA134E4CEA0707B5FBFEF8390C0EFB27
:100FF80018551FFA83FC41EA05450CFB08F1A94284
:1010080002FA06F204D9ED1808F1FF3467D3A046B6
:101018006D1ABFB2B5FBFEF40EFB145547EA054145
:101028000CFB04FC8C4504D9C91804F1FF355CD3CA
:101038002C4644EA0844CCEB0101A4FB0223994264
:1010480048D344D0204600266CE7C8F1200401FAB2
:1010580008F305FA08F520FA04F7E1404FEA154EBF
:101068001F43B1FBFEF63A0C0EFB16111FFA85FC66
:1010780042EA01430CFB06F29A4200FA08F407D947
:101088005B1906F1FF3137D29A4235D9023E2B441B
:101098009B1ABFB2B3FBFEF00EFB103347EA0343C3
:1010A8000CFB00F1994207D95B1900F1FF3221D2FC
:1010B80099421FD902382B445A1A40EA0646674615
:1010C80050E7104616E70B4629E7134672E7B0408B
:1010D8009042B7D2601E002624E7304622E7A94294
:1010E80095D9A8F102081D4492E78C45A0D9023C85
:1010F80019449EE71046DFE70E46C9E7023829443F
:1011080043E700BF000000002DE9F0472DED028BFA
:1011180080468A4615461C46DDF82890431807EE97
:10112800903AF8EEE77AB6EE008A67EE887A17EE1C
:10113800900AFFF7E3F906460F46CAEB080807EEE0
:10114800908AF8EEE77A67EE887A17EE900AFFF74A
:10115800D5F924A3D3E90023FFF74EFBD9E90023EF
:10116800FFF76EF841EC180BC9E9000141EC100BD0
:1011780004F082F951EC100B32463B46FFF712FAA5
:1011880080468946B0EE480AF0EE680A04F0C8F9CD
:1011980051EC100B32463B46FFF704FA06460F4661
:1011A8004046494600220E4BFFF726FB02460B46F7
:1011B800D5E90001FFF744F8C5E900013046394692
:1011C8000022074BFFF718FB02460B46D4E9000143
:1011D800FFF736F8C4E90001BDEC028BBDE8F087E3
:1011E800000034400000000000C899402DE9F84391
:1011F8008046894657EC126B55EC134B254B1B6800
:10120800012B05D1244B83ED002B0022214B1A60C2
:1012180020462946204BD3E90023FFF753FCE0B1D1
:101228002046294632463B46FFF74CFC48B14FF46E
:101238007A73C9F80030A3F5FA63C8F80030BDE83E
:10124800F8830023C9F80030C8F800300123134A96
:101258001360104A1360BDE8F883204629463246D9
:101268003B46FFF711FC40B10D4BC9F800304FF475
:101278007A73C8F80030BDE8F8830023C9F8003055
:10128800C8F800300123054A1360024A1360BDE81C
:10129800F88300BF3C000020700100206801002096
:1012A80018FCFFFF38B555EC104B10EE100A294614
:1012B80000220023FFF7E8FB10B105F100431D46AB
:1012C80045EC104B38BD00BF2DE9F0472DED088BDC
:1012D80082468946B0EE409AF0EE609AB0EE41AA96
:1012E800F0EE61AA51EC120BB0EE438AF0EE638A7D
:1012F800B0EE44BAF0EE64BA14461D463F4B1B6884
:10130800012B05D13E4B83ED002B00223B4B1A608D
:101318003B4BD3E90023FEF791FF06460F4651ECFD
:10132800190B53EC182BFEF789FF41EC100BFFF754
:10133800B9FF51EC100B0022324BFFF7A5FBA0B10F
:1013480051EC1A0B53EC1B2BFEF778FF41EC100BFA
:10135800FFF7A8FF51EC100B00222A4BFFF794FB74
:1013680018B1294A136801331360274B1B68052BF2
:101378000CDD0023244A1360012224490A60CAF8BC
:101388000030C9F800301D4B1A6033E0C5F1AA05DA
:101398001F4A13682B44136005EB85084FEA480879
:1013A8003046394600221B4BFFF7FCF806460F462D
:1013B8004046FFF791F832463B46FEF741FFFFF7FC
:1013C8008BFBCAF80000144B1D60C4F1AA04134A31
:1013D80013682344136004EB84004000FFF77CF893
:1013E80032463B46FEF72AFFFFF776FBC9F80000B6
:1013F8000B4B1C60BDEC088BBDE8F0873800002063
:101408001801002000004940140100206801002054
:101418007801002000408F40600100206401002016
:10142800200100202DE9F0432DED068B91B0814677
:101438008846B0EE40AAF0EE60AAB0EE419AF0EE0F
:10144800619AB0EE428AF0EE628A17461E464B4B0E
:101458001B68012B0DD10022484B1A60484A1368BB
:10146800013313601EA8474911224FF0FF3300F0E3
:101478001EFD434B1B68444AD25C413A132A78D874
:10148800DFE802F0327777776F7777777777777754
:101498000A7777777777775ADB003C4A1A4492EDD8
:1014A800003B3B4A134493ED004B6C461EAD0FCDF9
:1014B8000FC40FCD0FC40FCD0FC495E80F0084E8FB
:1014C8000F0048464146B0EE4A0AF0EE6A0AB0EE0E
:1014D800491AF0EE691AB0EE482AF0EE682A3A4640
:1014E8003346FFF7F1FE44E0DB00284A1A4492ED48
:1014F800003B274A134493ED004B6C461EAD0FCDBD
:101508000FC40FCD0FC40FCD0FC495E80F0084E8AA
:101518000F0048464146B0EE4A0AF0EE6A0AB0EEBD
:10152800491AF0EE691AB0EE482AF0EE682A3A46EF
:101538003346FFF75BFE1CE01EA816490E224FF04B
:10154800FF3300F0B4FC0E4B1A68104B03EBC203D8
:10155800D3E90001FFF7E8FA01F0B0F90122074BDF
:101568001A601EA80C490E224FF0FF3300F09FFCB2
:10157800FEE711B0BDEC068BBDE8F08368010020E2
:101588006C010020B0680008400000200000002026
:1015980028010020C4680008D468000830B4036A31
:1015A80023F001030362036A4468826922F073022C
:1015B8000D682A4323F002038D682B430B4DA84284
:1015C80006D0446082614A684263036230BC704757
:1015D80023F00803CD682B4323F0040324F440745C
:1015E8004D692C438D692C43EBE700BF0000014097
:1015F80030B4036A23F480730362036A4468C269DF
:1016080022F073020D682A4323F400738D6843EABD
:1016180005230D4DA84206D04460C2614A68C263E2
:10162800036230BC704723F40063CD6843EA0523A6
:1016380023F4806324F440544D6944EA05148D6909
:1016480044EA0514E8E700BF0000014030B4036A2B
:1016580023F480530362036A4468C26922F4E642B1
:101668000D6842EA052223F400538D6843EA0533E6
:10167800074DA84206D04460C2614A68026403620A
:1016880030BC704724F480444D6944EA8514F2E77D
:10169800000001400368324A904245D0B0F1804FC3
:1016A80044D0A2F57C42904242D002F5806290423A
:1016B80040D002F58062904234D000221AB123F063
:1016C80070034A681343264A904237D0B0F1804FDE
:1016D80036D0A2F57C42904234D002F58062904226
:1016E80032D002F58062904230D002F59A329042B0
:1016F8002ED002F5806290422CD002F58062904292
:101708001AD000221AB123F44073CA681343036045
:101718008B68C3620B688362114B98421CD001230B
:10172800436170470122C9E70122C7E70122C5E7E3
:101738000122C3E70122C1E70122E3E70122E1E731
:101748000122DFE70122DDE70122DBE70122D9E7F9
:101758000122D7E70122D5E70B690363DFE700BF62
:1017680000000140A8B110B5044690F839305BB1CB
:10177800022384F83930211D2068FFF78BFF0123ED
:1017880084F83930002010BD80F8383001F084FC2E
:10179800EEE701207047002847D0F8B505460C460B
:1017A80090F83930002B3BD0022385F83930294690
:1017B80051F8042B936823F0070393602868FFF718
:1017C80069FF286886688369026A21680E4323F4E2
:1017D800407323F00303A168A76941EA07210B437B
:1017E80023F47C4323F0FC03E168E76941EA07211D
:1017F8000B432769216A090341EA07110B4322F0C9
:10180800AA026168646941EA04110A43866029688A
:101818008B612B681A62012385F839300020F8BDE6
:1018280080F8383001F072FCBEE7012070470000F4
:1018380030B4036A23F010030362036A44688269C0
:1018480022F4E6420D6842EA052223F020038D685F
:1018580043EA05130C4DA84206D0446082614A68E9
:101868008263036230BC704723F08003CD6843EA8B
:10187800051323F0400324F440644D6944EA8504C9
:101888008D6944EA8504E8E70000014038B590F81E
:101898003830012B66D00D460446012380F83830D5
:1018A800022380F839300C2A1AD8DFE802F0071929
:1018B8001919201919193419191947000068FFF75F
:1018C8006DFE2268936943F0080393612268936967
:1018D80023F0040393612268936929690B43936198
:1018E800012384F83930002084F8380038BD0068B6
:1018F800FFF79EFF2268936943F4006393612268AF
:10190800936923F48063936122689369296943EAA0
:1019180001239361E4E70068FFF76AFE2268D36950
:1019280043F00803D3612268D36923F00403D36129
:101938002268D36929690B43D361D1E70068FFF7AF
:1019480085FE2268D36943F40063D3612268D369B2
:1019580023F48063D3612268D369296943EA0123A8
:10196800D361BDE7022038BD10B4012303FA01F4A6
:10197800036A23EA04030362036A8A401343036287
:101988005DF8044B7047000010B50446012200685A
:10199800FFF7EAFF2368074A934206D022681368D4
:1019A80043F001031360002010BD5A6C42F400425A
:1019B8005A64F3E70000014010B5044661B10429F8
:1019C80016D0012200210068FFF7CEFF0122042172
:1019D8002068FFF7C9FF04E0012200210068FFF733
:1019E800C3FF2268136843F001031360002010BD91
:1019F800012204210068FFF7B7FFF2E790F83830BA
:101A0800012B22D030B4012280F83820022380F83C
:101A180039300468636823F070036360046863689E
:101A28000D682B4363600468A36823F08003A360F8
:101A38000468A36849680B43A36080F83920002331
:101A480080F83830184630BC70470220704790F84C
:101A58003830012B25D0012380F83830CB6823F4A7
:101A680040738A68134323F480634A68134323F45A
:101A780000630A68134323F480530A69134323F469
:101A880000534A69134323F480438A69134323F4B8
:101A98000043134302685364002380F83830184623
:101AA80070470220704700002DE9F047044602689D
:101AB800136923F44053C1680B4313610168CB6871
:101AC80023F4164323F00C0382680069024360691B
:101AD8000243E06902431343CB602268536923F44D
:101AE8004073A1690B435361E369B3F5004F62D0BA
:101AF800D4F80080BB4B984500F01B8103F5806348
:101B0800984500F0168100F02BFD00EB800000EBFB
:101B180080006568AD00B0FBF5F5B34FA7FB053550
:101B28006D092E0100F01CFD00EB800000EB800029
:101B38006568AD00B0FBF5FA00F012FD00EB80001F
:101B480000EB80006568AD00B0FBF5F5A7FB053537
:101B58006D094FF0640909FB15A52D013235A7FB66
:101B680005356D0905F0F005354400F0F9FC00EB8A
:101B7800800000EB80006668B600B0FBF6F600F067
:101B8800EFFC00EB800000EB800063689B00B0FB7B
:101B9800F3F0A7FB0030400909FB10694FEA091967
:101BA80009F13209A7FB0937C7F343172F44C8F8CF
:101BB8000870BDE8F087D4F8008003F1804303F58E
:101BC800104398455CD003F58063984558D000F0E1
:101BD800C7FC00EB800000EB800065686D00B0FB7F
:101BE800F5F5814FA7FB05356D092E0100F0B8FC0E
:101BF80000EB800000EB800065686D00B0FBF5FA33
:101C080000F0AEFC00EB800000EB800065686D0022
:101C1800B0FBF5F5A7FB05356D094FF0640909FB25
:101C280015A5ED003235A7FB05356D096D0005F4E6
:101C3800F875354400F094FC00EB800000EB800060
:101C480066687600B0FBF6F600F08AFC00EB8000D0
:101C580000EB800063685B00B0FBF3F3A7FB032392
:101C68005B0909FB13694FEAC90909F13209A7FBA6
:101C78000937C7F342172F44C8F80870BDE8F08742
:101C880000F07EFC00EB800000EB800065686D00D2
:101C9800B0FBF5F5544FA7FB05356D092E0100F093
:101CA8006FFC00EB800000EB800065686D00B0FB06
:101CB800F5FA00F065FC00EB800000EB8000656839
:101CC8006D00B0FBF5F5A7FB05356D094FF064090C
:101CD80009FB15A5ED003235A7FB05356D096D002B
:101CE80005F4F875354400F04BFC00EB800000EB80
:101CF800800066687600B0FBF6F600F041FC00EB69
:101D0800800000EB800063685B00B0FBF3F3A7FB87
:101D180003235B0909FB13694FEAC90909F1320971
:101D2800A7FB0937C7F342172F44C8F80870BDE866
:101D3800F08700F025FC00EB800000EB8000656870
:101D4800AD00B0FBF5F5284FA7FB05356D092E0151
:101D580000F016FC00EB800000EB80006568AD0029
:101D6800B0FBF5FA00F00CFC00EB800000EB800003
:101D78006568AD00B0FBF5F5A7FB05356D094FF0BB
:101D8800640909FB15A52D013235A7FB05356D0939
:101D980005F0F005354400F0F3FB00EB800000EBA4
:101DA80080006668B600B0FBF6F600F0E9FB00EBD1
:101DB800800000EB800063689B00B0FBF3F3A7FB97
:101DC80003235B0909FB13694FEA091909F1320971
:101DD800A7FB0937C7F343172F44C8F80870BDE8B5
:101DE800F08700BF001001401F85EB512DE9F0413D
:101DF80005460F4616469846069C2B681B6837EA28
:101E080003030CBF01230023B3421ED1B4F1FF3FEB
:101E1800F3D02CB100F04CFDA0EB08008442ECD2CA
:101E28002A68D36823F4D073D3602A68536923F0EF
:101E380001035361202385F8393085F83A300023AF
:101E480085F838300320BDE8F0810020BDE8F08136
:101E580058B310B5044690F839300BB3242384F8EE
:101E680039302268D36823F40053D3602046FFF743
:101E78001BFE2268136923F4904313612268536997
:101E880023F02A0353612268D36843F40053D360D4
:101E98000020E063202384F8393084F83A3010BDFC
:101EA80080F8383001F0F6F9D8E7012070472DE9BD
:101EB800F04182B01E4690F83930DBB2202B04D0B6
:101EC8000223184602B0BDE8F08104460D4690464C
:101ED800002955D0002A55D090F83830012B01D16F
:101EE8000223EEE7012380F838300023C36321235F
:101EF80080F8393000F0DCFC0746A4F82480A4F808
:101F0800268010E000963B46002280212046FFF7FD
:101F18006DFF002838D122682B88C3F3080353606B
:101F28002369CBB90235E38C9BB2BBB1E38C9BB27E
:101F3800013B9BB2E384A368B3F5805FE2D00096CF
:101F48003B46002280212046FFF750FFF0B9236866
:101F58002A785A600135E6E70135E4E700963B4602
:101F6800002240212046FFF741FF034608B1032322
:101F7800A7E7202284F83920002284F83820A0E737
:101F880001239EE701239CE703239AE7032398E7AD
:101F9800002800F0BB8170B582B00446036813F0D6
:101FA800010F3BD0A74B9B6803F00C03042B2CD0EC
:101FB800A44B9B6803F00C03082B21D06368B3F58E
:101FC800803F4FD0B3F5A02F52D09E4B1A6822F411
:101FD80080321A601A6822F480221A606368002B23
:101FE80050D000F065FC0546964B1B6813F4003F83
:101FF80014D100F05DFC401B6428F5D903208AE168
:10200800904B5B6813F4800FD8D08E4B1B6813F489
:10201800003F03D06368002B00F07A81236813F037
:10202800020F55D0874B9B6813F00C0F3ED0854BA1
:102038009B6803F00C03082B33D0E368002B68D0AF
:102048000122814B1A6000F033FC05467D4B1B686A
:1020580013F0020F54D100F02BFC401B0228F5D9D5
:10206800032058E1774A136843F480331360B5E7D7
:10207800744B1A6842F480221A601A6842F480325B
:102088001A60ABE700F014FC05466E4B1B6813F4AE
:10209800003FC3D000F00CFC401B6428F5D9032096
:1020A80039E1684B5B6813F4800FC6D1654B1B6838
:1020B80013F0020F04D0E368012B01D001202AE1BC
:1020C800604A136823F0F803216943EAC1031360E7
:1020D800236813F0080F40D0636963B301225B4B98
:1020E8001A6000F0E5FB0546564B5B6F13F0020FD4
:1020F80033D100F0DDFB401B0228F5D903200AE1AB
:10210800504A136823F0F803216943EAC1031360B6
:10211800DEE700224C4B1A6000F0CAFB0546494B2B
:102128001B6813F0020FD3D000F0C2FB401B02283B
:10213800F5D90320EFE00022444B1A6000F0B8FB09
:102148000546404B5B6F13F0020F06D000F0B0FB62
:10215800401B0228F5D90320DDE0236813F0040FA3
:1021680079D0384B1B6C13F0805F33D10023019377
:10217800344B1A6C42F080521A641B6C03F0805383
:102188000193019B0125324B1B6813F4807F23D0F8
:10219800A368012B34D0052B38D02A4B1A6F22F0B4
:1021A80001021A671A6F22F004021A67A368002B4B
:1021B80036D000F07DFB0646224B1B6F13F0020F52
:1021C80048D100F075FB801B41F288339842F3D95F
:1021D8000320A0E00025D6E71D4A136843F4807366
:1021E800136000F065FB0646194B1B6813F4807FEB
:1021F800CED100F05DFB801B0228F5D903208AE0D0
:10220800104A136F43F001031367CFE70D4B1A6FA2
:1022180042F004021A671A6F42F001021A67C5E712
:1022280000F046FB0646074B1B6F13F0020F11D058
:1022380000F03EFB801B41F288339842F3D903201B
:1022480069E000BF0038024000004742800E474264
:1022580000700040E5B9A369002B5BD0304A926852
:1022680002F00C02082A58D0022B17D000222D4B5E
:102278001A6000F01DFB0446294B1B6813F0007F11
:1022880042D000F015FB001B0228F5D9032042E0DC
:10229800234A136C23F080531364DCE70022214B9C
:1022A8001A6000F005FB05461D4B1B6813F0007F04
:1022B80006D000F0FDFA401B0228F5D903202AE0D9
:1022C800E369226A1343626A43EA8213A26A5208E4
:1022D800013A43EA0243E26A43EA0263104A53605E
:1022E8000122104B1A6000F0E3FA04460C4B1B68FD
:1022F80013F0007F06D100F0DBFA001B0228F5D9A5
:10230800032008E0002006E0002004E001207047D8
:10231800012000E0002002B070BD0120FBE700BFF3
:102328000038024060004742F8B5314B9B6803F023
:102338000C03042B59D0082B01D02E48F8BD2C4B88
:102348005A6802F03F025B6813F4800F2AD0284BCA
:102358005B68C3F388131E4600275C010025E41A56
:1023680065EB0705A90141EA9461A001001B61EB37
:102378000501CB0043EA5073C400A01943EB0701E1
:102388004B0243EAD0534402204619460023FEF785
:10239800EBFB174B5B68C3F3014301335B00B0FBF6
:1023A800F3F0F8BD124B5B68C3F388131E46002791
:1023B8005C010025E41A65EB0705A90141EA94616F
:1023C800A001001B61EB0501CB0043EA5073C40078
:1023D800A01943EB07018B0243EA9053840220467D
:1023E80019460023FEF7C0FBD3E70348F8BD00BF3A
:1023F800003802400024F40000127A00002800F09F
:102408009D8070B504464F4B1B6803F00F038B4249
:1024180009D2CBB24B4A1370136803F00F039942E9
:1024280001D0012070BD236813F0020F17D013F0FC
:10243800040F04D0444A936843F4E053936023683C
:1024480013F0080F04D0404A936843F46043936044
:102458003D4A936823F0F003A068034393600D4658
:10246800236813F0010F32D06368012B21D09A1E24
:10247800012A25D9344A126812F0020F60D0324975
:102488008A6822F0030213438B6000F011FA0646B3
:102498002D4B9B6803F00C036268B3EB820F16D0D8
:1024A80000F006FA801B41F288339842F0D90320E5
:1024B80070BD254A126812F4003FE0D1012070BDBA
:1024C800214A126812F0007FD9D1012070BD1D4B3E
:1024D8001B6803F00F039D4209D2EAB2194B1A7028
:1024E8001B6803F00F039D4201D0012070BD2368D3
:1024F80013F0040F06D0144A936823F4E053E168FC
:102508000B439360236813F0080F07D00E4A9368B3
:1025180023F46043216943EAC1039360FFF704FF92
:10252800094B9B68C3F30313084AD35CD840084B94
:102538001860002000F070F9002070BD012070477D
:10254800012070BD003C024000380240E4680008E9
:102558004C000020014B1868704700BF4C00002059
:1025680008B5FFF7F7FF044B9B68C3F38223034AC0
:10257800D35CD84008BD00BF00380240F4680008AA
:1025880008B5FFF7E7FF044B9B68C3F34233034AE0
:10259800D35CD84008BD00BF00380240F46800088A
:1025A800F0B583B000248FE0E608083650F82620FE
:1025B80004F0070E4FEA8E0E0F2707FA0EF722EAED
:1025C80007020F6907FA0EF73A4340F826208BE016
:1025D80086681640CF6807FA0EF73E43866046685D
:1025E80026EA03034E68C6F30016A6403343436049
:1025F800C3681A408B6803FA0EF31A43C2604B682B
:1026080013F0805F5FD0002301934B4B5A6C42F468
:1026180080425A645B6C03F480430193019BA208D7
:10262800961C464B53F8263004F00306B6000F27D5
:10263800B74023EA0703424FB84272D007F58067D4
:10264800B84270D007F58067B8426ED007F580674A
:10265800B8426CD007F58067B84260D0072707FA00
:1026680006F633430232354E46F82230354B1A68A7
:10267800EB4302EA03064F6817F4803F01D045EAAE
:102688000206304A1660526803EA02064F6817F4D9
:10269800003F01D045EA02062A4A5660926803EADA
:1026A80002064F6817F4801F01D045EA0206254A42
:1026B8009660D26813404E6816F4001F01D045EAB0
:1026C8000203204AD36001340F2C32D80123A340DF
:1026D8000A6803EA0205AB42F5D14A68022A3FF4C8
:1026E80063AF122A3FF460AF06684FEA440E032234
:1026F80002FA0EF2D24316404F6807F0030707FAB2
:102708000EF73E4306604E68771E012F7FF660AFD6
:10271800112E3FF45DAF122E7FF46AAF58E70427FD
:102728009DE700279BE7012799E7022797E70327FB
:1027380095E703B0F0BD00BF003802400038014003
:1027480000000240003C01400369194201D1002009
:1027580070470120704712B909048161704781618F
:1027680070470000074AD36823F4E0631B041B0C7E
:10277800000200F4E060184340F0BF6040F400300D
:10278800D060704700ED00E030B4164BDB68C3F34F
:102798000223C3F10704042C28BF04241D1D062DA1
:1027A80017D9033B012505FA04F4013C214099405F
:1027B80005FA03F3013B1340194300280BDB090119
:1027C800C9B200F1604000F5614080F8001330BCE8
:1027D80070470023E6E700F00F000901C9B2024B79
:1027E8001954F4E700ED00E014ED00E00138B0F111
:1027F800807F0AD2064B5860F021064A82F82310DF
:102808000020986007221A6070470120704700BFB7
:1028180010E000E000ED00E010B504460E4B18781B
:102828004FF47A73B3FBF0F30C4A1068B0FBF3F083
:10283800FFF7DCFF68B90F2C01D9012010BD002279
:1028480021464FF0FF30FFF79FFF054B1C6000202B
:1028580010BD012010BD00BF470000204C00002023
:102868004800002008B50B4B1A6842F400721A6041
:102878001A6842F480621A601A6842F480721A6018
:102888000320FFF76FFF0020FFF7C6FF00F0E4FB0F
:10289800002008BD003C0240034A1168034B1B7826
:1028A8000B441360704700BF20020020470000203F
:1028B800014B1868704700BF2002002038B5044655
:1028C800FFF7F6FF0546B4F1FF3F02D0044B1B7833
:1028D8001C44FFF7EDFF401B8442FAD838BD00BF07
:1028E800470000200F49D1F8883043F47003C1F83D
:1028F80088300D4B1A6842F001021A600020986077
:102908001A6822F0847222F480321A60074A5A60E8
:102918001A6822F480221A60D8604FF000638B6036
:10292800704700BF00ED00E000380240103000247E
:102938002DE9F0418AB00024059406940794089480
:1029480009940194374B1A6B42F004021A631A6B0C
:1029580002F004020192019A02941A6B42F080027A
:102968001A631A6B02F080020292029A03941A6B9D
:1029780042F001021A631A6B02F001020392039AF1
:1029880004941A6B42F002021A631B6B03F00203F1
:102998000493049BDFF89C8040464FF484612246F0
:1029A800FFF7D9FE204D284610212246FFF7D3FE17
:1029B8001E4F384620212246FFF7CDFE4FF4005324
:1029C80005931B4B06930794284605A9FFF7E8FDD6
:1029D8004FF48463059301260696079408944046AD
:1029E80005A9FFF7DDFD10230593069607940894C3
:1029F800284605A9FFF7D4FD4FF4805305930694A4
:102A08000794284605A9FFF7CBFD202305930696D2
:102A180007940894384605A9FFF7C2FD0AB0BDE837
:102A2800F08100BF00380240000802400004024064
:102A3800000021100000024008B50848084B036058
:102A48004FF4E133436000238360C36003610C22C9
:102A580042618361C361FFF7FBF908BD50030020A1
:102A68000044004030B58BB00024089409940194C8
:102A7800029403940494059406940794104D4FF01F
:102A880080432B606C60AC6042F21073EB602C6189
:102A98002846FEF767FE08940994284608A9FEF719
:102AA800ADFF60230193029403940594284601A97D
:102AB8000422FEF7EBFE284600F088FB0BB030BD81
:102AC8001403002030B58BB00024089409940194B5
:102AD800029403940494059406940794104D114BA2
:102AE8002B606C60AC6042F21073EB602C6128467E
:102AF800FEF738FE08940994284608A9FEF77EFFD9
:102B080060230193029403940594284601A9224660
:102B1800FEF7BCFE284600F059FB0BB030BD00BFE5
:102B28009C0200200004004030B58DB000240494BD
:102B3800069408940A94019402940E4D0E4B2B604F
:102B48006C60AC604FF6FF73EB602C61012303935C
:102B580005930522079209930B92284603A9FEF7CD
:102B68001AFE01940294284601A9FEF747FF0DB00A
:102B780030BD00BF240200200008004030B58DB0F1
:102B880000240494069408940A94019402940E4D27
:102B98000E4B2B606C60AC604FF6FF73EB602C61E2
:102BA8000123039305930522079209930B92284664
:102BB80003A9FEF7F0FD01940294284601A9FEF747
:102BC8001DFF0DB030BD00BF60020020000C0040AA
:102BD80030B591B000240E940F940794089409948A
:102BE8000A940B940C940D94009401940294039409
:102BF8000494059406941A4D1A4B2B6048236B6075
:102C0800AC6044F62063EB602C616C612846FEF7EB
:102C1800A9FD0E940F9428460EA9FEF7EFFE602337
:102C2800079340F2DC53089309940B940C940D9489
:102C3800284607A90C22FEF729FE00940194029465
:102C4800039404944FF40053059306942846694668
:102C5800FEF7FDFE284600F0B9FA11B030BD00BFFE
:102C6800D80200200000014030B595B00024089437
:102C780009940A940B940C940D940E940F94109448
:102C8800119412941394039404940594069407944D
:102C980001941C4B1A6C42F080521A641B6C03F0AE
:102CA80080530193019B0294174A136823F440430D
:102CB80043F400431360136803F440430293029BF8
:102CC8000225089501230B9310230C930E950F945E
:102CD80010934FF4A87311930423129307231393AB
:102CE80008A8FFF755F90F230393049505944FF4AB
:102CF80080530693079403A82946FFF77FFB15B076
:102D080030BD00BF003802400070004010B580EAB6
:102D1800E074A4EBE074844206D10D484FF480615E
:102D28000022FFF718FD05E009484FF480610122F1
:102D3800FFF711FD42F210739C4205DD054B1B683D
:102D480042F210729A6310BD024B1B689C6310BD5F
:102D5800000002401403002010B580EAE074A4EBE0
:102D6800E074844205D10C4820210122FFF7F3FCCE
:102D780004E0094820210022FFF7EDFC42F210731D
:102D88009C4205DD054B1B6842F210725A6310BD68
:102D9800024B1B685C6310BD000402409C020020CB
:102DA8002DE9F04F93B0FFF75DFDFFF75DFFFFF7EB
:102DB800BFFDFFF741FEFFF755FEFFF783FEFFF764
:102DC800B3FEFFF7DBFEFFF703FF81480421FEF7A0
:102DD800DBFD80480021FEF7D7FD7F481821FEF76C
:102DE800EBFD7E481821FEF7E7FD7D480C21FEF734
:102DF800CBFD7C487C492F224FF0FF33FFF757F873
:102E08007A484FF48051FFF79FFC0028F8D1FFF76C
:102E18004FFD1190734876491A224FF0FF33FFF7A0
:102E280046F84FF47A70FFF749FDFFF741FD064673
:102E380047F230536F4A536202F580625362684B1F
:102E48001B6840F2DC521A6404E068481021012231
:102E5800FFF781FCFFF72CFD801B674B1B6898422E
:102E6800F3D3624810210022FFF775FCFFF720FD1D
:102E7800119BC01A614B98420DD95A4860491A22D1
:102E88004FF0FF33FFF713F80020FFF765FF00202E
:102E9800FFF73CFFFEE7FFF70BFD064655494C6A76
:102EA800A4F5EA44303C574A506A47F230534B6223
:102EB8005362181AFDF710FB43A3D3E90023FDF76B
:102EC80071FBFDF709FE0546DFF86CB1DFF86CA170
:102ED800DFF84C91CDF80090204629465A465346D3
:102EE800FEF712F9484A136823441360474A1368E7
:102EF8002B441360464FDFF838819BED000B9AEDA9
:102F0800001B99ED002BEE46DFF8D8C0BCE80F0097
:102F1800AEE80F00BCE80F00AEE80F00BCE80F00F9
:102F2800AEE80F009CE80F008EE80F0038464146D7
:102F380022462B46FEF776FAD8F80000FFF70CFF7A
:102F48003868FFF7E3FE334A136801331360324AE7
:102F5800126893427FF47EAF304CDBE90089DAE9EE
:102F68000023CDE900232E4BD3E9000100222D4B8D
:102F7800FDF718FBCDE9020120462B4942464B4696
:102F880000F0A8FE174D2846214632224FF0FF33A5
:102F9800FEF78DFF254C1C4B1A681C4B1B683968C3
:102FA80000912349096801912046224900F092FEC8
:102FB8002846214632224FF0FF33FEF778FF0022E1
:102FC800144B1A6046E700BF5B423EE8D9ACF03FBD
:102FD800140300209C02002024020020600200202C
:102FE800D802002050030020FC68000800080240B6
:102FF8002C6900080008004054000020905F010080
:1030080048690008000C004090010020940100204D
:103018007C010020CC01002050000020D0010020BD
:103028000802002000408F406469000898010020D1
:103038001002002078690008800100208801002023
:103048007047FEE7FEE7FEE7FEE770477047704708
:1030580008B5FFF721FC08BD00B583B00021009139
:103068000C4B5A6C42F480425A645A6C02F4804207
:103078000092009A01911A6C42F080521A641B6CFB
:1030880003F080530193019B0720FFF76BFB03B00C
:103098005DF804FB0038024084B00368184A934284
:1030A80007D0B3F1804F11D0164A93421BD004B019
:1030B800704700230193144B5A6C42F001025A6482
:1030C8005B6C03F001030193019BF0E7002302937B
:1030D8000D4B1A6C42F001021A641B6C03F00103D9
:1030E8000293029BE3E700230393074B1A6C42F019
:1030F80002021A641B6C03F002030393039BD6E7D6
:1031080000000140000400400038024000B58BB0C8
:103118000023059306930793089309930368264AA7
:10312800934205D0254A934224D00BB05DF804FBA6
:1031380000210191224B1A6C42F004021A641A6CA5
:1031480002F004020192019A02911A6B42F0020203
:103158001A631B6B03F002030293029BC0230593BF
:103168000223069301220792099305A91548FFF740
:1031780017FADAE700210391114B1A6C42F00802A2
:103188001A641A6C02F008020392039A04911A6BEB
:1031980042F001021A631B6B03F001030493049BC2
:1031A800032305930223069301220792099305A995
:1031B8000548FFF7F5F9B8E700080040000C0040A3
:1031C80000380240000402400000024000B589B007
:1031D8000023039304930593069307930368284AEF
:1031E800934208D0B3F1804F1DD0264A934231D084
:1031F80009B05DF804FB00230093234B1A6B42F0DF
:1032080001021A631B6B03F001030093009B4FF448
:1032180000630393022304930123079303A91B4824
:10322800FFF7BEF9E4E700230193174B1A6B42F04E
:1032380002021A631B6B03F002030193019B08232C
:103248000393022304930123079303A91048FFF76C
:10325800A7F9CDE7002302930B4B1A6B42F0020249
:103268001A631B6B03F002030293029B1023039360
:1032780002230493079303A90548FFF791F9B7E7D9
:1032880000000140000400400038024000000240F5
:103298000004024000B589B000230393049305930A
:1032A800069307930268144B9A4202D009B05DF85E
:1032B80004FB0021019103F5FA331A6C42F4003241
:1032C8001A641A6C02F400320192019A02911A6B84
:1032D80042F001021A631B6B03F001030293029B85
:1032E8000C230393022304930723079303A903489A
:1032F800FFF756F9DAE700BF00440040000002403B
:10330800DFF834D0002103E00C4B5B584350043104
:103318000B480C4B42189A42F6D30B4A02E00023A2
:1033280042F8043B094B9A42F9D3FFF7DBFA00F065
:1033380011F8FFF735FD704700800120D86C0008B0
:1033480000000020F4000020F80000209403002072
:10335800FEE7000070B50E4B0E4CE41AA4100025D1
:103368001E46A54204D056F8253098470135F8E79F
:1033780003F08EFA084C094BE41AA41000251E46E7
:10338800A54204D056F8253098470135F8E770BDB6
:10339800D06C0008D06C0008D46C0008D06C000811
:1033A80002440346934202D003F8011BFAE7704730
:1033B8002DE9FF4755EC104B0D9FDDF830A0002D8F
:1033C8000E4691461946B8BF22462B4627F02007DD
:1033D800BBBF05F100431D4600232D23B8BF14468B
:1033E800462F0B7003D0452F03D1013601E003218E
:1033F80000E0022102AB009303AB019345EC104BB4
:103408003246534600F020FD472F804602D119F07E
:10341800010F26D0462F08EB060911D198F8003085
:10342800302B0AD12046294600220023FDF722FB33
:1034380018B9C6F10106CAF80060DAF800309944F4
:103448002046294600220023FDF714FB08B1CDF8D9
:103458000C90039B4B4504D25A1C039230221A70DD
:10346800F7E7039B0E9AC8EB03034046136004B0CA
:10347800BDE8F08773B503460029B8BF494203F891
:10348800022BB4BF2D222B220929427019DD0DF120
:10349800070426460A2291FBF2F502FB151130318A
:1034A800092D04F8011D2946F4DC3031651E04F8A5
:1034B800011CB5421A460AD215F8012B03F8012B54
:1034C800F7E730241A46214402F8024B5970101AC3
:1034D80002B070BD2DE9F04F8BB08B4615461E46E5
:1034E800149F044601F070FAD0F800A0504600F08E
:1034F80015FC002308933B680590073323F0070366
:1035080003F108029BF818803A60D3E90023CBE95D
:1035180012239BED120B00F0B1FB01281BD1DBE954
:10352800120100220023FDF7AFFA10B12D238BF80A
:103538004330B54BB54FB8F1470F88BF1F4603233B
:10354800CBF81030DBF8003023F00403CBF8003060
:103558004FF000099FE09BED120B00F08FFBDBF8AA
:10356800002068B9AA4BAB4F22F00402B8F1470F0C
:1035780088BF1F460323CBF81030CBF80020E7E7BD
:10358800DBF804104F1C9BED120B01D1062309E058
:10359800B8F1670F02D0B8F1470F05D1002940F004
:1035A800C1810123CBF8043007AB8DE8080108ABD3
:1035B80042F48062029300230393CBF800200DF1BC
:1035C8001B032046DBF80410FFF7F2FE08F0DF03C8
:1035D800472B07460AD1079BD81C03DBDBF80420DE
:1035E800934237DDA8F102085FFA88F8B8F1650F51
:1035F800079915D8013942460BF150000791FFF79A
:1036080039FF089A8318012A8146CBF8103003DC69
:10361800DBF80020D10738D50133CBF8103034E07F
:10362800B8F1660F18D10029DBF8043009DDCBF8B2
:1036380010101BB9DBF80020D20721D501330B4449
:103648001CE01BB9DBF80020D00701D5023315E0D8
:10365800012313E04FF06708079B089A934207DBA2
:10366800DBF80020CBF81030D10709D5013305E08D
:10367800002BD4BFC3F1020301231344CBF810304D
:10368800079BCBF858304FF000099DF81B3013B159
:103698002D238BF8433000962046594609AA2B461D
:1036A80000F056F9013002D14FF0FF304CE1DBF861
:1036B80000305A0505D4204629463A46DBF8103032
:1036C80008E1B8F1650F40F2D080DBE91201002271
:1036D8000023FDF7CFF950B3204629464E4A01236F
:1036E800B0470130E0D0089B079A9A4209DBDBF823
:1036F8000030D80705D4DBF800309F0700F11081AF
:1037080007E1204629465246059BB0470130CBD0F9
:103718000027089B013B9F42EDDA204629460BF122
:103728001A020123B0470130BED00137F1E7079BE9
:10373800002B29DC20462946374A0123B0470130AF
:10374800B2D0079B2BB9089B1BB9DBF80030D9070F
:10375800D1D5204629465246059BB0470130A3D013
:103768004FF00008079B5B4298452046294608DA37
:103778000BF11A020123B047013095D008F1010876
:10378800F0E73A46089BA5E0DBF85820089B9A42E8
:10379800A8BF1A46002A914602DC4FF0000812E042
:1037A800204629463A464B46B0470130F5D17BE7DB
:1037B800204629460BF11A020123B04701303FF495
:1037C80073AF08F10108DBF85830B9F1000FACBF4E
:1037D800C9EB03021A469045EADB07EB0308079A90
:1037E800089B9A421ADBDBF80030DA0716D4089AED
:1037F8001744C8EB0703079FD21B9342A8BF134681
:10380800002B1F4612DC18E09A6900089669000828
:10381800A26900089E690008A66900082046294692
:103828005246059BB0470130E1D13DE72046294685
:103838004246B04701303FF437AF4FF000080AE086
:10384800204629460BF11A020123B04701303FF404
:103858002BAF08F10108079A089B002FA3EB02037E
:10386800A8BFDB1B9845EBDB45E7089A012A01DC7A
:10387800DB0736D5204629463A460123B0470130B2
:103888003FF412AF204629465246059BB047013007
:103898003FF40AAFDBE9120100220023FDF7EAF842
:1038A800E8B9089B204629467A1C013B1DE02046C2
:1038B80029460BF11A020123B04701303FF4F4AE58
:1038C8000137089B013B9F42F1DB204629460BF15B
:1038D80050024B46B04701307FF40DAFE4E60027B5
:1038E800EFE7204629463A460123B0470130ECD19C
:1038F800DAE6204629460BF119020123B0470130C8
:103908003FF4D2AE0137DBF80C30099A9B1A9F427C
:10391800EFDBDBF80C00099B9842B8BF184613E0B0
:103928000027F0E707AB8DE8080108AB42F4806296
:10393800029300230393CBF8002020460DF11B03CC
:10394800FFF736FD074646E60BB0BDE8F08F00BF2F
:103958002DE9F84391461F468A680B69DDF82080F7
:103968009342B8BF1346C9F8003091F84320064681
:103978000C4612B10133C9F800302368990642BFDA
:10398800D9F800300233C9F80030256815F006056B
:103998001CD094F843302268003318BF01239206E4
:1039A8001FD5E1185A1C302081F84300224494F8AE
:1039B800451082F84310023313E03046394604F1CB
:1039C80019020123C047013007D00135E368D9F84F
:1039D80000209B1A9D42F0DBDBE74FF0FF30BDE88B
:1039E800F8833046394604F14302C0470130F4D029
:1039F8002268D9F80050E36802F00602042A08BFDA
:103A08005D1B2269A3680CBF25EAE5750025934272
:103A1800C4BF9B1AED184FF00009A9450ADA3046D1
:103A2800394604F11A020123C0470130D5D009F103
:103A38000109F2E70020BDE8F88300002DE9FF4105
:103A48000C461746227E6E2A984606460A9B01F1C6
:103A5800430100F0AF8012D8632A23D00AD8002A85
:103A680000F0BC80582A40F0CB8084F84520DFF86D
:103A780004E257E0642A1ED0692A1CD0C0E0732AE9
:103A880000F0B08009D86F2A2ED0702A40F0B88094
:103A9800226842F0200222603FE0752A24D0782A6A
:103AA8003BD0ADE01A68111D1960136884F84230E4
:103AB80004F14205A8E020681A6810F0800F02D0CF
:103AC800101D186008E010F0400F02F104001860A3
:103AD80002D0B2F9003000E01368002B3EDA2D2244
:103AE8005B4284F8432039E020681A6810F0800FA0
:103AF80002D0101D186007E010F0400F02F104001A
:103B0800186001D0138800E01368227EDFF864E1B2
:103B18006F2A0CBF08220A221CE07822DFF858E13D
:103B280084F845202268186812F0800F00F1040517
:103B38001D6003D1550601D5038800E00368D0074E
:103B480044BF42F0200222601BB9226822F0200202
:103B580022601022002084F8430002E0DFF814E11C
:103B68000A226568A560002DA2BF206820F0040025
:103B7800206003B965B10D46B3FBF2F002FB1033C8
:103B88001EF8033005F8013D03460028F4D100E093
:103B98000D46082A0BD12368DA0708D5236962681D
:103BA8009A42DEBF302305F8013C05F1FF35491B79
:103BB80021612EE025681A68606915F0800F03D02E
:103BC800151D1D60136808E015F0400F02F104058B
:103BD8001D60136801D0188000E01860002323617D
:103BE8000D4616E01A68111D1960156862682846A6
:103BF800002100F0F5FE08B1401B6060636804E036
:103C080004F1420584F8422001232361002384F84B
:103C18004330CDF800803046214603AA3B46FFF7E3
:103C280097FE013002D14FF0FF301FE03046394691
:103C38002A462369C0470130F5D023689B0705D47D
:103C4800E068039B9842B8BF18460FE00025E36878
:103C5800039A9B1A9D42F3DA3046394604F1190259
:103C68000123C0470130DED00135F0E704B0BDE8DC
:103C7800F08100BFA8690008B969000853EC102B4F
:103C880033F0004210B510EE100A1BD00F49A3F50F
:103C980080148C4210D903F1FF430C4903F5E0036B
:103CA8008B4209D9B2F5801F08D3094B9A4207D134
:103CB800B0FA80F0400910BD042010BD032010BDEB
:103CC800002010BD0028E6D1022010BDFFFFDF7FD5
:103CD8000000F07F0EB400B59CB04FF40271ADF84F
:103CE80014106FF00041049107914FF6FF711DAB5E
:103CF800ADF81610084953F8042B0290069008688E
:103D0800019302A901F068FA029B00221A701CB004
:103D18005DF804EB03B07047B8000020034613F8C1
:103D2800012B002AFBD1181A013870472DE9F74FEB
:103D380003690C69A3428046C0F28180013C01F10D
:103D480014074FEA840E00F1140657F8245006EBC6
:103D58000E030193013556F82430B3FBF5F507EB54
:103D68000E09C5B34FF0000A3846B446D34650F89A
:103D7800043B9AB21B0C02FB05A26B4303EB1243F4
:103D880092B2C2EB0B02BCF800B04FEA134A12FA27
:103D98008BF21FFA83FBDCF80030CBEB134303EB09
:103DA800224392B242EA034248454FEA234B4CF879
:103DB800042BDCD956F80E306BB9019B043BB34297
:103DC8001A4602D8C8F8104005E01268043B002AD9
:103DD800F8D1013CF3E7404601F02FF800282CDB2E
:103DE800013530464FF0000E57F8041BD0F800C0DC
:103DF8008AB2C2EB0E03090C13FA8CF3C1EB1C4216
:103E080002EB23429BB243EA02434F454FEA224E5C
:103E180040F8043BE8D956F8242006EB840362B93D
:103E2800043BB3421A4602D8C8F8104005E01268AD
:103E3800043B002AF8D1013CF3E7284600E00020C3
:103E480003B0BDE8F08F00002DE9F04F456A97B048
:103E5800824608910B921293209C8DED000B45B978
:103E6800102000F0B5FDCAF82400456085600560A3
:103E7800C560DAF82430196859B15A684A600123D4
:103E880093408B60504600F0FAFDDAF824300022A7
:103E98001A60019B9E4A002BBFBF01232360019B30
:103EA80023F00043B2BF019300232360019C24F058
:103EB80000431B0D1B0593421DD1129A42F20F734A
:103EC8001360009B43B9934A934BC4F31300002833
:103ED80014BF1846104600E08F48219B002B00F0C5
:103EE8006D85C37813B100F1080300E0C31C219A63
:103EF800136000F063BDDDE90089002240464946B1
:103F08000023FCF7B7FD054658B1129A0123136048
:103F1800219B002B00F0408580481860013800F094
:103F28004DBD504649EC108B15A914AA01F000F8B4
:103F3800C4F30A56049056B1C9F3130343F07F51F2
:103F4800404641F44011A6F2FF3613951DE0159B3B
:103F5800149E1E446FF482639E42ADBF009A704B5C
:103F6800009A06F21243A3BF22FA03F06D4B9B1B83
:103F78009B1BAABF9C4002FA03F02043FCF79CFA63
:103F88000123A1F1F871013E13930022664BFCF75F
:103F980055F959A3D3E90023FCF704FB58A3D3E947
:103FA8000023FCF74DF9044630460D46FCF794FA19
:103FB80055A3D3E90023FCF7F5FA02460B46204641
:103FC8002946FCF73DF904460D46FCF785FD2946D0
:103FD8008346002220460023FCF756FD58B1584678
:103FE800FCF77AFA02460B4620462946FCF742FDC2
:103FF80008B90BF1FF3BBBF1160F0DD84B4B03EB88
:10400800CB03D3E90001DDE90023FCF75BFD30B108
:104018000BF1FF3B002300E001230D9300E00D901E
:10402800149B9E1B731E079345BF5B420693002398
:1040380000234CBF07930693BBF1000F07DB079BD8
:10404800CDF830B05B4407930023099308E0069B42
:10405800CBEB03030693CBF10003099300230C93E6
:10406800089B092B28D8052BC4BF043B0893089B41
:10407800A3F10203CCBF00250125032B21D8DFE8DB
:1040880003F0020E0410002300E001230A930B9BA7
:10409800002B20DC0123039302931A4619E0002326
:1040A80000E001230A930B9B5B4403930133012B2C
:1040B8000293B8BF012311E00125002308930A9554
:1040C80001E001230A934FF0FF3303930293002288
:1040D80012230B9202E00B9B03930293DAF824401D
:1040E80000226260042101F114029A4220D8626819
:1040F800013262604900F6E761436F63A787D23FE8
:10410800B3C8608B288AC63FFB799F501344D33FBE
:104118000000F07FCA690008D3690008A769000891
:10412800EEFBFFFF0EFCFFFF0000F83FE069000810
:104138005046616800F06EFCDAF8243020601B6895
:104148000593029B0E2B00F24B81002D00F0488155
:104158009DED007BBBF1000F8DED107B31DDB34A87
:104168000BF00F034FEA2B1702EBC303F806D3E952
:1041780000450CD5AE4B51EC170BD3E90823FCF7DF
:104188003BFB07F00F07CDE90001032600E00226FC
:10419800DFF89C8277B1F90708D520462946D8E987
:1041A8000023FCF7FFF9013604460D467F1008F19D
:1041B8000808EFE7DDE9000122462B46FCF71CFB67
:1041C8001BE0CBF10004DCB1984B994D04F00F02D1
:1041D80003EBC203DDE91001D3E90023FCF7E2F9A0
:1041E800241102264CB1E20704D5D5E90023013693
:1041F800FCF7D8F964100835F4E7CDE9000100E0D0
:1042080002260D9BDBB1DDE9004500222046294648
:10421800884BFCF739FC90B1029B83B1039B002BC0
:1042280040F3DA80294620460022834BFCF7BAF98E
:104238000BF1FF37CDE900010136039D01E0029D36
:104248005F469DED007B30468DED0E7BFCF744F913
:10425800DDE90E23FCF7A6F90022784BFBF7F0FF07
:104268008046A1F15079CDB90022754BDDE90E01E8
:10427800FBF7E4FF42464B46CDE90001FCF722FC80
:10428800002840F04682424609F10043DDE900017A
:10429800FCF7FAFB002840F036829DE0634B0A9950
:1042A8006A1E03EBC203002949D0D3E9002300208A
:1042B8006449FCF7A1FA42464B46FBF7BFFFDDE92C
:1042C8000E89CDE90001059C49464046FCF704FCEF
:1042D8000646FCF701F902460B4640464946FBF7FD
:1042E800ADFF303604F8016BDDE9002380468946CE
:1042F800FCF7CAFB002840F0408342464B460020AA
:104308004C49FBF79BFFDDE90023FCF7BDFB0028C8
:1043180040F0D380059BE31AAB425DDADDE900018A
:104328000022454BFCF73EF90022CDE90001424B43
:1043380040464946FCF736F980468946C4E7D3E942
:10434800000142464B46FCF72DF9059BCDE90001DB
:10435800DDE90E895C191D4649464046FCF7BCFB61
:104368000646FCF7B9F8303602460B464046494641
:10437800FBF764FF05F8016BA5428046894624D106
:104388000022304BDDE90001FBF75AFF02460B46DD
:1043980040464946FCF796FB002840F08E80DDE950
:1043A800002300202749FBF749FF02460B464046F9
:1043B8004946FCF769FB78B114F8013C302B04F14D
:1043C800FF3240F0DA821446F6E700221A4BFCF777
:1043D800E9F880468946BFE7DDE91023CDE90023E7
:1043E800159B002BC0F28B80BBF10E0F00F387806A
:1043F8000E4B03EBCB03D3E900670B9B002B23DAAF
:10440800029B002B20DC40F07D81304600220C4BC3
:104418003946FCF7C7F8DDE90023FCF749FB029DA4
:104428002E46002840F0708175E100BFE069000861
:10443800A86A00080000F03F0000244000001C406B
:10444800000014400000E03FDDE90089059C324689
:104458003B4640464946FCF7CFF9FCF73DFB05468D
:10446800FCF73AF832463B46FCF79CF80B46024606
:1044780049464046FBF7E2FE05F1300E059B04F87D
:1044880001EBC3EB040E029B9E452BD102460B4663
:10449800FBF7D6FE32463B4680468946FCF712FBC0
:1044A80070B94046494632463B46FCF7E3FA0028D5
:1044B80000F06482EB0703D460E2BB4600E01C46D0
:1044C80014F8012C392A04F1FF3307D1059A9342D5
:1044D800F5D1302313700BF1010B13461A78013212
:1044E8001A704BE20022A44BFCF75CF80022002370
:1044F80080468946FCF7BEFA0028A8D03EE20A9A10
:10450800002A32D0089A012A0ADC139A12B103F25F
:10451800334302E0149BC3F13603099D069C18E05F
:10452800029B5D1E099BAB42BFBF099B0995EA1A16
:104538000C9BB6BF9B185D1B0C93029BB8BF002554
:10454800002BB9BF069B029A069C029BBCBF9C1A13
:104558000023069A1A440692079A50461A440121E3
:10456800079200F02EFB064602E0099D069C0A9E73
:1045780064B1079B002B09DDA342069AA8BF234616
:10458800D21A0692079AE41AD31A0793099B002BAA
:1045980020DD0A9BC3B1002D10DD31462A46504666
:1045A80000F0AAFB06463146049A504600F012FB7A
:1045B80004990746504600F062FA0497099B5A1B73
:1045C80008D05046049902E00499099A504600F030
:1045D80093FB04905046012100F0F3FA0C9B002B4A
:1045E80005460ADD29461A46504600F085FB089B19
:1045F800012B054604DD00271BE0089B012B13DC7B
:10460800009B8BB9019BC3F313037BB9019B23F078
:1046180000473F0D3F0557B1069B01330693079BA3
:1046280001330793012702E0002700E0009F0C9B5D
:1046380043B12B6905EB8303186900F075FAC0F1E3
:10464800200000E00120079B184410F01F0008D04C
:10465800C0F12003042B02DDC0F11C0002E008D0E9
:1046680018461C30069B03440693079B03440444E6
:104678000793069B002B05DD504604991A4600F067
:1046880089FB0490079B002B05DD294650461A46F6
:1046980000F080FB05460D9BEBB10498294600F01D
:1046A800CCFB002817DA0023504604990A2200F0B0
:1046B800FDF90A9B04900BF1FF3B002B00F0708181
:1046C8003146002350460A2200F0F0F9039B002BE4
:1046D800064633DC6DE1029B002B26DC089B022B8F
:1046E80023DD029B0393039B73B929460522504699
:1046F80000F0DCF905462946049800F09EFB0028E6
:1047080009DC01E000252E460B9B059C6FEA030B94
:1047180008E0BB462E46059B059A5C1C31231370A6
:104728000BF1010BB146002614E10A9B23B9029B49
:104738000393059F049CCCE0029B0393002C05DDAA
:1047480031465046224600F025FB0646B7B171684F
:10475800504600F05FF932690232044606F10C0156
:1047680092000C3000F04BF950462146012200F02F
:1047780011FB814603E000BF00002440B146059FBD
:10478800049C29462046FFF7D1FA3146069000F1ED
:104798003008204600F051FB4A4602902946504610
:1047A80000F067FBC26803463AB9194620460493ED
:1047B80000F043FB049B024600E0012250461946E4
:1047C800049200F05CF9049AA2B9089B93B9009B83
:1047D80003F0010373B9B8F1390F3B46049440D094
:1047E800029B002BC8BF069B07F10104C8BF03F159
:1047F80031083DE0029B002B04DA002AC4460494E9
:1048080008DC21E024D1089B13BB009B03F00103C3
:10481800F3B9F2E72146012250460297CDF800800D
:1048280000F0B8FA2946049000F007FB0028DDF8EC
:1048380000C0029B03DC07D118F0010F04D0B8F1C7
:10484800390F0ED008F1010C7C1C87F800C081E0FC
:10485800002A07F101020EDDB8F1390F3B46049436
:1048680003D1392201371A7057E0144608F10108BC
:1048780087F800806EE0059B02F8018CD31A174672
:10488800039A93423AD021460A220023504600F068
:104898000DF94E450446314650464FF00A024FF096
:1048A800000304D100F002F90646814669E700F0EA
:1048B800FDF8494606460A225046002300F0F6F85D
:1048C80081465EE7214650460A22002300F0EEF8B2
:1048D800044620462946FFF729FA00F1300807F870
:1048E800018B059B039AFB1A9342EBDB059B012A7C
:1048F800ACBF9B180133B1461F4600262146012252
:10490800504600F047FA2946049000F096FA00282D
:1049180003DC16D118F0010F13D03C4614F8013C03
:10492800392B04F1FF3209D1059B9A4204D10BF1CE
:10493800010B3123059A02E01446EFE701331370A7
:1049480008E03C4614F8013C302B04F1FF3201D159
:104958001446F7E75046294600F091F8B9F1000FE0
:104968000CD02EB14E4503D05046314600F087F8A2
:104978005046494600F083F800E0BB46504604998B
:1049880000F07DF80023129A23700BF101031360E5
:10499800219B1BB11C6001E00A480FE005980DE05F
:1049A800039B002B3FF7C5AE089B022B3FF79BAE3E
:1049B800BFE6089B022B3FF796AEBFE617B0BDE8EF
:1049C800F08F00BFA669000800487047BC000020AF
:1049D800024B0146186800F04FBB00BFB80000202A
:1049E80010B5C9B202449042034606D01C788C42E6
:1049F80000F10100F7D1184610BD002010BD10B518
:104A0800431E0A44914204D011F8014B03F8014FA8
:104A1800F8E710BD70B5456A04460E463DB910204A
:104A2800FFF7D6FF6062456085600560C560656A0E
:104A3800EB6843B1636ADB6853F8260078B1026813
:104A480043F8262017E020460421212200F0C2FA6C
:104A5800636AE860DB68002BECD1002070BD01219F
:104A680001FA06F56A1D2046920000F0B3FA002804
:104A7800F3D04660856000230361C36070BD70B5E4
:104A8800446A06460D463CB91020FFF7A1FF706244
:104A9800446084600460C4603DB1736A6A68DB681E
:104AA80053F82210296043F8225070BD2DE9F041D7
:104AB8000F69984606460C4601F1140E0023DEF8ED
:104AC800000085B2010C02FB0585514301EB15413D
:104AD8000133ADB24FEA1148BB4205EB01414EF834
:104AE800041BECDBB8F1000F1BD0A3689F4212DB5C
:104AF800616830460131FFF78DFF2269023204F107
:104B08000C01054692000C30FFF779FF214630462C
:104B1800FFF7B5FF2C4604EB87030137C3F8148071
:104B280027612046BDE8F081030C1B0413B900047B
:104B3800102300E0002310F07F4F04BF0002083369
:104B480010F0704F04BF0001043310F0404F04BF51
:104B580080000233002803DB420003D5581C70474D
:104B68001846704720207047036813F007020BD0DF
:104B7800D90722D49A074BBF5B089B0803600360E0
:104B88004CBF01200220704799B209B91B0C1022B2
:104B980013F0FF0F04BF1B0A0832190704BF1B09D3
:104BA8000432990704BF9B080232D90702D45B0874
:104BB80005D001320360104670470020704720205E
:104BC800704710B50C460121FFF724FF012244610C
:104BD800026110BD2DE9F74F14460A6923699A420C
:104BE800B8BF0B468846BCBFA0461C46D8F8107014
:104BF800D4F81090D8F80830D8F8041007EB090654
:104C08009E42C8BF0131FFF705FF00F1140505EB0F
:104C1800860C2B46634503D2002243F8042BF9E7A0
:104C280004F1140208F1140102EB890301EB870770
:104C38000093009B01929A4257D2B2F800B0BBF1A0
:104C4800000F23D08946AE464FF0000859F8044BB0
:104C5800BEF800A0A3B20BFB03A34FEA144ADEF888
:104C6800004043444FEA14480BFB0A8404EB134406
:104C7800F2469BB243EA04434F454FEA14484AF8C8
:104C8800043B01D9D646E1E7CEF80480019BB3F88E
:104C980002A00432BAF1000F21D02B682C468946B5
:104CA8004FF00008B9F800E0B4F802B00AFB0EBEF5
:104CB800F044A3469BB243EA08434BF8043B59F837
:104CC800043BB4F804E01B0C0AFB03E303EB1843B2
:104CD800B9454FEA134801D25C46E3E763600435FF
:104CE800A7E75CF8043D13B9013E002EF9DC066124
:104CF80003B0BDE8F08F000012F003032DE9F04186
:104D080006460F46154607D0013B214A52F8232094
:104D18000023FFF7CBFE0746AD1035D0746A3CB9C7
:104D28001020FFF755FE7062446084600460C46020
:104D3800D6F82480D8F808407CB9304640F2712172
:104D4800FFF73FFF0023C8F808000446036004E0AB
:104D58006D1019D0206870B10446EB07F8D53946B4
:104D680022463046FFF736FF394680463046FFF781
:104D780086FE4746ECE7304621462246FFF72AFFE3
:104D8800002320600360E7E73846BDE8F08100BFF4
:104D9800D06A00082DE9F0470C464FEA621A2369E9
:104DA80049680AEB0309A3680746164609F1010595
:104DB8009D4202DD01315B00FAE73846FFF72AFE23
:104DC8000023804600F11401534504DA002241F81B
:104DD80023200133F8E72AEAEA73206901EB830309
:104DE80016F01F0204F1140101EB800E14D0C2F179
:104DF800200C00200E68964030439A4643F8040B76
:104E080051F8040B714520FA0CF0F3D3CAF80400EA
:104E180048B109F1020506E0043B51F8042B43F8B8
:104E2800042F7145F9D3013D3846C8F81050214682
:104E3800FFF725FE4046BDE8F08703690A699B1A1B
:104E480010B511D192001430143183180A4453F864
:104E5800044D52F8041D8C4202D007D3012010BD26
:104E68008342F4D8002010BD184610BD4FF0FF3023
:104E780010BD2DE9F84307460C460846114615466D
:104E8800FFF7DBFF061E08D138463146FFF7C2FDA3
:104E9800012303614661BDE8F883BCBF23462C4665
:104EA80038466168BABF1D4601260026FFF7B2FDE5
:104EB8002B69C660266905F11409143404EB8607CA
:104EC80009EB830800F114054FF0000C54F8043B7B
:104ED80059F8042B1CFA83F11FFA82FE120CCEEB50
:104EE8000101C2EB134303EB214389B24FEA234C80
:104EF800C84541EA0343A64645F8043BE6D8BE4503
:104F08000ED25EF8042B1CFA82F4120C02EB244237
:104F1800A4B24FEA224C44EA024245F8042BEEE7D9
:104F280055F8043D0BB9013EFAE70661BDE8F88380
:104F38002DE9F3410F46012155EC104B1646FFF7BA
:104F480069FDC5F31303C5F30A5580460DB143F453
:104F580080130193ECB102A840F8084DFFF704FE56
:104F6800009B50B1019AC0F1200102FA01F10B43F4
:104F7800C240C8F81430019201E0C8F81430019B0F
:104F8800C8F81830002B14BF02240124C8F81040B8
:104F980009E001A8FFF7E8FD0124019BC8F81430D7
:104FA800C8F81040203035B1A5F2334505443D60BE
:104FB800C0F1350009E008EB8403A0F23240386004
:104FC8001869FFF7B1FDC0EB44103060404602B0ED
:104FD800BDE8F08138B502FB01F4214600F04CF839
:104FE800054618B100212246FEF7DAF9284638BDF1
:104FF80030B500293DD051F8042C0B1F1D49002A5B
:10500800B8BF9B180A680C4612B95A600B6030BDCD
:1050180093420DD219685818904201BF5A58521835
:105028001A6042685A60236030BD994203D80A4624
:1050380051680029F9D1146815199D420AD11B68D5
:105048002344D0188842136013D1086803441360BE
:105058004B680DE002D90C23036030BD1C68181999
:10506800884204BF08684968596004BF001918607D
:10507800536030BD1802002070B5CC1C24F0030426
:1050880008340C2C38BF0C24002C064603DA0C23F9
:105098003360002070BD8C42F9D3204A1368104653
:1050A8001946A1B10A68121B0ED40B2A03D90A604B
:1050B8008B188C501FE08B420DBF5A684A685A60A3
:1050C800026018BF0B4616E00B464968E9E7144D25
:1050D8002B681BB9304600F071F92860304621462C
:1050E80000F06CF9421C0346D1D0C51C25F003051D
:1050F80085420AD11C6003F10B001A1D20F007003D
:10510800821A0AD05142995070BD3046E91A00F00F
:1051180055F90130BBD02B46ECE770BD18020020D2
:10512800140200202DE9F0478E68B34282460C46EF
:105138009046994640D38A8912F4906F3AD02568F0
:1051480009696F1A6569022305EB450595FBF3F5B7
:105158007B1C4B449D4238BF1D4653050FD529463D
:10516800FFF78AFF064698B121693A46FFF747FCE0
:10517800A38923F4906343F08003A38113E02A46B4
:1051880000F047F9064670B950462169FFF730FF2D
:105198000C23CAF80030A38943F04003A3814FF0E1
:1051A800FF30BDE8F087266165613E44ED1B26604F
:1051B800A5604E46B14500D24E463246206841466B
:1051C80000F00CF9A3689B1BA36023681E442660AB
:1051D8000020BDE8F08700002DE9F0439DB00646A9
:1051E80003938B891C060D4690460CD50B6953B961
:1051F8004021FFF741FF2860286110B90C23336074
:10520800CCE040236B610023099320238DF82930DB
:1052180030238DF82A3043461C4613F8012B1AB95F
:10522800B4EB08090FD002E0252AF5D1F8E730469B
:10523800294642464B46FFF775FF013000F0A9802A
:10524800099B4B4409932378002B00F0A28000238C
:105258004FF0FF3204930793059206938DF853306D
:105268001A9304F101084446DFF84891217848462A
:105278000522FFF7B5FB08F10108049B30B1C9EB23
:1052880000000122824013430493ECE7D80644BF90
:1052980020228DF85320190744BF2B228DF8532064
:1052A80022782A2A02D0079923460EE0039A111D74
:1052B80012680391002ABBBF524243F002030792CF
:1052C8000792B8BF049301340AE01C4601332278E0
:1052D800303A092A03D80A2000FB0121F5E7079193
:1052E80023782E2B1AD163782A2B0AD1039B1A1DF7
:1052F8001B680392002BB8BF4FF0FF3302340593AD
:105308000CE0611C00220C4601312378303B092B4C
:1053180003D80A2000FB0232F5E70592DFF89880EF
:10532800217840460322FFF75BFB38B1049AC8EBAB
:1053380000004023834013430493013421781A4822
:105348008DF82810062204F10108FFF749FB88B1FF
:10535800164B33B9039B073323F007030833039332
:1053680013E003AB0093304604A92A46104BFEF71E
:10537800B1F807E003AB0093304604A92A460C4B6A
:10538800FEF75CFB421C074603D0099B3B4409938C
:1053980041E7AB895B0601D4099801E04FF0FF3083
:1053A8001DB0BDE8F08300BFE66A0008DD340008E0
:1053B8002D510008DC6A0008E26A000838B5064C7E
:1053C800002305460846236001F054FA431C02D125
:1053D800236803B12B6038BD90030020814210B5CB
:1053E80001EB020301D3421E0BE09842FBD2811865
:1053F800D21AD34204D013F8014D01F8014DF8E751
:1054080010BD994204D011F8014B02F8014FF8E79A
:1054180010BDF8B5074615460E4621B91146BDE838
:10542800F840FFF729BE1AB9FFF7E2FD2846F8BD94
:1054380000F015F8A8420ED238462946FFF71CFEA0
:10544800044650B131462A46FFF7D9FA3846314664
:10545800FFF7CEFD01E03046F8BD2046F8BD51F813
:10546800040C0028BEBF091851F8043CC0180438C1
:10547800704700000000000000B551EC100B264AF0
:1054880021F00043934285B020DD244A934209DD90
:1054980010EE102A0B46FAF7D1FE41EC100B05B0BE
:1054A8005DF804FB684600F08FF800F0030001285F
:1054B8009DED000B9DED021B20D0022811D000B3FA
:1054C800012000F0E5FF51EC100BE6E79FED101B03
:1054D80000F0A2FA51EC100B41EC100B05B05DF88E
:1054E80004FB00F099FA53EC102B10EE100A03F1AC
:1054F800004141EC100B05B05DF804FB00F0C8FF5B
:10550800F1E700F089FA51EC100BC6E7AFF3008021
:105518000000000000000000FB21E93FFFFFEF7FD3
:1055280000B551EC100B264A21F00043934285B098
:1055380027DD244A934209DD10EE102A0B46FAF7BC
:105548007DFE41EC100B05B05DF804FB684600F0E9
:105558003BF800F0030001289DED000B9DED021BB8
:105568001FD0022819D008B300F056FA53EC102BBC
:1055780010EE100A03F1004141EC100B05B05DF884
:1055880004FB9FED0D1B002000F082FF51EC100B77
:1055980041EC100B05B05DF804FB012000F078FF2A
:1055A800E4E700F039FA51EC100BCAE7012000F0EB
:1055B8006FFF51EC100BC4E7000000000000000072
:1055C800FB21E93FFFFFEF7F2DE9F04F53EC102B54
:1055D8009B4923F000448C428FB09A46054640F31D
:1055E800888098498C422BDCBAF1000F194610EEDE
:1055F800100A89A3D3E9002340F3A881FAF71EFE15
:10560800914B9C4206460F4600F08B8084A3D3E959
:105618000023FAF713FE02460B46C5E9002330467D
:105628003946FAF70BFE7EA3D3E90023FAF706FE04
:105638004FF0010BC5E9020158460FB0BDE8F08FE5
:1056480082498C4240F38B8081498C425DDC4FEA71
:10565800245BABF2164B10EE100AA4EB0B519046EC
:105668008946FBF739FAFAF737FF06460F463246FE
:105678003B4640464946CDE90867FAF7DFFD002278
:10568800744BFAF78FFF89468046FBF725FAFAF73D
:1056980023FF06460F4632463B4640464946CDE97B
:1056A8000A67FAF7CBFD00226A4BFAF77BFF002264
:1056B8000023CDE90C01FBF7DDF9002800F06F812C
:1056C8000023304639460022FBF7D4F9002814BFDE
:1056D8000123022302226049009201915A4608A838
:1056E800294600F0D9FABAF1000FC0F24D8183467D
:1056F80007E00020002185ED000BC5E902014FF00D
:10570800000B58460FB0BDE8F08F10EE100A19468E
:10571800FAF794FD4FF0000BC5E90201C5E9000155
:10572800EFE741A3D3E90023FAF788FD40A3D3E9C3
:10573800002306460F46FAF781FD02460B46C5E9E7
:10574800002330463946FAF779FD39A3D3E9002317
:10575800FAF774FD4FF0010BC5E90201D1E700F03B
:105768005FFF57EC106B10EE100A33A3D3E9002348
:105778003946FAF717FF0022384BFAF761FDFBF7B5
:10578800ABF98346FAF7A8FE23A3D3E90023CDE9B2
:105798000401FAF707FF02460B4630463946FAF786
:1057A8004DFD1FA3D3E9002306460F46DDE904019A
:1057B800FAF7F8FEBBF11F0FCDE902013046394672
:1057C80050DC274B0BF1FF3253F82230A34249D06B
:1057D800DDE90223FAF732FD80468946C5E90089EA
:1057E80042464B4630463946FAF728FDDDE90223A2
:1057F800FAF724FDBAF1000FC5E9020181DA09F1CF
:10580800004401F10043CBF1000BC5F800806C6047
:10581800A860EB6075E700BF00004054FB21F93F2A
:105828003163621A61B4D03D0000601A61B4D03DA2
:105838007370032E8A19A33B83C8C96D305FE43F98
:10584800FB21E93F7BD90240FB21F93FFB2139418C
:10585800FFFFEF7F00007041706B00080000E03F21
:10586800F06A0008DDE90223FAF7E8FC2415C1F321
:105878000A53E31A80468946102BC5E90089AFDD33
:105888005BA3D3E90023DDE90401FAF78BFE804628
:10589800894642464B4630463946FAF7CFFCCDE9B1
:1058A8000601DDE9062330463946FAF7C7FC4246C9
:1058B8004B46FAF7C3FC50A3D3E9002306460F462C
:1058C800DDE90401FAF76EFE32463B46FAF7B6FC0C
:1058D800CDE90201DDE90223DDE90601FAF7AEFCB4
:1058E800C1F30A53E41A80468946312CC5E9008978
:1058F80075DD44A3D3E90023DDE90401FAF752FE7C
:105908008046894642464B46DDE90601FAF796FC91
:1059180006460F4632463B46DDE90601FAF78EFC9D
:1059280042464B46FAF78AFC38A3D3E9002380465F
:105938008946DDE90401FAF735FE42464B46FAF797
:105948007DFCCDE902013046394641E7FAF778FC9B
:105958002B4B9C4206460F4623D023A3D3E90023B2
:10596800FAF76EFC02460B46C5E900233046394675
:10597800FAF764FC1CA3D3E90023FAF761FC4FF0A3
:10598800FF3BC5E90201BCE66A68EB6802F1004228
:1059980003F10043C0F1000B6A60EB60B1E603233A
:1059A80098E613A3D3E90023FAF74AFC12A3D3E934
:1059B800002306460F46FAF743FC02460B46C5E9A4
:1059C800002330463946FAF739FC0BA3D3E9002304
:1059D800FAF736FC4FF0FF3BC5E9020191E6DDE935
:1059E8000667FDE6AFF300803163621A61B4D03D0B
:1059F8000000601A61B4D03D7370032E8A19A33B6E
:105A0800FB21F93F0000002E8A19A33BC14920253C
:105A18009A837B39AFF300802DE9F04F57EC106B78
:105A28002DED028BB0EE418AF0EE618A27F0004935
:105A3800B9F1795F83B010EE100A39466FDAFBF7D7
:105A48004BF8002800F0F38032463B463046394692
:105A5800FAF7A8FD7AA3D3E9002304460D46FAF71E
:105A6800A1FD79A3D3E90023FAF7EAFB22462B46E6
:105A7800FAF798FD76A3D3E90023FAF7DFFB22466D
:105A88002B46FAF78FFD74A3D3E90023FAF7D8FB66
:105A980022462B46FAF786FD71A3D3E90023FAF7CD
:105AA800CDFB22462B46FAF77DFD6FA3D3E90023F1
:105AB800FAF7C6FB22462B46FAF774FD82468B4658
:105AC8002046294600226E4BFAF76CFD5246804666
