:020000040800F2
:1000000000800120CD3300080131000805310008CF
:10001000093100080D31000811310008000000000E
:100020000000000000000000000000001531000882
:1000300019310008000000001D31000821310008BE
:100040001D3400081D3400081D3400081D3400084C
:100050001D3400081D3400081D3400081D3400083C
:100060001D3400081D3400081D3400081D3400082C
:100070001D3400081D3400081D3400081D3400081C
:100080001D3400081D3400081D3400080000000065
:100090000000000000000000000000001D34000807
:1000A0001D3400081D3400081D3400081D340008EC
:1000B0001D3400081D3400081D3400081D340008DC
:1000C0001D3400081D3400081D3400081D340008CC
:1000D0001D3400081D3400081D3400080000000015
:1000E0001D3400081D3400081D3400080000000005
:1000F0000000000000000000000000001D340008A7
:10010000000000001D3400081D3400081D340008E4
:1001100000000000000000000000000000000000DF
:100120001D3400081D3400081D3400081D3400086B
:100130001D34000800000000000000000000000066
:100140000000000000000000000000001D34000856
:100150001D3400081D3400081D3400081D3400083B
:100160001D3400081D3400080000000000000000DD
:10017000000000000000000000000000000000007F
:10018000000000001D340008000000000000000016
:040190001D34000812
:10019800044B05481B1A062B02D9044B03B1184718
:1001A800704700BFFF000020FC0000200000000096
:1001B80005490648091A891001EBD171491002D086
:1001C800034B03B118477047FC000020FC000020D7
:1001D8000000000010B5064C237843B9FFF7D8FF9C
:1001E800044B13B10448AFF300800123237010BD02
:1001F8000001002000000000DC6B000808B5084B77
:100208001BB108480849AFF300800848036813B9D0
:10021800BDE80840CCE7064B002BF9D09847F7E734
:1002280000000000DC6B000804010020FC00002036
:100238000000000081F0004102E000BF83F00043AD
:1002480030B54FEA41044FEA430594EA050F08BF69
:1002580090EA020F1FBF54EA000C55EA020C7FEA2D
:10026800645C7FEA655C00F0E2804FEA5454D4EBAA
:100278005555B8BF6D420CDD2C4480EA020281EA74
:10028800030382EA000083EA010180EA020281EAAC
:100298000303362D88BF30BD11F0004F4FEA0131FE
:1002A8004FF4801C4CEA113102D0404261EB41010D
:1002B80013F0004F4FEA03334CEA133302D0524293
:1002C80063EB430394EA050F00F0A780A4F101044F
:1002D800D5F1200E0DDB02FA0EFC22FA05F2801889
:1002E80041F1000103FA0EF2801843FA05F359416F
:1002F8000EE0A5F120050EF1200E012A03FA0EFCEE
:1003080028BF4CF0020C43FA05F3C01851EBE37117
:1003180001F0004507D54FF0000EDCF1000C7EEB34
:1003280000006EEB0101B1F5801F1BD3B1F5001F72
:100338000CD349085FEA30004FEA3C0C04F1010491
:100348004FEA445212F5800F80F09A80BCF1004FBA
:1003580008BF5FEA500C50F1000041EB045141EA3C
:10036800050130BD5FEA4C0C404141EB010111F43D
:10037800801FA4F10104E9D191F0000F04BF0146E8
:100388000020B1FA81F308BF2033A3F10B03B3F1C6
:1003980020020CDA0C3208DD02F1140CC2F10C0256
:1003A80001FA0CF021FA02F10CE002F11402D8BFB4
:1003B800C2F1200C01FA02F120FA0CFCDCBF41EA80
:1003C8000C019040E41AA2BF01EB0451294330BD4F
:1003D8006FEA04041F3C1CDA0C340EDC04F114042C
:1003E800C4F1200220FA04F001FA02F340EA030003
:1003F80021FA04F345EA030130BDC4F10C04C4F149
:10040800200220FA02F001FA04F340EA0300294628
:1004180030BD21FA04F0294630BD94F0000F83F472
:10042800801306BF81F480110134013D4EE77FEA55
:10043800645C18BF7FEA655C29D094EA050F08BFA1
:1004480090EA020F05D054EA000C04BF1946104682
:1004580030BD91EA030F1EBF0021002030BD5FEAC6
:10046800545C05D14000494128BF41F0004130BDEE
:1004780014F580043CBF01F5801130BD01F0004542
:1004880045F0FE4141F470014FF0000030BD7FEAB5
:10049800645C1ABF194610467FEA655C1CBF0B46B0
:1004A800024650EA013406BF52EA033591EA030FC7
:1004B80041F4002130BD00BF90F0000F04BF0021BF
:1004C800704730B54FF4806404F132044FF00005F2
:1004D8004FF0000150E700BF90F0000F04BF00216B
:1004E800704730B54FF4806404F1320410F00045D1
:1004F80048BF40424FF000013EE700BF42004FEACC
:10050800E2014FEA31014FEA02701FBF12F07F4348
:1005180093F07F4F81F06051704792F0000F14BF45
:1005280093F07F4F704730B54FF4607401F0004589
:1005380021F0004120E700BF50EA010208BF7047E0
:1005480030B54FF000050AE050EA010208BF7047D5
:1005580030B511F0004502D5404261EB41014FF43E
:10056800806404F132045FEA915C3FF4DCAE4FF042
:1005780003025FEADC0C18BF03325FEADC0C18BF29
:10058800033202EBDC02C2F1200300FA03FC20FA7A
:1005980002F001FA03FE40EA0E0021FA02F11444C7
:1005A800C1E600BF70B54FF0FF0C4CF4E06C1CEADC
:1005B80011541DBF1CEA135594EA0C0F95EA0C0F51
:1005C80000F0DEF82C4481EA030621EA4C5123EAC4
:1005D8004C5350EA013518BF52EA033541F48011F3
:1005E80043F4801338D0A0FB02CE4FF00005E1FBA6
:1005F80002E506F00042E0FB03E54FF00006E1FBF0
:1006080003569CF0000F18BF4EF0010EA4F1FF0432
:10061800B6F5007F64F5407404D25FEA4E0E6D4172
:1006280046EB060642EAC62141EA55514FEAC52083
:1006380040EA5E504FEACE2EB4F1FD0C88BFBCF5FF
:10064800E06F1ED8BEF1004F08BF5FEA500E50F1B0
:10065800000041EB045170BD06F0004646EA010176
:1006680040EA020081EA0301B4EB5C04C2BFD4EBA8
:100678000C0541EA045170BD41F480114FF0000EA1
:10068800013C00F3AB8014F1360FDEBF002001F00F
:10069800004170BDC4F10004203C35DA0C341BDC89
:1006A80004F11404C4F1200500FA05F320FA04F05B
:1006B80001FA05F240EA020001F0004221F000418F
:1006C80010EBD37021FA04F642EB06015EEA430E02
:1006D80008BF20EAD37070BDC4F10C04C4F1200532
:1006E80000FA04F320FA05F001FA04F240EA0200E5
:1006F80001F0004110EBD37041F100015EEA430EB6
:1007080008BF20EAD37070BDC4F1200500FA05F2D5
:100718004EEA020E20FA04F301FA05F243EA020354
:1007280021FA04F001F0004121FA04F220EA020063
:1007380000EBD3705EEA430E08BF20EAD37070BDA9
:1007480094F0000F0FD101F00046400041EB010189
:1007580011F4801F08BF013CF7D041EA060195F06B
:10076800000F18BF704703F00046520043EB030325
:1007780013F4801F08BF013DF7D043EA0603704712
:1007880094EA0C0F0CEA135518BF95EA0C0F0CD01D
:1007980050EA410618BF52EA4306D1D181EA030163
:1007A80001F000414FF0000070BD50EA410606BF5D
:1007B8001046194652EA430619D094EA0C0F02D1A2
:1007C80050EA013613D195EA0C0F05D152EA0336E7
:1007D8001CBF104619460AD181EA030101F0004105
:1007E80041F0FE4141F470014FF0000070BD41F04E
:1007F800FE4141F4780170BD70B54FF0FF0C4CF428
:10080800E06C1CEA11541DBF1CEA135594EA0C0F46
:1008180095EA0C0F00F0A7F8A4EB050481EA030E93
:1008280052EA03354FEA013100F088804FEA03337A
:100838004FF0805545EA131343EA12634FEA022248
:1008480045EA111545EA10654FEA00260EF0004109
:100858009D4208BF964244F1FD0404F5407402D25B
:100868005B084FEA3202B61A65EB03055B084FEAEC
:1008780032024FF480104FF4002CB6EB020E75EBE9
:10088800030E22BFB61A754640EA0C005B084FEA11
:100898003202B6EB020E75EB030E22BFB61A75468E
:1008A80040EA5C005B084FEA3202B6EB020E75EBD9
:1008B800030E22BFB61A754640EA9C005B084FEA51
:1008C8003202B6EB020E75EB030E22BFB61A75465E
:1008D80040EADC0055EA060E18D04FEA051545EA4D
:1008E80016754FEA06164FEAC30343EA52734FEAF6
:1008F800C2025FEA1C1CC0D111F4801F0BD141EA6F
:1009080000014FF000004FF0004CB6E711F4801FD3
:1009180004BF01430020B4F1FD0C88BFBCF5E06FB3
:100928003FF6AFAEB5EB030C04BFB6EB020C5FEAC3
:10093800500C50F1000041EB045170BD0EF0004E18
:100948004EEA113114EB5C04C2BFD4EB0C0541EA4A
:10095800045170BD41F480114FF0000E013C90E647
:1009680045EA060E8DE60CEA135594EA0C0F08BF0B
:1009780095EA0C0F3FF43BAF94EA0C0F0AD150EA0A
:1009880001347FF434AF95EA0C0F7FF425AF10469D
:1009980019462CE795EA0C0F06D152EA03353FF4C5
:1009A800FDAE1046194622E750EA410618BF52EA42
:1009B80043067FF4C5AE50EA41047FF40DAF52EA16
:1009C80043057FF4EBAE12E74FF0FF3C06E000BFB3
:1009D8004FF0010C02E000BF4FF0010C4DF804CDC0
:1009E8004FEA410C7FEA6C5C4FEA430C18BF7FEA80
:1009F8006C5C1BD001B050EA410C0CBF52EA430CAE
:100A080091EA030F02BF90EA020F0020704710F12D
:100A1800000F91EA030F58BF994208BF90422CBFBC
:100A2800D8176FEAE37040F0010070474FEA410CB5
:100A38007FEA6C5C02D150EA013C07D14FEA430CD3
:100A48007FEA6C5CD6D152EA033CD3D05DF8040B44
:100A5800704700BF8446104662468C461946634676
:100A680000E000BF01B5FFF7B7FF002848BF10F14D
:100A7800000F01BD4DF808EDFFF7F4FF0CBF012092
:100A880000205DF808FB00BF4DF808EDFFF7EAFF0E
:100A980034BF012000205DF808FB00BF4DF808EDC9
:100AA800FFF7E0FF94BF012000205DF808FB00BFBE
:100AB8004DF808EDFFF7CEFF94BF012000205DF848
:100AC80008FB00BF4DF808EDFFF7C4FF34BF012055
:100AD80000205DF808FB00BF4FEA410212F5001242
:100AE80015D211D56FF47873B3EB625212D94FEA6D
:100AF800C12343F0004343EA505311F0004F23FA57
:100B080002F018BF404270474FF00000704750EAAB
:100B1800013005D111F0004008BF6FF00040704768
:100B28004FF00000704700BF4A0011D212F50012C2
:100B380011D20DD56FF47873B3EB62520ED44FEA2D
:100B4800C12343F0004343EA505323FA02F07047AD
:100B58004FF00000704750EA013002D14FF0FF30EB
:100B680070474FF00000704753B94AB9002908BFD1
:100B780000281CBF4FF0FF314FF0FF3000F03CB8A9
:100B880082B0EC462DE9005000F01EF8DDF804E0D4
:100B980002B00CBC704700BF2DE9F041069C154619
:100BA80006460F46984600F029F805FB01F300FBBE
:100BB8000838A5FB0023B21A434467EB0303C4E9D2
:100BC8000023BDE8F08100BF2DE9F041069C904666
:100BD80006460F461D4600F05FF900FB05F5A0FB31
:100BE800082308FB0155B21A2B4467EB0303C4E939
:100BF8000023BDE8F08100BF704700BF00292DE940
:100C0800F043C0F2A6800026002BC0F29C808846E4
:100C180094469E46154604460F46002B3DD18A420F
:100C280059D9B2FA82F33BB1C3F120029F4020FAAE
:100C380002F29D4017439C40290C220CB7FBF1FEA1
:100C4800A8B201FB1E7742EA074700FB0EF3BB423E
:100C58000AD97F190EF1FF3280F00581BB4240F2BC
:100C68000281AEF1020E2F44FF1AA4B2B7FBF1F3D2
:100C780001FB137744EA074700FB03F0B84208D9A1
:100C88007F1903F1FF3280F0F080B84240F2ED8026
:100C9800023B43EA0E43002203E08B420FD90022B5
:100CA8001346341C18BF012460424FF0000565EB61
:100CB80045015840514000196941BDE8F083B3FA35
:100CC80083F2002A40F086808B4202D3844500F2EA
:100CD800DB800123E5E712B90123B3FBF2F5B5FA8E
:100CE80085F000283BD1781B4FEA154E1FFA85FC8A
:100CF8000122B0FBFEF8210C0EFB180741EA07475A
:100D08000CFB08F3BB4207D97F1908F1FF3102D267
:100D1800BB4200F2BD808846FF1AA4B2B7FBFEF3BF
:100D28000EFB137744EA07470CFB03FCBC4507D9C5
:100D38007F1903F1FF3102D2BC4500F2A7800B46B0
:100D480043EA0843ADE752426FEA060663EB430302
:100D58005DE7404261EB41014FF0FF3654E7C0F1D7
:100D6800200224FA02F107FA00F385404FEA154EF3
:100D7800D7401943B7FBFEF20B0C0EFB12771FFA94
:100D880085FC43EA07430CFB02F79F4204FA00F490
:100D980007D95B1902F1FF3074D29F4272D9023A27
:100DA8002B44DF1B89B2B7FBFEF80EFB187341EA30
:100DB80003430CFB08F79F4208D95B1908F1FF3180
:100DC8005CD29F425AD9A8F102082B44D81B48EAA2
:100DD80002428EE7C2F120032CFA03F10EFA02FE5A
:100DE80020FA03F741EA0E0E08FA02F028FA03F196
:100DF8004FEA1E453843B1FBF5F8030C05FB181103
:100E08001FFA8EF743EA014107FB08F38B420CFAFD
:100E180002FC09D911EB0E0108F1FF3930D28B42DF
:100E28002ED9A8F102087144C91A80B2B1FBF5F3B2
:100E380005FB131140EA014107FB03F78F4208D96C
:100E480011EB0E0103F1FF3016D28F4214D9023B89
:100E5800714443EA0843C91BA3FB0C89494509D3DC
:100E680005D000221DE79646FEE6134611E794409A
:100E78004445F6D2013BF4E70346EAE78846A5E78E
:100E8800C846D1E702468CE713460AE7023B57E714
:100E9800A8F102082F443FE72DE9F041002B44D187
:100EA8008A42154604464FD9B2FA82F70E464FB128
:100EB800C7F12003B94020FA03F602FA07F50E43FA
:100EC80000FA07F44FEA154E230CB6FBFEF0AFB25A
:100ED8000EFB106143EA014307FB00F1994209D96F
:100EE8005B1900F1FF3280F0EC80994240F2E98012
:100EF80002382B445A1AA4B2B2FBFEF30EFB13229B
:100F080044EA024207FB03F7974208D9521903F152
:100F1800FF3180F0D880974240F2D580023B43EA07
:100F2800004000263146BDE8F0818B4247D8B3FA2D
:100F380083F6002E48D18B4202D3824200F2CD8044
:100F480001203146BDE8F08112B90125B5FBF2F563
:100F5800B5FA85F8B8F1000F77D14A1B4FEA154E5C
:100F6800AFB20126B2FBFEF0230C0EFB102143EAC0
:100F7800014107FB00F38B4207D9491900F1FF3201
:100F880002D28B4200F2BA801046C91AA4B2B1FB51
:100F9800FEF30EFB131144EA014407FB03F7A742D3
:100FA80008D9641903F1FF3280F08F80A74240F21C
:100FB8008C80023B43EA00403146BDE8F0810026C0
:100FC80030463146BDE8F081C6F1200422FA04F526
:100FD800B3402B4320FA04FC01FA06F721FA04F582
:100FE8004FEA134E4CEA0707B5FBFEF8390C0EFB27
:100FF80018551FFA83FC41EA05450CFB08F1A94284
:1010080002FA06F204D9ED1808F1FF3467D3A046B6
:101018006D1ABFB2B5FBFEF40EFB145547EA054145
:101028000CFB04FC8C4504D9C91804F1FF355CD3CA
:101038002C4644EA0844CCEB0101A4FB0223994264
:1010480048D344D0204600266CE7C8F1200401FAB2
:1010580008F305FA08F520FA04F7E1404FEA154EBF
:101068001F43B1FBFEF63A0C0EFB16111FFA85FC66
:1010780042EA01430CFB06F29A4200FA08F407D947
:101088005B1906F1FF3137D29A4235D9023E2B441B
:101098009B1ABFB2B3FBFEF00EFB103347EA0343C3
:1010A8000CFB00F1994207D95B1900F1FF3221D2FC
:1010B80099421FD902382B445A1A40EA0646674615
:1010C80050E7104616E70B4629E7134672E7B0408B
:1010D8009042B7D2601E002624E7304622E7A94294
:1010E80095D9A8F102081D4492E78C45A0D9023C85
:1010F80019449EE71046DFE70E46C9E7023829443F
:1011080043E700BF000000002DE9F0472DED028BFA
:1011180080468A4615461C46DDF82890431807EE97
:10112800903AF8EEE77AB6EE008A67EE887A17EE1C
:10113800900AFFF7E3F906460F46CAEB080807EEE0
:10114800908AF8EEE77A67EE887A17EE900AFFF74A
:10115800D5F924A3D3E90023FFF74EFBD9E90023EF
:10116800FFF76EF841EC180BC9E9000141EC100BD0
:1011780004F0E6F951EC100B32463B46FFF712FA41
:1011880080468946B0EE480AF0EE680A04F02CFA68
:1011980051EC100B32463B46FFF704FA06460F4661
:1011A8004046494600220E4BFFF726FB02460B46F7
:1011B800D5E90001FFF744F8C5E900013046394692
:1011C8000022074BFFF718FB02460B46D4E9000143
:1011D800FFF736F8C4E90001BDEC028BBDE8F087E3
:1011E800000034400000000000C899402DE9F84391
:1011F8008046894657EC126B55EC134B254B1B6800
:10120800012B05D1244B83ED002B0022214B1A60C2
:1012180020462946204BD3E90023FFF753FCE0B1D1
:101228002046294632463B46FFF74CFC48B14FF46E
:101238007A73C9F80030A3F5FA63C8F80030BDE83E
:10124800F8830023C9F80030C8F800300123134A96
:101258001360104A1360BDE8F883204629463246D9
:101268003B46FFF711FC40B10D4BC9F800304FF475
:101278007A73C8F80030BDE8F8830023C9F8003055
:10128800C8F800300123054A1360024A1360BDE81C
:10129800F88300BF3C000020A00100209801002036
:1012A80018FCFFFF2DE9F04F2DED048B85B081462A
:1012B800884657EC106B55EC114BB0EE429AF0EEA5
:1012C800629A93469A46634B1B68012B3AD1B0EE5B
:1012D800448AF0EE648A604B83ED002B5F4B83ED0C
:1012E800000B5F4B83ED001B51EC130B10EE102A23
:1012F8003B46FEF7A3FF02460B46FFF753F9CDE93D
:10130800000151EC180B22462B46FEF797FF0246C8
:101318000B46FFF747F9CDE90201DDE90001DDE9F8
:101328000223FEF78DFF41EC100B04F0B1F94D4B91
:1013380083ED000B0022474B1A60002000214A4B26
:10134800C3E9000130463946444BD3E90023FEF790
:1013580075FF02460B46FFF725F906460F4620465D
:1013680029463F4BD3E90023FEF768FF02460B46A8
:10137800FFF718F904460D463046394622462B46F3
:10138800FEF75EFF41EC100B04F082F957EC106B8E
:10139800354B83ED000B51EC190B2F4BD3E9002390
:1013A800FEF74CFF04460D46304639462D4BD3E92F
:1013B8000023FFF787FB18B12C4A13680133136029
:1013C8002A4B1B68052B0CDD0023284A13600122D9
:1013D80027490A60C9F80030C8F800301D4B1A6068
:1013E80032E0CAF1AA06234A13683344136006EBB5
:1013F80086077F002046294600221F4BFFF7D2F8B8
:1014080004460D463846FFF767F822462B46FEF796
:1014180017FFFFF761FBC9F80000184B1E60CBF1FE
:10142800AA06174A13683344136006EB8600400087
:10143800FFF752F822462B46FEF700FFFFF74CFB5A
:10144800C8F800000F4B1E6005B0BDEC048BBDE86A
:10145800F08F00BF38000020280100208001002004
:101468007001002078010020900100202001002058
:1014780098010020A801002000408F40880100202A
:101488001C010020300100202DE9F0432DED068BD2
:1014980091B081468846B0EE40AAF0EE60AAB0EE60
:1014A800419AF0EE619AB0EE428AF0EE628A1746EF
:1014B8001E464B4B1B68012B0DD10022484B1A606E
:1014C800484A1368013313601EA8474911224FF098
:1014D800FF3300F00DFD434B1B68444AD25C413A90
:1014E800132A78D8DFE802F0327777776F77777743
:1014F800777777770A7777777777775ADB003C4A79
:101508001A4492ED003B3B4A134493ED004B6C4662
:101518001EAD0FCD0FC40FCD0FC40FCD0FC495E86E
:101528000F0084E80F0048464146B0EE4A0AF0EE44
:101538006A0AB0EE491AF0EE691AB0EE482AF0EEDF
:10154800682A3A463346FFF7ADFE44E0DB00284AF6
:101558001A4492ED003B274A134493ED004B6C4626
:101568001EAD0FCD0FC40FCD0FC40FCD0FC495E81E
:101578000F0084E80F0048464146B0EE4A0AF0EEF4
:101588006A0AB0EE491AF0EE691AB0EE482AF0EE8F
:10159800682A3A463346FFF729FE1CE01EA816497A
:1015A8000E224FF0FF3300F0A3FC0E4B1A68104BCD
:1015B80003EBC203D3E90001FFF7B6FA01F0B6F96D
:1015C8000122074B1A601EA80C490E224FF0FF3368
:1015D80000F08EFCFEE711B0BDEC068BBDE8F08391
:1015E800980100209C010020F86B000840000020B2
:1015F80000000020380100200C6C00081C6C00085A
:1016080030B4036A23F001030362036A4468826901
:1016180022F073020D682A4323F002038D682B43DE
:101628000A4DA8420BD123F00803CD682B4323F0C1
:10163800040324F440744D692C438D692C434460A1
:1016480082614A684263036230BC7047000001400F
:1016580030B4036A23F480730362036A4468C2697E
:1016680022F073020D682A4323F400738D6843EA5D
:1016780005230C4DA8420ED123F40063CD6843EA3C
:10168800052323F4806324F440544D6944EA051487
:101698008D6944EA05144460C2614A68C263036202
:1016A80030BC70470000014030B4036A23F4805313
:1016B8000362036A4468C26922F4E6420D6842EA9A
:1016C800052223F400538D6843EA0533074DA842E9
:1016D80004D124F480444D6944EA85144460C2610D
:1016E8004A680264036230BC704700BF00000140D2
:1016F8000368314A904210D0B0F1804F0FD0A2F564
:101708007C4290420DD002F5806290420BD002F5E7
:101718008062904209D1012208E0012206E00122FC
:1017280004E0012202E0012200E000221AB123F0C5
:1017380070034A681343204A90421CD0B0F1804F8E
:101748001BD0A2F57C42904219D002F580629042EB
:1017580017D002F58062904215D002F59A32904275
:1017680013D002F58062904211D002F58062904257
:101778000FD101220EE001220CE001220AE0012231
:1017880008E0012206E0012204E0012202E0012231
:1017980000E000221AB123F44073CA6813430360BF
:1017A8008B68C3620B688362034B984201D10B6953
:1017B800036301234361704700000140C0B110B5C5
:1017C800044690F8393013F0FF0F04D1002380F855
:1017D800383001F0C5FC022384F83930214651F82D
:1017E800040BFFF785FF012384F83930002010BD72
:1017F80001207047002848D0F8B505460C4690F8F7
:10180800393013F0FF0F04D1002380F8383001F08D
:10181800E1FC022385F839302A68936823F007032E
:101828009360294651F8040BFFF762FF2868836824
:101838008269016A26681E4322F4407222F003027C
:10184800A368A76943EA0723134323F47C4323F0DF
:10185800FC03E268E76942EA072213432769226A20
:10186800120342EA0712134321F0AA01626864696D
:1018780042EA04120A43866029688B612B681A625F
:10188800012385F839300020F8BD0120704700BFDA
:1018980030B4036A23F010030362036A4468826960
:1018A80022F4E6420D6842EA052223F020038D68FF
:1018B80043EA05130C4DA8420ED123F08003CD68EE
:1018C80043EA051323F0400324F440644D6944EAD5
:1018D80085048D6944EA8504446082614A688263AC
:1018E800036230BC704700BF0000014038B590F873
:1018F8003830012B66D00D460446012380F8383075
:10190800022380F839300C2A55D8DFE802F0075452
:1019180054541A5454542E54545441000068FFF738
:101928006FFE2268936943F0080393612268936904
:1019380023F004039361226891692B690B43936137
:1019480039E00068FFF7A4FF2268936943F4006355
:1019580093612268936923F4806393612268936991
:10196800296943EA0123936125E00068FFF770FEC7
:101978002268D36943F00803D3612268D36923F04E
:101988000403D3612268D1692B690B43D36112E048
:101998000068FFF789FE2268D36943F40063D361C6
:1019A8002268D36923F48063D3612268D3692969E3
:1019B80043EA0123D361012384F83930002084F8F5
:1019C800380038BD022038BD10B401238B40046AAA
:1019D80024EA03030362036A8A401A4302625DF839
:1019E800044B704710B5044600680122FFF7ECFF6E
:1019F8002368074A934203D15A6C42F400425A645E
:101A08002268136843F001031360002010BD00BF73
:101A18000000014010B5044611B1042906D00BE0BE
:101A2800006800210122FFF7CFFF0FE000680421C2
:101A38000122FFF7C9FF09E0006800210122FFF732
:101A4800C3FF206804210122FFF7BEFF2268136844
:101A580043F001031360002010BD00BF90F8383038
:101A6800012B21D030B4012280F83820022380F8DD
:101A780039300468636823F070036360046865683C
:101A88000B682B4363600468A36823F08003A3609A
:101A98000468A5684B682B43A36080F839200023AD
:101AA80080F83830184601E00220704730BC704793
:101AB80090F83830012B22D0012380F83830CB68D9
:101AC80023F440728B68134323F480624B681343FA
:101AD80023F400620B68134323F480520B69134309
:101AE80023F400524B6913438A6923F44043134398
:101AF80002685364002380F8383018467047022083
:101B0800704700BF2DE9F84304460268136923F4BF
:101B18004053C1680B4313610068C36823F416433C
:101B280023F00C03A1682269114362691143E26939
:101B38000A431343C3602268536923F44073A169BD
:101B48000B435361E369B3F5004F40F0B580266855
:101B580003F1804303F510439E4203D003F58063ED
:101B68009E4254D100F040FD00EB800000EB800065
:101B780065686D00B0FBF5F5A84FA7FB05356D0945
:101B88002D0100F031FD00EB800000EB8000636860
:101B98005B00B0FBF3F800F027FD00EB800000EBE2
:101BA800800063685B00B0FBF3F3A7FB03235B09CA
:101BB8004FF0640909FB1383DB003233A7FB0323CF
:101BC8001B0903F4F8731D4400F00EFD00EB8000C0
:101BD80000EB800063685B00B0FBF3F800F004FDE5
:101BE80000EB800000EB800063685B00B0FBF3F360
:101BF800A7FB03235B0909FB1383DB003233A7FB35
:101C08000323C3F342131D44B560BDE8F88300F015
:101C1800DBFC00EB800000EB800065686D00B0FB2A
:101C2800F5F57E4FA7FB05356D092D0100F0CCFCBD
:101C380000EB800000EB800063685B00B0FBF3F80A
:101C480000F0C2FC00EB800000EB800063685B00E2
:101C5800B0FBF3F3A7FB03235B094FF0640909FB0F
:101C68001383DB003233A7FB03231B0903F4F87348
:101C78001D4400F0A9FC00EB800000EB80006368C5
:101C88005B00B0FBF3F800F09FFC00EB800000EB7A
:101C9800800063685B00B0FBF3F3A7FB03235B09D9
:101CA80009FB1383DB003233A7FB0323C3F342137F
:101CB8001D44B560BDE8F8832668594B9E4203D0A1
:101CC80003F580639E4254D100F08EFC00EB800047
:101CD80000EB80006568AD00B0FBF5F54F4FA7FB42
:101CE80005356D092D0100F07FFC00EB800000EB4D
:101CF800800063689B00B0FBF3F800F075FC00EB14
:101D0800800000EB800063689B00B0FBF3F3A7FB47
:101D180003235B094FF0640909FB13831B0132336A
:101D2800A7FB03235B0903F0F0031D4400F05CFCF0
:101D380000EB800000EB800063689B00B0FBF3F8C9
:101D480000F052FC00EB800000EB800063689B0011
:101D5800B0FBF3F3A7FB03235B0909FB13831B0108
:101D68003233A7FB0323C3F343131D44B560BDE817
:101D7800F88300F029FC00EB800000EB8000656828
:101D8800AD00B0FBF5F5254FA7FB05356D092D0115
:101D980000F01AFC00EB800000EB800063689B00F9
:101DA800B0FBF3F800F010FC00EB800000EB8000C3
:101DB80063689B00B0FBF3F3A7FB03235B094FF0B9
:101DC800640909FB13831B013233A7FB03235B0957
:101DD80003F0F0031D4400F0F7FB00EB800000EB7C
:101DE800800063689B00B0FBF3F800F0EDFB00EBAC
:101DF800800000EB800063689B00B0FBF3F3A7FB57
:101E080003235B0909FB13831B013233A7FB03235D
:101E1800C3F343131D44B560BDE8F8831F85EB5138
:101E2800001001402DE9F04106460C461746984639
:101E3800069D1EE0B5F1FF3F1BD02DB100F070FDEF
:101E4800C8EB0000A84214D93268D36823F4D073D1
:101E5800D3603268536923F001035361202386F865
:101E6800393086F83A30002386F838300320BDE848
:101E7800F08133681B682340A34214BF0023012369
:101E8800BB42D7D00020BDE8F08100BF68B310B5D1
:101E9800044690F8393013F0FF0F04D1002380F87E
:101EA800383001F05BFA242384F839302268D3688B
:101EB80023F40053D3602046FFF724FE22681369F9
:101EC80023F4904313612268536923F02A03536172
:101ED8002268D36843F40053D3600020E0632023D2
:101EE80084F8393084F83A3010BD0120704700BFBB
:101EF8002DE9F04182B004461E4690F83930DBB235
:101F0800202B54D10D469046002952D0002A52D099
:101F180090F83830012B50D0012380F83830002356
:101F2800C363212380F8393000F0FAFC0746A4F88F
:101F38002480A4F8268026E0E38C013B9BB2E3844E
:101F4800A368B3F5805F12D1009620468021002255
:101F58003B46FFF767FF90BB22682B88C3F3080353
:101F6800536023690BB902350DE001350BE000968B
:101F78002046802100223B46FFF754FF08BB236818
:101F88002A785A600135E38C9BB2002BD4D1009695
:101F98002046402100223B46FFF744FF034690B904
:101FA800202284F83920002284F838200CE002230B
:101FB8000AE0012308E0012306E0022304E00323EA
:101FC80002E0032300E00323184602B0BDE8F081D5
:101FD800002800F0B58170B582B00446036813F09C
:101FE800010F5AD0A04B9B6803F00C03042B0AD0B6
:101FF8009D4B9B6803F00C03082B0DD19A4B5B6833
:1020080013F4800F08D0984B1B6813F4003F44D09A
:102018006368002B41D195E16368B3F5803F05D132
:10202800914A136843F48033136015E0B3F5A02F89
:1020380009D18D4B1A6842F480221A601A6842F45A
:1020480080321A6008E0884B1A6822F480321A60DD
:102058001A6822F480221A6063687BB100F060FC81
:10206800054605E000F05CFC401B642800F26C812A
:102078007D4B1B6813F4003FF4D00EE000F050FCD9
:10208800054605E000F04CFC401B642800F25E8128
:10209800754B1B6813F4003FF4D1236813F0020F4B
:1020A80050D0714B9B6813F00C0F0AD06E4B9B6895
:1020B80003F00C03082B16D16B4B5B6813F4800FED
:1020C80011D1694B1B6813F0020F03D0E368012B91
:1020D80040F03E81644A136823F0F803216943EA1B
:1020E800C10313602EE0E368D3B101225F4B1A608D
:1020F80000F016FC054605E000F012FC401B022823
:1021080000F22881584B1B6813F0020FF4D0564A8E
:10211800136823F0F803216943EAC103136011E04F
:102128000022524B1A6000F0FBFB054605E000F068
:10213800F7FB401B022800F20F814B4B1B6813F082
:10214800020FF4D1236813F0080F26D0636993B106
:102158000122474B1A6000F0E3FB054605E000F05A
:10216800DFFB401B022800F2F9803F4B5B6F13F046
:10217800020FF4D011E000223D4B1A6000F0D0FBB2
:10218800054605E000F0CCFB401B022800F2E88081
:10219800354B5B6F13F0020FF4D1236813F0040F73
:1021A8007CD0314B1B6C13F0805F0DD10023019361
:1021B8002D4B1A6C42F080521A641B6C03F080534A
:1021C8000193019B012500E000252A4B1B6813F4AD
:1021D800807F13D1274A136843F48073136000F09B
:1021E8009FFB064605E000F09BFB801B022800F2DF
:1021F800B980204B1B6813F4807FF4D0A368012BAF
:1022080005D1194A136F43F00103136714E0052B36
:1022180009D1154B1A6F42F004021A671A6F42F07F
:1022280001021A6708E0104B1A6F22F001021A67C0
:102238001A6F22F004021A67A3688BB100F070FBD2
:10224800064607E000F06CFB801B41F28833984299
:1022580000F28A80044B1B6F13F0020FF2D017E0D4
:1022680000F05EFB06460EE00038024000004742E0
:10227800800E47420070004000F052FB801B41F284
:102288008833984272D8404B1B6F13F0020FF3D17A
:1022980025B13D4A136C23F080531364A369002BC6
:1022A80066D0394A926802F00C02082A62D0022BE2
:1022B80033D10022354B1A6000F032FB054604E0AA
:1022C80000F02EFB401B022856D82F4B1B6813F03A
:1022D800007FF5D1E269236A1343626A43EA8213F5
:1022E800A26A5208013A43EA0243E26A43EA0263F5
:1022F800254A53600122254B1A6000F011FB044661
:1023080004E000F00DFB001B022837D81E4B1B68A9
:1023180013F0007FF5D0002033E000221B4B1A6039
:1023280000F0FEFA044604E000F0FAFA001B022866
:1023380026D8154B1B6813F0007FF5D1002020E04C
:102348000120704701201CE003201AE0032018E058
:10235800012016E0032014E0032012E0032010E01F
:1023680003200EE003200CE003200AE0032008E02D
:10237800002006E0012004E0032002E0032000E042
:10238800032002B070BD00BF003802406000474221
:1023980038B52F4B9B6803F00C03042B55D0082B42
:1023A80001D02C4838BD2A4B5A6802F03F025B68BE
:1023B80013F4800F20D0264B5B68C3F38813DC002E
:1023C8000025690141EAD4616001041B61EB050540
:1023D800A90141EA9461A001001B61EB0501C01845
:1023E80041F100014B0243EAD0534402204619460A
:1023F8000023FEF7B9FB1FE0154B5B68C3F3881396
:10240800DC000025690141EAD4616001041B61EB2D
:102418000505A90141EA9461A001001B61EB0501D2
:10242800C01841F100018B0243EA90538402204610
:1024380019460023FEF798FB054B5B68C3F301437D
:1024480001335B00B0FBF3F038BD034838BD00BF73
:10245800003802400024F40000127A00002800F03E
:10246800978070B50D460446504B1B6803F00F0368
:102478008B4208D2CBB24D4A1370136803F00F0396
:102488008B4240F08780236813F0020F17D013F0B7
:10249800040F04D0464A936843F4E05393602368DA
:1024A80013F0080F04D0424A936843F460439360E2
:1024B8003F498B6823F0F002A36813438B602368BD
:1024C80013F0010F2FD06268012A05D1384B1B6821
:1024D80013F4003F0ED15FE0931E012B05D8344B57
:1024E8001B6813F0007F05D158E0314B1B6813F0CF
:1024F800020F55D02E498B6823F0030313438B60DA
:1025080000F00EFA064606E000F00AFA801B41F2D7
:102518008833984246D8264B9B6803F00C036268C0
:10252800B3EB820FF0D1214B1B6803F00F03AB42D2
:1025380007D9EAB21D4B1A701B6803F00F03AB42B0
:1025480032D1236813F0040F06D019498B6823F49D
:10255800E052E36813438B60236813F0080F07D039
:10256800134A936823F46043216943EAC1039360E3
:10257800FFF70EFF0E4B9B68C3F303130D4AD35CA2
:10258800D8400D4B1860002000F07EF9002070BD87
:1025980001207047012070BD012070BD012070BD71
:1025A800012070BD032070BD012070BD003C0240B9
:1025B800003802402C6C000850000020014B1868BD
:1025C800704700BF5000002008B5FFF7F7FF044B25
:1025D8009B68C3F38223034AD35CD84008BD00BF7D
:1025E800003802403C6C000808B5FFF7E7FF044BD1
:1025F8009B68C3F34233034AD35CD84008BD00BF8D
:10260800003802403C6C00082DE9F04182B00023FC
:10261800C4E09C4601229A400C681440944240F061
:10262800BC804D68022D01D0122D14D14FEAD30E73
:102638000EF1080E50F82E7003F007084FEA8808CC
:102648000F2505FA08F527EA05060D6905FA08F5C4
:10265800354340F82E5006684FEA430E032505FA25
:102668000EF5ED4305EA06074E6806F0030606FA7E
:102678000EF63E4306604E68771E012F03D9112ED1
:1026880001D0122E12D1866805EA0607CE6806FA2E
:102698000EF63E438660476827EA02074E68C6F38F
:1026A800001202FA0CF646EA07024260C2682A40A3
:1026B8008D6805FA0EF51543C5604A6812F0805F0B
:1026C8006BD000220192384A556C45F48045556418
:1026D800526C02F480420192019A9F08BD1C334A51
:1026E80052F8256003F0030E4FEA8E0E0F2202FA0D
:1026F8000EF226EA02052E4A904219D002F58062AF
:10270800904213D002F5806290420DD002F58062AB
:10271800904207D002F58062904201D1042208E07D
:10272800072206E0032204E0022202E0012200E080
:10273800002202FA0EF22A4302371C4D45F82720E0
:102748001C4A1568E24302EA05064F6817F4803F01
:1027580001D044EA0506174D2E606D6802EA0506A9
:102768004F6817F4003F01D044EA0506114D6E602A
:10277800AD6802EA05064F6817F4801F01D044EAE5
:1027880005060C4DAE60ED682A404E6816F4001F31
:1027980001D044EA0502074CE26001330F2B7FF6B3
:1027A80038AF02B0BDE8F08100380240003801407F
:1027B80000000240003C014003690B4201D00120A7
:1027C80070470020704700BF0AB181617047090453
:1027D8008161704700F00700064AD36823F4E0637C
:1027E8001B041B0C43EA002040F0BF6040F400309B
:1027F800D060704700ED00E030B4164BDC68C4F3DD
:102808000224C4F10705042D28BF0425231D062B27
:1028180001D9033C00E00024012303FA05F5013D3A
:102828002940A140A340013B1A400A43002806DA88
:1028380000F00F001201D2B2074B1A5407E0120140
:10284800D2B200F1604000F5614080F8002330BC4E
:10285800704700BF00ED00E014ED00E00138B0F172
:10286800807F0AD2064B5860F021064A82F823106E
:102878000020986007221A6070470120704700BF47
:1028880010E000E000ED00E010B504460E4B1878AB
:102898004FF47A73B3FBF0F30C4A1068B0FBF3F013
:1028A800FFF7DCFF58B90F2C0BD84FF0FF3021464B
:1028B8000022FFF7A1FF064B1C60002010BD01207D
:1028C80010BD012010BD00BF4C00002050000020AA
:1028D8004800002008B50B4B1A6842F400721A60D1
:1028E8001A6842F480621A601A6842F480721A60A8
:1028F8000320FFF76FFF0020FFF7C6FF00F010FC72
:10290800002008BD003C0240034A136803490978C7
:102918000B441360704700BF500200204C00002099
:10292800014B1868704700BF5002002038B50446B4
:10293800FFF7F6FF0546B4F1FF3F02D0044B1B78C2
:102948001C44FFF7EDFF401B8442FAD838BD00BF96
:102958004C0000200F49D1F8883043F47003C1F8C7
:1029680088300D4B1A6842F001021A600020986006
:102978001A6822F0847222F480321A60074A5A6078
:102988001A6822F480221A60D8604FF000638B60C6
:10299800704700BF00ED00E000380240103000240E
:1029A8002DE9F0438BB0002405940694079408940D
:1029B800099401943C4B1A6B42F004021A631A6B97
:1029C80002F004020192019A02941A6B42F080020A
:1029D8001A631A6B02F080020292029A03941A6B2D
:1029E80042F001021A631A6B02F001020392039A81
:1029F80004941A6B42F002021A631B6B03F0020381
:102A08000493049B294F38464FF484612246FFF70C
:102A1800DBFE274D284610212246FFF7D5FEDFF8BA
:102A28009880404620212246FFF7CEFE4FF40053FF
:102A38000593204B06930794284605A9FFF7E4FD64
:102A48004FF01009CDF8149006940794384605A95C
:102A5800FFF7DAFD4FF48463059301260696079481
:102A68000894384605A9FFF7CFFDCDF814900696CF
:102A780007940894284605A9FFF7C6FD4FF480532C
:102A8800059306940794284605A9FFF7BDFD202362
:102A98000593069607940894404605A9FFF7B4FDE8
:102AA8000BB0BDE8F08300BF0038024000000240D0
:102AB80000080240000021100004024008B5084840
:102AC800084B03604FF4E133436000238360C36025
:102AD80003610C2242618361C361FFF7D7F908BD26
:102AE800800300200044004030B58BB000240894D7
:102AF8000994019402940394049405940694079409
:102B0800104D4FF080432B606C60AC6042F2107344
:102B1800EB602C612846FEF751FE0894099428467C
:102B280008A9FEF79BFF6023019302940394059480
:102B3800284601A90422FEF7D9FE284600F0AAFB80
:102B48000BB030BD4403002030B58BB0002408948E
:102B580009940194029403940494059406940794A8
:102B6800104D114B2B606C60AC6042F21073EB603F
:102B78002C612846FEF722FE08940994284608A9E5
:102B8800FEF76CFF60230193029403940594284692
:102B980001A92246FEF7AAFE284600F07BFB0BB0EF
:102BA80030BD00BFCC0200200004004030B58DB01D
:102BB80000240494069408940A94019402940E4DF7
:102BC8000E4B2B606C60AC604FF6FF73EB602C61B2
:102BD8000123039305930522079209930B92284634
:102BE80003A9FEF707FE01940294284601A9FEF7FF
:102BF80035FF0DB030BD00BF540200200008004072
:102C080030B58DB000240494069408940A94019475
:102C180002940E4D0E4B2B606C60AC604FF6FF7348
:102C2800EB602C6101230393059305220792099316
:102C38000B92284603A9FEF7DDFD0194029428466D
:102C480001A9FEF70BFF0DB030BD00BF90020020B8
:102C5800000C004030B591B000240E940F940794F6
:102C6800089409940A940B940C940D94009401947C
:102C7800029403940494059406941A4D1A4B2B60FD
:102C880048236B60AC6044F62063EB602C616C6198
:102C98002846FEF793FD0E940F9428460EA9FEF7DA
:102CA800DDFE6023079340F2DC53089309940B94EC
:102CB8000C940D94284607A90C22FEF717FE0094E1
:102CC80001940294039404944FF4005305930694DA
:102CD80028466946FEF7ECFE284600F0DBFA11B0FC
:102CE80030BD00BF080300200000014030B595B09A
:102CF8000024089409940A940B940C940D940E944F
:102D08000F941094119412941394039404940594BA
:102D18000694079401941C4B1A6C42F080521A6472
:102D28001B6C03F080530193019B0294174A1368AC
:102D380023F4404343F400431360136803F440430F
:102D48000293029B0225089501230B9310230C93F1
:102D58000E950F9410934FF4A873119304231293B4
:102D68000723139308A8FFF733F90F230393049558
:102D780005944FF480530693079403A82946FFF758
:102D88006DFB15B030BD00BF003802400070004038
:102D980010B580EAE074A4EBE074844206D10D48D3
:102DA8004FF480610022FFF70FFD05E009484FF45A
:102DB80080610122FFF708FD42F210739C4205DD95
:102DC800054B1B6842F210729A6310BD024B1B68D8
:102DD8009C6310BD000002404403002010B580EA47
:102DE800E074A4EBE074844205D10C482021012250
:102DF800FFF7EAFC04E0094820210022FFF7E4FC81
:102E080042F210739C4205DD054B1B6842F21072BA
:102E18005A6310BD024B1B685C6310BD000402407E
:102E2800CC020020000000002DE9F04F93B0FFF71E
:102E380051FDFFF75BFFFFF7B3FDFFF73FFEFFF71D
:102E480053FEFFF781FEFFF7B1FEFFF7D9FEFFF74C
:102E580001FF8B480421FEF7C5FD8A480021FEF7D3
:102E6800C1FD89481821FEF7D5FD88481821FEF7CD
:102E7800D1FD87480C21FEF7B5FD864886492F22EB
:102E88004FF0FF33FFF734F884484FF48051FFF7D1
:102E980093FC0028F8D1FFF743FD11907D48804945
:102EA8001A224FF0FF33FFF723F84FF47A70FFF739
:102EB8003DFDFFF735FD064647F23053794A536228
:102EC80002F580625362724B1B6840F2DC521A644E
:102ED80004E0724810210122FFF776FCFFF720FD7D
:102EE800801B714B1B689842F3D36C481021002259
:102EF800FFF76AFCFFF714FD0646FFF711FD119B6B
:102F0800C01A6A4B98420DD9624869491A224FF093
:102F1800FF33FEF7EDFF0020FFF760FF0020FFF70B
:102F280037FFFEE763481021FFF746FC68B15948B0
:102F380061491B224FF0FF33FEF7DAFF0020FFF74D
:102F48004DFF0020FFF724FFFEE756494C6AA4F521
:102F5800EA44303C594A506A47F230534B62536254
:102F6800181AFDF7B9FA44A3D3E90023FDF71AFBB1
:102F7800FDF7B2FD0546DFF878B1DFF878A1DFF894
:102F88005891CDF80090204629465A465346FEF7F8
:102F9800BBF84B4A1368234413604A4A13682B440E
:102FA8001360494FDFF840819BED000B9AED001B41
:102FB80099ED002BEE46DFF8DCC0BCE80F00AEE868
:102FC8000F00BCE80F00AEE80F00BCE80F00AEE849
:102FD8000F009CE80F008EE80F0038464146224655
:102FE8002B46FEF751FAD8F80000FFF7F7FE3868CD
:102FF800FFF7CEFE354A136801331360344A12686E
:1030080093427FF46BAF334CDBE90089DAE90023A4
:10301800CDE90023304BD3E9000100222F4BFDF707
:10302800C1FACDE9020120462D4942464B4600F03F
:10303800B3FE184D2846214632224FF0FF33FEF7E3
:1030480057FF284C1E4B1A681E4B1B6839680091A5
:103058002549096801912046244900F09DFE28462B
:10306800214632224FF0FF33FEF742FF0022174B72
:103078001A6033E7AFF300805B423EE8D9ACF03F1B
:1030880044030020CC0200205402002090020020BB
:103098000803002080030020446C00080008024058
:1030A800746C00080008004058000020905F010080
:1030B800906C000800000240AC6C0008000C004056
:1030C800C0010020C4010020AC010020FC01002048
:1030D80054000020000200203802002000408F40E9
:1030E800C86C0008C801002040020020DC6C000801
:1030F800B0010020B8010020704700BFFEE700BF04
:10310800FEE700BFFEE700BFFEE700BF704700BF55
:10311800704700BF704700BF08B5FFF7F5FB08BD53
:1031280000B583B0002100910C4B5A6C42F48042E8
:103138005A645A6C02F480420092009A01911A6C07
:1031480042F080521A641B6C03F080530193019B78
:103158000720FFF73FFB03B05DF804FB003802408F
:1031680084B00368184A93420CD100230193174B8B
:103178005A6C42F001025A645B6C03F0010301933C
:10318800019B1EE0B3F1804F0CD1002302930F4B3B
:103198001A6C42F001021A641B6C03F001030293DB
:1031A800029B0EE00A4A93420BD100230393074B7C
:1031B8001A6C42F002021A641B6C03F002030393B8
:1031C800039B04B0704700BF000001400038024074
:1031D8000004004000B58BB00023059306930793C5
:1031E800089309930368264A934221D1002101914B
:1031F800244B1A6C42F004021A641A6C02F004029E
:103208000192019A02911A6B42F002021A631B6B37
:1032180003F002030293029BC02305930223069343
:10322800012207920993184805A9FFF7EDF923E051
:10323800164A934220D100210391124B1A6C42F096
:1032480008021A641A6C02F008020392039A0491A5
:103258001A6B42F001021A631B6B03F0010304931B
:10326800049B0323059302230693012207920993E3
:10327800074805A9FFF7C8F90BB05DF804FB00BFC4
:10328800000800400038024000040240000C0040E2
:103298000000024000B589B000230393049305930E
:1032A800069307930368284A934217D10023009393
:1032B800264B1A6B42F001021A631B6B03F00103E1
:1032C8000093009B4FF400630393022304930123AC
:1032D80007931F4803A9FFF797F931E0B3F1804F2F
:1032E80016D100230193194B1A6B42F002021A639C
:1032F8001B6B03F002030193019B08230393022332
:10330800049301230793134803A9FFF77DF917E0F6
:10331800114A934214D1002302930C4B1A6B42F0CA
:1033280002021A631B6B03F002030293029B102331
:103338000393022304930793064803A9FFF764F94C
:1033480009B05DF804FB00BF0000014000380240EE
:1033580000000240000402400004004000B589B0AB
:103368000023039304930593069307930268134B72
:103378009A4220D10021019103F5FA331A6C42F4E4
:1033880000321A641A6C02F400320192019A029116
:103398001A6B42F001021A631B6B03F001030293DC
:1033A800029B0C23039302230493072307930448E7
:1033B80003A9FFF729F909B05DF804FB00440040B0
:1033C80000000240DFF834D0002103E00C4B5B58CA
:1033D800435004310B480C4B42189A42F6D30B4A1F
:1033E80002E0002342F8043B094B9A42F9D3FFF765
:1033F800B1FA00F011F8FFF717FD704700800120BF
:103408004070000800000020FC000020000100209F
:10341800C4030020FEE7000070B50E4B0E4CE41A02
:10342800A41000251E46A54204D056F8253098471A
:103438000135F8E703F0CEFB084C094BE41AA41059
:1034480000251E46A54204D056F825309847013578
:10345800F8E770BD38700008387000083C70000844
:103468003870000802440346934202D003F8011B57
:10347800FAE770472DE9FF4755EC104B0D9FDDF833
:1034880030A0002D0E4691461946B8BF22462B465D
:1034980027F02007BBBF05F100431D4600232D235D
:1034A800B8BF1446462F0B7003D0452F03D1013601
:1034B80001E0032100E0022102AB009303AB01937A
:1034C80045EC104B3246534600F022FD472F80460C
:1034D80002D119F0010F26D0462F08EB060911D1A9
:1034E80098F80030302B0AD12046294600220023C4
:1034F800FDF7C0FA18B9C6F10106CAF80060DAF893
:10350800003099442046294600220023FDF7B2FAEC
:1035180008B1CDF80C90039B4B4504D25A1C03927A
:1035280030221A70F7E7039B0E9AC8EB0303404654
:10353800136004B0BDE8F08773B503460029B8BF2F
:10354800494203F8022BB4BF2D222B2209294270CD
:1035580019DD0DF1070426460A2291FBF2F502FB5C
:1035680015113031092D04F8011D2946F4DC3031DC
:10357800651E04F8011CB5421A460AD215F8012B3B
:1035880003F8012BF7E730241A46214402F8024BCE
:103598005970101A02B070BD2DE9F04F8BB08B46F0
:1035A80015461E46149F044601F072FAD0F800A092
:1035B800504600F015FC002308933B68059007333C
:1035C80023F0070303F108029BF818803A60D3E957
:1035D8000023CBE912239BED120B00F0B1FB01286D
:1035E8001BD1DBE9120100220023FDF74DFA10B1CF
:1035F8002D238BF84330B54BB54FB8F1470F88BF33
:103608001F460323CBF81030DBF8003023F0040307
:10361800CBF800304FF000099FE09BED120B00F053
:103628008FFBDBF8002068B9AA4BAB4F22F00402ED
:10363800B8F1470F88BF1F460323CBF81030CBF8EB
:103648000020E7E7DBF804104F1C9BED120B01D1BB
:10365800062309E0B8F1670F02D0B8F1470F05D18A
:10366800002940F0C1810123CBF8043007AB8DE875
:10367800080108AB42F48062029300230393CBF85D
:1036880000200DF11B032046DBF80410FFF7F2FEC3
:1036980008F0DF03472B07460AD1079BD81C03DB3A
:1036A800DBF80420934237DDA8F102085FFA88F8B6
:1036B800B8F1650F079915D8013942460BF150004A
:1036C8000791FFF739FF089A8318012A8146CBF83A
:1036D800103003DCDBF80020D10738D50133CBF8F4
:1036E800103034E0B8F1660F18D10029DBF8043047
:1036F80009DDCBF810101BB9DBF80020D20721D563
:1037080001330B441CE01BB9DBF80020D00701D5BE
:10371800023315E0012313E04FF06708079B089A6E
:10372800934207DBDBF80020CBF81030D10709D52E
:10373800013305E0002BD4BFC3F102030123134476
:10374800CBF81030079BCBF858304FF000099DF8A4
:103758001B3013B12D238BF8433000962046594671
:1037680009AA2B4600F056F9013002D14FF0FF307C
:103778004CE1DBF800305A0505D4204629463A4684
:10378800DBF8103008E1B8F1650F40F2D080DBE9D2
:10379800120100220023FDF76DF950B32046294697
:1037A8004E4A0123B0470130E0D0089B079A9A425D
:1037B80009DBDBF80030D80705D4DBF800309F07B9
:1037C80000F1108107E1204629465246059BB04783
:1037D8000130CBD00027089B013B9F42EDDA204601
:1037E80029460BF11A020123B0470130BED0013738
:1037F800F1E7079B002B29DC20462946374A01239D
:10380800B0470130B2D0079B2BB9089B1BB9DBF836
:103818000030D907D1D5204629465246059BB047E6
:103828000130A3D04FF00008079B5B429845204623
:10383800294608DA0BF11A020123B047013095D066
:1038480008F10108F0E73A46089BA5E0DBF85820A4
:10385800089B9A42A8BF1A46002A914602DC4FF0FC
:10386800000812E0204629463A464B46B047013048
:10387800F5D17BE7204629460BF11A020123B04710
:1038880001303FF473AF08F10108DBF85830B9F1A3
:10389800000FACBFC9EB03021A469045EADB07EB01
:1038A8000308079A089B9A421ADBDBF80030DA070C
:1038B80016D4089A1744C8EB0703079FD21B9342F4
:1038C800A8BF1346002B1F4612DC18E0FB6C00084B
:1038D800F76C0008036D0008FF6C0008076D00080E
:1038E800204629465246059BB0470130E1D13DE7C5
:1038F800204629464246B04701303FF437AF4FF0E3
:1039080000080AE0204629460BF11A020123B047B5
:1039180001303FF42BAF08F10108079A089B002FEC
:10392800A3EB0203A8BFDB1B9845EBDB45E7089A2E
:10393800012A01DCDB0736D5204629463A46012311
:10394800B04701303FF412AF204629465246059B46
:10395800B04701303FF40AAFDBE91201002200232F
:10396800FDF788F8E8B9089B204629467A1C013BF0
:103978001DE0204629460BF11A020123B047013009
:103988003FF4F4AE0137089B013B9F42F1DB204630
:1039980029460BF150024B46B04701307FF40DAF7A
:1039A800E4E60027EFE7204629463A460123B047D8
:1039B8000130ECD1DAE6204629460BF11902012341
:1039C800B04701303FF4D2AE0137DBF80C30099A2A
:1039D8009B1A9F42EFDBDBF80C00099B9842B8BFAB
:1039E800184613E00027F0E707AB8DE8080108AB9D
:1039F80042F48062029300230393CBF80020204610
:103A08000DF11B03FFF736FD074646E60BB0BDE890
:103A1800F08F00BF2DE9F84391461F468A680B696D
:103A2800DDF820809342B8BF1346C9F8003091F8FA
:103A3800432006460C4612B10133C9F8003023680A
:103A4800990642BFD9F800300233C9F8003025681A
:103A580015F006051CD094F843302268003318BFCF
:103A6800012392061FD5E1185A1C302081F8430023
:103A7800224494F8451082F84310023313E030468C
:103A8800394604F119020123C047013007D0013536
:103A9800E368D9F800209B1A9D42F0DBDBE74FF082
:103AA800FF30BDE8F8833046394604F14302C04789
:103AB8000130F4D02268D9F80050E36802F0060219
:103AC800042A08BF5D1B2269A3680CBF25EAE575B7
:103AD80000259342C4BF9B1AED184FF00009A94571
:103AE8000ADA3046394604F11A020123C047013088
:103AF800D5D009F10109F2E70020BDE8F8830000FC
:103B08002DE9FF410C461746227E6E2A9846064646
:103B18000A9B01F1430100F0AF8012D8632A23D039
:103B28000AD8002A00F0BC80582A40F0CB8084F8DC
:103B38004520DFF804E257E0642A1ED0692A1CD029
:103B4800C0E0732A00F0B08009D86F2A2ED0702AFE
:103B580040F0B880226842F0200222603FE0752AD7
:103B680024D0782A3BD0ADE01A68111D196013687B
:103B780084F8423004F14205A8E020681A6810F081
:103B8800800F02D0101D186008E010F0400F02F1FD
:103B98000400186002D0B2F9003000E01368002B6E
:103BA8003EDA2D225B4284F8432039E020681A6807
:103BB80010F0800F02D0101D186007E010F0400FC1
:103BC80002F10400186001D0138800E01368227E17
:103BD800DFF864E16F2A0CBF08220A221CE0782271
:103BE800DFF858E184F845202268186812F0800F41
:103BF80000F104051D6003D1550601D5038800E0D6
:103C08000368D00744BF42F0200222601BB9226833
:103C180022F0200222601022002084F8430002E0F3
:103C2800DFF814E10A226568A560002DA2BF2068AC
:103C380020F00400206003B965B10D46B3FBF2F033
:103C480002FB10331EF8033005F8013D0346002837
:103C5800F4D100E00D46082A0BD12368DA0708D50D
:103C6800236962689A42DEBF302305F8013C05F1FA
:103C7800FF35491B21612EE025681A68606915F037
:103C8800800F03D0151D1D60136808E015F0400F64
:103C980002F104051D60136801D0188000E0186067
:103CA800002323610D4616E01A68111D1960156876
:103CB80062682846002100F0F7FE08B1401B6060EA
:103CC800636804E004F1420584F84220012323617B
:103CD800002384F84330CDF800803046214603AAFB
:103CE8003B46FFF797FE013002D14FF0FF301FE04F
:103CF800304639462A462369C0470130F5D0236843
:103D08009B0705D4E068039B9842B8BF18460FE0AC
:103D18000025E368039A9B1A9D42F3DA3046394638
:103D280004F119020123C0470130DED00135F0E764
:103D380004B0BDE8F08100BF096D00081A6D0008E5
:103D480053EC102B33F0004210B510EE100A1BD0C4
:103D58000F49A3F580148C4210D903F1FF430C4995
:103D680003F5E0038B4209D9B2F5801F08D3094B4C
:103D78009A4207D1B0FA80F0400910BD042010BD66
:103D8800032010BD002010BD0028E6D1022010BD80
:103D9800FFFFDF7F0000F07F0EB400B59CB04FF44A
:103DA8000271ADF814106FF00041049107914FF6BD
:103DB800FF711DABADF81610084953F8042B02909B
:103DC80006900868019302A901F06AFA029B002292
:103DD8001A701CB05DF804EB03B07047BC000020FB
:103DE800034613F8012B002AFBD1181A0138704733
:103DF8002DE9F74F03690C69A3428046C0F2818020
:103E0800013C01F114074FEA840E00F1140657F83B
:103E1800245006EB0E030193013556F82430B3FB0A
:103E2800F5F507EB0E09C5B34FF0000A3846B4465E
:103E3800D34650F8043B9AB21B0C02FB05A26B4315
:103E480003EB124392B2C2EB0B02BCF800B04FEA8C
:103E5800134A12FA8BF21FFA83FBDCF80030CBEB23
:103E6800134303EB224392B242EA034248454FEA26
:103E7800234B4CF8042BDCD956F80E306BB9019B58
:103E8800043BB3421A4602D8C8F8104005E012684D
:103E9800043B002AF8D1013CF3E7404601F031F831
:103EA80000282CDB013530464FF0000E57F8041B74
:103EB800D0F800C08AB2C2EB0E03090C13FA8CF3D7
:103EC800C1EB1C4202EB23429BB243EA02434F453B
:103ED8004FEA224E40F8043BE8D956F8242006EB76
:103EE800840362B9043BB3421A4602D8C8F81040AA
:103EF80005E01268043B002AF8D1013CF3E72846A4
:103F080000E0002003B0BDE8F08F000000000000D2
:103F18002DE9F04F456A97B0824608910B921293AB
:103F2800209C8DED000B45B9102000F0B5FDCAF8B6
:103F38002400456085600560C560DAF8243019689A
:103F480059B15A684A60012393408B60504600F08B
:103F5800FAFDDAF8243000221A60019B9E4A002BF1
:103F6800BFBF01232360019B23F00043B2BF01932D
:103F780000232360019C24F000431B0D1B05934282
:103F88001DD1129A42F20F731360009B43B9934AF2
:103F9800934BC4F31300002814BF1846104600E0E2
:103FA8008F48219B002B00F06D85C37813B100F179
:103FB800080300E0C31C219A136000F063BDDDE92B
:103FC80000890022404649460023FCF753FD054678
:103FD80058B1129A01231360219B002B00F04085F1
:103FE80080481860013800F04DBD504649EC108BF0
:103FF80015A914AA01F000F8C4F30A56049056B1A2
:10400800C9F3130343F07F51404641F44011A6F22F
:10401800FF3613951DE0159B149E1E446FF48263B2
:104028009E42ADBF009A704B009A06F21243A3BF9E
:1040380022FA03F06D4B9B1B9B1BAABF9C4002FA04
:1040480003F02043FCF738FA0123A1F1F871013E8F
:1040580013930022664BFCF7F1F859A3D3E9002328
:10406800FCF7A0FA58A3D3E90023FCF7E9F80446C3
:1040780030460D46FCF730FA55A3D3E90023FCF788
:1040880091FA02460B4620462946FCF7D9F8044621
:104098000D46FCF721FD29468346002220460023D1
:1040A800FCF7F2FC58B15846FCF716FA02460B46E4
:1040B80020462946FCF7DEFC08B90BF1FF3BBBF1B3
:1040C800160F0DD84B4B03EBCB03D3E90001DDE909
:1040D8000023FCF7F7FC30B10BF1FF3B002300E0B5
:1040E80001230D9300E00D90149B9E1B731E0793F4
:1040F80045BF5B420693002300234CBF07930693FA
:10410800BBF1000F07DB079BCDF830B05B4407938A
:104118000023099308E0069BCBEB03030693CBF13E
:104128000003099300230C93089B092B28D8052B1F
:10413800C4BF043B0893089BA3F10203CCBF00252E
:104148000125032B21D8DFE803F0020E0410002319
:1041580000E001230A930B9B002B20DC012303932F
:1041680002931A4619E0002300E001230A930B9BEF
:104178005B4403930133012B0293B8BF012311E081
:104188000125002308930A9501E001230A934FF0C3
:10419800FF3303930293002212230B9202E00B9B3E
:1041A80003930293DAF8244000226260042101F1AB
:1041B80014029A4220D86268013262604900F6E728
:1041C80061436F63A787D23FB3C8608B288AC63F15
:1041D800FB799F501344D33F0000F07F2B6D0008FC
:1041E800346D0008086D0008EEFBFFFF0EFCFFFFB2
:1041F8000000F83F406D00085046616800F06EFC12
:10420800DAF8243020601B680593029B0E2B00F21D
:104218004B81002D00F048819DED007BBBF1000F24
:104228008DED107B31DDB34A0BF00F034FEA2B17EE
:1042380002EBC303F806D3E900450CD5AE4B51ECAD
:10424800170BD3E90823FCF7D7FA07F00F07CDE9D6
:104258000001032600E00226DFF89C8277B1F90707
:1042680008D520462946D8E90023FCF79BF90136F2
:1042780004460D467F1008F10808EFE7DDE9000164
:1042880022462B46FCF7B8FA1BE0CBF10004DCB160
:10429800984B994D04F00F0203EBC203DDE91001BE
:1042A800D3E90023FCF77EF9241102264CB1E2077A
:1042B80004D5D5E900230136FCF774F964100835F4
:1042C800F4E7CDE9000100E002260D9BDBB1DDE952
:1042D8000045002220462946884BFCF7D5FB90B1C3
:1042E800029B83B1039B002B40F3DA8029462046CA
:1042F8000022834BFCF756F90BF1FF37CDE900019B
:104308000136039D01E0029D5F469DED007B30462E
:104318008DED0E7BFCF7E0F8DDE90E23FCF742F9A2
:104328000022784BFBF78CFF8046A1F15079CDB97C
:104338000022754BDDE90E01FBF780FF42464B4634
:10434800CDE90001FCF7BEFB002840F0468242465A
:1043580009F10043DDE90001FCF796FB002840F075
:1043680036829DE0634B0A996A1E03EBC20300295B
:1043780049D0D3E9002300206449FCF73DFA4246BE
:104388004B46FBF75BFFDDE90E89CDE90001059C93
:1043980049464046FCF7A0FB0646FCF79DF8024656
:1043A8000B4640464946FBF749FF303604F8016B97
:1043B800DDE9002380468946FCF766FB002840F0CB
:1043C800408342464B4600204C49FBF737FFDDE966
:1043D8000023FCF759FB002840F0D380059BE31A23
:1043E800AB425DDADDE900010022454BFCF7DAF863
:1043F8000022CDE90001424B40464946FCF7D2F87D
:1044080080468946C4E7D3E9000142464B46FCF79B
:10441800C9F8059BCDE90001DDE90E895C191D4647
:1044280049464046FCF758FB0646FCF755F8303637
:1044380002460B4640464946FBF700FF05F8016B6C
:10444800A5428046894624D10022304BDDE900018F
:10445800FBF7F6FE02460B4640464946FCF732FBA0
:10446800002840F08E80DDE9002300202749FBF773
:10447800E5FE02460B4640464946FCF705FB78B187
:1044880014F8013C302B04F1FF3240F0DA82144674
:10449800F6E700221A4BFCF785F880468946BFE705
:1044A800DDE91023CDE90023159B002BC0F28B809A
:1044B800BBF10E0F00F387800E4B03EBCB03D3E960
:1044C80000670B9B002B23DA029B002B20DC40F0BB
:1044D8007D81304600220C4B3946FCF763F8DDE954
:1044E8000023FCF7E5FA029D2E46002840F0708173
:1044F80075E100BF406D0008086E00080000F03F3D
:104508000000244000001C40000014400000E03F70
:10451800DDE90089059C32463B4640464946FCF7A2
:104528006BF9FCF7D9FA0546FBF7D6FF32463B464E
:10453800FCF738F80B46024649464046FBF77EFE34
:1045480005F1300E059B04F801EBC3EB040E029B4A
:104558009E452BD102460B46FBF772FE32463B4680
:1045680080468946FCF7AEFA70B94046494632465D
:104578003B46FCF77FFA002800F06482EB0703D47F
:1045880060E2BB4600E01C4614F8012C392A04F10D
:10459800FF3307D1059A9342F5D1302313700BF1FD
:1045A800010B13461A7801321A704BE20022A44B11
:1045B800FBF7F8FF0022002380468946FCF75AFAE9
:1045C8000028A8D03EE20A9A002A32D0089A012A86
:1045D8000ADC139A12B103F2334302E0149BC3F1CD
:1045E8003603099D069C18E0029B5D1E099BAB42A1
:1045F800BFBF099B0995EA1A0C9BB6BF9B185D1BA8
:104608000C93029BB8BF0025002BB9BF069B029AEA
:10461800069C029BBCBF9C1A0023069A1A44069269
:10462800079A50461A440121079200F02EFB0646CD
:1046380002E0099D069C0A9E64B1079B002B09DDD8
:10464800A342069AA8BF2346D21A0692079AE41AEA
:10465800D31A0793099B002B20DD0A9BC3B1002DB9
:1046680010DD31462A46504600F0AAFB0646314680
:10467800049A504600F012FB04990746504600F091
:1046880062FA0497099B5A1B08D05046049902E025
:104698000499099A504600F093FB04905046012172
:1046A80000F0F3FA0C9B002B05460ADD29461A4652
:1046B800504600F085FB089B012B054604DD0027CA
:1046C8001BE0089B012B13DC009B8BB9019BC3F3F8
:1046D80013037BB9019B23F000473F0D3F0557B1FA
:1046E800069B01330693079B01330793012702E0DA
:1046F800002700E0009F0C9B43B12B6905EB830367
:10470800186900F075FAC0F1200000E00120079B4D
:10471800184410F01F0008D0C0F12003042B02DD5C
:10472800C0F11C0002E008D018461C30069B034468
:104738000693079B034404440793069B002B05DD5F
:10474800504604991A4600F089FB0490079B002BF9
:1047580005DD294650461A4600F080FB05460D9BAC
:10476800EBB10498294600F0CCFB002817DA0023A7
:10477800504604990A2200F0FDF90A9B04900BF1B7
:10478800FF3B002B00F070813146002350460A227F
:1047980000F0F0F9039B002B064633DC6DE1029B29
:1047A800002B26DC089B022B23DD029B0393039B33
:1047B80073B929460522504600F0DCF9054629461A
:1047C800049800F09EFB002809DC01E000252E4635
:1047D8000B9B059C6FEA030B08E0BB462E46059B26
:1047E800059A5C1C312313700BF1010BB1460026AE
:1047F80014E10A9B23B9029B0393059F049CCCE018
:10480800029B0393002C05DD31465046224600F0FA
:1048180025FB0646B7B17168504600F05FF932696A
:104828000232044606F10C0192000C3000F04BF9FC
:1048380050462146012200F011FB814603E000BFEB
:1048480000002440B146059F049C29462046FFF7F6
:10485800CFFA3146069000F13008204600F051FBAF
:104868004A4602902946504600F067FBC268034654
:104878003AB919462046049300F043FB049B0246CC
:1048880000E0012250461946049200F05CF9049AAF
:10489800A2B9089B93B9009B03F0010373B9B8F15F
:1048A800390F3B46049440D0029B002BC8BF069B9F
:1048B80007F10104C8BF03F131083DE0029B002B5A
:1048C80004DA002AC446049408DC21E024D1089BB9
:1048D80013BB009B03F00103F3B9F2E72146012261
:1048E80050460297CDF8008000F0B8FA29460490A7
:1048F80000F007FB0028DDF800C0029B03DC07D1AD
:1049080018F0010F04D0B8F1390F0ED008F1010CDE
:104918007C1C87F800C081E0002A07F101020EDD47
:10492800B8F1390F3B46049403D1392201371A7084
:1049380057E0144608F1010887F800806EE0059BEF
:1049480002F8018CD31A1746039A93423AD02146AB
:104958000A220023504600F00DF94E450446314620
:1049680050464FF00A024FF0000304D100F002F95C
:104978000646814669E700F0FDF8494606460A22E0
:104988005046002300F0F6F881465EE7214650467F
:104998000A22002300F0EEF8044620462946FFF7D5
:1049A80027FA00F1300807F8018B059B039AFB1AD8
:1049B8009342EBDB059B012AACBF9B180133B14640
:1049C8001F46002621460122504600F047FA294694
:1049D800049000F096FA002803DC16D118F0010FB5
:1049E80013D03C4614F8013C392B04F1FF3209D1AD
:1049F800059B9A4204D10BF1010B3123059A02E081
:104A08001446EFE70133137008E03C4614F8013C04
:104A1800302B04F1FF3201D11446F7E750462946FE
:104A280000F091F8B9F1000F0CD02EB14E4503D02B
:104A38005046314600F087F85046494600F083F862
:104A480000E0BB465046049900F07DF80023129A16
:104A580023700BF101031360219B1BB11C6001E063
:104A68000A480FE005980DE0039B002B3FF7C5AE01
:104A7800089B022B3FF79BAEBFE6089B022B3FF734
:104A880096AEBFE617B0BDE8F08F00BF076D00080F
:104A980000487047C0000020024B0146186800F02B
:104AA8004FBB00BFBC00002010B5C9B20244904201
:104AB800034606D01C788C4200F10100F7D1184655
:104AC80010BD002010BD10B5431E0A44914204D009
:104AD80011F8014B03F8014FF8E710BD70B5456AAE
:104AE80004460E463DB91020FFF7D6FF60624560C8
:104AF80085600560C560656AEB6843B1636ADB6819
:104B080053F8260078B1026843F8262017E02046BB
:104B18000421212200F0C2FA636AE860DB68002BF6
:104B2800ECD1002070BD012101FA06F56A1D20466E
:104B3800920000F0B3FA0028F3D0466085600023A5
:104B48000361C36070BD70B5446A06460D463CB942
:104B58001020FFF7A1FF7062446084600460C460A5
:104B68003DB1736A6A68DB6853F82210296043F81C
:104B7800225070BD2DE9F0410F69984606460C4653
:104B880001F1140E0023DEF8000085B2010C02FBCF
:104B98000585514301EB15410133ADB24FEA114888
:104BA800BB4205EB01414EF8041BECDBB8F1000FEA
:104BB8001BD0A3689F4212DB616830460131FFF7C2
:104BC8008DFF2269023204F10C01054692000C3077
:104BD800FFF779FF21463046FFF7B5FF2C4604EB77
:104BE80087030137C3F8148027612046BDE8F081A8
:104BF800030C1B0413B90004102300E0002310F079
:104C08007F4F04BF0002083310F0704F04BF00014B
:104C1800043310F0404F04BF80000233002803DB48
:104C2800420003D5581C704718467047202070472B
:104C3800036813F007020BD0D90722D49A074BBF99
:104C48005B089B08036003604CBF0120022070478B
:104C580099B209B91B0C102213F0FF0F04BF1B0AED
:104C68000832190704BF1B090432990704BF9B08BF
:104C78000232D90702D45B0805D00132036010461E
:104C88007047002070472020704710B50C4601215E
:104C9800FFF724FF01224461026110BD2DE9F74F9F
:104CA80014460A6923699A42B8BF0B468846BCBFB6
:104CB800A0461C46D8F81070D4F81090D8F80830E0
:104CC800D8F8041007EB09069E42C8BF0131FFF768
:104CD80005FF00F1140505EB860C2B46634503D24E
:104CE800002243F8042BF9E704F1140208F1140137
:104CF80002EB890301EB87070093009B01929A421C
:104D080057D2B2F800B0BBF1000F23D08946AE46A7
:104D18004FF0000859F8044BBEF800A0A3B20BFBF3
:104D280003A34FEA144ADEF8004043444FEA14480C
:104D38000BFB0A8404EB1344F2469BB243EA044398
:104D48004F454FEA14484AF8043B01D9D646E1E7F3
:104D5800CEF80480019BB3F802A00432BAF1000F28
:104D680021D02B682C4689464FF00008B9F800E09E
:104D7800B4F802B00AFB0EBEF044A3469BB243EA65
:104D880008434BF8043B59F8043BB4F804E01B0C07
:104D98000AFB03E303EB1843B9454FEA134801D272
:104DA8005C46E3E763600435A7E75CF8043D13B9A4
:104DB800013E002EF9DC066103B0BDE8F08F00006B
:104DC80012F003032DE9F04106460F46154607D0B9
:104DD800013B214A52F823200023FFF7CBFE074668
:104DE800AD1035D0746A3CB91020FFF755FE7062DB
:104DF800446084600460C460D6F82480D8F8084011
:104E08007CB9304640F27121FFF73FFF0023C8F814
:104E180008000446036004E06D1019D0206870B1E2
:104E28000446EB07F8D5394622463046FFF736FFE9
:104E3800394680463046FFF786FE4746ECE730465F
:104E480021462246FFF72AFF002320600360E7E798
:104E58003846BDE8F08100BF306E00082DE9F04704
:104E68000C464FEA621A236949680AEB0309A368EA
:104E78000746164609F101059D4202DD01315B0036
:104E8800FAE73846FFF72AFE0023804600F11401AE
:104E9800534504DA002241F823200133F8E72AEACF
:104EA800EA73206901EB830316F01F0204F1140171
:104EB80001EB800E14D0C2F1200C00200E68964041
:104EC80030439A4643F8040B51F8040B714520FA15
:104ED8000CF0F3D3CAF8040048B109F1020506E062
:104EE800043B51F8042B43F8042F7145F9D3013DD5
:104EF8003846C8F810502146FFF725FE4046BDE861
:104F0800F08703690A699B1A10B511D19200143011
:104F1800143183180A4453F8044D52F8041D8C4286
:104F280002D007D3012010BD8342F4D8002010BD61
:104F3800184610BD4FF0FF3010BD2DE9F843074665
:104F48000C46084611461546FFF7DBFF061E08D13A
:104F580038463146FFF7C2FD012303614661BDE8CB
:104F6800F883BCBF23462C4638466168BABF1D4645
:104F780001260026FFF7B2FD2B69C660266905F1F8
:104F88001409143404EB860709EB830800F11405AF
:104F98004FF0000C54F8043B59F8042B1CFA83F129
:104FA8001FFA82FE120CCEEB0101C2EB134303EB96
:104FB800214389B24FEA234CC84541EA0343A64638
:104FC80045F8043BE6D8BE450ED25EF8042B1CFA21
:104FD80082F4120C02EB2442A4B24FEA224C44EAB7
:104FE800024245F8042BEEE755F8043D0BB9013EA3
:104FF800FAE70661BDE8F8832DE9F3410F46012180
:1050080055EC104B1646FFF769FDC5F31303C5F3BE
:105018000A5580460DB143F480130193ECB102A800
:1050280040F8084DFFF704FE009B50B1019AC0F10B
:10503800200102FA01F10B43C240C8F81430019272
:1050480001E0C8F81430019BC8F81830002B14BFD1
:1050580002240124C8F8104009E001A8FFF7E8FD80
:105068000124019BC8F81430C8F81040203035B12D
:10507800A5F2334505443D60C0F1350009E008EB71
:105088008403A0F2324038601869FFF7B1FDC0EB25
:1050980044103060404602B0BDE8F08138B502FBEC
:1050A80001F4214600F04CF8054618B100212246CB
:1050B800FEF7D8F9284638BD30B500293DD051F85B
:1050C800042C0B1F1D49002AB8BF9B180A680C4600
:1050D80012B95A600B6030BD93420DD21968581846
:1050E800904201BF5A5852181A6042685A602360A9
:1050F80030BD994203D80A4651680029F9D114688D
:1051080015199D420AD11B682344D01888421360A0
:1051180013D10868034413604B680DE002D90C23CF
:10512800036030BD1C681819884204BF08684968C4
:10513800596004BF00191860536030BD4802002050
:1051480070B5CC1C24F0030408340C2C38BF0C2494
:10515800002C064603DA0C233360002070BD8C4215
:10516800F9D3204A136810461946A1B10A68121BE0
:105178000ED40B2A03D90A608B188C501FE08B427F
:105188000DBF5A684A685A60026018BF0B4616E09D
:105198000B464968E9E7144D2B681BB9304600F007
:1051A80071F928603046214600F06CF9421C03462C
:1051B800D1D0C51C25F0030585420AD11C6003F136
:1051C8000B001A1D20F00700821A0AD0514299508C
:1051D80070BD3046E91A00F055F90130BBD02B46B6
:1051E800ECE770BD48020020440200202DE9F0479A
:1051F8008E68B34282460C469046994640D38A89C7
:1052080012F4906F3AD0256809696F1A656902230C
:1052180005EB450595FBF3F57B1C4B449D4238BFD8
:105228001D4653050FD52946FFF78AFF064698B154
:1052380021693A46FFF747FCA38923F4906343F0BA
:105248008003A38113E02A4600F047F9064670B9A7
:1052580050462169FFF730FF0C23CAF80030A389B4
:1052680043F04003A3814FF0FF30BDE8F08726618B
:1052780065613E44ED1B2660A5604E46B14500D2EF
:105288004E4632462068414600F00CF9A3689B1B45
:10529800A36023681E4426600020BDE8F087000054
:1052A8002DE9F0439DB0064603938B891C060D46F5
:1052B80090460CD50B6953B94021FFF741FF286090
:1052C800286110B90C233360CCE040236B610023C4
:1052D800099320238DF8293030238DF82A3043464E
:1052E8001C4613F8012B1AB9B4EB08090FD002E0D9
:1052F800252AF5D1F8E73046294642464B46FFF7BE
:1053080075FF013000F0A980099B4B44099323786D
:10531800002B00F0A28000234FF0FF320493079384
:10532800059206938DF853301A9304F10108444608
:10533800DFF84891217848460522FFF7B5FB08F1C8
:105348000108049B30B1C9EB0000012282401343DD
:105358000493ECE7D80644BF20228DF853201907A0
:1053680044BF2B228DF8532022782A2A02D007998D
:1053780023460EE0039A111D12680391002ABBBF51
:10538800524243F0020307920792B8BF04930134D4
:105398000AE01C4601332278303A092A03D80A2049
:1053A80000FB0121F5E7079123782E2B1AD16378AA
:1053B8002A2B0AD1039B1A1D1B680392002BB8BF26
:1053C8004FF0FF33023405930CE0611C00220C46B9
:1053D80001312378303B092B03D80A2000FB023225
:1053E800F5E70592DFF89880217840460322FFF719
:1053F8005BFB38B1049AC8EB000040238340134399
:105408000493013421781A488DF82810062204F1F3
:105418000108FFF749FB88B1164B33B9039B0733E3
:1054280023F007030833039313E003AB00933046DC
:1054380004A92A46104BFEF7AFF807E003AB009328
:10544800304604A92A460C4BFEF75AFB421C074675
:1054580003D0099B3B44099341E7AB895B0601D420
:10546800099801E04FF0FF301DB0BDE8F08300BFA0
:10547800466E0008A1350008F55100083C6E00088A
:10548800426E000838B5064C0023054608462360DE
:1054980001F08CFB431C02D1236803B12B6038BD9B
:1054A800C0030020814210B501EB020301D3421E64
:1054B8000BE09842FBD28118D21AD34204D013F8D9
:1054C800014D01F8014DF8E710BD994204D011F8DB
:1054D800014B02F8014FF8E710BDF8B5074615462D
:1054E8000E4621B91146BDE8F840FFF729BE1AB9A2
:1054F800FFF7E2FD2846F8BD00F015F8A8420ED2E5
:1055080038462946FFF71CFE044650B131462A4664
:10551800FFF7D9FA38463146FFF7CEFD01E03046AD
:10552800F8BD2046F8BD51F8040C0028BEBF091884
:1055380051F8043CC018043870470000000000000F
:1055480000B551EC100B264A21F00043934285B078
:1055580020DD244A934209DD10EE102A0B46FAF7A3
:105568006DFE41EC100B05B05DF804FB684600F0D9
:10557800EFF800F0030001289DED000B9DED021BE4
:1055880020D0022811D000B3012001F019F951EC04
:10559800100BE6E79FED101B00F0D6FB51EC100B4B
:1055A80041EC100B05B05DF804FB00F0CDFB53ECAB
:1055B800102B10EE100A03F1004141EC100B05B05E
:1055C8005DF804FB01F0FCF8F1E700F0BDFB51ECDD
:1055D800100BC6E7AFF300800000000000000000D9
:1055E800FB21E93FFFFFEF7F00B551EC100B264A86
:1055F80021F00043934285B027DD244A934209DD18
:1056080010EE102A0B46FAF719FE41EC100B05B004
:105618005DF804FB684600F09BF800F003000128E1
:105628009DED000B9DED021B1FD0022819D008B379
:1056380000F08AFB53EC102B10EE100A03F1004126
:1056480041EC100B05B05DF804FB9FED0D1B00202D
:1056580001F0B6F851EC100B41EC100B05B05DF8F9
:1056680004FB012001F0ACF8E4E700F06DFB51EC1D
:10567800100BCAE7012001F0A3F851EC100BC4E7A6
:105688000000000000000000FB21E93FFFFFEF7F62
:10569800D0B52DED048BB0EE409AF0EE609A294C0F
:1056A8008AB000F07DFA94F90030B0EE408AF0EE4E
:1056B800608A01330FD0B0EE490AF0EE690AFEF7AE
:1056C8003FFB40B10026002751EC190B32463B4600
:1056D800FBF7DAF938B9B0EE480AF0EE680A0AB012
:1056E800BDEC048BD0BD184B247801930122002314
:1056F8008DED049B8DED029B009208936CB9CDE96A
:105708000667684601F0BCF988B1089BA3B99DED0E
:10571800060B0AB0BDEC048BD0BD30463946324684
:105728003B46FBF769F8022CCDE90601E9D101F007
:105738004BFA21230360E8E701F046FA089B03606F
:10574800E5E700BFF8000020506E000800000000E8
:105758002DE9F04F53EC102B9B4923F000448C4269
:105768008FB09A46054640F3888098498C422BDCD6
:10577800BAF1000F194610EE100A89A3D3E90023E5
:1057880040F3A881FAF75AFD914B9C4206460F4612
:1057980000F08B8084A3D3E90023FAF74FFD02467B
:1057A8000B46C5E9002330463946FAF747FD7EA384
:1057B800D3E90023FAF742FD4FF0010BC5E90201D6
:1057C80058460FB0BDE8F08F82498C4240F38B8079
:1057D80081498C425DDC4FEA245BABF2164B10EE3C
:1057E800100AA4EB0B5190468946FBF775F9FAF7B6
:1057F80073FE06460F4632463B4640464946CDE9CB
:105808000867FAF71BFD0022744BFAF7CBFE8946AE
:105818008046FBF761F9FAF75FFE06460F46324607
:105828003B4640464946CDE90A67FAF707FD00229C
:105838006A4BFAF7B7FE00220023CDE90C01FBF70B
:1058480019F9002800F06F810023304639460022FC
:10585800FBF710F9002814BF012302230222604934
:10586800009201915A4608A8294600F0ADFBBAF10A
:10587800000FC0F24D81834607E00020002185ED2E
:10588800000BC5E902014FF0000B58460FB0BDE808
:10589800F08F10EE100A1946FAF7D0FC4FF0000B03
:1058A800C5E90201C5E90001EFE741A3D3E90023F7
:1058B800FAF7C4FC40A3D3E9002306460F46FAF7DB
:1058C800BDFC02460B46C5E9002330463946FAF7C7
:1058D800B5FC39A3D3E90023FAF7B0FC4FF0010B6C
:1058E800C5E90201D1E701F033F857EC106B10EE6F
:1058F800100A33A3D3E900233946FAF753FE0022EE
:10590800384BFAF79DFCFBF7E7F88346FAF7E4FD16
:1059180023A3D3E90023CDE90401FAF743FE0246A5
:105928000B4630463946FAF789FC1FA3D3E9002312
:1059380006460F46DDE90401FAF734FEBBF11F0FF6
:10594800CDE902013046394650DC274B0BF1FF32D6
:1059580053F82230A34249D0DDE90223FAF76EFC5E
:1059680080468946C5E9008942464B463046394655
:10597800FAF764FCDDE90223FAF760FCBAF1000FDC
:10598800C5E9020181DA09F1004401F10043CBF1D4
:10599800000BC5F800806C60A860EB6075E700BF7D
:1059A80000004054FB21F93F3163621A61B4D03DD5
:1059B8000000601A61B4D03D7370032E8A19A33BAE
:1059C80083C8C96D305FE43FFB21E93F7BD90240C2
:1059D800FB21F93FFB213941FFFFEF7F00007041B8
:1059E800D86E00080000E03F586E0008DDE9022389
:1059F800FAF724FC2415C1F30A53E31A80468946B2
:105A0800102BC5E90089AFDD5BA3D3E90023DDE9ED
:105A18000401FAF7C7FD8046894642464B463046A0
:105A28003946FAF70BFCCDE90601DDE906233046D5
:105A38003946FAF703FC42464B46FAF7FFFB50A3F8
:105A4800D3E9002306460F46DDE90401FAF7AAFD6B
:105A580032463B46FAF7F2FBCDE90201DDE90223C3
:105A6800DDE90601FAF7EAFBC1F30A53E41A8046B6
:105A78008946312CC5E9008975DD44A3D3E90023A3
:105A8800DDE90401FAF78EFD8046894642464B4619
:105A9800DDE90601FAF7D2FB06460F4632463B46D9
:105AA800DDE90601FAF7CAFB42464B46FAF7C6FBA0
:105AB80038A3D3E9002380468946DDE90401FAF7D3
:105AC80071FD42464B46FAF7B9FBCDE90201304673
