:020000040800F2
:10000000008001207D1D0008C50A0008C90A0008FB
:10001000CD0A0008D10A0008D50A00080000000037
:10002000000000000000000000000000D90A0008E5
:10003000DD0A000800000000E10A0008E50A0008E7
:10004000CD1D0008CD1D0008CD1D0008CD1D0008E8
:10005000CD1D0008CD1D0008CD1D0008CD1D0008D8
:10006000CD1D0008CD1D0008CD1D0008CD1D0008C8
:10007000CD1D0008CD1D0008CD1D0008CD1D0008B8
:10008000CD1D0008CD1D0008CD1D0008000000009A
:10009000000000000000000000000000CD1D00086E
:1000A000CD1D0008CD1D0008CD1D0008CD1D000888
:1000B000CD1D0008CD1D0008CD1D0008CD1D000878
:1000C000CD1D0008CD1D0008CD1D0008CD1D000868
:1000D000CD1D0008CD1D0008CD1D0008000000004A
:1000E000CD1D0008CD1D0008CD1D0008000000003A
:1000F000000000000000000000000000CD1D00080E
:1001000000000000CD1D0008CD1D0008CD1D000819
:1001100000000000000000000000000000000000DF
:10012000CD1D0008CD1D0008CD1D0008CD1D000807
:10013000CD1D0008000000000000000000000000CD
:10014000000000000000000000000000CD1D0008BD
:10015000CD1D0008CD1D0008CD1D0008CD1D0008D7
:10016000CD1D0008CD1D00080000000000000000AB
:10017000000000000000000000000000000000007F
:1001800000000000CD1D000800000000000000007D
:04019000CD1D000879
:10019400044B05481B1A062B02D9044B03B118471C
:1001A400704700BF0F0000200C000020000000007A
:1001B40005490648091A891001EBD171491002D08A
:1001C400034B03B1184770470C0000200C000020BB
:1001D4000000000010B5064C237843B9FFF7D8FFA0
:1001E400044B13B10448AFF300800123237010BD06
:1001F4000C000020000000001C1E000808B5084B7D
:100204001BB108480849AFF300800848036813B9D4
:10021400BDE80840CCE7064B002BF9D09847F7E738
:10022400000000001C1E0008100000200C0000202C
:100234000000000053B94AB9002908BF00281CBFB8
:100244004FF0FF314FF0FF3000F03CB882B0EC4685
:100254002DE9005000F01EF8DDF804E002B00CBCFB
:10026400704700BF2DE9F041069C154606460F462F
:10027400984600F029F805FB01F300FB0838A5FBBC
:100284000023B21A434467EB0303C4E90023BDE827
:10029400F08100BF2DE9F041069C904606460F46CA
:1002A4001D4600F05FF900FB05F5A0FB082308FBE1
:1002B4000155B21A2B4467EB0303C4E90023BDE8DC
:1002C400F08100BF704700BF00292DE9F043C0F260
:1002D400A6800026002BC0F29C80884694469E4649
:1002E400154604460F46002B3DD18A4259D9B2FA2D
:1002F40082F33BB1C3F120029F4020FA02F29D40F9
:1003040017439C40290C220CB7FBF1FEA8B201FB59
:100314001E7742EA074700FB0EF3BB420AD97F1956
:100324000EF1FF3280F00581BB4240F20281AEF152
:10033400020E2F44FF1AA4B2B7FBF1F301FB1377AB
:1003440044EA074700FB03F0B84208D97F1903F1D8
:10035400FF3280F0F080B84240F2ED80023B43EA85
:100364000E43002203E08B420FD900221346341CB3
:1003740018BF012460424FF0000565EB4501584069
:10038400514000196941BDE8F083B3FA83F2002AB1
:1003940040F086808B4202D3844500F2DB80012347
:1003A400E5E712B90123B3FBF2F5B5FA85F00028AD
:1003B4003BD1781B4FEA154E1FFA85FC0122B0FB96
:1003C400FEF8210C0EFB180741EA07470CFB08F363
:1003D400BB4207D97F1908F1FF3102D2BB4200F2B8
:1003E400BD808846FF1AA4B2B7FBFEF30EFB137759
:1003F40044EA07470CFB03FCBC4507D97F1903F10A
:10040400FF3102D2BC4500F2A7800B4643EA084301
:10041400ADE752426FEA060663EB43035DE74042F1
:1004240061EB41014FF0FF3654E7C0F1200224FA9A
:1004340002F107FA00F385404FEA154ED7401943FD
:10044400B7FBFEF20B0C0EFB12771FFA85FC43EA96
:1004540007430CFB02F79F4204FA00F407D95B1927
:1004640002F1FF3074D29F4272D9023A2B44DF1B4F
:1004740089B2B7FBFEF80EFB187341EA03430CFB89
:1004840008F79F4208D95B1908F1FF315CD29F42FB
:100494005AD9A8F102082B44D81B48EA02428EE735
:1004A400C2F120032CFA03F10EFA02FE20FA03F73C
:1004B40041EA0E0E08FA02F028FA03F14FEA1E454B
:1004C4003843B1FBF5F8030C05FB18111FFA8EF73E
:1004D40043EA014107FB08F38B420CFA02FC09D9F9
:1004E40011EB0E0108F1FF3930D28B422ED9A8F15D
:1004F40002087144C91A80B2B1FBF5F305FB13116C
:1005040040EA014107FB03F78F4208D911EB0E01C2
:1005140003F1FF3016D28F4214D9023B714443EAEF
:100524000843C91BA3FB0C89494509D305D0002204
:100534001DE79646FEE6134611E794404445F6D27D
:10054400013BF4E70346EAE78846A5E7C846D1E756
:1005540002468CE713460AE7023B57E7A8F1020874
:100564002F443FE72DE9F041002B44D18A42154640
:1005740004464FD9B2FA82F70E464FB1C7F12003B1
:10058400B94020FA03F602FA07F50E4300FA07F41D
:100594004FEA154E230CB6FBFEF0AFB20EFB106112
:1005A40043EA014307FB00F1994209D95B1900F1C1
:1005B400FF3280F0EC80994240F2E98002382B440B
:1005C4005A1AA4B2B2FBFEF30EFB132244EA02420F
:1005D40007FB03F7974208D9521903F1FF3180F062
:1005E400D880974240F2D580023B43EA004000267F
:1005F4003146BDE8F0818B4247D8B3FA83F6002E2A
:1006040048D18B4202D3824200F2CD800120314690
:10061400BDE8F08112B90125B5FBF2F5B5FA85F80C
:10062400B8F1000F77D14A1B4FEA154EAFB201263D
:10063400B2FBFEF0230C0EFB102143EA014107FB41
:1006440000F38B4207D9491900F1FF3202D28B42E1
:1006540000F2BA801046C91AA4B2B1FBFEF30EFB35
:10066400131144EA014407FB03F7A74208D96419AC
:1006740003F1FF3280F08F80A74240F28C80023B6E
:1006840043EA00403146BDE8F08100263046314659
:10069400BDE8F081C6F1200422FA04F5B3402B43EF
:1006A40020FA04FC01FA06F721FA04F54FEA134E86
:1006B4004CEA0707B5FBFEF8390C0EFB18551FFA78
:1006C40083FC41EA05450CFB08F1A94202FA06F253
:1006D40004D9ED1808F1FF3467D3A0466D1ABFB2F0
:1006E400B5FBFEF40EFB145547EA05410CFB04FC74
:1006F4008C4504D9C91804F1FF355CD32C4644EA6F
:100704000844CCEB0101A4FB0223994248D344D012
:10071400204600266CE7C8F1200401FA08F305FA24
:1007240008F520FA04F7E1404FEA154E1F43B1FBE8
:10073400FEF63A0C0EFB16111FFA85FC42EA014341
:100744000CFB06F29A4200FA08F407D95B1906F189
:10075400FF3137D29A4235D9023E2B449B1ABFB29D
:10076400B3FBFEF00EFB103347EA03430CFB00F12E
:10077400994207D95B1900F1FF3221D299421FD95E
:1007840002382B445A1A40EA0646674650E7104698
:1007940016E70B4629E7134672E7B0409042B7D2FA
:1007A400601E002624E7304622E7A94295D9A8F125
:1007B40002081D4492E78C45A0D9023C19449EE7E7
:1007C4001046DFE70E46C9E70238294443E700BF75
:1007D400F0B58BB00024059406940794089409940A
:1007E40001942A4B1A6B42F004021A631A6B02F04A
:1007F40004020192019A02941A6B42F080021A6375
:100804001A6B02F080020292029A03941A6B42F06D
:1008140001021A631A6B02F001020392039A049410
:100824001A6B42F002021A631B6B03F00203049377
:10083400049B174F38464FF48461224601F0B0F907
:10084400144D28462021224601F0AAF94FF4005302
:100854000593114B06930794104805A901F0C8F8B5
:100864004FF484630593012606960794089438464A
:1008740005A901F0BDF82023059306960794089472
:10088400284605A901F0B4F80BB0F0BD00380240C9
:100894000000024000040240000021100008024051
:1008A40008B50848084B03604FF4E1334360002364
:1008B4008360C36003610C2242618361C36100F001
:1008C40049FD08BDA00000200044004030B58BB0B5
:1008D40000240894099401940294039404940594C4
:1008E40006940794104D4FF080432B606C60AC600D
:1008F40042F21073EB602C61284600F093FA0894DE
:100904000994284608A900F06BFB60230193029424
:1009140003940594284601A9042200F0CDFA284640
:1009240000F02AF90BB030BD6400002030B58BB064
:100934000024089409940194029403940494059463
:1009440006940794104D114B2B606C60AC6042F21E
:100954001073EB602C61284600F064FA0894099443
:10096400284608A900F03CFB6023019302940394F9
:100974000594284601A9224600F09EFA284600F074
:10098400FBF80BB030BD00BF28000020000400407D
:1009940030B595B00024089409940A940B940C94EF
:1009A4000D940E940F941094119412941394039430
:1009B400049405940694079401941C4B1A6C42F019
:1009C40080521A641B6C03F080530193019B0294C0
:1009D400174A136823F4404343F400431360136835
:1009E40003F440430293029B0225089501230B93D1
:1009F40010230C930E950F9410934FF4A873119336
:100A0400042312930723139308A800F0D5FC0F23A3
:100A14000393049505944FF480530693079403A815
:100A2400294600F00FFF15B030BD00BF003802406A
:100A34000070004008B501F039F9FFF7A9FFFFF78E
:100A4400C7FEFFF72DFFFFF741FFFFF76FFF1848C1
:100A5400042100F0ADFA1748002100F0A9FA144B64
:100A64001A684FF47A739363124A12685363124DEF
:100A740028464FF48061012201F092F80F4C204681
:100A84002021012201F08CF84FF4FA7001F03AF9B8
:100A940028464FF48061002201F082F8204620218C
:100AA400002201F07DF84FF4FA7001F02BF9D6E73B
:100AB40064000020280000200000024000040240DE
:100AC400704700BFFEE700BFFEE700BFFEE700BFC0
:100AD400FEE700BF704700BF704700BF704700BF0C
:100AE40008B501F0FDF808BD00B583B00021009100
:100AF4000C4B5A6C42F480425A645A6C02F48042A1
:100B04000092009A01911A6C42F080521A641B6C94
:100B140003F080530193019B072001F047F803B0D1
:100B24005DF804FB0038024082B00368B3F1804FE3
:100B34000CD1002300930E4B1A6C42F001021A648C
:100B44001B6C03F001030093009B0EE0094A9342DF
:100B54000BD100230193064B1A6C42F002021A6473
:100B64001B6C03F002030193019B02B0704700BFAA
:100B7400003802400004004000B589B0002303930C
:100B840004930593069307930368B3F1804F16D13A
:100B940000230193174B1A6B42F002021A631B6B7A
:100BA40003F002030193019B08230393022304939C
:100BB40001230793104803A900F01AFF17E00F4A16
:100BC400934214D1002302930A4B1A6B42F002029F
:100BD4001A631B6B03F002030293029B102303931B
:100BE400022304930793044803A900F001FF09B00A
:100BF4005DF804FB00380240000402400004004099
:100C040000B589B0002303930493059306930793D7
:100C14000268134B9A4220D10021019103F5FA3363
:100C24001A6C42F400321A641A6C02F40032019213
:100C3400019A02911A6B42F001021A631B6B03F0D2
:100C440001030293029B0C230393022304930723BF
:100C54000793044803A900F0CBFE09B05DF804FB38
:100C6400004400400000024030B4036A23F0010352
:100C74000362036A4468826922F073020D682A439E
:100C840023F002038D682B430A4DA8420BD123F0B5
:100C94000803CD682B4323F0040324F440744D6906
:100CA4002C438D692C43446082614A684263036229
:100CB40030BC70470000014030B4036A23F48073F1
:100CC4000362036A4468C26922F073020D682A430E
:100CD40023F400738D6843EA05230C4DA8420ED11A
:100CE40023F40063CD6843EA052323F4806324F4EA
:100CF40040544D6944EA05148D6944EA051444607E
:100D0400C2614A68C263036230BC7047000001409C
:100D140030B4036A23F480530362036A4468C269EB
:100D240022F4E6420D6842EA052223F400538D685A
:100D340043EA0533074DA84204D124F480444D69A5
:100D440044EA85144460C2614A680264036230BCA8
:100D5400704700BF000001400368314A904210D040
:100D6400B0F1804F0FD0A2F57C4290420DD002F535
:100D7400806290420BD002F58062904209D1012238
:100D840008E0012206E0012204E0012202E001223F
:100D940000E000221AB123F070034A681343204A8A
:100DA40090421CD0B0F1804F1BD0A2F57C429042FF
:100DB40019D002F58062904217D002F58062904209
:100DC40015D002F59A32904213D002F58062904217
:100DD40011D002F5806290420FD101220EE001226F
:100DE4000CE001220AE0012208E0012206E00122CF
:100DF40004E0012202E0012200E000221AB123F4FF
:100E04004073CA68134303608B68C3620B688362D0
:100E1400034B984201D10B6903630123436170477B
:100E240000000140C0B110B5044690F8393013F009
:100E3400FF0F04D1002380F83830FFF775FE02233A
:100E440084F83930214651F8040BFFF785FF01235C
:100E540084F83930002010BD0120704730B4036A93
:100E640023F010030362036A4468826922F4E642B1
:100E74000D6842EA052223F020038D6843EA051336
:100E84000C4DA8420ED123F08003CD6843EA05132C
:100E940023F0400324F440644D6944EA85048D69D9
:100EA40044EA8504446082614A688263036230BC18
:100EB400704700BF0000014038B590F83830012B6E
:100EC40066D00D460446012380F83830022380F8AA
:100ED40039300C2A55D8DFE802F0075454541A5418
:100EE40054542E54545441000068FFF7BDFE226848
:100EF400936943F0080393612268936923F0040320
:100F04009361226891692B690B43936139E000680E
:100F1400FFF7A4FF2268936943F400639361226896
:100F2400936923F48063936122689369296943EA8E
:100F34000123936125E00068FFF7BEFE2268D369B0
:100F440043F00803D3612268D36923F00403D36117
:100F54002268D1692B690B43D36112E00068FFF763
:100F6400D7FE2268D36943F40063D3612268D3694E
:100F740023F48063D3612268D369296943EA012396
:100F8400D361012384F83930002084F8380038BD57
:100F9400022038BD10B401238B40046A24EA030301
:100FA4000362036A8A401A4302625DF8044B704785
:100FB40010B5044600680122FFF7ECFF2368074AD6
:100FC400934203D15A6C42F400425A642268136873
:100FD40043F001031360002010BD00BF0000014076
:100FE40090F83830012B21D030B4012280F8382019
:100FF400022380F839300468636823F07003636067
:10100400046865680B682B4363600468A36823F075
:101014008003A3600468A5684B682B43A36080F831
:101024003920002380F83830184601E00220704748
:1010340030BC70472DE9F84304460268136923F471
:101044004053C1680B4313610068C36823F416431B
:1010540023F00C03A1682269114362691143E26918
:101064000A431343C3602268536923F44073A1699C
:101074000B435361E369B3F5004F40F0B580266834
:1010840003F1804303F510439E4203D003F58063CC
:101094009E4254D100F09CFC00EB800000EB8000E9
:1010A40065686D00B0FBF5F5A84FA7FB05356D0924
:1010B4002D0100F08DFC00EB800000EB80006368E4
:1010C4005B00B0FBF3F800F083FC00EB800000EB66
:1010D400800063685B00B0FBF3F3A7FB03235B09A9
:1010E4004FF0640909FB1383DB003233A7FB0323AE
:1010F4001B0903F4F8731D4400F06AFC00EB800044
:1011040000EB800063685B00B0FBF3F800F060FC68
:1011140000EB800000EB800063685B00B0FBF3F33E
:10112400A7FB03235B0909FB1383DB003233A7FB13
:101134000323C3F342131D44B560BDE8F88300F0F4
:1011440037FC00EB800000EB800065686D00B0FBAD
:10115400F5F57E4FA7FB05356D092D0100F028FC40
:1011640000EB800000EB800063685B00B0FBF3F8E9
:1011740000F01EFC00EB800000EB800063685B0065
:10118400B0FBF3F3A7FB03235B094FF0640909FBEE
:101194001383DB003233A7FB03231B0903F4F87327
:1011A4001D4400F005FC00EB800000EB8000636848
:1011B4005B00B0FBF3F800F0FBFB00EB800000EBFE
:1011C400800063685B00B0FBF3F3A7FB03235B09B8
:1011D40009FB1383DB003233A7FB0323C3F342135E
:1011E4001D44B560BDE8F8832668594B9E4203D080
:1011F40003F580639E4254D100F0EAFB00EB8000CB
:1012040000EB80006568AD00B0FBF5F54F4FA7FB20
:1012140005356D092D0100F0DBFB00EB800000EBD0
:10122400800063689B00B0FBF3F800F0D1FB00EB97
:10123400800000EB800063689B00B0FBF3F3A7FB26
:1012440003235B094FF0640909FB13831B01323349
:10125400A7FB03235B0903F0F0031D4400F0B8FB74
:1012640000EB800000EB800063689B00B0FBF3F8A8
:1012740000F0AEFB00EB800000EB800063689B0095
:10128400B0FBF3F3A7FB03235B0909FB13831B01E7
:101294003233A7FB0323C3F343131D44B560BDE8F6
:1012A400F88300F085FB00EB800000EB80006568AC
:1012B400AD00B0FBF5F5254FA7FB05356D092D01F4
:1012C40000F076FB00EB800000EB800063689B007D
:1012D400B0FBF3F800F06CFB00EB800000EB800047
:1012E40063689B00B0FBF3F3A7FB03235B094FF098
:1012F400640909FB13831B013233A7FB03235B0936
:1013040003F0F0031D4400F053FB00EB800000EBFE
:10131400800063689B00B0FBF3F800F049FB00EB2E
:10132400800000EB800063689B00B0FBF3F3A7FB35
:1013340003235B0909FB13831B013233A7FB03233C
:10134400C3F343131D44B560BDE8F8831F85EB5117
:101354000010014068B310B5044690F8393013F01A
:10136400FF0F04D1002380F83830FFF749FC242311
:1013740084F839302268D36823F40053D3602046BC
:10138400FFF758FE2268136923F49043136122681F
:10139400536923F02A0353612268D36843F400534A
:1013A400D3600020E063202384F8393084F83A3095
:1013B40010BD0120704700BF002800F0B58170B552
:1013C40082B00446036813F0010F5AD0A04B9B6807
:1013D40003F00C03042B0AD09D4B9B6803F00C0311
:1013E400082B0DD19A4B5B6813F4800F08D0984BEF
:1013F4001B6813F4003F44D06368002B41D195E18E
:101404006368B3F5803F05D1914A136843F4803390
:10141400136015E0B3F5A02F09D18D4B1A6842F47F
:1014240080221A601A6842F480321A6008E0884BFD
:101434001A6822F480321A601A6822F480221A6030
:1014440063687BB100F058FC054605E000F054FCED
:10145400401B642800F26C817D4B1B6813F4003F31
:10146400F4D00EE000F048FC054605E000F044FC32
:10147400401B642800F25E81754B1B6813F4003F27
:10148400F4D1236813F0020F50D0714B9B6813F012
:101494000C0F0AD06E4B9B6803F00C03082B16D17B
:1014A4006B4B5B6813F4800F11D1694B1B6813F00D
:1014B400020F03D0E368012B40F03E81644A1368B5
:1014C40023F0F803216943EAC10313602EE0E368C3
:1014D400D3B101225F4B1A6000F00EFC054605E013
:1014E40000F00AFC401B022800F22881584B1B68BC
:1014F40013F0020FF4D0564A136823F0F80321695D
:1015040043EAC103136011E00022524B1A6000F059
:10151400F3FB054605E000F0EFFB401B022800F258
:101524000F814B4B1B6813F0020FF4D1236813F0A7
:10153400080F26D0636993B10122474B1A6000F06B
:10154400DBFB054605E000F0D7FB401B022800F258
:10155400F9803F4B5B6F13F0020FF4D011E00022CF
:101564003D4B1A6000F0C8FB054605E000F0C4FBE3
:10157400401B022800F2E880354B5B6F13F0020F2A
:10158400F4D1236813F0040F7CD0314B1B6C13F09F
:10159400805F0DD1002301932D4B1A6C42F08052D1
:1015A4001A641B6C03F080530193019B012500E036
:1015B40000252A4B1B6813F4807F13D1274A136834
:1015C40043F48073136000F097FB064605E000F0D7
:1015D40093FB801B022800F2B980204B1B6813F494
:1015E400807FF4D0A368012B05D1194A136F43F00F
:1015F4000103136714E0052B09D1154B1A6F42F050
:1016040004021A671A6F42F001021A6708E0104BCD
:101614001A6F22F001021A671A6F22F004021A6785
:10162400A3688BB100F068FB064607E000F064FB9A
:10163400801B41F28833984200F28A80044B1B6F6E
:1016440013F0020FF2D017E000F056FB06460EE04E
:101654000038024000004742800E474200700040BC
:1016640000F04AFB801B41F28833984272D8404B09
:101674001B6F13F0020FF3D125B13D4A136C23F015
:1016840080531364A369002B66D0394A926802F030
:101694000C02082A62D0022B33D10022354B1A6087
:1016A40000F02AFB054604E000F026FB401B02285C
:1016B40056D82F4B1B6813F0007FF5D1E269236ADB
:1016C4001343626A43EA8213A26A5208013A43EA64
:1016D4000243E26A43EA0263254A53600122254B2E
:1016E4001A6000F009FB044604E000F005FB001B4F
:1016F400022837D81E4B1B6813F0007FF5D000205A
:1017040033E000221B4B1A6000F0F6FA044604E0B2
:1017140000F0F2FA001B022826D8154B1B6813F0C0
:10172400007FF5D1002020E00120704701201CE05B
:1017340003201AE0032018E0012016E0032014E03F
:10174400032012E0032010E003200EE003200CE04D
:1017540003200AE0032008E0002006E0012004E062
:10176400032002E0032000E0032002B070BD00BFAC
:10177400003802406000474238B52F4B9B6803F0A5
:101784000C03042B55D0082B01D02C4838BD2A4B10
:101794005A6802F03F025B6813F4800F20D0264B96
:1017A4005B68C3F38813DC000025690141EAD46156
:1017B4006001041B61EB0505A90141EA9461A001E4
:1017C400001B61EB0501C01841F100014B0243EA23
:1017D400D0534402204619460023FEF72BFD1FE098
:1017E400154B5B68C3F38813DC000025690141EAEB
:1017F400D4616001041B61EB0505A90141EA946110
:10180400A001001B61EB0501C01841F100018B022E
:1018140043EA90538402204619460023FEF70AFD4A
:10182400054B5B68C3F3014301335B00B0FBF3F08A
:1018340038BD034838BD00BF003802400024F4001E
:1018440000127A00002800F0978070B50D46044617
:10185400504B1B6803F00F038B4208D2CBB24D4AA6
:101864001370136803F00F038B4240F087802368E2
:1018740013F0020F17D013F0040F04D0464A9368F4
:1018840043F4E0539360236813F0080F04D0424AF2
:10189400936843F4604393603F498B6823F0F002FC
:1018A400A36813438B60236813F0010F2FD0626881
:1018B400012A05D1384B1B6813F4003F0ED15FE0B9
:1018C400931E012B05D8344B1B6813F0007F05D100
:1018D40058E0314B1B6813F0020F55D02E498B682A
:1018E40023F0030313438B6000F006FA064606E078
:1018F40000F002FA801B41F28833984246D8264B06
:101904009B6803F00C036268B3EB820FF0D1214BA8
:101914001B6803F00F03AB4207D9EAB21D4B1A70E0
:101924001B6803F00F03AB4232D1236813F0040F9A
:1019340006D019498B6823F4E052E36813438B60A3
:10194400236813F0080F07D0134A936823F4604305
:10195400216943EAC1039360FFF70EFF0E4B9B68B6
:10196400C3F303130D4AD35CD8400D4B1860002019
:1019740000F076F9002070BD01207047012070BD91
:10198400012070BD012070BD012070BD032070BD19
:10199400012070BD003C024000380240341E0008A3
:1019A40008000020014B1868704700BF08000020A1
:1019B40008B5FFF7F7FF044B9B68C3F38223034A80
:1019C400D35CD84008BD00BF00380240441E000864
:1019D40008B5FFF7E7FF044B9B68C3F34233034AA0
:1019E400D35CD84008BD00BF00380240441E000844
:1019F4002DE9F04182B00023C4E09C4601229A40C4
:101A04000C681440944240F0BC804D68022D01D013
:101A1400122D14D14FEAD30E0EF1080E50F82E7089
:101A240003F007084FEA88080F2505FA08F527EAA6
:101A340005060D6905FA08F5354340F82E50066889
:101A44004FEA430E032505FA0EF5ED4305EA0607B2
:101A54004E6806F0030606FA0EF63E4306604E682C
:101A6400771E012F03D9112E01D0122E12D18668B0
:101A740005EA0607CE6806FA0EF63E438660476816
:101A840027EA02074E68C6F3001202FA0CF646EA89
:101A940007024260C2682A408D6805FA0EF51543B4
:101AA400C5604A6812F0805F6BD000220192384A08
:101AB400556C45F480455564526C02F480420192A1
:101AC400019A9F08BD1C334A52F8256003F0030EA7
:101AD4004FEA8E0E0F2202FA0EF226EA02052E4A71
:101AE400904219D002F58062904213D002F58062D0
:101AF40090420DD002F58062904207D002F58062D8
:101B0400904201D1042208E0072206E0032204E007
:101B1400022202E0012200E0002202FA0EF22A432D
:101B240002371C4D45F827201C4A1568E24302EA97
:101B340005064F6817F4803F01D044EA0506174DA7
:101B44002E606D6802EA05064F6817F4003F01D065
:101B540044EA0506114D6E60AD6802EA05064F6859
:101B640017F4801F01D044EA05060C4DAE60ED6801
:101B74002A404E6816F4001F01D044EA0502074CBF
:101B8400E26001330F2B7FF638AF02B0BDE8F0817D
:101B9400003802400038014000000240003C01408F
:101BA4000AB18161704709048161704700F0070040
:101BB400064AD36823F4E0631B041B0C43EA0020A9
:101BC40040F0BF6040F40030D060704700ED00E0AA
:101BD40030B4164BDC68C4F30224C4F10705042DA9
:101BE40028BF0425231D062B01D9033C00E0002453
:101BF400012303FA05F5013D2940A140A340013B1F
:101C04001A400A43002806DA00F00F001201D2B28B
:101C1400074B1A5407E01201D2B200F1604000F5FC
:101C2400614080F8002330BC704700BF00ED00E045
:101C340014ED00E00138B0F1807F0AD2064B586001
:101C4400F021064A82F823100020986007221A60C7
:101C540070470120704700BF10E000E000ED00E095
:101C640010B504460E4B18784FF47A73B3FBF0F3B7
:101C74000C4A1068B0FBF3F0FFF7DCFF58B90F2CE7
:101C84000BD84FF0FF3021460022FFF7A1FF064B8F
:101C94001C60002010BD012010BD012010BD00BF3C
:101CA40004000020080000200000002008B50B4BB1
:101CB4001A6842F400721A601A6842F480621A6068
:101CC4001A6842F480721A600320FFF76FFF002045
:101CD400FFF7C6FFFEF708FF002008BD003C0240E6
:101CE400034A1368034909780B441360704700BF23
:101CF400E000002004000020014B1868704700BF7A
:101D0400E000002038B50446FFF7F6FF0546B4F1BD
:101D1400FF3F02D0044B1B781C44FFF7EDFF401B30
:101D24008442FAD838BD00BF040000200F49D1F81E
:101D3400883043F47003C1F888300D4B1A6842F0C0
:101D440001021A60002098601A6822F0847222F45A
:101D540080321A60074A5A601A6822F480221A6094
:101D6400D8604FF000638B60704700BF00ED00E067
:101D74000038024010300024DFF834D0002103E0A2
:101D84000C4B5B58435004310B480C4B42189A429D
:101D9400F6D30B4A02E0002342F8043B094B9A4273
:101DA400F9D3FFF7C3FF00F011F8FEF743FE7047C5
:101DB400008001205C1E0008000000200C000020B0
:101DC4000C000020E4000020FEE7000070B50E4B7C
:101DD4000E4CE41AA41000251E46A54204D056F861
:101DE400253098470135F8E700F016F8084C094B00
:101DF400E41AA41000251E46A54204D056F8253046
:101E040098470135F8E770BD541E0008541E0008B9
:101E1400581E0008541E0008F8B500BFF8BC08BCE2
:101E24009E467047F8B500BFF8BC08BC9E46704794
:101E34000000000000000000010203040607080976
:081E440000000000010203048C
:081E4C0080E4FF7F01000000AB
:041E5400010200087F
:041E5800D9010008A4
:0C1E5C0010000000010000000024F40051
:0400000508001D7D55
:00000001FF
