:020000040800F2
:100000000080012099300008D92D0008DB2D000860
:10001000DD2D0008DF2D0008E12D000800000000A4
:10002000000000000000000000000000E32D0008B8
:10003000E52D000800000000E72D0008E92D00086C
:10004000E9300008E9300008E9300008E93000082C
:10005000E9300008E9300008E9300008E93000081C
:10006000E9300008E9300008E9300008E93000080C
:10007000E9300008E9300008E9300008E9300008FC
:10008000E9300008E9300008E9300008000000000D
:10009000000000000000000000000000E93000083F
:1000A000E9300008E9300008E9300008E9300008CC
:1000B000E9300008E9300008E9300008E9300008BC
:1000C000E9300008E9300008E9300008E9300008AC
:1000D000E9300008E9300008E930000800000000BD
:1000E000E9300008E9300008E930000800000000AD
:1000F000000000000000000000000000E9300008DF
:1001000000000000E9300008E9300008E93000088C
:1001100000000000000000000000000000000000DF
:10012000E9300008E9300008E9300008E93000084B
:10013000E93000080000000000000000000000009E
:10014000000000000000000000000000E93000088E
:10015000E9300008E9300008E9300008E93000081B
:10016000E9300008E930000800000000000000004D
:10017000000000000000000000000000000000007F
:1001800000000000E930000800000000000000004E
:04019000E93000084A
:1001A00010B5054C237833B9044B13B10448AFF3B1
:1001B00000800123237010BD3002002000000000E9
:1001C000DC6600080C4B43B10C480D4910B5AFF389
:1001D00000800C48036823B910BD0A48036833B98E
:1001E0007047094B002BF7D0BDE810401847064B6D
:1001F000002BF5D0184700BF00000000DC660008A7
:10020000340200202C02002000000000034613F8F6
:10021000012B002AFBD1181A01387047000000009A
:1002200001F0FF01102A2BDB10F0070F08D010F8A7
:10023000013B013A8B422DD010F0070F42B3F6D1AB
:10024000F0B441EA012141EA014122F007047FF0C4
:1002500000070023F0E80256083C85EA010586EA1B
:10026000010685FA47F5A3FA87F586FA47F6A5FA57
:1002700087F68EB9EED1F0BC01F0FF0102F0070263
:1002800032B110F8013B013A83EA010313B1F8D10E
:100290000020704701387047002D06BF35460338EF
:1002A000073815F0010F07D1013015F4807F02BF28
:1002B000013015F4C03F0130F0BC0138704700BF79
:1002C00081F0004102E000BF83F0004330B54FEA07
:1002D00041044FEA430594EA050F08BF90EA020F74
:1002E0001FBF54EA000C55EA020C7FEA645C7FEA07
:1002F000655C00F0E2804FEA5454D4EB5555B8BF2A
:100300006D420CDD2C4480EA020281EA030382EA9A
:10031000000083EA010180EA020281EA0303362D2C
:1003200088BF30BD11F0004F4FEA01314FF4801CFF
:100330004CEA113102D0404261EB410113F0004F11
:100340004FEA03334CEA133302D0524263EB4303C8
:1003500094EA050F00F0A780A4F10104D5F1200E66
:100360000DDB02FA0EFC22FA05F2801841F10001C1
:1003700003FA0EF2801843FA05F359410EE0A5F195
:1003800020050EF1200E012A03FA0EFC28BF4CF0C6
:10039000020C43FA05F3C01851EBE37101F000457C
:1003A00007D54FF0000EDCF1000C7EEB00006EEB89
:1003B0000101B1F5801F1BD3B1F5001F0CD3490813
:1003C0005FEA30004FEA3C0C04F101044FEA44526A
:1003D00012F5800F80F09A80BCF1004F08BF5FEAF1
:1003E000500C50F1000041EB045141EA050130BDD1
:1003F0005FEA4C0C404141EB010111F4801FA4F174
:100400000104E9D191F0000F04BF01460020B1FAC8
:1004100081F308BF2033A3F10B03B3F120020CDA00
:100420000C3208DD02F1140CC2F10C0201FA0CF0DE
:1004300021FA02F10CE002F11402D8BFC2F1200C43
:1004400001FA02F120FA0CFCDCBF41EA0C019040F9
:10045000E41AA2BF01EB0451294330BD6FEA040442
:100460001F3C1CDA0C340EDC04F11404C4F120022D
:1004700020FA04F001FA02F340EA030021FA04F33F
:1004800045EA030130BDC4F10C04C4F1200220FA96
:1004900002F001FA04F340EA0300294630BD21FAD4
:1004A00004F0294630BD94F0000F83F4801306BF9A
:1004B00081F480110134013D4EE77FEA645C18BF8E
:1004C0007FEA655C29D094EA050F08BF90EA020F25
:1004D00005D054EA000C04BF1946104630BD91EA1D
:1004E000030F1EBF0021002030BD5FEA545C05D120
:1004F0004000494128BF41F0004130BD14F580045F
:100500003CBF01F5801130BD01F0004545F0FE41D2
:1005100041F470014FF0000030BD7FEA645C1ABF07
:10052000194610467FEA655C1CBF0B46024650EA3E
:10053000013406BF52EA033591EA030F41F400216A
:1005400030BD00BF90F0000F04BF0021704730B5F0
:100550004FF4806404F132044FF000054FF00001C5
:1005600050E700BF90F0000F04BF0021704730B586
:100570004FF4806404F1320410F0004548BF40425B
:100580004FF000013EE700BF42004FEAE2014FEAB0
:1005900031014FEA02701FBF12F07F4393F07F4F8B
:1005A00081F06051704792F0000F14BF93F07F4FBD
:1005B000704730B54FF4607401F0004521F0004100
:1005C00020E700BF50EA010208BF704730B54FF086
:1005D00000050AE050EA010208BF704730B511F08B
:1005E000004502D5404261EB41014FF4806404F1C3
:1005F00032045FEA915C3FF4DCAE4FF003025FEA45
:10060000DC0C18BF03325FEADC0C18BF033202EBCC
:10061000DC02C2F1200300FA03FC20FA02F001FA26
:1006200003FE40EA0E0021FA02F11444C1E600BFC5
:1006300070B54FF0FF0C4CF4E06C1CEA11541DBF78
:100640001CEA135594EA0C0F95EA0C0F00F0DEF843
:100650002C4481EA030621EA4C5123EA4C5350EA28
:10066000013518BF52EA033541F4801143F4801379
:1006700038D0A0FB02CE4FF00005E1FB02E506F00A
:100680000042E0FB03E54FF00006E1FB03569CF05F
:10069000000F18BF4EF0010EA4F1FF04B6F5007F65
:1006A00064F5407404D25FEA4E0E6D4146EB0606D7
:1006B00042EAC62141EA55514FEAC52040EA5E5060
:1006C0004FEACE2EB4F1FD0C88BFBCF5E06F1ED80A
:1006D000BEF1004F08BF5FEA500E50F1000041EB41
:1006E000045170BD06F0004646EA010140EA0200EE
:1006F00081EA0301B4EB5C04C2BFD4EB0C0541EA10
:10070000045170BD41F480114FF0000E013C00F324
:10071000AB8014F1360FDEBF002001F0004170BD48
:10072000C4F10004203C35DA0C341BDC04F1140461
:10073000C4F1200500FA05F320FA04F001FA05F2ED
:1007400040EA020001F0004221F0004110EBD370BA
:1007500021FA04F642EB06015EEA430E08BF20EAE6
:10076000D37070BDC4F10C04C4F1200500FA04F389
:1007700020FA05F001FA04F240EA020001F000411B
:1007800010EBD37041F100015EEA430E08BF20EA8E
:10079000D37070BDC4F1200500FA05F24EEA020ED6
:1007A00020FA04F301FA05F243EA020321FA04F005
:1007B00001F0004121FA04F220EA020000EBD370BC
:1007C0005EEA430E08BF20EAD37070BD94F0000FBC
:1007D0000FD101F00046400041EB010111F4801FF0
:1007E00008BF013CF7D041EA060195F0000F18BFA1
:1007F000704703F00046520043EB030313F4801FDD
:1008000008BF013DF7D043EA0603704794EA0C0F96
:100810000CEA135518BF95EA0C0F0CD050EA4106AC
:1008200018BF52EA4306D1D181EA030101F0004129
:100830004FF0000070BD50EA410606BF1046194651
:1008400052EA430619D094EA0C0F02D150EA01365D
:1008500013D195EA0C0F05D152EA03361CBF10469E
:1008600019460AD181EA030101F0004141F0FE413D
:1008700041F470014FF0000070BD41F0FE4141F4C1
:10088000780170BD70B54FF0FF0C4CF4E06C1CEAC1
:1008900011541DBF1CEA135594EA0C0F95EA0C0F76
:1008A00000F0A7F8A4EB050481EA030E52EA033531
:1008B0004FEA013100F088804FEA03334FF0805552
:1008C00045EA131343EA12634FEA022245EA11157F
:1008D00045EA10654FEA00260EF000419D4208BF30
:1008E000964244F1FD0404F5407402D25B084FEADD
:1008F0003202B61A65EB03055B084FEA32024FF489
:1009000080104FF4002CB6EB020E75EB030E22BFE5
:10091000B61A754640EA0C005B084FEA3202B6EBA5
:10092000020E75EB030E22BFB61A754640EA5C0054
:100930005B084FEA3202B6EB020E75EB030E22BFE4
:10094000B61A754640EA9C005B084FEA3202B6EBE5
:10095000020E75EB030E22BFB61A754640EADC00A4
:1009600055EA060E18D04FEA051545EA16754FEA06
:1009700006164FEAC30343EA52734FEAC2025FEA24
:100980001C1CC0D111F4801F0BD141EA00014FF0B3
:1009900000004FF0004CB6E711F4801F04BF014384
:1009A0000020B4F1FD0C88BFBCF5E06F3FF6AFAEA0
:1009B000B5EB030C04BFB6EB020C5FEA500C50F130
:1009C000000041EB045170BD0EF0004E4EEA1131B3
:1009D00014EB5C04C2BFD4EB0C0541EA045170BDBA
:1009E00041F480114FF0000E013C90E645EA060EFE
:1009F0008DE60CEA135594EA0C0F08BF95EA0C0F2C
:100A00003FF43BAF94EA0C0F0AD150EA01347FF473
:100A100034AF95EA0C0F7FF425AF104619462CE74A
:100A200095EA0C0F06D152EA03353FF4FDAE1046AD
:100A3000194622E750EA410618BF52EA43067FF4FE
:100A4000C5AE50EA41047FF40DAF52EA43057FF48E
:100A5000EBAE12E74FF0FF3C06E000BF4FF0010C99
:100A600002E000BF4FF0010C4DF804CD4FEA410CFD
:100A70007FEA6C5C4FEA430C18BF7FEA6C5C1BD0CA
:100A800001B050EA410C0CBF52EA430C91EA030F4B
:100A900002BF90EA020F0020704710F1000F91EAA8
:100AA000030F58BF994208BF90422CBFD8176FEA76
:100AB000E37040F0010070474FEA410C7FEA6C5C44
:100AC00002D150EA013C07D14FEA430C7FEA6C5C4B
:100AD000D6D152EA033CD3D05DF8040B704700BF77
:100AE0008446104662468C461946634600E000BFC5
:100AF00001B5FFF7B7FF002848BF10F1000F01BD97
:100B00004DF808EDFFF7F4FF0CBF012000205DF861
:100B100008FB00BF4DF808EDFFF7EAFF34BF0120E6
:100B200000205DF808FB00BF4DF808EDFFF7E0FF7F
:100B300094BF012000205DF808FB00BF4DF808EDD0
:100B4000FFF7CEFF94BF012000205DF808FB00BF37
:100B50004DF808EDFFF7C4FF34BF012000205DF819
:100B600008FB00BF4FEA410C7FEA6C5C02D150EAFF
:100B7000013C0AD14FEA430C7FEA6C5C02D152EA95
:100B8000033C02D14FF0000070474FF00100704766
:100B90004FEA410212F5001215D211D56FF47873A5
:100BA000B3EB625212D94FEAC12343F0004343EA48
:100BB000505311F0004F23FA02F018BF4042704723
:100BC0004FF00000704750EA013005D111F00040AD
:100BD00008BF6FF0004070474FF00000704700BF43
:100BE0004A0011D212F5001211D20DD56FF47873AC
:100BF000B3EB62520ED44FEAC12343F0004343EA01
:100C0000505323FA02F070474FF00000704750EA4B
:100C1000013002D14FF0FF3070474FF000007047B5
:100C200053B94AB9002908BF00281CBF4FF0FF3153
:100C30004FF0FF3000F07AB9ADF1080C6DE904CE49
:100C400000F006F8DDF804E0DDE9022304B07047A7
:100C50002DE9F0478C460D460446089E002B51D1E5
:100C60008A4217466DD9B2FA82FEBEF1000F0BD050
:100C7000CEF1200C01FA0EF520FA0CFC02FA0EF768
:100C80004CEA050C00FA0EF44FEA174A250CBCFB9F
:100C9000FAF81FFA87F90AFB18CC45EA0C4508FB5D
:100CA00009F3AB420AD9ED1908F1FF3280F0238134
:100CB000AB4240F22081A8F102083D44ED1AA4B2F3
:100CC000B5FBFAF00AFB105544EA054400FB09F9AC
:100CD000A14509D9E41900F1FF3380F00A81A1454B
:100CE00040F2078102383C44A4EB090440EA084082
:100CF0000021002E61D024FA0EF4002334607360CA
:100D0000BDE8F0878B4207D9002E54D0002186E839
:100D100021000846BDE8F087B3FA83F1002940F0CE
:100D20008E80AB4202D3824200F2FA80841A65EBD5
:100D300003050120AC46002E3FD086E81010BDE828
:100D4000F08712B90127B7FBF2F7B7FA87FEBEF1B9
:100D5000000F34D1EB1B3A0C1FFA87FC0121B3FBC7
:100D6000F2F8250C02FB183345EA03450CFB08F3A7
:100D7000AB4207D9ED1908F1FF3002D2AB4200F2C5
:100D8000D1808046ED1AA3B2B5FBF2F002FB1055FC
:100D900043EA05440CFB00FCA44507D9E41900F123
:100DA000FF3302D2A44500F2B8801846A4EB0C042D
:100DB00040EA08409DE731463046BDE8F087CEF175
:100DC000200405FA0EF307FA0EF720FA04F83A0C9D
:100DD00025FA04F448EA0308B4FBF2F14FEA184597
:100DE00002FB11441FFA87FC45EA044501FB0CF3A2
:100DF000AB4200FA0EF409D9ED1901F1FF3080F091
:100E00008A80AB4240F2878002393D44EB1A1FFAD8
:100E100088F5B3FBF2F002FB103345EA034500FB13
:100E20000CF3AB4207D9ED1900F1FF386FD2AB429A
:100E30006DD902383D44EB1A40EA01418FE7C1F118
:100E4000200722FA07F88B4005FA01F448EA030369
:100E500020FA07FE4FEA134CFD404EEA040EB5FBA4
:100E6000FCF94FEA1E440CFB19551FFA83F844EABB
:100E7000054509FB08F4AC4202FA01F200FA01FA56
:100E800008D9ED1809F1FF3043D2AC4241D9A9F19C
:100E900002091D442D1B1FFA8EFEB5FBFCF00CFB56
:100EA00010554EEA054400FB08F8A04507D9E418A0
:100EB00000F1FF3529D2A04527D902381C4440EA69
:100EC0000940A4EB0804A0FB02894C45C6464D46E8
:100ED00015D312D056B1BAEB0E0364EB050404FA35
:100EE00007F7CB401F43CC40376074600021BDE85A
:100EF000F0871846F8E69046E0E6C245EAD2B8EB3D
:100F0000020E69EB03050138E4E72846D7E74046BF
:100F100091E78146BEE7014678E702383C4445E761
:100F2000084608E7A8F102083D442BE7704700BFD8
:100F30002DE9F0472DED028B80468A4615461C466A
:100F4000DDF82890431807EE903AF8EEE77AB6EE0F
:100F5000008A67EE887A17EE900AFFF715FB0646BF
:100F60000F46A8EB0A0807EE908AF8EEE77A67EEDC
:100F7000887A17EE900AFFF707FB24A3D3E9002332
:100F8000FFF780FCD9E90023FFF7A0F941EC180B2B
:100F9000C9E9000141EC100B04F036F953EC102BB9
:100FA00030463946FFF744FB80468946B0EE480A92
:100FB000F0EE680A04F088F953EC102B30463946FD
:100FC000FFF736FB06460F4600220F4B40464946C8
:100FD000FFF758FC02460B46D5E90001FFF776F90A
:100FE000C5E900010022084B30463946FFF74AFCAC
:100FF00002460B46D4E90001FFF768F9C4E9000195
:10100000BDEC028BBDE8F08700003440000000001A
:1010100000C8994038B555EC104B0022002310EE63
:10102000100A2946FFF776FD10B945EC104B38BD84
:1010300005F100431D46F8E7F8B506460F4655ECA6
:10104000134B13EE102A2B4651EC120BFFF73CF911
:1010500041EC100BFFF7DEFF13A3D3E9002351ECA3
:10106000100BFFF775FD98B100220023204629469A
:10107000FFF76EFD30B14FF47A733B60A3F5FA636E
:101080003360F8BD064B3B604FF47A733360F8BDB4
:1010900000233B6033600122024B1A60F8BD00BFA1
:1010A00018FCFFFF580200207B14AE47E17A843F12
:1010B0002DE9F84F2DED068B07460E465BEC10AB85
:1010C000B0EE41AAF0EE61AA51EC120BB0EE438AE9
:1010D000F0EE638AB0EE449AF0EE649A14461D4630
:1010E0003C4B1B68012B62D03B4BD3E90023FFF73D
:1010F000EBF88046894653EC182B50465946FFF7CB
:10110000E3F841EC100BFFF785FF0022334B51EC65
:10111000100BFFF7FFFCA0B153EC192B51EC1A0B8D
:10112000FFF7D2F841EC100BFFF774FF00222B4BB6
:1011300051EC100BFFF7EEFC18B1294A136801338C
:101140001360274B1B68052B38DCC5F1AA05254A1F
:1011500013682B44136005EB85054FEA450A00220E
:10116000214B40464946FFF763FA80468946504680
:10117000FFF7F8F942464B46FFF7A8F8FFF708FDDE
:101180003860C4F1AA04194A13682344136004EBBD
:1011900084046000FFF7E6F942464B46FFF794F8F7
:1011A000FFF7F6FC3060BDEC068BBDE8F88F0A4B0C
:1011B00083ED002B0022074B1A6095E70023084AB5
:1011C000136001220A490A603B603360014B1A60D8
:1011D000E9E700BF0800002050020020000049405D
:1011E000640200205C02002000408F40600200206A
:1011F000580200202DE9F0432DED068B91B00646F4
:101200000F46B0EE408AF0EE608AB0EE419AF0EE02
:10121000619AB0EE42AAF0EE62AA90469946474B18
:101220001B68012B12D0464B1B68464AD25C413AE0
:10123000132A41D8DFE802F0454040407940404061
:1012400040404040194040404040406D00223B4BF0
:101250001A603B4A1368013313604FF0FF331122C9
:1012600039491EA800F001FDDDE7DB00374A1A44CA
:1012700092ED004B364A134493ED003B6C461EAD95
:101280000FCD0FC40FCD0FC40FCD0FC495E80F00C5
:1012900084E80F004B464246B0EE4A2AF0EE6A2A36
:1012A000B0EE491AF0EE691AB0EE480AF0EE680A9C
:1012B00039463046FFF7FCFE11B0BDEC068BBDE8A9
:1012C000F083DB00214A1A4492ED004B204A13447C
:1012D00093ED003B6C461EAD0FCD0FC40FCD0FC478
:1012E0000FCD0FC495E80F0084E80F004B4642462F
:1012F000B0EE4A2AF0EE6A2AB0EE491AF0EE691A08
:10130000B0EE480AF0EE680A39463046FFF794FE20
:10131000D2E70F4A02EBC303D3E90001FFF760FCF9
:1013200001F0AAF90122054B1A604FF0FF330E229B
:1013300008491EA800F099FCFEE700BF58020020F3
:101340006802002000000020F866000870020020FB
:10135000100000200C67000830B4036A23F001037A
:101360000362036A4468826922F073020D682A43AB
:1013700023F002038D682B430B4DA84206D0446036
:1013800082614A684263036230BC704723F00803FD
:10139000CD682B4323F0040324F440744D692C439F
:1013A0008D692C43EBE700BF0000014030B4036AB5
:1013B00023F480730362036A4468C26922F07302F3
:1013C0000D682A4323F400738D6843EA05230D4D0D
:1013D000A84206D04460C2614A68C263036230BC5E
:1013E000704723F40063CD6843EA052323F4806348
:1013F00024F440544D6944EA05148D6944EA051407
:10140000E8E700BF0000014030B4036A23F48053D2
:101410000362036A4468C26922F4E6420D6842EA44
:10142000052223F400538D6843EA0533074DA84293
:1014300006D04460C2614A680264036230BC7047EF
:1014400024F480444D6944EA8514F2E70000014029
:101450000368324A904245D0B0F1804F44D0A2F5A3
:101460007C42904242D002F58062904240D002F528
:101470008062904234D000221AB123F070034A688F
:101480001343264A904237D0B0F1804F36D0A2F5B0
:101490007C42904234D002F58062904232D002F514
:1014A0008062904230D002F59A3290422ED002F5FE
:1014B000806290422CD002F5806290421AD00022C5
:1014C0001AB123F44073CA68134303608B68C36284
:1014D0000B688362114B98421CD001234361704713
:1014E0000122C9E70122C7E70122C5E70122C3E7BC
:1014F0000122C1E70122E3E70122E1E70122DFE760
:101500000122DDE70122DBE70122D9E70122D7E74B
:101510000122D5E70B690363DFE700BF000001404C
:10152000A8B110B5044690F839305BB1022384F8B5
:101530003930211D2068FFF78BFF012384F83930F3
:10154000002010BD80F8383001F072FCEEE7012079
:101550007047002847D0F8B505460C4690F839305A
:10156000002B3BD0022385F83930294651F8042B53
:10157000936823F0070393602868FFF769FF2868E2
:1015800086688369026A21680E4323F4407323F05E
:101590000303A168A76941EA07210B4323F47C43B5
:1015A00023F0FC03E168E76941EA07210B4327695F
:1015B000216A090341EA07110B4322F0AA0261687C
:1015C000646941EA04110A43866029688B612B68CB
:1015D0001A62012385F839300020F8BD80F83830D0
:1015E00001F060FCBEE701207047000030B4036AE0
:1015F00023F010030362036A4468826922F4E6421E
:101600000D6842EA052223F020038D6843EA0513A2
:101610000C4DA84206D0446082614A68826303622E
:1016200030BC704723F08003CD6843EA051323F0F4
:10163000400324F440644D6944EA85048D6944EA1A
:101640008504E8E70000014038B590F83830012BF8
:1016500066D00D460446012380F83830022380F816
:1016600039300C2A1AD8DFE802F0071919192019A5
:1016700019193419191947000068FFF76DFE22681F
:10168000936943F0080393612268936923F004038C
:1016900093612268936929690B439361012384F85C
:1016A0003930002084F8380038BD0068FFF79EFF0D
:1016B0002268936943F4006393612268936923F479
:1016C0008063936122689369296943EA01239361E6
:1016D000E4E70068FFF76AFE2268D36943F0080375
:1016E000D3612268D36923F00403D3612268D369EC
:1016F00029690B43D361D1E70068FFF785FE2268B3
:10170000D36943F40063D3612268D36923F480630F
:10171000D3612268D369296943EA0123D361BDE714
:10172000022038BD10B4012303FA01F4036A23EA4E
:1017300004030362036A8A40134303625DF8044BA7
:101740007047000010B5044601220068FFF7EAFF69
:101750002368074A934206D02268136843F00103C6
:101760001360002010BD5A6C42F400425A64F3E743
:101770000000014010B5044661B1042916D00122D1
:1017800000210068FFF7CEFF012204212068FFF747
:10179000C9FF04E0012200210068FFF7C3FF2268AF
:1017A000136843F001031360002010BD01220421DF
:1017B0000068FFF7B7FFF2E790F83830012B22D02E
:1017C00030B4012280F83820022380F839300468D0
:1017D000636823F070036360046863680D682B43DB
:1017E00063600468A36823F08003A3600468A368AF
:1017F00049680B43A36080F83920002380F8383013
:10180000184630BC70470220704790F83830012BE2
:1018100025D0012380F83830CB6823F440738A68E0
:10182000134323F480634A68134323F400630A6874
:10183000134323F480530A69134323F400534A6982
:10184000134323F480438A69134323F4004313436F
:1018500002685364002380F838301846704702202D
:10186000704700002DE9F04704460268136923F42D
:101870004053C1680B4313610168CB6823F41643DE
:1018800023F00C0382680069024360690243E06947
:1018900002431343CB602268536923F44073A16968
:1018A0000B435361E369B3F5004F62D0D4F8008075
:1018B000BB4B984500F01B8103F58063984500F011
:1018C000168100F02BFD00EB800000EB80006568C6
:1018D000AD00B0FBF5F5B34FA7FB05356D092E0143
:1018E00000F01CFD00EB800000EB80006568AD009F
:1018F000B0FBF5FA00F012FD00EB800000EB800079
:101900006568AD00B0FBF5F5A7FB05356D094FF037
:10191000640909FB15A52D013235A7FB05356D09B5
:1019200005F0F005354400F0F9FC00EB800000EB19
:1019300080006668B600B0FBF6F600F0EFFC00EB46
:10194000800000EB800063689B00B0FBF3F0A7FB16
:101950000030400909FB10694FEA091909F1320901
:10196000A7FB0937C7F343172F44C8F80870BDE831
:10197000F087D4F8008003F1804303F510439845C5
:101980005CD003F58063984558D000F0C7FC00EBAD
:10199000800000EB800065686D00B0FBF5F5814FBD
:1019A000A7FB05356D092E0100F0B8FC00EB8000A7
:1019B00000EB800065686D00B0FBF5FA00F0AEFC4E
:1019C00000EB800000EB800065686D00B0FBF5F572
:1019D000A7FB05356D094FF0640909FB15A5ED005E
:1019E0003235A7FB05356D096D0005F4F8753544F2
:1019F00000F094FC00EB800000EB8000666876004D
:101A0000B0FBF6F600F08AFC00EB800000EB8000F3
:101A100063685B00B0FBF3F3A7FB03235B0909FBDF
:101A200013694FEAC90909F13209A7FB0937C7F35E
:101A300042172F44C8F80870BDE8F08700F07EFC1C
:101A400000EB800000EB800065686D00B0FBF5F5F1
:101A5000544FA7FB05356D092E0100F06FFC00EB1C
:101A6000800000EB800065686D00B0FBF5FA00F0C7
:101A700065FC00EB800000EB800065686D00B0FB4A
:101A8000F5F5A7FB05356D094FF0640909FB15A5B0
:101A9000ED003235A7FB05356D096D0005F4F875CD
:101AA000354400F04BFC00EB800000EB80006668E2
:101AB0007600B0FBF6F600F041FC00EB800000EB96
:101AC000800063685B00B0FBF3F3A7FB03235B09B3
:101AD00009FB13694FEAC90909F13209A7FB093764
:101AE000C7F342172F44C8F80870BDE8F08700F02C
:101AF00025FC00EB800000EB80006568AD00B0FBCA
:101B0000F5F5284FA7FB05356D092E0100F016FCF1
:101B100000EB800000EB80006568AD00B0FBF5FADB
:101B200000F00CFC00EB800000EB80006568AD006D
:101B3000B0FBF5F5A7FB05356D094FF0640909FB0E
:101B400015A52D013235A7FB05356D0905F0F0050A
:101B5000354400F0F3FB00EB800000EB800066688A
:101B6000B600B0FBF6F600F0E9FB00EB800000EBFE
:101B7000800063689B00B0FBF3F3A7FB03235B09C2
:101B800009FB13694FEA091909F13209A7FB093763
:101B9000C7F343172F44C8F80870BDE8F08700BFAB
:101BA000001001401F85EB512DE9F04105460F461D
:101BB00016469846069C2B681B6837EA03030CBF41
:101BC00001230023B3421ED1B4F1FF3FF3D02CB167
:101BD00000F04CFDA0EB08008442ECD22A68D368E8
:101BE00023F4D073D3602A68536923F0010353614F
:101BF000202385F8393085F83A30002385F83830CD
:101C00000320BDE8F0810020BDE8F08158B310B595
:101C1000044690F839300BB3242384F83930226815
:101C2000D36823F40053D3602046FFF71BFE2268DD
:101C3000136923F4904313612268536923F02A0344
:101C400053612268D36843F40053D3600020E063FB
:101C5000202384F8393084F83A3010BD80F83830C9
:101C600001F0E4F9D8E7012070472DE9F04182B096
:101C70001E4690F83930DBB2202B04D002231846E0
:101C800002B0BDE8F08104460D469046002955D0CB
:101C9000002A55D090F83830012B01D10223EEE70D
:101CA000012380F838300023C363212380F83930C2
:101CB00000F0DCFC0746A4F82480A4F8268010E09D
:101CC00000963B46002280212046FFF76DFF00284A
:101CD00038D122682B88C3F3080353602369CBB93A
:101CE0000235E38C9BB2BBB1E38C9BB2013B9BB250
:101CF000E384A368B3F5805FE2D000963B46002200
:101D000080212046FFF750FFF0B923682A785A60F7
:101D10000135E6E70135E4E700963B460022402125
:101D20002046FFF741FF034608B10323A7E720221F
:101D300084F83920002284F83820A0E701239EE7A8
:101D400001239CE703239AE7032398E7002800F088
:101D5000BB8170B582B00446036813F0010F3BD01D
:101D6000A74B9B6803F00C03042B2CD0A44B9B685F
:101D700003F00C03082B21D06368B3F5803F4FD0EC
:101D8000B3F5A02F52D09E4B1A6822F480321A600D
:101D90001A6822F480221A606368002B50D000F089
:101DA00065FC0546964B1B6813F4003F14D100F008
:101DB0005DFC401B6428F5D903208AE1904B5B68E9
:101DC00013F4800FD8D08E4B1B6813F4003F03D060
:101DD0006368002B00F07A81236813F0020F55D05E
:101DE000874B9B6813F00C0F3ED0854B9B6803F02C
:101DF0000C03082B33D0E368002B68D00122814B01
:101E00001A6000F033FC05467D4B1B6813F0020F8F
:101E100054D100F02BFC401B0228F5D9032058E1D7
:101E2000774A136843F480331360B5E7744B1A683C
:101E300042F480221A601A6842F480321A60ABE7DA
:101E400000F014FC05466E4B1B6813F4003FC3D032
:101E500000F00CFC401B6428F5D9032039E1684BE5
:101E60005B6813F4800FC6D1654B1B6813F0020F3B
:101E700004D0E368012B01D001202AE1604A1368F5
:101E800023F0F803216943EAC1031360236813F0C8
:101E9000080F40D0636963B301225B4B1A6000F006
:101EA000E5FB0546564B5B6F13F0020F33D100F094
:101EB000DDFB401B0228F5D903200AE1504A1368D4
:101EC00023F0F803216943EAC1031360DEE700222F
:101ED0004C4B1A6000F0CAFB0546494B1B6813F0D7
:101EE000020FD3D000F0C2FB401B0228F5D903201B
:101EF000EFE00022444B1A6000F0B8FB0546404B6F
:101F00005B6F13F0020F06D000F0B0FB401B0228FD
:101F1000F5D90320DDE0236813F0040F79D0384BA6
:101F20001B6C13F0805F33D100230193344B1A6C88
:101F300042F080521A641B6C03F080530193019BA2
:101F40000125324B1B6813F4807F23D0A368012B3B
:101F500034D0052B38D02A4B1A6F22F001021A67B1
:101F60001A6F22F004021A67A368002B36D000F023
:101F70007DFB0646224B1B6F13F0020F48D100F089
:101F800075FB801B41F288339842F3D90320A0E00F
:101F90000025D6E71D4A136843F48073136000F0F0
:101FA00065FB0646194B1B6813F4807FCED100F009
:101FB0005DFB801B0228F5D903208AE0104A136FCD
:101FC00043F001031367CFE70D4B1A6F42F0040291
:101FD0001A671A6F42F001021A67C5E700F046FB64
:101FE0000646074B1B6F13F0020F11D000F03EFBAB
:101FF000801B41F288339842F3D9032069E000BF87
:102000000038024000004742800E47420070004006
:10201000E5B9A369002B5BD0304A926802F00C024C
:10202000082A58D0022B17D000222D4B1A6000F03E
:102030001DFB0446294B1B6813F0007F42D000F0C3
:1020400015FB001B0228F5D9032042E0234A136C3C
:1020500023F080531364DCE70022214B1A6000F068
:1020600005FB05461D4B1B6813F0007F06D000F0F2
:10207000FDFA401B0228F5D903202AE0E369226A11
:102080001343626A43EA8213A26A5208013A43EA9E
:102090000243E26A43EA0263104A53600122104B92
:1020A0001A6000F0E3FA04460C4B1B6813F0007F43
:1020B00006D100F0DBFA001B0228F5D9032008E066
:1020C000002006E0002004E001207047012000E02D
:1020D000002002B070BD0120FBE700BF00380240C5
:1020E00060004742F8B5314B9B6803F00C03042BAA
:1020F00059D0082B01D02E48F8BD2C4B5A6802F05D
:102100003F025B6813F4800F2AD0284B5B68C3F34F
:1021100088131E4600275C010025E41A65EB0705BD
:10212000A90141EA9461A001001B61EB0501CB000C
:1021300043EA5073C400A01943EB07014B0243EA82
:10214000D0534402204619460023FEF769FD174B81
:102150005B68C3F3014301335B00B0FBF3F0F8BDF0
:10216000124B5B68C3F388131E4600275C010025F1
:10217000E41A65EB0705A90141EA9461A001001B7F
:1021800061EB0501CB0043EA5073C400A01943EB97
:1021900007018B0243EA905384022046194600232C
:1021A000FEF73EFDD3E70348F8BD00BF003802400C
:1021B0000024F40000127A00002800F09D8070B521
:1021C00004464F4B1B6803F00F038B4209D2CBB27E
:1021D0004B4A1370136803F00F03994201D001209A
:1021E00070BD236813F0020F17D013F0040F04D052
:1021F000444A936843F4E0539360236813F0080F54
:1022000004D0404A936843F4604393603D4A936826
:1022100023F0F003A068034393600D46236813F096
:10222000010F32D06368012B21D09A1E012A25D9D3
:10223000344A126812F0020F60D032498A6822F0E4
:10224000030213438B6000F011FA06462D4B9B6886
:1022500003F00C036268B3EB820F16D000F006FAAD
:10226000801B41F288339842F0D9032070BD254A83
:10227000126812F4003FE0D1012070BD214A1268BB
:1022800012F0007FD9D1012070BD1D4B1B6803F0F7
:102290000F039D4209D2EAB2194B1A701B6803F072
:1022A0000F039D4201D0012070BD236813F0040F7D
:1022B00006D0144A936823F4E053E1680B4393601B
:1022C000236813F0080F07D00E4A936823F4604385
:1022D000216943EAC1039360FFF704FF094B9B6840
:1022E000C3F30313084AD35CD840084B186000209E
:1022F00000F070F9002070BD01207047012070BD12
:10230000003C0240003802401C67000850000020DA
:10231000014B1868704700BF5000002008B5FFF758
:10232000F7FF044B9B68C3F38223034AD35CD84076
:1023300008BD00BF003802402C67000808B5FFF751
:10234000E7FF044B9B68C3F34233034AD35CD84096
:1023500008BD00BF003802402C670008F0B583B00C
:1023600000248FE0E608083650F8262004F0070E17
:102370004FEA8E0E0F2707FA0EF722EA07020F69BF
:1023800007FA0EF73A4340F826208BE0866816409D
:10239000CF6807FA0EF73E438660466826EA0303D5
:1023A0004E68C6F30016A64033434360C3681A4024
:1023B0008B6803FA0EF31A43C2604B6813F0805F18
:1023C0005FD0002301934B4B5A6C42F480425A6415
:1023D0005B6C03F480430193019BA208961C464B5F
:1023E00053F8263004F00306B6000F27B74023EA5F
:1023F0000703424FB84272D007F58067B84270D0E9
:1024000007F58067B8426ED007F58067B8426CD098
:1024100007F58067B84260D0072707FA06F633430E
:102420000232354E46F82230354B1A68EB4302EA49
:1024300003064F6817F4803F01D045EA0206304A90
:102440001660526803EA02064F6817F4003F01D095
:1024500045EA02062A4A5660926803EA02064F6875
:1024600017F4801F01D045EA0206254A9660D2681B
:1024700013404E6816F4001F01D045EA0203204ABB
:10248000D36001340F2C32D80123A3400A6803EA39
:102490000205AB42F5D14A68022A3FF463AF122A23
:1024A0003FF460AF06684FEA440E032202FA0EF2D0
:1024B000D24316404F6807F0030707FA0EF73E4372
:1024C00006604E68771E012F7FF660AF112E3FF435
:1024D0005DAF122E7FF46AAF58E704279DE700270F
:1024E0009BE7012799E7022797E7032795E703B0C2
:1024F000F0BD00BF0038024000380140000002403B
:10250000003C01400369194201D1002070470120BD
:10251000704712B9090481617047816170470000FA
:10252000074AD36823F4E0631B041B0C000200F489
:10253000E060184340F0BF6040F40030D060704766
:1025400000ED00E030B4164BDB68C3F30223C3F1A7
:102550000704042C28BF04241D1D062D17D9033B96
:10256000012505FA04F4013C2140994005FA03F3E2
:10257000013B1340194300280BDB0901C9B200F1EC
:10258000604000F5614080F8001330BC70470023C4
:10259000E6E700F00F000901C9B2024B1954F4E755
:1025A00000ED00E014ED00E00138B0F1807F0AD2C8
:1025B000064B5860F021064A82F8231000209860EC
:1025C00007221A6070470120704700BF10E000E04A
:1025D00000ED00E010B504460E4B18784FF47A7306
:1025E000B3FBF0F30C4A1068B0FBF3F0FFF7DCFF2D
:1025F00068B90F2C01D9012010BD002221464FF0EF
:10260000FF30FFF79FFF054B1C60002010BD01202D
:1026100010BD00BF48000020500000204C000020EA
:1026200008B50B4B1A6842F400721A601A6842F43B
:1026300080621A601A6842F480721A600320FFF701
:102640006FFF0020FFF7C6FF00F0D2FB002008BD9F
:10265000003C0240034A1168034B1B780B44136093
:10266000704700BF4C03002048000020014B186851
:10267000704700BF4C03002038B50446FFF7F6FF53
:102680000546B4F1FF3F02D0044B1B781C44FFF712
:10269000EDFF401B8442FAD838BD00BF480000203F
:1026A0000F49D1F8883043F47003C1F888300D4BDE
:1026B0001A6842F001021A60002098601A6822F03D
:1026C000847222F480321A60074A5A601A6822F42F
:1026D00080221A60D8604FF000638B60704700BFA3
:1026E00000ED00E000380240103000242DE9F041F8
:1026F0008AB00024059406940794089409940194E0
:10270000374B1A6B42F004021A631A6B02F0040290
:102710000192019A02941A6B42F080021A631A6BBA
:1027200002F080020292029A03941A6B42F00102B4
:102730001A631A6B02F001020392039A04941A6B53
:1027400042F002021A631B6B03F002030493049B22
:10275000DFF89C8022464FF484614046FFF7D9FEA3
:10276000204D224610212846FFF7D3FE1E4F224659
:1027700020213846FFF7CDFE4FF4005305931B4B45
:102780000693079405A92846FFF7E8FD4FF48463F4
:102790000593012606960794089405A94046FFF77D
:1027A000DDFD1023059306960794089405A9284695
:1027B000FFF7D4FD4FF4805305930694079405A9C1
:1027C0002846FFF7CBFD202305930696079408942F
:1027D00005A93846FFF7C2FD0AB0BDE8F08100BF89
:1027E00000380240000802400004024000002110AE
:1027F0000000024008B50848084B03604FF4E1337D
:10280000436000238360C36003610C2242618361E3
:10281000C361FFF7FBF908BD7C04002000440040C1
:1028200030B58BB000240894099401940294039469
:102830000494059406940794114D4FF080432B6047
:102840006C60AC6042F21073EB602C612846FEF7BE
:1028500067FE0894099408A92846FEF7ADFF602397
:10286000019302940394059404220DEB020128467F
:10287000FEF7EAFE284600F075FB0BB030BD00BF46
:102880004004002030B58BB00024089409940194D2
:10289000029403940494059406940794104D114BEC
:1028A0002B606C60AC6042F21073EB602C612846C8
:1028B000FEF736FE0894099408A92846FEF77CFF27
:1028C00060230193029403940594224601A92846AB
:1028D000FEF7BAFE284600F045FB0BB030BD00BF46
:1028E000C80300200004004030B58DB02422002130
:1028F00003A800F01FFC0025019502950D4C0E4B1E
:1029000023606560A5604FF6FF73E36025610123D6
:10291000039305930522079209930B9203A920467E
:10292000FEF717FE0195029501A92046FEF744FF28
:102930000DB030BD500300200008004030B58DB010
:102940002422002103A800F0F5FB00250195029543
:102950000D4C0E4B23606560A5604FF6FF73E3607E
:1029600025610123039305930522079209930B9296
:1029700003A92046FEF7EDFD0195029501A9204629
:10298000FEF71AFF0DB030BD8C030020000C004094
:1029900030B591B000240E940F94079408940994D4
:1029A0000A940B940C940D94009401940294039453
:1029B0000494059406941A4D1A4B2B6048236B60BF
:1029C000AC6044F62063EB602C616C612846FEF736
:1029D000A7FD0E940F940EA92846FEF7EDFE602386
:1029E000079340F2DC53089309940B940C940D94D4
:1029F0000C2207A92846FEF727FE009401940294B2
:102A0000039404944FF400530593069469462846B2
:102A1000FEF7FBFE284600F0A5FA11B030BD00BF5E
:102A2000040400200000014030B595B030220021A0
:102A300008A800F07FFB00240394049405940694F6
:102A4000079401941B4B1A6C42F080521A641B6C61
:102A500003F080530193019B0294174A136823F4F7
:102A6000404343F400431360136803F4404302936C
:102A7000029B0225089501230B9310230C930E95BE
:102A80000F9410934FF4A873119304231293072308
:102A9000139308A8FFF75AF90F230393049505949D
:102AA0004FF4805306930794294603A8FFF784FB4D
:102AB00015B030BD003802400070004010B580EA0B
:102AC000E074A4EBE074A0420DD001224FF48061C9
:102AD0000B48FFF71EFD42F210739C420ADC094BC3
:102AE0001B689C6310BD00224FF480610448FFF70F
:102AF00010FDF0E7034B1B6842F210729A6310BDA1
:102B0000000002404004002010B580EAE074A4EB0D
:102B1000E074A0420CD0002220210B48FFF7F9FC02
:102B200042F210739C4209DC084B1B685C6310BDC9
:102B3000012220210448FFF7ECFCF1E7034B1B685E
:102B400042F210725A6310BD00040240C803002014
:102B50002DE9F04F91B0FFF763FDFFF765FFFFF739
:102B6000C5FDFFF747FEFFF75BFEFFF78BFEFFF7A4
:102B7000BBFEFFF7E3FEFFF70BFF04217A48FEF7E9
:102B8000E1FD00217948FEF7DDFD18217848FEF7C8
:102B9000F1FD18217748FEF7EDFD0C217648FEF790
:102BA000D1FD4FF0FF332F2274497548FFF75DF8D0
:102BB0004FF480517348FFF7A5FC0028F8D1FFF7C8
:102BC00055FD81464FF0FF331A226F496C48FFF7DD
:102BD0004CF8FFF74BFD804647F230536B4A536287
:102BE00002F580625362644B1B6840F2DC521A6447
:102BF00004E0012210216348FFF78BFCFFF736FD4C
:102C0000A0EB0800624B1B689842F2D3002210210F
:102C10005C48FFF77EFCFFF729FDA0EB09005D4B48
:102C2000984200F29380FFF721FD804657494E6A93
:102C3000A6F5EA46303E584A506A47F230534B6296
:102C40005362181AFDF78EFC45A3D3E90023FDF764
:102C5000EFFCFDF79DFF0746504D514CDFF85CA19E
:102C6000CDF800A02B46224601463046FEF760F91B
:102C70004C4A1368334413604B4A13683B44136057
:102C80009AED002B95ED001B94ED000BDFF840B1A1
:102C9000DFF840A16C463A4D0FCD0FC40FCD0FC4E5
:102CA0000FCD0FC495E80F0084E80F003B46324675
:102CB00059465046FEF79EFADBF80000FFF724FF66
:102CC000DAF80000FFF7FAFE384A136801331360A0
:102CD000374A1268934291D1314BD3E90067354DA1
:102CE0000022354B3549D1E90001FDF7A1FCCDE9C2
:102CF00002012A4BD3E90023CDE9002332463B46AB
:102D00002F49284600F08AFE1D4C4FF0FF33322237
:102D100029462046FEF7A9FF234B1B68214A12686B
:102D2000284DDBF800100191DAF8001000912649D7
:102D3000284600F073FE4FF0FF333222294620462A
:102D4000FEF793FF0022194B1A6057E74FF0FF334D
:102D50001A221E490A48FEF788FFFEE7AFF30080FB
:102D60005B423EE8D9ACF03F40040020C80300209D
:102D7000500300208C030020040400203467000866
:102D80007C0400200008024064670008000800403E
:102D900058000020905F0100000C0040300300202C
:102DA00028030020380300203C03002020030020DB
:102DB00054000020B002002000408F40A8020020F4
:102DC0009C670008E4020020B067000880670008E4
:102DD0001C030020180300207047FEE7FEE7FEE713
:102DE000FEE770477047704708B5FFF733FC08BD32
:102DF00000B583B0002100910C4B5A6C42F4804224
:102E00005A645A6C02F480420092009A01911A6C42
:102E100042F080521A641B6C03F080530193019BB3
:102E20000720FFF77DFB03B05DF804FB003802408C
:102E300084B00368184A934207D0B3F1804F11D091
:102E4000164A93421BD004B0704700230193144BE1
:102E50005A6C42F001025A645B6C03F00103019367
:102E6000019BF0E7002302930D4B1A6C42F0010224
:102E70001A641B6C03F001030293029BE3E7002337
:102E80000393074B1A6C42F002021A641B6C03F0A6
:102E900002030393039BD6E70000014000040040B7
:102EA0000038024000B58BB00023059306930793CA
:102EB000089309930368264A934205D0254A934212
:102EC00024D00BB05DF804FB00210191224B1A6C59
:102ED00042F004021A641A6C02F004020192019A90
:102EE00002911A6B42F002021A631B6B03F0020399
:102EF0000293029BC02305930223069301220792AB
:102F0000099305A91548FFF729FADAE7002103918B
:102F1000114B1A6C42F008021A641A6C02F0080293
:102F20000392039A04911A6B42F001021A631B6B1D
:102F300003F001030493049B0323059302230693E8
:102F400001220792099305A90548FFF707FAB8E798
:102F500000080040000C004000380240000402401D
:102F60000000024000B589B0002303930493059349
:102F7000069307930368284A934208D0B3F1804F21
:102F80001DD0264A934231D009B05DF804FB0023DE
:102F90000093234B1A6B42F001021A631B6B03F080
:102FA00001030093009B4FF40063039302230493F7
:102FB0000123079303A91B48FFF7D0F9E4E7002397
:102FC0000193174B1A6B42F002021A631B6B03F05A
:102FD00002030193019B082303930223049301231B
:102FE000079303A91048FFF7B9F9CDE7002302932F
:102FF0000B4B1A6B42F002021A631B6B03F00203C5
:103000000293029B1023039302230493079303A9C3
:103010000548FFF7A3F9B7E70000014000040040AE
:1030200000380240000002400004024000B589B0B0
:103030000023039304930593069307930268144BAC
:103040009A4202D009B05DF804FB0021019103F51A
:10305000FA331A6C42F400321A641A6C02F4003229
:103060000192019A02911A6B42F001021A631B6BE2
:1030700003F001030293029B0C23039302230493A6
:103080000723079303A90348FFF768F9DAE700BFAE
:103090000044004000000240DFF834D0002103E08B
:1030A0000C4B5B58435004310B480C4B42189A426E
:1030B000F6D30B4A02E0002342F8043B094B9A4244
:1030C000F9D3FFF7EDFA00F011F8FFF741FD704773
:1030D00000800120106C0008000000202C0200205D
:1030E00030020020C0040020FEE7000070B50D4E45
:1030F0000D4CA41BA4100025A54209D10B4E0C4C6D
:1031000003F0ECFAA41BA4100025A54205D170BD64
:1031100056F8253098470135EEE756F825309847A0
:103120000135F2E7086C0008086C0008086C00081C
:103130000C6C000802440346934200D1704703F828
:10314000011BF9E72DE9FF4755EC104B0D9FDDF80A
:1031500030A0002D0E4691461946B8BF22462B4698
:1031600027F02007BBBF05F100431D4600232D2398
:10317000B8BF1446462F0B7004D0452F00D101363E
:10318000022100E0032103AB019302AB009332461E
:10319000534645EC104B00F0F3FC472F804602D11C
:1031A00019F0010F26D0462F08EB060911D198F827
:1031B0000030302B0AD10022002320462946FDF79B
:1031C0009FFC18B9C6F10106CAF80060DAF80030B1
:1031D00099440022002320462946FDF791FC38B986
:1031E0003022039B994505D9591C03911A70F8E7C1
:1031F000CDF80C90039B0E9AA3EB08034046136096
:1032000004B0BDE8F087F7B503460029B8BF4942CE
:1032100003F8022BB4BF2D222B220929427020DD96
:103220000DF1070217460A2691FBF6F506FB15116C
:103230003031092D02F8011C02F1FF34294609DC66
:103240003031023A04F8011CBA421C4604D3201A59
:1032500003B0F0BD2246E7E712F8011B03F8011B9B
:10326000F2E730221C46114404F8022B5970EEE7B5
:103270002DE9F04F8DB00C46DDF8588016461F46FC
:10328000054601F04BFA036804931846FCF7BEFFAD
:1032900000230A93D8F800300590073323F0070382
:1032A00003F1080294F818A0D4F800B0C8F8002080
:1032B000D3E90023C4E91223D4E9128929F0004399
:1032C0000793CDF818804FF0FF32A54BDDE90601DA
:1032D000FDF748FC002840F0FB814FF0FF32A04B87
:1032E000DDE90601FDF720FC002840F0F181002215
:1032F000002340464946FDF70DFC10B12D2384F80C
:103300004330984B984ABAF1470F8CBF9046984685
:1033100003232BF00402236122604FF00009009781
:1033200033460BAA2146284600F0E2F9013040F06E
:1033300093804FF0FF300DB0BDE8F08F61684B1CFB
:103340004BF480623FD106236360002303930AABF2
:10335000029309AB009349EC108B0DF1230322601B
:10336000CDF804A061682846FFF7ECFE0AF0DF0301
:10337000472B804609D1099BD81C02DB6268934227
:1033800057DDAAF1020A5FFA8AFABAF1650F0999C4
:1033900034D80139524604F150000991FFF733FF48
:1033A0000A9A8318012A8146236102DC2268D10728
:1033B00001D5013323619DF82330002BAFD02D239D
:1033C00084F84330ABE7BAF1670F02D0BAF1470F88
:1033D000BBD189B1002303930AAB029309AB0093DD
:1033E00049EC108B2260CDF804A00DF12303284690
:1033F000FFF7A8FE8046BEE70123A5E7BAF1660FF6
:1034000019D1002963680CDD216113B92268D20744
:1034100002D501330B442361099BA3654FF00009DA
:10342000C9E713B92268D00701D50233F3E70123B6
:10343000F1E74FF0670A099B0A9A934205DB22687D
:103440002361D107E8D50133E5E7002BD4BFC3F1F1
:10345000020301231344DEE723685A0507D42369D6
:10346000424631462846B84701302BD161E7BAF1D0
:10347000650F40F2E28000220023D4E91201FDF73B
:103480003FFB00283CD00123384A31462846B84744
:1034900001303FF44EAF0A9B099A9A4202DB23683F
:1034A000D8070FD5059B049A31462846B847013006
:1034B0003FF43FAF4FF0000804F11A090A9B013BAB
:1034C000984512DB23689B0709D54FF0000804F1EB
:1034D0001909E3680B9A9B1A9845C0F2EE80E068E0
:1034E0000B9B9842B8BF184625E701234A46314650
:1034F0002846B84701303FF41CAF08F10108DDE76A
:10350000099B002B34DC0123184A31462846B84772
:1035100001303FF40EAF099B23B90A9B13B923680E
:10352000D907CFD5059B049A31462846B8470130C4
:103530003FF4FFAE4FF0000904F11A0A099B5B4209
:10354000994501DB0A9B8BE7012352463146284609
:10355000B84701303FF4EDAE09F10109EEE700BFD5
:10356000FFFFEF7FCC670008D0670008DC6700082A
:103570000A9AA36D9A42A8BF1A46002A914638DCDF
:1035800004F11A034FF0000B29EAE9790693D4F805
:1035900058A0AAEB09039B4533DB0A9B099A9A4280
:1035A0003ADB2368DA0737D40A9B0999A3EB0A02AE
:1035B000A3EB01099145A8BF9146B9F1000F33DC97
:1035C0004FF0000829EAE97904F11A0A099A0A9BDE
:1035D0009B1AA3EB09039845BFF674AF012352462B
:1035E00031462846B84701303FF4A3AE08F1010840
:1035F000ECE71346314642462846B8470130BFD172
:1036000097E60123069A31462846B84701303FF431
:1036100090AE0BF1010BBAE7059B049A31462846A0
:10362000B8470130C0D184E64B4608EB0A02314668
:103630002846B8470130C3D17BE60A9A012A01DC4B
:10364000DB0737D50123424631462846B8470130CB
:103650003FF46FAE059B049A31462846B8470130C7
:103660003FF467AE00220023D4E91201FDF748FAC7
:1036700058B14FF0000804F11A0A0A9B013B984523
:103680000DDB4B4604F15002EBE60A9B08F1010208
:10369000013B31462846B8470130F2D149E60123C3
:1036A000524631462846B84701303FF442AE08F151
:1036B0000108E2E701234246EBE701234A4631468F
:1036C0002846B84701303FF434AE08F1010800E75E
:1036D00042464B4640464946FDF744FA00283FF42F
:1036E0002DAE014B014A0EE6D4670008D8670008EA
:1036F0002DE9F04791461F468A680B69DDF8208066
:103700009342B8BF1346C9F8003091F843200646EB
:103710000C4612B10133C9F800302368990642BF44
:10372000D9F800300233C9F80030256815F00605D5
:1037300007D104F1190AE368D9F800209B1A9D42C9
:1037400029DB94F843302268003318BF0123920626
:103750002ED404F1430239463046C047013021D00F
:103760002368E568D9F8002003F00603042B08BF9E
:10377000AD1AA36822690CBF25EAE57500259342BE
:10378000C4BF9B1AED184FF000091A344D451BD1E8
:103790000020BDE8F0870123524639463046C04735
:1037A000013003D14FF0FF30BDE8F0870135C2E7AB
:1037B000E1185A1C302081F84300224494F8451047
:1037C00082F843100233C4E70123224639463046CB
:1037D000C0470130E6D009F10109D7E72DE9F043F0
:1037E00017460A7E85B06E2A984606460C460C9B04
:1037F00001F1430E00F0BC801AD8632A2ED00AD8FB
:10380000002A00F0C880582A00F08A8004F142059E
:1038100084F842202AE0642A01D0692AF6D121687E
:103820001A6811F0800F23D0111D1960136827E06A
:10383000732A00F0B48008D86F2A2AD0702AE5D104
:103840000A6842F020020A6003E0752A21D0782A33
:10385000DCD1782284F845206E4964E01A6801F1D1
:103860004205111D1960136884F842300123A3E05A
:1038700011F0400F02F104011960D7D0B2F9003005
:10388000002B03DA2D225B4284F8432062490A228E
:1038900017E02068196810F0800F03D0081D186029
:1038A0000B6806E010F0400F01F104001860F7D03B
:1038B0000B8859496F2A14BF0A220822002084F875
:1038C00043006568A560002DC0F29C80206820F050
:1038D00004002060002B3FD1002D40F095807546FC
:1038E000082A0BD12368DA0708D5236962689A424F
:1038F000DEBF302305F8013C05F1FF35AEEB0503D3
:103900002361CDF800803B4603AA21463046FFF7ED
:10391000EFFE013055D14FF0FF3005B0BDE8F08328
:1039200081F845203C492268186812F0800F00F1A8
:1039300004051D6001D0036802E05506FBD503882D
:10394000D00744BF42F0200222601BB9226822F057
:10395000200222601022B1E77546B3FBF2F002FBB1
:103960001033CB5C05F8013D03460028F5D1B7E7DD
:1039700008681A68496910F0800F04D0101D18609B
:103980001368196007E010F0400F02F1040018609E
:103990001368F6D01980002323617546B1E71A68D1
:1039A000111D19601568626800212846FCF738FC73
:1039B00008B1401B606063682361002384F84330D2
:1039C0009FE723692A4639463046C0470130A2D0D6
:1039D00023689B0707D5002504F11909E368039ABA
:1039E0009B1A9D4205DBE068039B9842B8BF1846CE
:1039F00093E701234A4639463046C04701308AD012
:103A00000135EBE7002BA7D10B7884F8423004F1A5
:103A1000420565E7EF670008DE6700080EB400B5F1
:103A20009CB04FF402711DABADF8141002900690DB
:103A30006FF000410A48049107914FF6FF7153F867
:103A4000042BADF816100068019302A901F06EFA7C
:103A5000029B00221A701CB05DF804EB03B07047A3
:103A60005C0000202DE9F74F03690C699C428046F9
:103A700000F38280013C01F114074FEA840E00F14B
:103A8000140657F8245056F8240006EB0E030135AF
:103A900007EB0E090193B0FBF5F595B34FF0000A63
:103AA0003846B446D34650F8042B93B205FB03A323
:103AB0004FEA134A9BB2ABEB0303120CBCF800B005
:103AC00005FB02A213FA8BF34FEA124A1FFA82FB9C
:103AD000DCF80020CBEB124202EB23429BB243EA1C
:103AE000024381454FEA224B4CF8043BDBD256F8A7
:103AF0000E3033B9019B043B9E421A4630D3C8F8BE
:103B00001040404601F035F8002825DB01353046ED
:103B10004FF0000E57F8042BD0F800C093B2AEEB74
:103B20000303120C13FA8CF3C2EB1C4202EB234288
:103B30009BB243EA0243B9454FEA224E40F8043BA8
:103B4000E8D256F8242006EB84032AB9043B9E42AF
:103B50001A460BD3C8F81040284603B0BDE8F08FD2
:103B60001268043B002ACAD1013CC5E71268043B35
:103B7000002AEFD1013CEAE70020EEE70000000058
:103B80002DE9F04F57EC106B97B0CDE90067466A0E
:103B9000079104460A920F93209D3EB9102000F031
:103BA000CBFD6062466086600660C660636A196825
:103BB00051B15A684A60012393408B60204600F05F
:103BC00002FE636A00221A60019B002BBFBF012323
:103BD0002B60019B23F00043B2BF019300232B60B5
:103BE000DDF80480A84B33EA08031BD10F9A42F298
:103BF0000F731360009B23B9C8F31300002800F073
:103C00007885219B53B9A14B21E0A14B0293083346
:103C1000219A1360029817B0BDE8F08F9B4B029376
:103C20000333F5E7DDE9006700220023304639461B
:103C3000FCF766FF814660B10F9A01231360219B58
:103C4000002B00F05385934B219A1360013B0293A4
:103C5000E0E714AA15A947EC106B204601F001F823
:103C6000C8F30A558246002D7ED0C7F3130343F0F4
:103C70007F51304641F44011A5F2FF35CDF8489010
:103C80000022854BFCF720FB79A3D3E90023FCF746
:103C9000CFFC79A3D3E90023FCF718FB064628469E
:103CA0000F46FCF75FFC76A3D3E90023FCF7C0FCCA
:103CB00002460B4630463946FCF708FB06460F46DF
:103CC000FCF766FF00228346002330463946FCF7A6
:103CD00021FF58B15846FCF745FC02460B463046DA
:103CE0003946FCF70DFF08B90BF1FF3BBBF1160F8E
:103CF00059D86A4901EBCB01DDE90023D1E9000184
:103D0000FCF726FF002850D00BF1FF3B00230E9359
:103D1000149B5D1B6B1E069345BFC5F10103059304
:103D2000002300234CBF06930593BBF1000F3EDB3D
:103D3000069BCDF82CB05B44069300230893079BA9
:103D4000092B00F2AF80052BC4BF043B0793079BF0
:103D5000A3F10203CCBF00260126032B00F2AE80A4
:103D6000DFE803F082842F77159B149D1D4405F234
:103D70003243202B11DD009A05F21240C3F14003BB
:103D800022FA00F008FA03F31843FCF7DBFB0123E7
:103D9000A1F1F871013D129372E7C3F12000009B7D
:103DA00003FA00F0F1E70123B1E70E90B0E7059BBD
:103DB000A3EB0B030593CBF10003089300230B93B4
:103DC000BDE7012309930A9B002B7ADD049303933B
:103DD000656A00226A60042101F114029A4275D9D1
:103DE0006968204600F0BBFC636A28601B68029388
:103DF000039B0E2B00F2E580002E00F0E2809DED8B
:103E0000007BBBF1000F8DED0C7B74DD234A0BF0C2
:103E10000F034FEA2B1602EBC303F006D3E9008928
:103E200059D51F4B51EC170BD3E90823FCF72AFD9A
:103E3000CDE9000106F00F060325194F002E4CD1E5
:103E400042464B46DDE90001FCF71CFDCDE90001CF
:103E50006AE0012309930A9B5B4404930133012B1D
:103E60000393B8BF0123B3E70023ABE70023F1E7D7
:103E700061436F63A787D23FB3C8608B288AC63F70
:103E8000FB799F501344D33F0000F07F096800087E
:103E900000680008DD6700080000F83F3868000887
:103EA0001068000801260023079309964FF0FF339E
:103EB00004930393002212230A9289E701230993B2
:103EC000F4E70123049303931A46F5E76A68013285
:103ED0006A60490080E70225AFE7F10708D5404650
:103EE0004946D7E90023FCF7A3FB01358046894604
:103EF00076100837A2E700F09D80CBF100069F4BBB
:103F00009F4F06F00F0203EBC203D3E90023DDE964
:103F10000C01FCF78DFBCDE90001361100230225D1
:103F2000002E7CD1002B91D10E9B002B00F08480C1
:103F3000DDE900890022934B40464946FCF7EAFD43
:103F4000002879D0039B002B76D0049B002B34DD16
:103F500000228D4B40464946FCF76AFBCDE9000143
:103F6000049E0BF1FF3701352846FCF7FBFADDE92B
:103F70000023FCF75DFB0022844BFCF7A7F9804689
:103F8000A1F15079002E5AD10022814BDDE90001C8
:103F9000FCF79AF942464B46CDE90001FCF7D8FD03
:103FA000002840F09B82424609F10043DDE9000110
:103FB000FCF7B0FD002840F08F82DDE90C23CDE94D
:103FC0000023159B002BC0F25081BBF10E0F00F3B4
:103FD0004C816A4B03EBCB03D3E900890A9B002B8E
:103FE00080F2DA80039B002B00F3D68040F07382CE
:103FF0000022674B40464946FCF71AFBDDE90023E7
:10400000FCF79CFD039E3746002840F04A82029B45
:10401000029A5D1C312313700BF1010B45E2F2078C
:1040200005D5D7E90023FCF703FB01350123761002
:10403000083775E7022577E75F46039E94E7029A03
:104040004E4B32441392099A711E002A48D003EB5A
:10405000C103D3E9002300204E49FCF713FC42467C
:104060004B46FCF731F9029D80468946DDE90001A7
:10407000FCF78EFD0646FCF775FA02460B46DDE9B5
:104080000001FCF721F9303605F8016B42464B463A
:10409000CDE90001FCF73EFD002865D1DDE90023F4
:1040A00000203849FCF710F942464B46FCF732FD38
:1040B000002840F0BA80139B9D423FF47EAF00225F
:1040C000314B40464946FCF7B3FA00228046894608
:1040D0002D4BDDE90001FCF7ABFACDE90001C5E7A6
:1040E00003EBC10142464B46D1E90001FCF7A0FABF
:1040F000CDE91001029DDDE90001FCF749FD06460E
:10410000FCF730FA303602460B46DDE90001FCF7D9
:10411000DBF805F8016B139BAB42804689464FF0F4
:10412000000225D11B4BDDE91001FCF7CFF8024658
:104130000B4640464946FCF70BFD002875D1DDE9EA
:10414000102300201349FCF7BFF802460B464046F7
:104150004946FCF7DFFC00283FF42FAF15F8013C7F
:10416000302B05F1FF3201D0BB464DE01546F5E797
:10417000054BFCF75DFACDE90001BCE738680008A3
:10418000106800080000F03F0000244000001C40C0
:10419000000014400000E03FDDE90067029D424658
:1041A0004B4630463946FCF76DFBFCF7F1FC0090BE
:1041B000FCF7D8F942464B46FCF73AFA02460B4662
:1041C00030463946FCF780F8009E039F303605F8EC
:1041D000016B029EAE1BB74202460B4638D1FCF77C
:1041E00075F806460F4602460B4640464946FCF720
:1041F00091FCC8B932463B4640464946FCF780FC34
:1042000010B1009BDB070FD45146204600F0DBFACB
:1042100000230F9A2B700BF101031360219B002BDD
:104220003FF4F8AC1D60F5E45F4615F8012C392A1F
:1042300005F1FF3306D1029A9A4207D13023137059
:10424000013713461A7801321A708DE71D46ECE7E4
:104250000022A44BFCF7ECF90022002306460F468F
:10426000FCF74EFC00289AD0CEE7099A002A00F00D
:10427000CD80079A012A00F3AF80129A002A00F03D
:10428000A78003F23343089E059D059A1A440592C0
:10429000069A01211A442046069200F034FB074694
:1042A000002D0CDD069B002B09DDAB42059AA8BF53
:1042B0002B46D21A0592069AED1AD31A0693089B3A
:1042C000F3B1099B002B00F0A580002E10DD3946CC
:1042D0003246204600F0AEFB5246014607462046D5
:1042E00000F01AFB51468046204600F06CFAC246A8
:1042F000089B9A1B04D05146204600F09BFB824647
:104300000121204600F0FFFA0B9B002B064640F3EC
:1043100083801A460146204600F08CFB079B012B48
:1043200006467CDD4FF00008336906EB830318690D
:1043300000F09BFAC0F12000069B184410F01F000B
:1043400000F09680C0F12003042B40F38780059B8A
:10435000C0F11C0003440593069B054403440693E7
:10436000059B002B05DD51461A46204600F0B0FBA8
:104370008246069B002B05DD31461A46204600F09A
:10438000A7FB06460E9B002B74D03146504600F02A
:10439000F0FB00286EDA002351460A22204600F086
:1043A00029FA099B0BF1FF3B8246002B00F0A88104
:1043B000002339460A22204600F01CFA049B002BF9
:1043C000074600F3C880079B022B40F3C48059E0E6
:1043D000149BC3F1360356E7039B5E1E089BB34252
:1043E000BFBF089B0896F21A0B9BB6BF9B189E1B7B
:1043F0000B93039BB8BF0026002BB9BF059B039A04
:10440000059D039BBCBF9D1A00233EE7089E059DAA
:10441000099F45E7089A6EE7079B012B19DC009B73
:10442000BBB9019BC3F313039BB9019B23F000436A
:104430001B0D1B0583B1059B01330593069B0133BF
:1044400006934FF001080B9B002B7FF46DAF01200A
:1044500072E74FF00008F6E79846F4E780D0059A37
:104460001C331A440592069A1A441D44134676E7F3
:104470000346F4E7039B002B36DC079B022B33DD5E
:10448000039B0493049B63B931460522204600F048
:10449000B1F901460646504600F06BFB00283FF795
:1044A000B6AD0A9B029D6FEA030B002303933146CE
:1044B000204600F088F9002F3FF4A6AE039B2BB1F5
:1044C000BB4203D01946204600F07DF9394620460C
:1044D00000F079F998E600263746E2E7BB46374612
:1044E00095E500BF00002440099B93BB039B049308
:1044F000029D31465046FFF7B5FA00F1300905F844
:10450000019B029B049AEB1A9A4200F3DC80029B07
:10451000012AACBF9B1801339846002303935146F0
:104520000122204600F0D4FA3146824600F021FBF9
:10453000002800F38D8003D119F0010F40F088802E
:10454000454615F8013C302B05F1FF32AFD1154639
:10455000F7E7039B0493002D05DD39462A462046E4
:1045600000F0B6FA0746B8F1000F4CD07968204643
:1045700000F0F5F83A6902320546920007F10C01A5
:104580000C3000F0E1F801222946204600F0A0FAA4
:10459000009BDDF80880039703F0010307460593AD
:1045A00031465046FFF75EFA0399054600F130099F
:1045B000504600F0DEFA3A4600903146204600F0C0
:1045C000F2FAC368024603BB01460690504600F06B
:1045D000D0FA069A034611462046069300F0F3F8F7
:1045E000069BA3B9079A92B9059A82B9B9F1390F16
:1045F00029D0009B002B01DD05F1310908F10105EF
:1046000088F8009053E73846C2E70123E3E7009AB1
:10461000002A04DB25D1079A1ABB059A0ABB002B96
:10462000ECDD51460122204600F052FA3146824626
:1046300000F09FFA002803DCE0D119F0010FDDD073
:10464000B9F1390FD8D1392388F8003008F10108C1
:10465000454615F8013C392B05F1FF323BD00133BB
:1046600040E0002B08F1010505DDB9F1390FEAD072
:1046700009F10109C4E7029B049A05F8019CEB1AB1
:104680009342A8463FF44BAF514600230A222046EE
:1046900000F0B0F8039B0399BB4282464FF0000341
:1046A0004FF00A02204604D100F0A4F80390074618
:1046B00076E700F09FF8002303900A22394620464F
:1046C00000F098F8F3E7514600230A22204600F054
:1046D00091F882460DE7029B934205D1029A0BF1B5
:1046E000010B31231370E2E61546B2E7094BFFF7E1
:1046F000AEBA219B002B7FF488AA074BFFF7A7BA1D
:10470000049B002B3FF7F4AE079B022B7FF7F0AE24
:10471000B8E600BFDC67000800680008044B1B68AF
:10472000186A044B002808BF1846F030704700BFD5
:104730005C000020C0000020024B0146186800F019
:104740003BBB00BF5C00002010B5431E0A449142F1
:1047500000D110BD11F8014B03F8014FF7E770B518
:10476000456A04460E463DB91020FFF7E5FF60623A
:10477000456085600560C560656AEB6883B1636A02
:10478000DB6853F82600B8B9012101FA06F56A1D65
:104790009200204600F0B4FA60B1466085600EE0F9
:1047A00021220421204600F0ABFA636AE860DB684E
:1047B000002BE4D1002070BD026843F826200023BE
:1047C0000361C36070BD70B5446A06460D463CB9CE
:1047D0001020FFF7B1FF7062446084600460C46021
:1047E0003DB1736A6A68DB6853F82210296043F8A8
:1047F000225070BD2DE9F0410D691F4606460C465A
:1048000001F1140E0023DEF8000081B202FB0171F9
:104810000F0C000C02FB007089B2013301EB004168
:104820009D424FEA10474EF8041BECDCD7B1A36859
:104830009D4212DB616830460131FFF790FF22692B
:10484000023204F10C01804692000C30FFF77CFF2D
:1048500021463046FFF7B7FF444604EB8503013598
:104860005F6125612046BDE8F081020C1204034619
:10487000B2B90304102013F07F4F04BF1B020830AD
:1048800013F0704F04BF1B01043013F0404F04BFFE
:104890009B000230002B06DB5B0003D50130704724
:1048A0000020E8E720207047036813F00702014664
:1048B0000BD0DA0723D4980749BF5B089B08012077
:1048C0000B605CBF0B600220704798B2A8B91B0C4C
:1048D000102013F0FF0F04BF1B0A08301A0704BF93
:1048E0001B0904309A0704BF9B080230DA0702D480
:1048F0005B0806D001300B6070471046E9E70020E6
:1049000070472020704710B50C460121FFF727FFA4
:1049100001224461026110BD2DE9F74F14460A6976
:1049200023699A42B8BF0B468946BCBFA1461C46C4
:10493000D9F81070D4F810A0D9F80830D9F80410BC
:1049400007EB0A069E42C8BF0131FFF708FF00F1DE
:10495000140505EB86082B460022434516D304F1C7
:10496000140209F1140102EB8A0301EB870701939A
:10497000019C944213460CD8002E03DD58F8043DE8
:10498000002B54D0066103B0BDE8F08F43F8042B30
:10499000E3E7B3F800A00432BAF1000F20D0AE462E
:1049A00089464FF0000C59F8044BBEF800B0A3B292
:1049B0000AFB03B34FEA144BDEF8004063444FEAAE
:1049C000144C0AFB0BC404EB13449BB243EA0443AC
:1049D0004F454FEA144C4EF8043BE4D8CEF800C0E3
:1049E00032F8029CB9F1000F1FD02B68AE468C46FE
:1049F0004FF0000ABCF80040BEF802B009FB04B456
:104A0000A2449BB243EA0A434EF8043B5CF8043BE1
:104A1000BEF800401B0C09FB034303EB1A43674538
:104A20004FEA134AE6D8CEF800300435A0E7013E3D
:104A3000A2E700002DE9F843154612F003020646EE
:104A40000F4607D0013A214C002354F82220FFF7EB
:104A5000D1FE0746AD1035D0746A3CB91020FFF77F
:104A60006BFE7062446084600460C460D6F8248089
:104A7000D8F808404CB940F271213046FFF743FFA7
:104A80000023C8F80800044603604FF00008EB0755
:104A90000AD5394622463046FFF73EFF3946814661
:104AA0003046FFF790FE4F466D100BD0206838B9A6
:104AB000224621463046FFF72FFF2060C0F80080D5
:104AC0000446E4E73846BDE8F88300BF0069000803
:104AD0002DE9F0470C464FEA621A236949680AEB50
:104AE0000309A3680746164609F10105AB4231DB0D
:104AF0003846FFF734FE0022804600F114031146C9
:104B000052452ADB20692AEAEA7A04F1140116F0F8
:104B10001F0203EB8A0301EB800E22D0C2F1200CAE
:104B200000200E689640304343F8040B51F8040B04
:104B30008E4520FA0CF0F4D8186008B109F102058E
:104B4000013D3846C8F810502146FFF73CFE40466C
:104B5000BDE8F08701315B00C8E743F8221001325D
:104B6000CEE7043B51F8042B43F8042F8E45F9D8C7
:104B7000E6E703690A699B1A30B50CD1920014303C
:104B800014318418114454F8045D51F8042D9542F1
:104B900003D005D30123184630BDA042F3D3FAE772
:104BA0004FF0FF33F7E72DE9F0470D460746114672
:104BB00028461446FFF7DDFF061E08D13146384669
:104BC000FFF7CDFD012303614661BDE8F087A4BF77
:104BD00023462C4638466168A6BF1D46002601269E
:104BE000FFF7BDFD2B69C660266905F1140904F1C4
:104BF000140202EB860709EB830800F114054FF05D
:104C0000000C52F804AB59F8044B1CFA8AF1A3B219
:104C1000C91A230CC3EB1A4303EB214389B24FEAB1
:104C2000234CC84541EA0343964645F8043BE8D87F
:104C3000BE4505D355F8043D8BB10661BDE8F0874C
:104C40005EF8041B1CFA81F31A1402EB11429BB2AA
:104C500043EA02434FEA224C45F8043BE8E7013EB1
:104C6000E8E72DE9F7430E46012159EC108B154674
:104C7000FFF775FDC9F30A540746C9F3130334BBA4
:104C80000193B8F1000F27D002A840F8088DFFF774
:104C90000BFE0099F0B1019AC0F1200302FA03F370
:104CA0000B43C2407B610192019BBB61002B14BF8F
:104CB000022101213961C4B1A4F2334404443460B7
:104CC000C0F135002860384603B0BDE8F08343F4F6
:104CD0008013D5E77961E7E701A8FFF7E5FD019BC0
:104CE0007B61012139612030E5E707EB8103A0F208
:104CF000324030601869FFF7B8FDC0EB4110E1E7C2
:104D000038B502FB01F4214600F056F8054618B10B
:104D100022460021FEF70EFA284638BD38B5054672
:104D2000002945D051F8043C0C1F002BB8BFE418F3
:104D300000F02CFA1F4A1368104633B96360146000
:104D40002846BDE8384000F022BAA3420CD92168B9
:104D50006218934204BF1A685B68636004BF52180C
:104D600022600460ECE713465A680AB1A242FAD9FD
:104D700019685818A0420BD1206801445818824283
:104D80001960DDD1106852685A6001441960D7E794
:104D900002D90C232B60D3E7206821188A4204BF74
:104DA00011685268626004BF091821605C60C7E73F
:104DB00038BD00BF4003002070B5CD1C25F00305B1
:104DC00008350C2D38BF0C25002D064601DBA94205
:104DD00003D90C233360002070BD00F0D7F9234ABB
:104DE0001468214691B9224C23681BB9304600F063
:104DF00091F920602946304600F08CF9431C26D1F9
:104E00000C233360304600F0C2F9E4E70B685B1B0B
:104E10001AD40B2B0FD90B60CD50CC18304600F0B4
:104E2000B6F904F10B00231D20F00700C31A1BD0B4
:104E30005A42E25070BD8C420DBF63684B6863609C
:104E4000136018BF0C46E9E70C464968CAE7C41C62
:104E500024F00304A04205D0211A304600F05AF98C
:104E60000130CDD02560D9E770BD00BF40030020E0
:104E7000440300202DE9F0478E689E4282460C468E
:104E80009146984635D88A8912F4906F31D02568BA
:104E900009696F1A6569022305EB450595FBF3F572
:104EA00008F101033B449D4238BF1D46530531D5EF
:104EB0002946FFF781FF064650B90C23CAF8003097
:104EC000A38943F04003A3814FF0FF30BDE8F08792
:104ED0003A462169FFF738FCA38923F4906343F035
:104EE0008003A381266165613E44ED1B2660A560B9
:104EF0004646464528BF464632464946206800F0A9
:104F00002BF9A3689B1BA36023681E442660002026
:104F1000BDE8F0872A4600F03BF906460028E1D1BB
:104F200021695046FFF7FAFEC7E700002DE9F04F70
:104F30009DB0804603938B891C060D4616460FD5FF
:104F40000B696BB94021FFF737FF2860286128B94A
:104F50000C23C8F800304FF0FF30C5E040236B61F0
:104F60000023099320238DF8293030238DF82A302F
:104F70004FF0010B37463C4614F8013B002B3CD167
:104F8000B7EB060A0BD05346324629464046FFF798
:104F900071FF013000F0A380099B534409933B78D3
:104FA000002B00F09C8000234FF0FF320493079306
:104FB000059206938DF853301A93052221785048B4
:104FC000FBF72EF9671C049BD8B9D90644BF2022F1
:104FD0008DF853201A0744BF2B228DF853202278D6
:104FE0002A2A16D0079A00210A20274601343B7846
:104FF000303B092B51D9C9B111E0252BC0D0274630
:10500000B9E73F4A801A0BFA00F0184304903C4677
:10501000D3E7039A111D12680391002A01DB07925E
:1050200004E0524243F00203079204933B782E2B94
:105030000ED17B782A2B07F1010132D1039B1A1D77
:105040001B680392002BB8BF4FF0FF330237059364
:105050002C4C397803222046FBF7E2F838B1402384
:10506000001B03FA00F0049B0343049301373978D3
:1050700025488DF8281006227E1CFBF7D1F8002861
:1050800035D0224BFBB9039B073323F007030833CA
:105090000393099B4B4409936CE700FB0232012107
:1050A000A3E70023059318460A240F4601313A78F6
:1050B000303A092A03D9002BCAD00590C8E704FB6F
:1050C00000200123F1E703AB00932A46104B04A90B
:1050D0004046FEF7CDF8B0F1FF3F8146D9D1AB890C
:1050E0005B063FF538AF09981DB0BDE8F08F03AB04
:1050F00000932A46064B04A94046FEF76FFBEAE7F9
:105100000C6900081269000816690008713200086D
:10511000754E000838B5064C002305460846236046
:1051200001F0CEFA431C02D1236803B12B6038BDD5
:10513000BC04002082B001B901A942B14BB113787F
:105140000B601278101C18BF012002B07047104687
:10515000FBE76FF00100F8E7884210B501EB0203AE
:1051600003D8421E99420CD110BD9842F9D2811841
:10517000D21AD34200D110BD13F8014D01F8014DF0
:10518000F7E711F8014B02F8014FEBE77047704762
:10519000F8B5074614460E4621B91146BDE8F84059
:1051A000FFF70ABE22B9FFF7B9FD25462846F8BD2C
:1051B00000F021F884420FD921463846FFF7FCFD64
:1051C00005460028F2D031462246FFF7BDFA3146A7
:1051D0003846FFF7A3FDE9E73546E7E749B1FF2A7F
:1051E00085BF8A2303600A704FF0FF3098BF01200B
:1051F00070470846704751F8040C0028A0F10400DD
:10520000BCBF0B58C018704700B551EC100B2C4AAE
:1052100021F00043934285B020DD2A4A934209DD04
:1052200010EE102A0B46FBF74FF841EC100B05B0BF
:105230005DF804FB684600F0A7F800F003000128C1
:1052400028D0022815D060B301209DED021B9DEDF2
:10525000000B01F03DF851EC100BE6E79FED161B3B
:1052600000F0BAFA51EC100B41EC100B05B05DF8F0
:1052700004FB9DED021B9DED000B00F0ADFA53EC1D
:10528000102B10EE100A03F1004141EC100B05B099
:105290005DF804FB9DED021B9DED000B01F018F87D
:1052A000EDE79DED021B9DED000B00F095FA51EC32
:1052B000100BBAE7AFF30080000000000000000010
:1052C000FB21E93FFFFFEF7F00B551EC100B2C4AAB
:1052D00021F00043934285B027DD2A4A934209DD3D
:1052E00010EE102A0B46FAF7EFFF41EC100B05B059
:1052F0005DF804FB684600F047F800F00300012861
:1053000027D002281DD068B39DED021B9DED000B38
:1053100000F062FA53EC102B10EE100A03F100417A
:1053200041EC100B05B05DF804FB00209FED121B53
:1053300000F0CEFF51EC100B41EC100B05B05DF806
:1053400004FB01209DED021B9DED000B00F0C0FF52
:10535000E0E79DED021B9DED000B00F03DFA51ECE6
:10536000100BC2E701209DED021B9DED000B00F02C
:10537000AFFF51EC100BB8E7000000000000000088
:10538000FB21E93FFFFFEF7F2DE9F04753EC102BA6
:105390009D4923F000478F4290B040F391809B4994
:1053A0008F421C46824629DC002C194610EE100A5A
:1053B0008BA3D3E9002340F3B181FAF785FF944B27
:1053C0009F4204460D4600F0918087A3D3E9002355
:1053D000FAF77AFF02460B46CAE90023204629461F
:1053E000FAF772FF80A3D3E90023FAF76DFF0125D6
:1053F000CAE90201284610B0BDE8F08785498F420E
:1054000040F3918084498F4265DC3D15A5F2164535
:10541000A7EB0551104616460F46FBF7B9FBFBF705
:10542000A1F88046894642464B4630463946CDE98A
:105430000A89FAF749FF0022784BFBF7F9F8894609
:105440008046FBF7A5FBFBF78DF806460F46324674
:105450003B4640464946CDE90C67FAF735FF002246
:105460006E4BFBF7E5F800220023CDE90E01FBF7B8
:1054700047FB002800F070810023304639460022A7
:10548000FBF73EFB002814BF01230223644A01926C
:1054900002212A4600910AA8514600F0E1FA002CA8
:1054A000054614DADAF80420DAF80C3002F100428A
:1054B00003F100434542CAF80420CAF80C3006E064
:1054C00080ED000B00250024C0E902450025284698
:1054D00010B0BDE8F08710EE100A1946FAF7F4FE96
:1054E0000025CAE90201CAE90001F0E740A3D3E9B7
:1054F0000023FAF7E9FE40A3D3E900230D46044652
:10550000FAF7E2FE02460B46CAE900232946204686
:10551000FAF7DAFE38A3D3E90023FAF7D5FE01251E
:10552000CAE90201D3E700F09DFF59EC108B10EEA1
:10553000100A33A3D3E900234946FBF779F8002288
:10554000384BFAF7C3FEFBF723FB0546FBF70AF8D7
:1055500023A3D3E90023CDE90601FBF769F802464E
:105560000B4640464946FAF7AFFE1FA3D3E9002396
:10557000CDE90201DDE90601FBF75AF81F2D80464F
:105580008946CDE9048951DC274B6A1E53F8223045
:105590009F424BD002460B46DDE90201FAF794FE2A
:1055A00080468946CAE9008942464B46DDE9020148
:1055B000FAF78AFEDDE90423FAF786FE002CCAE931
:1055C000020184DA09F1004401F100436D42CAF896
:1055D0000080CAF80440CAF80800CAF80C3076E720
:1055E00000004054FB21F93F3163621A61B4D03DA1
:1055F0000000601A61B4D03D7370032E8A19A33B7A
:1056000083C8C96D305FE43FFB21E93F7BD902408D
:10561000FB21F93FFB213941FFFFEF7F0000704183
:10562000A86A00080000E03F286A0008DDE90423BA
:10563000DDE90201FAF748FE3F15C1F30A53FB1AF0
:1056400080468946102BCAE90089ADDD58A3D3E90D
:105650000023DDE90601FAF7EBFF804689460246A2
:105660000B46DDE90201FAF72FFE02460B46DDE9A3
:105670000201CDE90823FAF727FE42464B46FAF726
:1056800023FE4DA3D3E9002380468946DDE90601C8
:10569000FAF7CEFF42464B46FAF716FE0B46CDE927
:1056A00004010246DDE90801FAF70EFEC1F30A53D0
:1056B000FF1A80468946312FCAE900896CDD41A373
:1056C000D3E90023DDE90601FAF7B2FFDDE9088935
:1056D00006460F4602460B4640464946FAF7F4FD99
:1056E00002460B4640464946CDE90223FAF7ECFD57
:1056F00032463B46FAF7E8FD34A3D3E900230646D9
:105700000F46DDE90601FAF793FF32463B46FAF70A
:10571000DBFD02460B46CDE904233DE7FAF7D6FD53
:10572000274B9F4204460D4618D01FA3D3E9002300
:10573000FAF7CCFD02460B46CAE90023294620466B
:10574000FAF7C2FD18A3D3E90023FAF7BFFD4FF023
:10575000FF35CAE90201BAE6032397E614A3D3E9A9
:105760000023FAF7B3FD14A3D3E900230D46044642
:10577000FAF7ACFD02460B46CAE90023294620464B
:10578000FAF7A2FD0CA3D3E90023FAF79FFD4FF02F
:10579000FF35CAE902019AE69DED087B8DED027B9B
:1057A00002E700BFAFF300803163621A61B4D03DFD
:1057B0000000601A61B4D03D7370032E8A19A33BB8
:1057C000FB21F93F0000002E8A19A33BC149202587
:1057D0009A837B39000000002DE9F04F57EC106BE5
:1057E0002DED028BB0EE418AF0EE618A27F0004980
:1057F000B9F1795F83B072DA10EE100A3946FBF71F
:10580000C7F9002800F0F68032463B46304639465C
:10581000FAF70EFF7CA3D3E9002304460D46FAF7FE
:1058200007FF7BA3D3E90023FAF750FD22462B465E
:10583000FAF7FEFE78A3D3E90023FAF745FD2246E6
:105840002B46FAF7F5FE76A3D3E90023FAF73EFDDF
:1058500022462B46FAF7ECFE73A3D3E90023FAF7AE
:1058600033FD22462B46FAF7E3FE71A3D3E900236A
:10587000FAF72CFD22462B46FAF7DAFE82468B46D3
:105880000022714B20462946FAF7D2FE5246804646
:1058900089465B4620462946FAF7CAFE53EC182B88
:1058A00004460D4630463946FAF7C2FE02460B461C
:1058B00020462946FAF708FD02460B46404649466F
:1058C000FAF702FD02460B4600206049FAF7FCFC9D
:1058D00041EC100B03B0BDEC028BBDE8F08F10EE75
:1058E000102A10EE100A3B463946FAF7A1FE46A3ED
:1058F000D3E9002304460D46FAF79AFE44A3D3E900
:105900000023FAF7E3FC22462B46FAF791FE42A366
:10591000D3E90023FAF7D8FC22462B46FAF788FE93
:105920003FA3D3E90023FAF7D1FC22462B46FAF72E
:105930007FFE3DA3D3E90023FAF7C6FC22462B469F
:10594000FAF776FE3AA3D3E90023FAF7BFFC2B4619
:105950002246FAF76DFE3E4B994582468B468FDD17
:105960003C4B99453DDC0022A9F500130020374946
:1059700090469946FAF7A8FCCDE900010022324B87
:1059800020462946FAF754FE42464B46FAF79CFC5D
:105990005246804689465B4620462946FAF748FE2D
:1059A00053EC182B04460D4630463946FAF740FEB4
:1059B00002460B4620462946FAF786FC02460B466D
:1059C00040464946FAF780FC02460B46DDE90001F5
:1059D000FAF77AFC41EC100B03B0BDEC028BBDE88A
:1059E000F08F9FED157B4FF000088DED007BDFF809
:1059F0006890C3E79FED120B03B0BDEC028BBDE8CE
:105A0000F08F00BFAFF30080D43888BEE9FAA8BD9C
:105A1000C4B1B4BD9EEE213EAD529C804F7E923EFD
:105A20009015CB19A001FA3E7751C1166CC1563FB3
:105A30004C5555555555A53F000000000000E73F67
:105A4000000000000000F03F0000E03F0000F03FD9
:105A50003233D33F0000E93F0000D23F0000000096
:105A60002DE9F04FADF51B7DA34CA49EA34D54F83A
:105A7000264007942646D41E85FB0475E417C4EB24
:105A8000A50424EAE4741D460A93631CA3EB830374
:105A9000013D02EBC30306932B460B940395651B54
:105AA000F418049008911AD42C44002600270134DD
:105AB0000DF18808DDF8949208E059F82500FAF70E
:105AC00051FD0135A542E8E8020108D0002DF4DAC5
:105AD000013530463946A542E8E80201F6D1079B78
