:020000040800F2
:100000000080012071210008CD0B0008D10B0008F1
:10001000D50B0008D90B0008DD0B0008000000001C
:10002000000000000000000000000000E10B0008DC
:10003000E50B000800000000E90B0008ED0B0008CC
:10004000C1210008C1210008C1210008C121000808
:10005000C1210008C1210008C1210008C1210008F8
:10006000C1210008C1210008C1210008C1210008E8
:10007000C1210008C1210008C1210008C1210008D8
:10008000C1210008C1210008C121000800000000B2
:10009000000000000000000000000000C121000876
:1000A000C1210008C1210008C1210008C1210008A8
:1000B000C1210008C1210008C1210008C121000898
:1000C000C1210008C1210008C1210008C121000888
:1000D000C1210008C1210008C12100080000000062
:1000E000C1210008C1210008C12100080000000052
:1000F000000000000000000000000000C121000816
:1001000000000000C1210008C1210008C121000831
:1001100000000000000000000000000000000000DF
:10012000C1210008C1210008C1210008C121000827
:10013000C1210008000000000000000000000000D5
:10014000000000000000000000000000C1210008C5
:10015000C1210008C1210008C1210008C1210008F7
:10016000C1210008C12100080000000000000000BB
:10017000000000000000000000000000000000007F
:1001800000000000C1210008000000000000000085
:04019000C121000881
:10019400044B05481B1A062B02D9044B03B118471C
:1001A400704700BF730000207000002000000000B2
:1001B40005490648091A891001EBD171491002D08A
:1001C400034B03B1184770477000002070000020F3
:1001D4000000000010B5064C237843B9FFF7D8FFA0
:1001E400044B13B10448AFF300800123237010BD06
:1001F4007000002000000000582A000808B5084BD1
:100204001BB108480849AFF300800848036813B9D4
:10021400BDE80840CCE7064B002BF9D09847F7E738
:1002240000000000582A000874000020700000201C
:100234000000000053B94AB9002908BF00281CBFB8
:100244004FF0FF314FF0FF3000F03CB882B0EC4685
:100254002DE9005000F01EF8DDF804E002B00CBCFB
:10026400704700BF2DE9F041069C154606460F462F
:10027400984600F029F805FB01F300FB0838A5FBBC
:100284000023B21A434467EB0303C4E90023BDE827
:10029400F08100BF2DE9F041069C904606460F46CA
:1002A4001D4600F05FF900FB05F5A0FB082308FBE1
:1002B4000155B21A2B4467EB0303C4E90023BDE8DC
:1002C400F08100BF704700BF00292DE9F043C0F260
:1002D400A6800026002BC0F29C80884694469E4649
:1002E400154604460F46002B3DD18A4259D9B2FA2D
:1002F40082F33BB1C3F120029F4020FA02F29D40F9
:1003040017439C40290C220CB7FBF1FEA8B201FB59
:100314001E7742EA074700FB0EF3BB420AD97F1956
:100324000EF1FF3280F00581BB4240F20281AEF152
:10033400020E2F44FF1AA4B2B7FBF1F301FB1377AB
:1003440044EA074700FB03F0B84208D97F1903F1D8
:10035400FF3280F0F080B84240F2ED80023B43EA85
:100364000E43002203E08B420FD900221346341CB3
:1003740018BF012460424FF0000565EB4501584069
:10038400514000196941BDE8F083B3FA83F2002AB1
:1003940040F086808B4202D3844500F2DB80012347
:1003A400E5E712B90123B3FBF2F5B5FA85F00028AD
:1003B4003BD1781B4FEA154E1FFA85FC0122B0FB96
:1003C400FEF8210C0EFB180741EA07470CFB08F363
:1003D400BB4207D97F1908F1FF3102D2BB4200F2B8
:1003E400BD808846FF1AA4B2B7FBFEF30EFB137759
:1003F40044EA07470CFB03FCBC4507D97F1903F10A
:10040400FF3102D2BC4500F2A7800B4643EA084301
:10041400ADE752426FEA060663EB43035DE74042F1
:1004240061EB41014FF0FF3654E7C0F1200224FA9A
:1004340002F107FA00F385404FEA154ED7401943FD
:10044400B7FBFEF20B0C0EFB12771FFA85FC43EA96
:1004540007430CFB02F79F4204FA00F407D95B1927
:1004640002F1FF3074D29F4272D9023A2B44DF1B4F
:1004740089B2B7FBFEF80EFB187341EA03430CFB89
:1004840008F79F4208D95B1908F1FF315CD29F42FB
:100494005AD9A8F102082B44D81B48EA02428EE735
:1004A400C2F120032CFA03F10EFA02FE20FA03F73C
:1004B40041EA0E0E08FA02F028FA03F14FEA1E454B
:1004C4003843B1FBF5F8030C05FB18111FFA8EF73E
:1004D40043EA014107FB08F38B420CFA02FC09D9F9
:1004E40011EB0E0108F1FF3930D28B422ED9A8F15D
:1004F40002087144C91A80B2B1FBF5F305FB13116C
:1005040040EA014107FB03F78F4208D911EB0E01C2
:1005140003F1FF3016D28F4214D9023B714443EAEF
:100524000843C91BA3FB0C89494509D305D0002204
:100534001DE79646FEE6134611E794404445F6D27D
:10054400013BF4E70346EAE78846A5E7C846D1E756
:1005540002468CE713460AE7023B57E7A8F1020874
:100564002F443FE72DE9F041002B44D18A42154640
:1005740004464FD9B2FA82F70E464FB1C7F12003B1
:10058400B94020FA03F602FA07F50E4300FA07F41D
:100594004FEA154E230CB6FBFEF0AFB20EFB106112
:1005A40043EA014307FB00F1994209D95B1900F1C1
:1005B400FF3280F0EC80994240F2E98002382B440B
:1005C4005A1AA4B2B2FBFEF30EFB132244EA02420F
:1005D40007FB03F7974208D9521903F1FF3180F062
:1005E400D880974240F2D580023B43EA004000267F
:1005F4003146BDE8F0818B4247D8B3FA83F6002E2A
:1006040048D18B4202D3824200F2CD800120314690
:10061400BDE8F08112B90125B5FBF2F5B5FA85F80C
:10062400B8F1000F77D14A1B4FEA154EAFB201263D
:10063400B2FBFEF0230C0EFB102143EA014107FB41
:1006440000F38B4207D9491900F1FF3202D28B42E1
:1006540000F2BA801046C91AA4B2B1FBFEF30EFB35
:10066400131144EA014407FB03F7A74208D96419AC
:1006740003F1FF3280F08F80A74240F28C80023B6E
:1006840043EA00403146BDE8F08100263046314659
:10069400BDE8F081C6F1200422FA04F5B3402B43EF
:1006A40020FA04FC01FA06F721FA04F54FEA134E86
:1006B4004CEA0707B5FBFEF8390C0EFB18551FFA78
:1006C40083FC41EA05450CFB08F1A94202FA06F253
:1006D40004D9ED1808F1FF3467D3A0466D1ABFB2F0
:1006E400B5FBFEF40EFB145547EA05410CFB04FC74
:1006F4008C4504D9C91804F1FF355CD32C4644EA6F
:100704000844CCEB0101A4FB0223994248D344D012
:10071400204600266CE7C8F1200401FA08F305FA24
:1007240008F520FA04F7E1404FEA154E1F43B1FBE8
:10073400FEF63A0C0EFB16111FFA85FC42EA014341
:100744000CFB06F29A4200FA08F407D95B1906F189
:10075400FF3137D29A4235D9023E2B449B1ABFB29D
:10076400B3FBFEF00EFB103347EA03430CFB00F12E
:10077400994207D95B1900F1FF3221D299421FD95E
:1007840002382B445A1A40EA0646674650E7104698
:1007940016E70B4629E7134672E7B0409042B7D2FA
:1007A400601E002624E7304622E7A94295D9A8F125
:1007B40002081D4492E78C45A0D9023C19449EE7E7
:1007C4001046DFE70E46C9E70238294443E700BF75
:1007D400F0B58BB00024059406940794089409940A
:1007E40001942A4B1A6B42F004021A631A6B02F04A
:1007F40004020192019A02941A6B42F080021A6375
:100804001A6B02F080020292029A03941A6B42F06D
:1008140001021A631A6B02F001020392039A049410
:100824001A6B42F002021A631B6B03F00203049377
:10083400049B174F38464FF48461224601F0AAFB0B
:10084400144D28462021224601F0A4FB4FF4005306
:100854000593114B06930794104805A901F0C2FAB9
:100864004FF484630593012606960794089438464A
:1008740005A901F0B7FA2023059306960794089476
:10088400284605A901F0AEFA0BB0F0BD00380240CD
:100894000000024000040240000021100008024051
:1008A40008B50848084B03604FF4E1334360002364
:1008B4008360C36003610C2242618361C36100F001
:1008C400D3FE08BD880100200044004030B58BB041
:1008D40000240894099401940294039404940594C4
:1008E40006940794104D4FF080432B606C60AC600D
:1008F40042F21073EB602C61284600F077FB0894F9
:100904000994284608A900F0C1FC602301930294CD
:1009140003940594284601A9042200F0FFFB28460D
:1009240000F00EFA0BB030BD4C01002030B58BB096
:100934000024089409940194029403940494059463
:1009440006940794104D114B2B606C60AC6042F21E
:100954001073EB602C61284600F048FB089409945E
:10096400284608A900F092FC6023019302940394A2
:100974000594284601A9224600F0D0FB284600F041
:10098400DFF90BB030BD00BF1001002000040040AF
:1009940030B58DB0002404940694079408940A9406
:1009A4000B94019402940C4D0C4B2B606C60AC6066
:1009B4004FF6FF73EB602C610123039305930993B6
:1009C400284603A900F02EFB01940294284601A9AD
:1009D40000F05CFC0DB030BD980000200008004021
:1009E40030B58DB0002404940694079408940A94B6
:1009F4000B94019402940C4D0C4B2B606C60AC6016
:100A04004FF6FF73EB602C61012303930593099365
:100A1400284603A900F006FB01940294284601A984
:100A240000F034FC0DB030BDD4000020000C0040B8
:100A340030B595B00024089409940A940B940C944E
:100A44000D940E940F94109411941294139403948F
:100A5400049405940694079401941C4B1A6C42F078
:100A640080521A641B6C03F080530193019B02941F
:100A7400174A136823F4404343F400431360136894
:100A840003F440430293029B0225089501230B9330
:100A940010230C930E950F9410934FF4A873119395
:100AA400042312930723139308A800F07FFE0F2357
:100AB4000393049505944FF480530693079403A875
:100AC400294601F0B9F815B030BD00BF0038024026
:100AD4000070004030B585B001F0E2FAFFF7A8FFDE
:100AE400FFF776FEFFF7DCFEFFF7F0FEFFF71EFFD1
:100AF400FFF74EFFFFF774FF2948042100F08AFB3B
:100B04002848002100F086FB2748182100F09AFBB2
:100B14002648182100F096FB2548264919224FF053
:100B2400FF3300F0D3FD1E4B1A684FF47A739363BE
:100B34001C4A12685363204D28464FF480610122F9
:100B440001F028FA1D4C20462021012201F022FA4E
:100B5400322001F0D1FA28464FF48061002201F0DE
:100B640019FA20462021002201F014FA322001F063
:100B7400C3FA00230093019302930393104B5A6A20
:100B840003F580635B6A68460E4901F03FFB084841
:100B9400694610224FF0FF3300F098FDC3E700BF11
:100BA4004C0100201001002098000020D4000020F7
:100BB40088010020702A000800000240000402405E
:100BC400000800408C2A0008704700BFFEE700BF01
:100BD400FEE700BFFEE700BFFEE700BF704700BFAF
:100BE400704700BF704700BF08B501F073FA08BD35
:100BF40000B583B0002100910C4B5A6C42F4804242
:100C04005A645A6C02F480420092009A01911A6C60
:100C140042F080521A641B6C03F080530193019BD1
:100C2400072001F0BDF903B05DF804FB0038024071
:100C340082B00368B3F1804F0CD1002300930E4BB4
:100C44001A6C42F001021A641B6C03F00103009356
:100C5400009B0EE0094A93420BD100230193064BFB
:100C64001A6C42F002021A641B6C03F00203019333
:100C7400019B02B0704700BF0038024000040040EE
:100C840000B58BB00023059306930793089309934B
:100C94000368264A934221D100210191244B1A6C06
:100CA40042F004021A641A6C02F004020192019ADE
:100CB40002911A6B42F002021A631B6B03F00203E7
:100CC4000293029BC02305930223069301220792F9
:100CD4000993184805A901F085F823E0164A9342C0
:100CE40020D100210391124B1A6C42F008021A64BD
:100CF4001A6C02F008020392039A04911A6B42F0F0
:100D040001021A631B6B03F001030493049B032386
:100D1400059302230693012207920993074805A924
:100D240001F060F80BB05DF804FB00BF0008004060
:100D34000038024000040240000C00400000024061
:100D440000B589B000230393049305930693079396
:100D54000368B3F1804F16D100230193174B1A6B2C
:100D640042F002021A631B6B03F002030193019B1E
:100D7400082303930223049301230793104803A930
:100D840001F030F817E00F4A934214D10023029384
:100D94000A4B1A6B42F002021A631B6B03F0020344
:100DA4000293029B102303930223049307930448A2
:100DB40003A901F017F809B05DF804FB00380240FC
:100DC400000402400004004000B589B000230393EE
:100DD40004930593069307930268134B9A4220D118
:100DE4000021019103F5FA331A6C42F400321A64BB
:100DF4001A6C02F400320192019A02911A6B42F0C9
:100E040001021A631B6B03F001030293029B0C2380
:100E140003930223049307230793044803A900F0D0
:100E2400E1FF09B05DF804FB00440040000002400B
:100E340030B4036A23F001030362036A44688269DD
:100E440022F073020D682A4323F002038D682B43BA
:100E54000A4DA8420BD123F00803CD682B4323F09D
:100E6400040324F440744D692C438D692C4344607D
:100E740082614A684263036230BC704700000140EB
:100E840030B4036A23F480730362036A4468C2695A
:100E940022F073020D682A4323F400738D6843EA39
:100EA40005230C4DA8420ED123F40063CD6843EA18
:100EB400052323F4806324F440544D6944EA051463
:100EC4008D6944EA05144460C2614A68C2630362DE
:100ED40030BC70470000014030B4036A23F48053EF
:100EE4000362036A4468C26922F4E6420D6842EA76
:100EF400052223F400538D6843EA0533074DA842C5
:100F040004D124F480444D6944EA85144460C261E8
:100F14004A680264036230BC704700BF00000140AD
:100F24000368314A904210D0B0F1804F0FD0A2F53F
:100F34007C4290420DD002F5806290420BD002F5C3
:100F44008062904209D1012208E0012206E00122D8
:100F540004E0012202E0012200E000221AB123F0A1
:100F640070034A681343204A90421CD0B0F1804F6A
:100F74001BD0A2F57C42904219D002F580629042C7
:100F840017D002F58062904215D002F59A32904251
:100F940013D002F58062904211D002F58062904233
:100FA4000FD101220EE001220CE001220AE001220D
:100FB40008E0012206E0012204E0012202E001220D
:100FC40000E000221AB123F44073CA68134303609B
:100FD4008B68C3620B688362034B984201D10B692F
:100FE400036301234361704700000140C0B110B5A1
:100FF400044690F8393013F0FF0F04D1002380F831
:101004003830FFF715FE022384F83930214651F8B1
:10101400040BFFF785FF012384F83930002010BD4D
:1010240001207047002848D0F8B505460C4690F8D2
:10103400393013F0FF0F04D1002380F83830FFF764
:101044001FFE022385F839302A68936823F00703CA
:101054009360294651F8040BFFF762FF2868836800
:101064008269016A26681E4322F4407222F0030258
:10107400A368A76943EA0723134323F47C4323F0BB
:10108400FC03E268E76942EA072213432769226AFC
:10109400120342EA0712134321F0AA016268646949
:1010A40042EA04120A43866029688B612B681A623B
:1010B400012385F839300020F8BD0120704700BFB6
:1010C40030B4036A23F010030362036A446882693C
:1010D40022F4E6420D6842EA052223F020038D68DB
:1010E40043EA05130C4DA8420ED123F08003CD68CA
:1010F40043EA051323F0400324F440644D6944EAB1
:1011040085048D6944EA8504446082614A68826387
:10111400036230BC704700BF0000014038B590F84E
:101124003830012B66D00D460446012380F8383050
:10113400022380F839300C2A55D8DFE802F007542E
:1011440054541A5454542E54545441000068FFF714
:101154006FFE2268936943F00803936122689369E0
:1011640023F004039361226891692B690B43936113
:1011740039E00068FFF7A4FF2268936943F4006331
:1011840093612268936923F480639361226893696D
:10119400296943EA0123936125E00068FFF770FEA3
:1011A4002268D36943F00803D3612268D36923F02A
:1011B4000403D3612268D1692B690B43D36112E024
:1011C4000068FFF789FE2268D36943F40063D361A2
:1011D4002268D36923F48063D3612268D3692969BF
:1011E40043EA0123D361012384F83930002084F8D1
:1011F400380038BD022038BD10B401238B40046A86
:1012040024EA03030362036A8A401A4302625DF814
:10121400044B704710B5044600680122FFF7ECFF49
:101224002368074A934203D15A6C42F400425A6439
:101234002268136843F001031360002010BD00BF4F
:101244000000014010B5044611B1042906D00BE09A
:10125400006800210122FFF7CFFF0FE0006804219E
:101264000122FFF7C9FF09E0006800210122FFF70E
:10127400C3FF206804210122FFF7BEFF2268136820
:1012840043F001031360002010BD00BF90F8383014
:10129400012B21D030B4012280F83820022380F8B9
:1012A40039300468636823F0700363600468656818
:1012B4000B682B4363600468A36823F08003A36076
:1012C4000468A5684B682B43A36080F83920002389
:1012D40080F83830184601E00220704730BC70476F
:1012E4002DE9F84304460268136923F44053C168A6
:1012F4000B4313610068C36823F4164323F00C0303
:10130400A1682269114362691143E2690A431343E4
:10131400C3602268536923F44073A1690B4353618A
:10132400E369B3F5004F40F0B580266803F18043CC
:1013340003F510439E4203D003F580639E4254D1CB
:1013440000F040FD00EB800000EB800065686D005C
:10135400B0FBF5F5A84FA7FB05356D092D0100F08D
:1013640031FD00EB800000EB800063685B00B0FBA4
:10137400F3F800F027FD00EB800000EB80006368C9
:101384005B00B0FBF3F3A7FB03235B094FF0640995
:1013940009FB1383DB003233A7FB03231B0903F48C
:1013A400F8731D4400F00EFD00EB800000EB80009C
:1013B40063685B00B0FBF3F800F004FD00EB800011
:1013C40000EB800063685B00B0FBF3F3A7FB03232F
:1013D4005B0909FB1383DB003233A7FB0323C3F34D
:1013E40042131D44B560BDE8F88300F0DBFC00EB5C
:1013F400800000EB800065686D00B0FBF5F57E4F62
:10140400A7FB05356D092D0100F0CCFC00EB800035
:1014140000EB800063685B00B0FBF3F800F0C2FCF3
:1014240000EB800000EB800063685B00B0FBF3F32B
:10143400A7FB03235B094FF0640909FB1383DB005B
:101444003233A7FB03231B0903F4F8731D4400F094
:10145400A9FC00EB800000EB800063685B00B0FB3C
:10146400F3F800F09FFC00EB800000EB8000636861
:101474005B00B0FBF3F3A7FB03235B0909FB1383B6
:10148400DB003233A7FB0323C3F342131D44B560CF
:10149400BDE8F8832668594B9E4203D003F5806368
:1014A4009E4254D100F08EFC00EB800000EB8000E3
:1014B4006568AD00B0FBF5F54F4FA7FB05356D0929
:1014C4002D0100F07FFC00EB800000EB80006368DE
:1014D4009B00B0FBF3F800F075FC00EB800000EB20
:1014E400800063689B00B0FBF3F3A7FB03235B0955
:1014F4004FF0640909FB13831B013233A7FB032359
:101504005B0903F0F0031D4400F05CFC00EB800079
:1015140000EB800063689B00B0FBF3F800F052FC22
:1015240000EB800000EB800063689B00B0FBF3F3EA
:10153400A7FB03235B0909FB13831B013233A7FBBE
:101544000323C3F343131D44B560BDE8F88300F0DF
:1015540029FC00EB800000EB80006568AD00B0FB67
:10156400F5F5254FA7FB05356D092D0100F01AFC93
:1015740000EB800000EB800063689B00B0FBF3F895
:1015840000F010FC00EB800000EB800063689B001F
:10159400B0FBF3F3A7FB03235B094FF0640909FBDA
:1015A40013831B013233A7FB03235B0903F0F0030E
:1015B4001D4400F0F7FB00EB800000EB8000636843
:1015C4009B00B0FBF3F800F0EDFB00EB800000EBB8
:1015D400800063689B00B0FBF3F3A7FB03235B0964
:1015E40009FB13831B013233A7FB0323C3F3431308
:1015F4001D44B560BDE8F8831F85EB510010014020
:101604002DE9F04106460C4617469846069D1EE015
:10161400B5F1FF3F1BD02DB100F068FDC8EB000011
:10162400A84214D93268D36823F4D073D3603268E3
:10163400536923F001035361202386F8393086F877
:101644003A30002386F838300320BDE8F08133684F
:101654001B682340A34214BF00230123BB42D7D0FD
:101664000020BDE8F08100BF68B310B5044690F8CF
:10167400393013F0FF0F04D1002380F83830FFF71E
:10168400A3FB242384F839302268D36823F400535D
:10169400D3602046FFF724FE2268136923F49043A5
:1016A40013612268536923F02A0353612268D368C3
:1016B40043F40053D3600020E063202384F83930DE
:1016C40084F83A3010BD0120704700BF2DE9F04185
:1016D40082B004461E4690F83930DBB2202B54D138
:1016E4000D469046002952D0002A52D090F8383046
:1016F400012B50D0012380F838300023C363212309
:1017040080F8393000F0F2FC0746A4F82480A4F8ED
:10171400268026E0E38C013B9BB2E384A368B3F507
:10172400805F12D100962046802100223B46FFF7BD
:1017340067FF90BB22682B88C3F3080353602369B7
:101744000BB902350DE001350BE0009620468021EF
:1017540000223B46FFF754FF08BB23682A785A60EF
:101764000135E38C9BB2002BD4D100962046402156
:1017740000223B46FFF744FF034690B9202284F839
:101784003920002284F838200CE002230AE00123E7
:1017940008E0012306E0022304E0032302E003231C
:1017A40000E00323184602B0BDE8F081002800F0F1
:1017B400B58170B582B00446036813F0010F5AD0A6
:1017C400A04B9B6803F00C03042B0AD09D4B9B6831
:1017D40003F00C03082B0DD19A4B5B6813F4800FB4
:1017E40008D0984B1B6813F4003F44D06368002B67
:1017F40041D195E16368B3F5803F05D1914A1368FF
:1018040043F48033136015E0B3F5A02F09D18D4B59
:101814001A6842F480221A601A6842F480321A600C
:1018240008E0884B1A6822F480321A601A6822F49D
:1018340080221A6063687BB100F058FC054605E01D
:1018440000F054FC401B642800F26C817D4B1B6843
:1018540013F4003FF4D00EE000F048FC054605E028
:1018640000F044FC401B642800F25E81754B1B6849
:1018740013F4003FF4D1236813F0020F50D0714BDE
:101884009B6813F00C0F0AD06E4B9B6803F00C039B
:10189400082B16D16B4B5B6813F4800F11D1694B85
:1018A4001B6813F0020F03D0E368012B40F03E8164
:1018B400644A136823F0F803216943EAC1031360FF
:1018C4002EE0E368D3B101225F4B1A6000F00EFCF6
:1018D400054605E000F00AFC401B022800F22881BE
:1018E400584B1B6813F0020FF4D0564A136823F0C8
:1018F400F803216943EAC103136011E00022524B4B
:101904001A6000F0F3FB054605E000F0EFFB401B16
:10191400022800F20F814B4B1B6813F0020FF4D125
:10192400236813F0080F26D0636993B10122474B53
:101934001A6000F0DBFB054605E000F0D7FB401B16
:10194400022800F2F9803F4B5B6F13F0020FF4D0D2
:1019540011E000223D4B1A6000F0C8FB054605E08B
:1019640000F0C4FB401B022800F2E880354B5B6F9B
:1019740013F0020FF4D1236813F0040F7CD0314B21
:101984001B6C13F0805F0DD1002301932D4B1A6C57
:1019940042F080521A641B6C03F080530193019B44
:1019A400012500E000252A4B1B6813F4807F13D126
:1019B400274A136843F48073136000F097FB0646CC
:1019C40005E000F093FB801B022800F2B980204B55
:1019D4001B6813F4807FF4D0A368012B05D1194A46
:1019E400136F43F00103136714E0052B09D1154B62
:1019F4001A6F42F004021A671A6F42F001021A6762
:101A040008E0104B1A6F22F001021A671A6F22F0D5
:101A140004021A67A3688BB100F068FB064607E06E
:101A240000F064FB801B41F28833984200F28A8004
:101A3400044B1B6F13F0020FF2D017E000F056FBBB
:101A440006460EE00038024000004742800E47423E
:101A54000070004000F04AFB801B41F2883398423A
:101A640072D8404B1B6F13F0020FF3D125B13D4ADE
:101A7400136C23F080531364A369002B66D0394A96
:101A8400926802F00C02082A62D0022B33D10022A1
:101A9400354B1A6000F02AFB054604E000F026FBF3
:101AA400401B022856D82F4B1B6813F0007FF5D13A
:101AB400E269236A1343626A43EA8213A26A520800
:101AC400013A43EA0243E26A43EA0263254A536065
:101AD4000122254B1A6000F009FB044604E000F0E3
:101AE40005FB001B022837D81E4B1B6813F0007F30
:101AF400F5D0002033E000221B4B1A6000F0F6FA08
:101B0400044604E000F0F2FA001B022826D8154B24
:101B14001B6813F0007FF5D1002020E001207047FE
:101B240001201CE003201AE0032018E0012016E045
:101B3400032014E0032012E0032010E003200EE051
:101B440003200CE003200AE0032008E0002006E064
:101B5400012004E0032002E0032000E0032002B09F
:101B640070BD00BF003802406000474238B52F4BBB
:101B74009B6803F00C03042B55D0082B01D02C4890
:101B840038BD2A4B5A6802F03F025B6813F4800F99
:101B940020D0264B5B68C3F38813DC000025690161
:101BA40041EAD4616001041B61EB0505A90141EA26
:101BB4009461A001001B61EB0501C01841F1000113
:101BC4004B0243EAD0534402204619460023FEF751
:101BD40031FB1FE0154B5B68C3F38813DC00002561
:101BE400690141EAD4616001041B61EB0505A901A7
:101BF40041EA9461A001001B61EB0501C01841F1A9
:101C040000018B0243EA90538402204619460023C4
:101C1400FEF710FB054B5B68C3F3014301335B0024
:101C2400B0FBF3F038BD034838BD00BF00380240B4
:101C34000024F40000127A00002800F0978070B5A8
:101C44000D460446504B1B6803F00F038B4208D229
:101C5400CBB24D4A1370136803F00F038B4240F06C
:101C64008780236813F0020F17D013F0040F04D0F9
:101C7400464A936843F4E0539360236813F0080FD3
:101C840004D0424A936843F4604393603F498B68AD
:101C940023F0F002A36813438B60236813F0010F51
:101CA4002FD06268012A05D1384B1B6813F4003F1A
:101CB4000ED15FE0931E012B05D8344B1B6813F043
:101CC400007F05D158E0314B1B6813F0020F55D04B
:101CD4002E498B6823F0030313438B6000F006FA4C
:101CE400064606E000F002FA801B41F2883398426F
:101CF40046D8264B9B6803F00C036268B3EB820F53
:101D0400F0D1214B1B6803F00F03AB4207D9EAB2B1
:101D14001D4B1A701B6803F00F03AB4232D12368CA
:101D240013F0040F06D019498B6823F4E052E368DA
:101D340013438B60236813F0080F07D0134A93688A
:101D440023F46043216943EAC1039360FFF70EFF64
:101D54000E4B9B68C3F303130D4AD35CD8400D4B61
:101D64001860002000F076F9002070BD0120704753
:101D7400012070BD012070BD012070BD012070BD27
:101D8400032070BD012070BD003C024000380240B9
:101D9400942A000808000020014B1868704700BF0F
:101DA4000800002008B5FFF7F7FF044B9B68C3F356
:101DB4008223034AD35CD84008BD00BF00380240E8
:101DC400A42A000808B5FFF7E7FF044B9B68C3F398
:101DD4004233034AD35CD84008BD00BF00380240F8
:101DE400A42A00082DE9F04182B00023C4E09C46F7
:101DF40001229A400C681440944240F0BC804D6823
:101E0400022D01D0122D14D14FEAD30E0EF1080E7B
:101E140050F82E7003F007084FEA88080F2505FADA
:101E240008F527EA05060D6905FA08F5354340F873
:101E34002E5006684FEA430E032505FA0EF5ED43CE
:101E440005EA06074E6806F0030606FA0EF63E4358
:101E540006604E68771E012F03D9112E01D0122E71
:101E640012D1866805EA0607CE6806FA0EF63E43E6
:101E74008660476827EA02074E68C6F3001202FA32
:101E84000CF646EA07024260C2682A408D6805FAE9
:101E94000EF51543C5604A6812F0805F6BD00022CE
:101EA4000192384A556C45F480455564526C02F4ED
:101EB40080420192019A9F08BD1C334A52F8256062
:101EC40003F0030E4FEA8E0E0F2202FA0EF226EAF8
:101ED40002052E4A904219D002F58062904213D036
:101EE40002F5806290420DD002F58062904207D0E4
:101EF40002F58062904201D1042208E0072206E044
:101F0400032204E0022202E0012200E0002202FA9D
:101F14000EF22A4302371C4D45F827201C4A156847
:101F2400E24302EA05064F6817F4803F01D044EA11
:101F34000506174D2E606D6802EA05064F6817F412
:101F4400003F01D044EA0506114D6E60AD6802EA17
:101F540005064F6817F4801F01D044EA05060C4DAE
:101F6400AE60ED682A404E6816F4001F01D044EAC2
:101F74000502074CE26001330F2B7FF638AF02B045
:101F8400BDE8F08100380240003801400000024002
:101F9400003C01400AB181617047090481617047C6
:101FA40000F00700064AD36823F4E0631B041B0C0B
:101FB40043EA002040F0BF6040F40030D060704736
:101FC40000ED00E030B4164BDC68C4F30224C4F125
:101FD4000705042D28BF0425231D062B01D9033C26
:101FE40000E00024012303FA05F5013D2940A14046
:101FF400A340013B1A400A43002806DA00F00F0010
:102004001201D2B2074B1A5407E01201D2B200F106
:10201400604000F5614080F8002330BC704700BF89
:1020240000ED00E014ED00E00138B0F1807F0AD249
:10203400064B5860F021064A82F82310002098606D
:1020440007221A6070470120704700BF10E000E0CB
:1020540000ED00E010B504460E4B18784FF47A7387
:10206400B3FBF0F30C4A1068B0FBF3F0FFF7DCFFAE
:1020740058B90F2C0BD84FF0FF3021460022FFF740
:10208400A1FF064B1C60002010BD012010BD0120E3
:1020940010BD00BF04000020080000200000002044
:1020A40008B50B4B1A6842F400721A601A6842F4BD
:1020B40080621A601A6842F480721A600320FFF783
:1020C4006FFF0020FFF7C6FFFEF792FD002008BD5A
:1020D400003C0240034A1368034909780B44136027
:1020E400704700BFC801002004000020014B18689D
:1020F400704700BFC801002038B50446FFF7F6FF5B
:102104000546B4F1FF3F02D0044B1B781C44FFF793
:10211400EDFF401B8442FAD838BD00BF0400002004
:102124000F49D1F8883043F47003C1F888300D4B5F
:102134001A6842F001021A60002098601A6822F0BE
:10214400847222F480321A60074A5A601A6822F4B0
:1021540080221A60D8604FF000638B60704700BF24
:1021640000ED00E00038024010300024DFF834D0E5
:10217400002103E00C4B5B58435004310B480C4BDB
:1021840042189A42F6D30B4A02E0002342F8043B79
:10219400094B9A42F9D3FFF7C3FF00F011F8FEF799
:1021A40099FC704700800120F42A000800000020F8
:1021B4007000002070000020D0010020FEE7000025
:1021C40070B50E4B0E4CE41AA41000251E46A54211
:1021D40004D056F8253098470135F8E700F03AFC6A
:1021E400084C094BE41AA41000251E46A54204D04D
:1021F40056F8253098470135F8E770BDEC2A0008F9
:10220400EC2A0008F02A0008EC2A00080EB400B5F5
:102214009CB04FF40271ADF814106FF000410491BA
:1022240007914FF6FF711DABADF81610084953F82E
:10223400042B029006900868019302A900F064F848
:10224400029B00221A701CB05DF804EB03B07047C7
:102254006C0000202DE9F0478E68B34282460C469C
:102264009046994640D38A8912F4906F3AD02568F3
:1022740009696F1A6569022305EB450595FBF3F5BA
:102284007B1C4B449D4238BF1D4653050FD5294640
:1022940000F03CFB064698B121693A4600F0CBFABF
:1022A400A38923F4906343F08003A38113E02A46B7
:1022B40000F082FB064670B95046216900F0E2FA4C
:1022C4000C23CAF80030A38943F04003A3814FF0E4
:1022D400FF30BDE8F087266165613E44ED1B266052
:1022E400A5604E46B14500D24E463246206841466E
:1022F40000F0ACFAA3689B1BA36023681E4426600D
:102304000020BDE8F08700002DE9F0439DB00646AB
:1023140003938B891C060D4690460CD50B6953B963
:10232400402100F0F3FA2860286110B90C233360CF
:10233400CCE040236B610023099320238DF82930DE
:1023440030238DF82A3043461C4613F8012B1AB962
:10235400B4EB08090FD002E0252AF5D1F8E730469E
:10236400294642464B46FFF775FF013000F0A9802D
:10237400099B4B4409932378002B00F0A28000238F
:102384004FF0FF3204930793059206938DF8533070
:102394001A9304F101084446DFF84891217848462D
:1023A400052200F039FA08F10108049B30B1C9EBA9
:1023B40000000122824013430493ECE7D80644BF93
:1023C40020228DF85320190744BF2B228DF8532067
:1023D40022782A2A02D0079923460EE0039A111D77
:1023E40012680391002ABBBF524243F002030792D2
:1023F4000792B8BF049301340AE01C4601332278E3
:10240400303A092A03D80A2000FB0121F5E7079195
:1024140023782E2B1AD163782A2B0AD1039B1A1DF9
:102424001B680392002BB8BF4FF0FF3302340593AF
:102434000CE0611C00220C4601312378303B092B4F
:1024440003D80A2000FB0232F5E70592DFF89880F2
:1024540021784046032200F0DFF938B1049AC8EB32
:1024640000004023834013430493013421781A4825
:102474008DF82810062204F1010800F0CDF988B186
:10248400164B33B9039B073323F007030833039335
:1024940013E003AB0093304604A92A46104BAFF374
:1024A400008007E003AB0093304604A92A460C4B96
:1024B40000F092F8421C074603D0099B3B44099361
:1024C40041E7AB895B0601D4099801E04FF0FF3086
:1024D4001DB0BDE8F08300BFB82A0008000000006A
:1024E40059220008AE2A0008B42A00082DE9F8434E
:1024F40091461F468A680B69DDF820809342B8BF75
:102504001346C9F8003091F8432006460C4612B130
:102514000133C9F800302368990642BFD9F8003066
:102524000233C9F80030256815F006051CD094F86C
:1025340043302268003318BF012392061FD5E118E7
:102544005A1C302081F84300224494F8451082F844
:102554004310023313E03046394604F119020123D3
:10256400C047013007D00135E368D9F800209B1A31
:102574009D42F0DBDBE74FF0FF30BDE8F8833046E7
:10258400394604F14302C0470130F4D02268D9F837
:102594000050E36802F00602042A08BF5D1B2269AA
:1025A400A3680CBF25EAE57500259342C4BF9B1AB6
:1025B400ED184FF00009A9450ADA3046394604F10E
:1025C4001A020123C0470130D5D009F10109F2E70D
:1025D4000020BDE8F88300002DE9FF410C461746B2
:1025E400227E6E2A984606460A9B01F1430100F0BA
:1025F400AF8012D8632A23D00AD8002A00F0BC8006
:10260400582A40F0CB8084F84520DFF804E257E0F4
:10261400642A1ED0692A1CD0C0E0732A00F0B0805E
:1026240009D86F2A2ED0702A40F0B880226842F070
:10263400200222603FE0752A24D0782A3BD0ADE006
:102644001A68111D1960136884F8423004F14205B8
:10265400A8E020681A6810F0800F02D0101D1860DE
:1026640008E010F0400F02F10400186002D0B2F943
:10267400003000E01368002B3EDA2D225B4284F820
:10268400432039E020681A6810F0800F02D0101D32
:10269400186007E010F0400F02F10400186001D048
:1026A400138800E01368227EDFF864E16F2A0CBF10
:1026B40008220A221CE07822DFF858E184F8452039
:1026C4002268186812F0800F00F104051D6003D120
:1026D400550601D5038800E00368D00744BF42F0E3
:1026E400200222601BB9226822F0200222601022FC
:1026F400002084F8430002E0DFF814E10A22656850
:10270400A560002DA2BF206820F00400206003B95A
:1027140065B10D46B3FBF2F002FB10331EF8033033
:1027240005F8013D03460028F4D100E00D46082ACF
:102734000BD12368DA0708D5236962689A42DEBFA1
:10274400302305F8013C05F1FF35491B21612EE0DA
:1027540025681A68606915F0800F03D0151D1D6087
:10276400136808E015F0400F02F104051D601368BA
:1027740001D0188000E01860002323610D4616E0A4
:102784001A68111D1960156862682846002100F056
:1027940043F808B1401B6060636804E004F142053B
:1027A40084F8422001232361002384F84330CDF8C8
:1027B40000803046214603AA3B46FFF797FE0130CE
:1027C40002D14FF0FF301FE0304639462A462369D4
:1027D400C0470130F5D023689B0705D4E068039B0C
:1027E4009842B8BF18460FE00025E368039A9B1A85
:1027F4009D42F3DA3046394604F119020123C047F9
:102804000130DED00135F0E704B0BDE8F08100BF4F
:10281400BF2A0008D02A000810B5C9B20244904269
:10282400034606D01C788C4200F10100F7D118460B
:1028340010BD002010BD10B5431E0A44914204D0BF
:1028440011F8014B03F8014FF8E710BD814210B5B0
:1028540001EB020301D3421E0BE09842FBD2811824
:10286400D21AD34204D013F8014D01F8014DF8E710
:1028740010BD994204D011F8014B02F8014FF8E75A
:1028840010BD000030B500293DD051F8042C0B1FB9
:102894001D49002AB8BF9B180A680C4612B95A6031
:1028A4000B6030BD93420DD219685818904201BF95
:1028B4005A5852181A6042685A60236030BD9942CF
:1028C40003D80A4651680029F9D1146815199D42A4
:1028D4000AD11B682344D0188842136013D10868B6
:1028E400034413604B680DE002D90C23036030BD30
:1028F4001C681819884204BF08684968596004BFF5
:1029040000191860536030BD9000002070B5CC1CD5
:1029140024F0030408340C2C38BF0C24002C064685
:1029240003DA0C233360002070BD8C42F9D3204AB3
:10293400136810461946A1B10A68121B0ED40B2A5B
:1029440003D90A608B188C501FE08B420DBF5A6864
:102954004A685A60026018BF0B4616E00B46496885
:10296400E9E7144D2B681BB9304600F04BF828609A
:102974003046214600F046F8421C0346D1D0C51C1F
:1029840025F0030585420AD11C6003F10B001A1DD2
:1029940020F00700821A0AD05142995070BD304687
:1029A400E91A00F02FF80130BBD02B46ECE770BDDC
:1029B400900000208C000020F8B5074615460E460E
:1029C40021B91146BDE8F840FFF7A0BF1AB9FFF7D7
:1029D40059FF2846F8BD00F025F8A8420ED2384623
:1029E4002946FFF793FF044650B131462A46FFF7C4
:1029F40022FF38463146FFF745FF01E03046F8BD77
:102A04002046F8BD38B5064C002305460846236029
:102A140000F012F8431C02D1236803B12B6038BDC7
:102A2400CC01002051F8040C0028BEBF091851F84D
:102A3400043CC01804387047044A05491368002B45
:102A440008BF0B46184410601846704794000020D5
:102A5400D0010020F8B500BFF8BC08BC9E46704702
:0C2A6400F8B500BFF8BC08BC9E467047E7
:102A700041747474656E7A696F6E2C207A65737414
:102A800020626172746920210000000025643B25EA
:102A9000640A0000000000000000000001020304BE
:102AA0000607080900000000010203044300232D6B
:102AB000302B2000686C4C00656667454647003047
:102AC0003132333435363738394142434445460094
:102AD0003031323334353637383961626364656694
:042AE00000000000F2
:082AE400E8D7FF7F01000000AC
:042AEC0001020008DB
:042AF000D901000800
:102AF40010000000010000000024F40000000000A9
:102B040000000000000000000000000000000000C1
:102B1400000000000000000000000000AC2A0008D3
:102B240000000000000000000000000000000000A1
:102B34000000000000000000000000000000000091
:102B44000000000000000000000000000000000081
:102B54000000000000000000000000000C00002045
:04000005080021715D
:00000001FF
